{
	"contracts/Staking.sol": {
		"Staking": {
			"abi": [
				{
					"inputs": [
						{
							"internalType": "address",
							"name": "_token",
							"type": "address"
						}
					],
					"stateMutability": "nonpayable",
					"type": "constructor"
				},
				{
					"inputs": [
						{
							"internalType": "address",
							"name": "owner",
							"type": "address"
						}
					],
					"name": "OwnableInvalidOwner",
					"type": "error"
				},
				{
					"inputs": [
						{
							"internalType": "address",
							"name": "account",
							"type": "address"
						}
					],
					"name": "OwnableUnauthorizedAccount",
					"type": "error"
				},
				{
					"inputs": [],
					"name": "ReentrancyGuardReentrantCall",
					"type": "error"
				},
				{
					"anonymous": false,
					"inputs": [
						{
							"indexed": true,
							"internalType": "address",
							"name": "previousOwner",
							"type": "address"
						},
						{
							"indexed": true,
							"internalType": "address",
							"name": "newOwner",
							"type": "address"
						}
					],
					"name": "OwnershipTransferred",
					"type": "event"
				},
				{
					"inputs": [
						{
							"internalType": "address",
							"name": "user",
							"type": "address"
						}
					],
					"name": "calculateReward",
					"outputs": [
						{
							"internalType": "uint256",
							"name": "",
							"type": "uint256"
						}
					],
					"stateMutability": "view",
					"type": "function"
				},
				{
					"inputs": [],
					"name": "owner",
					"outputs": [
						{
							"internalType": "address",
							"name": "",
							"type": "address"
						}
					],
					"stateMutability": "view",
					"type": "function"
				},
				{
					"inputs": [],
					"name": "renounceOwnership",
					"outputs": [],
					"stateMutability": "nonpayable",
					"type": "function"
				},
				{
					"inputs": [],
					"name": "rewardRate",
					"outputs": [
						{
							"internalType": "uint256",
							"name": "",
							"type": "uint256"
						}
					],
					"stateMutability": "view",
					"type": "function"
				},
				{
					"inputs": [
						{
							"internalType": "uint256",
							"name": "_rate",
							"type": "uint256"
						}
					],
					"name": "setRewardRate",
					"outputs": [],
					"stateMutability": "nonpayable",
					"type": "function"
				},
				{
					"inputs": [
						{
							"internalType": "uint256",
							"name": "amount",
							"type": "uint256"
						}
					],
					"name": "stake",
					"outputs": [],
					"stateMutability": "nonpayable",
					"type": "function"
				},
				{
					"inputs": [
						{
							"internalType": "address",
							"name": "",
							"type": "address"
						}
					],
					"name": "stakedBalance",
					"outputs": [
						{
							"internalType": "uint256",
							"name": "",
							"type": "uint256"
						}
					],
					"stateMutability": "view",
					"type": "function"
				},
				{
					"inputs": [
						{
							"internalType": "address",
							"name": "",
							"type": "address"
						}
					],
					"name": "stakingTime",
					"outputs": [
						{
							"internalType": "uint256",
							"name": "",
							"type": "uint256"
						}
					],
					"stateMutability": "view",
					"type": "function"
				},
				{
					"inputs": [],
					"name": "stakingToken",
					"outputs": [
						{
							"internalType": "contract IERC20",
							"name": "",
							"type": "address"
						}
					],
					"stateMutability": "view",
					"type": "function"
				},
				{
					"inputs": [
						{
							"internalType": "address",
							"name": "newOwner",
							"type": "address"
						}
					],
					"name": "transferOwnership",
					"outputs": [],
					"stateMutability": "nonpayable",
					"type": "function"
				},
				{
					"inputs": [],
					"name": "unstake",
					"outputs": [],
					"stateMutability": "nonpayable",
					"type": "function"
				}
			],
			"devdoc": {
				"errors": {
					"OwnableInvalidOwner(address)": [
						{
							"details": "The owner is not a valid owner account. (eg. `address(0)`)"
						}
					],
					"OwnableUnauthorizedAccount(address)": [
						{
							"details": "The caller account is not authorized to perform an operation."
						}
					],
					"ReentrancyGuardReentrantCall()": [
						{
							"details": "Unauthorized reentrant call."
						}
					]
				},
				"kind": "dev",
				"methods": {
					"owner()": {
						"details": "Returns the address of the current owner."
					},
					"renounceOwnership()": {
						"details": "Leaves the contract without owner. It will not be possible to call `onlyOwner` functions. Can only be called by the current owner. NOTE: Renouncing ownership will leave the contract without an owner, thereby disabling any functionality that is only available to the owner."
					},
					"transferOwnership(address)": {
						"details": "Transfers ownership of the contract to a new account (`newOwner`). Can only be called by the current owner."
					}
				},
				"version": 1
			},
			"evm": {
				"assembly": "    /* \"contracts/Staking.sol\":236:1579  contract Staking is Ownable, ReentrancyGuard {... */\n  mstore(0x40, 0x80)\n    /* \"contracts/Staking.sol\":461:462  1 */\n  0x01\n    /* \"contracts/Staking.sol\":433:462  uint256 public rewardRate = 1 */\n  0x04\n  sstore\n    /* \"contracts/Staking.sol\":500:596  constructor(address _token) Ownable(msg.sender) {... */\n  callvalue\n  dup1\n  iszero\n  tag_1\n  jumpi\n  revert(0x00, 0x00)\ntag_1:\n  pop\n  mload(0x40)\n  sub(codesize, bytecodeSize)\n  dup1\n  bytecodeSize\n  dup4\n  codecopy\n  dup2\n  dup2\n  add\n  0x40\n  mstore\n  dup2\n  add\n  swap1\n  tag_2\n  swap2\n  swap1\n  tag_3\n  jump\t// in\ntag_2:\n    /* \"contracts/Staking.sol\":536:546  msg.sender */\n  caller\n    /* \"@openzeppelin/contracts/access/Ownable.sol\":1297:1298  0 */\n  0x00\n    /* \"@openzeppelin/contracts/access/Ownable.sol\":1273:1299  initialOwner == address(0) */\n  0xffffffffffffffffffffffffffffffffffffffff\n  and\n    /* \"@openzeppelin/contracts/access/Ownable.sol\":1273:1285  initialOwner */\n  dup2\n    /* \"@openzeppelin/contracts/access/Ownable.sol\":1273:1299  initialOwner == address(0) */\n  0xffffffffffffffffffffffffffffffffffffffff\n  and\n  sub\n    /* \"@openzeppelin/contracts/access/Ownable.sol\":1269:1364  if (initialOwner == address(0)) {... */\n  tag_8\n  jumpi\n    /* \"@openzeppelin/contracts/access/Ownable.sol\":1350:1351  0 */\n  0x00\n    /* \"@openzeppelin/contracts/access/Ownable.sol\":1322:1353  OwnableInvalidOwner(address(0)) */\n  mload(0x40)\n  0x1e4fbdf700000000000000000000000000000000000000000000000000000000\n  dup2\n  mstore\n  0x04\n  add\n  tag_9\n  swap2\n  swap1\n  tag_10\n  jump\t// in\ntag_9:\n  mload(0x40)\n  dup1\n  swap2\n  sub\n  swap1\n  revert\n    /* \"@openzeppelin/contracts/access/Ownable.sol\":1269:1364  if (initialOwner == address(0)) {... */\ntag_8:\n    /* \"@openzeppelin/contracts/access/Ownable.sol\":1373:1405  _transferOwnership(initialOwner) */\n  tag_11\n    /* \"@openzeppelin/contracts/access/Ownable.sol\":1392:1404  initialOwner */\n  dup2\n    /* \"@openzeppelin/contracts/access/Ownable.sol\":1373:1391  _transferOwnership */\n  shl(0x20, tag_12)\n    /* \"@openzeppelin/contracts/access/Ownable.sol\":1373:1405  _transferOwnership(initialOwner) */\n  0x20\n  shr\n  jump\t// in\ntag_11:\n    /* \"@openzeppelin/contracts/access/Ownable.sol\":1225:1412  constructor(address initialOwner) {... */\n  pop\n    /* \"@openzeppelin/contracts/utils/ReentrancyGuard.sol\":2365:2366  1 */\n  0x01\n    /* \"@openzeppelin/contracts/utils/ReentrancyGuard.sol\":2539:2585  _reentrancyGuardStorageSlot().getUint256Slot() */\n  tag_14\n    /* \"@openzeppelin/contracts/utils/ReentrancyGuard.sol\":2539:2568  _reentrancyGuardStorageSlot() */\n  tag_15\n    /* \"@openzeppelin/contracts/utils/ReentrancyGuard.sol\":2539:2566  _reentrancyGuardStorageSlot */\n  shl(0x20, tag_16)\n    /* \"@openzeppelin/contracts/utils/ReentrancyGuard.sol\":2539:2568  _reentrancyGuardStorageSlot() */\n  0x20\n  shr\n  jump\t// in\ntag_15:\n    /* \"@openzeppelin/contracts/utils/ReentrancyGuard.sol\":2539:2583  _reentrancyGuardStorageSlot().getUint256Slot */\n  shl(0x20, tag_17)\n    /* \"@openzeppelin/contracts/utils/ReentrancyGuard.sol\":2539:2585  _reentrancyGuardStorageSlot().getUint256Slot() */\n  0x20\n  shr\n  jump\t// in\ntag_14:\n    /* \"@openzeppelin/contracts/utils/ReentrancyGuard.sol\":2539:2591  _reentrancyGuardStorageSlot().getUint256Slot().value */\n  0x00\n  add\n    /* \"@openzeppelin/contracts/utils/ReentrancyGuard.sol\":2539:2605  _reentrancyGuardStorageSlot().getUint256Slot().value = NOT_ENTERED */\n  dup2\n  swap1\n  sstore\n  pop\n    /* \"contracts/Staking.sol\":581:587  _token */\n  dup1\n    /* \"contracts/Staking.sol\":559:571  stakingToken */\n  0x01\n  0x00\n    /* \"contracts/Staking.sol\":559:588  stakingToken = IERC20(_token) */\n  0x0100\n  exp\n  dup2\n  sload\n  dup2\n  0xffffffffffffffffffffffffffffffffffffffff\n  mul\n  not\n  and\n  swap1\n  dup4\n  0xffffffffffffffffffffffffffffffffffffffff\n  and\n  mul\n  or\n  swap1\n  sstore\n  pop\n    /* \"contracts/Staking.sol\":500:596  constructor(address _token) Ownable(msg.sender) {... */\n  pop\n    /* \"contracts/Staking.sol\":236:1579  contract Staking is Ownable, ReentrancyGuard {... */\n  jump(tag_19)\n    /* \"@openzeppelin/contracts/access/Ownable.sol\":2912:3099  function _transferOwnership(address newOwner) internal virtual {... */\ntag_12:\n    /* \"@openzeppelin/contracts/access/Ownable.sol\":2985:3001  address oldOwner */\n  0x00\n    /* \"@openzeppelin/contracts/access/Ownable.sol\":3004:3010  _owner */\n  0x00\n  0x00\n  swap1\n  sload\n  swap1\n  0x0100\n  exp\n  swap1\n  div\n  0xffffffffffffffffffffffffffffffffffffffff\n  and\n    /* \"@openzeppelin/contracts/access/Ownable.sol\":2985:3010  address oldOwner = _owner */\n  swap1\n  pop\n    /* \"@openzeppelin/contracts/access/Ownable.sol\":3029:3037  newOwner */\n  dup2\n    /* \"@openzeppelin/contracts/access/Ownable.sol\":3020:3026  _owner */\n  0x00\n  0x00\n    /* \"@openzeppelin/contracts/access/Ownable.sol\":3020:3037  _owner = newOwner */\n  0x0100\n  exp\n  dup2\n  sload\n  dup2\n  0xffffffffffffffffffffffffffffffffffffffff\n  mul\n  not\n  and\n  swap1\n  dup4\n  0xffffffffffffffffffffffffffffffffffffffff\n  and\n  mul\n  or\n  swap1\n  sstore\n  pop\n    /* \"@openzeppelin/contracts/access/Ownable.sol\":3083:3091  newOwner */\n  dup2\n    /* \"@openzeppelin/contracts/access/Ownable.sol\":3052:3092  OwnershipTransferred(oldOwner, newOwner) */\n  0xffffffffffffffffffffffffffffffffffffffff\n  and\n    /* \"@openzeppelin/contracts/access/Ownable.sol\":3073:3081  oldOwner */\n  dup2\n    /* \"@openzeppelin/contracts/access/Ownable.sol\":3052:3092  OwnershipTransferred(oldOwner, newOwner) */\n  0xffffffffffffffffffffffffffffffffffffffff\n  and\n  0x8be0079c531659141344cd1fd0a4f28419497f9722a3daafe3b4186f6b6457e0\n  mload(0x40)\n  mload(0x40)\n  dup1\n  swap2\n  sub\n  swap1\n  log3\n    /* \"@openzeppelin/contracts/access/Ownable.sol\":2975:3099  {... */\n  pop\n    /* \"@openzeppelin/contracts/access/Ownable.sol\":2912:3099  function _transferOwnership(address newOwner) internal virtual {... */\n  pop\n  jump\t// out\n    /* \"@openzeppelin/contracts/utils/ReentrancyGuard.sol\":4636:4763  function _reentrancyGuardStorageSlot() internal pure virtual returns (bytes32) {... */\ntag_16:\n    /* \"@openzeppelin/contracts/utils/ReentrancyGuard.sol\":4706:4713  bytes32 */\n  0x00\n    /* \"@openzeppelin/contracts/utils/ReentrancyGuard.sol\":1505:1571  0x9b779b17422d0df92223018b32b4d1fa46e071723d6817e2486d003becc55f00 */\n  0x9b779b17422d0df92223018b32b4d1fa46e071723d6817e2486d003becc55f00\n    /* \"@openzeppelin/contracts/utils/ReentrancyGuard.sol\":4732:4756  REENTRANCY_GUARD_STORAGE */\n  0x00\n  shl\n    /* \"@openzeppelin/contracts/utils/ReentrancyGuard.sol\":4725:4756  return REENTRANCY_GUARD_STORAGE */\n  swap1\n  pop\n    /* \"@openzeppelin/contracts/utils/ReentrancyGuard.sol\":4636:4763  function _reentrancyGuardStorageSlot() internal pure virtual returns (bytes32) {... */\n  swap1\n  jump\t// out\n    /* \"@openzeppelin/contracts/utils/StorageSlot.sol\":2679:2842  function getUint256Slot(bytes32 slot) internal pure returns (Uint256Slot storage r) {... */\ntag_17:\n    /* \"@openzeppelin/contracts/utils/StorageSlot.sol\":2740:2761  Uint256Slot storage r */\n  0x00\n    /* \"@openzeppelin/contracts/utils/StorageSlot.sol\":2822:2826  slot */\n  dup2\n    /* \"@openzeppelin/contracts/utils/StorageSlot.sol\":2812:2826  r.slot := slot */\n  swap1\n  pop\n    /* \"@openzeppelin/contracts/utils/StorageSlot.sol\":2679:2842  function getUint256Slot(bytes32 slot) internal pure returns (Uint256Slot storage r) {... */\n  swap2\n  swap1\n  pop\n  jump\t// out\n    /* \"#utility.yul\":88:205   */\ntag_24:\n    /* \"#utility.yul\":197:198   */\n  0x00\n    /* \"#utility.yul\":194:195   */\n  0x00\n    /* \"#utility.yul\":187:199   */\n  revert\n    /* \"#utility.yul\":334:460   */\ntag_26:\n    /* \"#utility.yul\":371:378   */\n  0x00\n    /* \"#utility.yul\":411:453   */\n  0xffffffffffffffffffffffffffffffffffffffff\n    /* \"#utility.yul\":404:409   */\n  dup3\n    /* \"#utility.yul\":400:454   */\n  and\n    /* \"#utility.yul\":389:454   */\n  swap1\n  pop\n    /* \"#utility.yul\":334:460   */\n  swap2\n  swap1\n  pop\n  jump\t// out\n    /* \"#utility.yul\":466:562   */\ntag_27:\n    /* \"#utility.yul\":503:510   */\n  0x00\n    /* \"#utility.yul\":532:556   */\n  tag_37\n    /* \"#utility.yul\":550:555   */\n  dup3\n    /* \"#utility.yul\":532:556   */\n  tag_26\n  jump\t// in\ntag_37:\n    /* \"#utility.yul\":521:556   */\n  swap1\n  pop\n    /* \"#utility.yul\":466:562   */\n  swap2\n  swap1\n  pop\n  jump\t// out\n    /* \"#utility.yul\":568:690   */\ntag_28:\n    /* \"#utility.yul\":641:665   */\n  tag_39\n    /* \"#utility.yul\":659:664   */\n  dup2\n    /* \"#utility.yul\":641:665   */\n  tag_27\n  jump\t// in\ntag_39:\n    /* \"#utility.yul\":634:639   */\n  dup2\n    /* \"#utility.yul\":631:666   */\n  eq\n    /* \"#utility.yul\":621:684   */\n  tag_40\n  jumpi\n    /* \"#utility.yul\":680:681   */\n  0x00\n    /* \"#utility.yul\":677:678   */\n  0x00\n    /* \"#utility.yul\":670:682   */\n  revert\n    /* \"#utility.yul\":621:684   */\ntag_40:\n    /* \"#utility.yul\":568:690   */\n  pop\n  jump\t// out\n    /* \"#utility.yul\":696:839   */\ntag_29:\n    /* \"#utility.yul\":753:758   */\n  0x00\n    /* \"#utility.yul\":784:790   */\n  dup2\n    /* \"#utility.yul\":778:791   */\n  mload\n    /* \"#utility.yul\":769:791   */\n  swap1\n  pop\n    /* \"#utility.yul\":800:833   */\n  tag_42\n    /* \"#utility.yul\":827:832   */\n  dup2\n    /* \"#utility.yul\":800:833   */\n  tag_28\n  jump\t// in\ntag_42:\n    /* \"#utility.yul\":696:839   */\n  swap3\n  swap2\n  pop\n  pop\n  jump\t// out\n    /* \"#utility.yul\":845:1196   */\ntag_3:\n    /* \"#utility.yul\":915:921   */\n  0x00\n    /* \"#utility.yul\":964:966   */\n  0x20\n    /* \"#utility.yul\":952:961   */\n  dup3\n    /* \"#utility.yul\":943:950   */\n  dup5\n    /* \"#utility.yul\":939:962   */\n  sub\n    /* \"#utility.yul\":935:967   */\n  slt\n    /* \"#utility.yul\":932:1051   */\n  iszero\n  tag_44\n  jumpi\n    /* \"#utility.yul\":970:1049   */\n  tag_45\n  tag_24\n  jump\t// in\ntag_45:\n    /* \"#utility.yul\":932:1051   */\ntag_44:\n    /* \"#utility.yul\":1090:1091   */\n  0x00\n    /* \"#utility.yul\":1115:1179   */\n  tag_46\n    /* \"#utility.yul\":1171:1178   */\n  dup5\n    /* \"#utility.yul\":1162:1168   */\n  dup3\n    /* \"#utility.yul\":1151:1160   */\n  dup6\n    /* \"#utility.yul\":1147:1169   */\n  add\n    /* \"#utility.yul\":1115:1179   */\n  tag_29\n  jump\t// in\ntag_46:\n    /* \"#utility.yul\":1105:1179   */\n  swap2\n  pop\n    /* \"#utility.yul\":1061:1189   */\n  pop\n    /* \"#utility.yul\":845:1196   */\n  swap3\n  swap2\n  pop\n  pop\n  jump\t// out\n    /* \"#utility.yul\":1202:1320   */\ntag_30:\n    /* \"#utility.yul\":1289:1313   */\n  tag_48\n    /* \"#utility.yul\":1307:1312   */\n  dup2\n    /* \"#utility.yul\":1289:1313   */\n  tag_27\n  jump\t// in\ntag_48:\n    /* \"#utility.yul\":1284:1287   */\n  dup3\n    /* \"#utility.yul\":1277:1314   */\n  mstore\n    /* \"#utility.yul\":1202:1320   */\n  pop\n  pop\n  jump\t// out\n    /* \"#utility.yul\":1326:1548   */\ntag_10:\n    /* \"#utility.yul\":1419:1423   */\n  0x00\n    /* \"#utility.yul\":1457:1459   */\n  0x20\n    /* \"#utility.yul\":1446:1455   */\n  dup3\n    /* \"#utility.yul\":1442:1460   */\n  add\n    /* \"#utility.yul\":1434:1460   */\n  swap1\n  pop\n    /* \"#utility.yul\":1470:1541   */\n  tag_50\n    /* \"#utility.yul\":1538:1539   */\n  0x00\n    /* \"#utility.yul\":1527:1536   */\n  dup4\n    /* \"#utility.yul\":1523:1540   */\n  add\n    /* \"#utility.yul\":1514:1520   */\n  dup5\n    /* \"#utility.yul\":1470:1541   */\n  tag_30\n  jump\t// in\ntag_50:\n    /* \"#utility.yul\":1326:1548   */\n  swap3\n  swap2\n  pop\n  pop\n  jump\t// out\n    /* \"contracts/Staking.sol\":236:1579  contract Staking is Ownable, ReentrancyGuard {... */\ntag_19:\n  dataSize(sub_0)\n  dup1\n  dataOffset(sub_0)\n  0x00\n  codecopy\n  0x00\n  return\nstop\n\nsub_0: assembly {\n        /* \"contracts/Staking.sol\":236:1579  contract Staking is Ownable, ReentrancyGuard {... */\n      mstore(0x40, 0x80)\n      callvalue\n      dup1\n      iszero\n      tag_1\n      jumpi\n      revert(0x00, 0x00)\n    tag_1:\n      pop\n      jumpi(tag_2, lt(calldatasize, 0x04))\n      shr(0xe0, calldataload(0x00))\n      dup1\n      0x7b0a47ee\n      gt\n      tag_14\n      jumpi\n      dup1\n      0x7b0a47ee\n      eq\n      tag_8\n      jumpi\n      dup1\n      0x8da5cb5b\n      eq\n      tag_9\n      jumpi\n      dup1\n      0x9e447fc6\n      eq\n      tag_10\n      jumpi\n      dup1\n      0xa694fc3a\n      eq\n      tag_11\n      jumpi\n      dup1\n      0xd82e3962\n      eq\n      tag_12\n      jumpi\n      dup1\n      0xf2fde38b\n      eq\n      tag_13\n      jumpi\n      jump(tag_2)\n    tag_14:\n      dup1\n      0x2def6620\n      eq\n      tag_3\n      jumpi\n      dup1\n      0x583d42fd\n      eq\n      tag_4\n      jumpi\n      dup1\n      0x60217267\n      eq\n      tag_5\n      jumpi\n      dup1\n      0x715018a6\n      eq\n      tag_6\n      jumpi\n      dup1\n      0x72f702f3\n      eq\n      tag_7\n      jumpi\n    tag_2:\n      revert(0x00, 0x00)\n        /* \"contracts/Staking.sol\":894:1250  function unstake() external nonReentrant {... */\n    tag_3:\n      tag_15\n      tag_16\n      jump\t// in\n    tag_15:\n      stop\n        /* \"contracts/Staking.sol\":378:424  mapping(address => uint256) public stakingTime */\n    tag_4:\n      tag_17\n      0x04\n      dup1\n      calldatasize\n      sub\n      dup2\n      add\n      swap1\n      tag_18\n      swap2\n      swap1\n      tag_19\n      jump\t// in\n    tag_18:\n      tag_20\n      jump\t// in\n    tag_17:\n      mload(0x40)\n      tag_21\n      swap2\n      swap1\n      tag_22\n      jump\t// in\n    tag_21:\n      mload(0x40)\n      dup1\n      swap2\n      sub\n      swap1\n      return\n        /* \"contracts/Staking.sol\":323:371  mapping(address => uint256) public stakedBalance */\n    tag_5:\n      tag_23\n      0x04\n      dup1\n      calldatasize\n      sub\n      dup2\n      add\n      swap1\n      tag_24\n      swap2\n      swap1\n      tag_19\n      jump\t// in\n    tag_24:\n      tag_25\n      jump\t// in\n    tag_23:\n      mload(0x40)\n      tag_26\n      swap2\n      swap1\n      tag_22\n      jump\t// in\n    tag_26:\n      mload(0x40)\n      dup1\n      swap2\n      sub\n      swap1\n      return\n        /* \"@openzeppelin/contracts/access/Ownable.sol\":2293:2394  function renounceOwnership() public virtual onlyOwner {... */\n    tag_6:\n      tag_27\n      tag_28\n      jump\t// in\n    tag_27:\n      stop\n        /* \"contracts/Staking.sol\":288:314  IERC20 public stakingToken */\n    tag_7:\n      tag_29\n      tag_30\n      jump\t// in\n    tag_29:\n      mload(0x40)\n      tag_31\n      swap2\n      swap1\n      tag_32\n      jump\t// in\n    tag_31:\n      mload(0x40)\n      dup1\n      swap2\n      sub\n      swap1\n      return\n        /* \"contracts/Staking.sol\":433:462  uint256 public rewardRate = 1 */\n    tag_8:\n      tag_33\n      tag_34\n      jump\t// in\n    tag_33:\n      mload(0x40)\n      tag_35\n      swap2\n      swap1\n      tag_22\n      jump\t// in\n    tag_35:\n      mload(0x40)\n      dup1\n      swap2\n      sub\n      swap1\n      return\n        /* \"@openzeppelin/contracts/access/Ownable.sol\":1638:1723  function owner() public view virtual returns (address) {... */\n    tag_9:\n      tag_36\n      tag_37\n      jump\t// in\n    tag_36:\n      mload(0x40)\n      tag_38\n      swap2\n      swap1\n      tag_39\n      jump\t// in\n    tag_38:\n      mload(0x40)\n      dup1\n      swap2\n      sub\n      swap1\n      return\n        /* \"contracts/Staking.sol\":1482:1576  function setRewardRate(uint256 _rate) external onlyOwner {... */\n    tag_10:\n      tag_40\n      0x04\n      dup1\n      calldatasize\n      sub\n      dup2\n      add\n      swap1\n      tag_41\n      swap2\n      swap1\n      tag_42\n      jump\t// in\n    tag_41:\n      tag_43\n      jump\t// in\n    tag_40:\n      stop\n        /* \"contracts/Staking.sol\":604:886  function stake(uint256 amount) external nonReentrant {... */\n    tag_11:\n      tag_44\n      0x04\n      dup1\n      calldatasize\n      sub\n      dup2\n      add\n      swap1\n      tag_45\n      swap2\n      swap1\n      tag_42\n      jump\t// in\n    tag_45:\n      tag_46\n      jump\t// in\n    tag_44:\n      stop\n        /* \"contracts/Staking.sol\":1258:1474  function calculateReward(address user) public view returns (uint256) {... */\n    tag_12:\n      tag_47\n      0x04\n      dup1\n      calldatasize\n      sub\n      dup2\n      add\n      swap1\n      tag_48\n      swap2\n      swap1\n      tag_19\n      jump\t// in\n    tag_48:\n      tag_49\n      jump\t// in\n    tag_47:\n      mload(0x40)\n      tag_50\n      swap2\n      swap1\n      tag_22\n      jump\t// in\n    tag_50:\n      mload(0x40)\n      dup1\n      swap2\n      sub\n      swap1\n      return\n        /* \"@openzeppelin/contracts/access/Ownable.sol\":2543:2758  function transferOwnership(address newOwner) public virtual onlyOwner {... */\n    tag_13:\n      tag_51\n      0x04\n      dup1\n      calldatasize\n      sub\n      dup2\n      add\n      swap1\n      tag_52\n      swap2\n      swap1\n      tag_19\n      jump\t// in\n    tag_52:\n      tag_53\n      jump\t// in\n    tag_51:\n      stop\n        /* \"contracts/Staking.sol\":894:1250  function unstake() external nonReentrant {... */\n    tag_16:\n        /* \"@openzeppelin/contracts/utils/ReentrancyGuard.sol\":3023:3044  _nonReentrantBefore() */\n      tag_55\n        /* \"@openzeppelin/contracts/utils/ReentrancyGuard.sol\":3023:3042  _nonReentrantBefore */\n      tag_56\n        /* \"@openzeppelin/contracts/utils/ReentrancyGuard.sol\":3023:3044  _nonReentrantBefore() */\n      jump\t// in\n    tag_55:\n        /* \"contracts/Staking.sol\":946:961  uint256 balance */\n      0x00\n        /* \"contracts/Staking.sol\":964:977  stakedBalance */\n      0x02\n        /* \"contracts/Staking.sol\":964:989  stakedBalance[msg.sender] */\n      0x00\n        /* \"contracts/Staking.sol\":978:988  msg.sender */\n      caller\n        /* \"contracts/Staking.sol\":964:989  stakedBalance[msg.sender] */\n      0xffffffffffffffffffffffffffffffffffffffff\n      and\n      0xffffffffffffffffffffffffffffffffffffffff\n      and\n      dup2\n      mstore\n      0x20\n      add\n      swap1\n      dup2\n      mstore\n      0x20\n      add\n      0x00\n      keccak256\n      sload\n        /* \"contracts/Staking.sol\":946:989  uint256 balance = stakedBalance[msg.sender] */\n      swap1\n      pop\n        /* \"contracts/Staking.sol\":1018:1019  0 */\n      0x00\n        /* \"contracts/Staking.sol\":1008:1015  balance */\n      dup2\n        /* \"contracts/Staking.sol\":1008:1019  balance > 0 */\n      gt\n        /* \"contracts/Staking.sol\":1000:1041  require(balance > 0, \"Nada para retirar\") */\n      tag_58\n      jumpi\n      mload(0x40)\n      0x08c379a000000000000000000000000000000000000000000000000000000000\n      dup2\n      mstore\n      0x04\n      add\n      tag_59\n      swap1\n      tag_60\n      jump\t// in\n    tag_59:\n      mload(0x40)\n      dup1\n      swap2\n      sub\n      swap1\n      revert\n    tag_58:\n        /* \"contracts/Staking.sol\":1054:1068  uint256 reward */\n      0x00\n        /* \"contracts/Staking.sol\":1071:1098  calculateReward(msg.sender) */\n      tag_61\n        /* \"contracts/Staking.sol\":1087:1097  msg.sender */\n      caller\n        /* \"contracts/Staking.sol\":1071:1086  calculateReward */\n      tag_49\n        /* \"contracts/Staking.sol\":1071:1098  calculateReward(msg.sender) */\n      jump\t// in\n    tag_61:\n        /* \"contracts/Staking.sol\":1054:1098  uint256 reward = calculateReward(msg.sender) */\n      swap1\n      pop\n        /* \"contracts/Staking.sol\":1139:1140  0 */\n      0x00\n        /* \"contracts/Staking.sol\":1111:1124  stakedBalance */\n      0x02\n        /* \"contracts/Staking.sol\":1111:1136  stakedBalance[msg.sender] */\n      0x00\n        /* \"contracts/Staking.sol\":1125:1135  msg.sender */\n      caller\n        /* \"contracts/Staking.sol\":1111:1136  stakedBalance[msg.sender] */\n      0xffffffffffffffffffffffffffffffffffffffff\n      and\n      0xffffffffffffffffffffffffffffffffffffffff\n      and\n      dup2\n      mstore\n      0x20\n      add\n      swap1\n      dup2\n      mstore\n      0x20\n      add\n      0x00\n      keccak256\n        /* \"contracts/Staking.sol\":1111:1140  stakedBalance[msg.sender] = 0 */\n      dup2\n      swap1\n      sstore\n      pop\n        /* \"contracts/Staking.sol\":1177:1178  0 */\n      0x00\n        /* \"contracts/Staking.sol\":1151:1162  stakingTime */\n      0x03\n        /* \"contracts/Staking.sol\":1151:1174  stakingTime[msg.sender] */\n      0x00\n        /* \"contracts/Staking.sol\":1163:1173  msg.sender */\n      caller\n        /* \"contracts/Staking.sol\":1151:1174  stakingTime[msg.sender] */\n      0xffffffffffffffffffffffffffffffffffffffff\n      and\n      0xffffffffffffffffffffffffffffffffffffffff\n      and\n      dup2\n      mstore\n      0x20\n      add\n      swap1\n      dup2\n      mstore\n      0x20\n      add\n      0x00\n      keccak256\n        /* \"contracts/Staking.sol\":1151:1178  stakingTime[msg.sender] = 0 */\n      dup2\n      swap1\n      sstore\n      pop\n        /* \"contracts/Staking.sol\":1191:1203  stakingToken */\n      0x01\n      0x00\n      swap1\n      sload\n      swap1\n      0x0100\n      exp\n      swap1\n      div\n      0xffffffffffffffffffffffffffffffffffffffff\n      and\n        /* \"contracts/Staking.sol\":1191:1212  stakingToken.transfer */\n      0xffffffffffffffffffffffffffffffffffffffff\n      and\n      0xa9059cbb\n        /* \"contracts/Staking.sol\":1213:1223  msg.sender */\n      caller\n        /* \"contracts/Staking.sol\":1235:1241  reward */\n      dup4\n        /* \"contracts/Staking.sol\":1225:1232  balance */\n      dup6\n        /* \"contracts/Staking.sol\":1225:1241  balance + reward */\n      tag_62\n      swap2\n      swap1\n      tag_63\n      jump\t// in\n    tag_62:\n        /* \"contracts/Staking.sol\":1191:1242  stakingToken.transfer(msg.sender, balance + reward) */\n      mload(0x40)\n      dup4\n      0xffffffff\n      and\n      0xe0\n      shl\n      dup2\n      mstore\n      0x04\n      add\n      tag_64\n      swap3\n      swap2\n      swap1\n      tag_65\n      jump\t// in\n    tag_64:\n      0x20\n      mload(0x40)\n      dup1\n      dup4\n      sub\n      dup2\n      0x00\n      dup8\n      gas\n      call\n      iszero\n      dup1\n      iszero\n      tag_67\n      jumpi\n      returndatacopy(0x00, 0x00, returndatasize)\n      revert(0x00, returndatasize)\n    tag_67:\n      pop\n      pop\n      pop\n      pop\n      mload(0x40)\n      returndatasize\n      not(0x1f)\n      0x1f\n      dup3\n      add\n      and\n      dup3\n      add\n      dup1\n      0x40\n      mstore\n      pop\n      dup2\n      add\n      swap1\n      tag_68\n      swap2\n      swap1\n      tag_69\n      jump\t// in\n    tag_68:\n      pop\n        /* \"contracts/Staking.sol\":935:1250  {... */\n      pop\n      pop\n        /* \"@openzeppelin/contracts/utils/ReentrancyGuard.sol\":3065:3085  _nonReentrantAfter() */\n      tag_70\n        /* \"@openzeppelin/contracts/utils/ReentrancyGuard.sol\":3065:3083  _nonReentrantAfter */\n      tag_71\n        /* \"@openzeppelin/contracts/utils/ReentrancyGuard.sol\":3065:3085  _nonReentrantAfter() */\n      jump\t// in\n    tag_70:\n        /* \"contracts/Staking.sol\":894:1250  function unstake() external nonReentrant {... */\n      jump\t// out\n        /* \"contracts/Staking.sol\":378:424  mapping(address => uint256) public stakingTime */\n    tag_20:\n      mstore(0x20, 0x03)\n      dup1\n      0x00\n      mstore\n      keccak256(0x00, 0x40)\n      0x00\n      swap2\n      pop\n      swap1\n      pop\n      sload\n      dup2\n      jump\t// out\n        /* \"contracts/Staking.sol\":323:371  mapping(address => uint256) public stakedBalance */\n    tag_25:\n      mstore(0x20, 0x02)\n      dup1\n      0x00\n      mstore\n      keccak256(0x00, 0x40)\n      0x00\n      swap2\n      pop\n      swap1\n      pop\n      sload\n      dup2\n      jump\t// out\n        /* \"@openzeppelin/contracts/access/Ownable.sol\":2293:2394  function renounceOwnership() public virtual onlyOwner {... */\n    tag_28:\n        /* \"@openzeppelin/contracts/access/Ownable.sol\":1531:1544  _checkOwner() */\n      tag_73\n        /* \"@openzeppelin/contracts/access/Ownable.sol\":1531:1542  _checkOwner */\n      tag_74\n        /* \"@openzeppelin/contracts/access/Ownable.sol\":1531:1544  _checkOwner() */\n      jump\t// in\n    tag_73:\n        /* \"@openzeppelin/contracts/access/Ownable.sol\":2357:2387  _transferOwnership(address(0)) */\n      tag_76\n        /* \"@openzeppelin/contracts/access/Ownable.sol\":2384:2385  0 */\n      0x00\n        /* \"@openzeppelin/contracts/access/Ownable.sol\":2357:2375  _transferOwnership */\n      tag_77\n        /* \"@openzeppelin/contracts/access/Ownable.sol\":2357:2387  _transferOwnership(address(0)) */\n      jump\t// in\n    tag_76:\n        /* \"@openzeppelin/contracts/access/Ownable.sol\":2293:2394  function renounceOwnership() public virtual onlyOwner {... */\n      jump\t// out\n        /* \"contracts/Staking.sol\":288:314  IERC20 public stakingToken */\n    tag_30:\n      0x01\n      0x00\n      swap1\n      sload\n      swap1\n      0x0100\n      exp\n      swap1\n      div\n      0xffffffffffffffffffffffffffffffffffffffff\n      and\n      dup2\n      jump\t// out\n        /* \"contracts/Staking.sol\":433:462  uint256 public rewardRate = 1 */\n    tag_34:\n      sload(0x04)\n      dup2\n      jump\t// out\n        /* \"@openzeppelin/contracts/access/Ownable.sol\":1638:1723  function owner() public view virtual returns (address) {... */\n    tag_37:\n        /* \"@openzeppelin/contracts/access/Ownable.sol\":1684:1691  address */\n      0x00\n        /* \"@openzeppelin/contracts/access/Ownable.sol\":1710:1716  _owner */\n      0x00\n      0x00\n      swap1\n      sload\n      swap1\n      0x0100\n      exp\n      swap1\n      div\n      0xffffffffffffffffffffffffffffffffffffffff\n      and\n        /* \"@openzeppelin/contracts/access/Ownable.sol\":1703:1716  return _owner */\n      swap1\n      pop\n        /* \"@openzeppelin/contracts/access/Ownable.sol\":1638:1723  function owner() public view virtual returns (address) {... */\n      swap1\n      jump\t// out\n        /* \"contracts/Staking.sol\":1482:1576  function setRewardRate(uint256 _rate) external onlyOwner {... */\n    tag_43:\n        /* \"@openzeppelin/contracts/access/Ownable.sol\":1531:1544  _checkOwner() */\n      tag_80\n        /* \"@openzeppelin/contracts/access/Ownable.sol\":1531:1542  _checkOwner */\n      tag_74\n        /* \"@openzeppelin/contracts/access/Ownable.sol\":1531:1544  _checkOwner() */\n      jump\t// in\n    tag_80:\n        /* \"contracts/Staking.sol\":1563:1568  _rate */\n      dup1\n        /* \"contracts/Staking.sol\":1550:1560  rewardRate */\n      0x04\n        /* \"contracts/Staking.sol\":1550:1568  rewardRate = _rate */\n      dup2\n      swap1\n      sstore\n      pop\n        /* \"contracts/Staking.sol\":1482:1576  function setRewardRate(uint256 _rate) external onlyOwner {... */\n      pop\n      jump\t// out\n        /* \"contracts/Staking.sol\":604:886  function stake(uint256 amount) external nonReentrant {... */\n    tag_46:\n        /* \"@openzeppelin/contracts/utils/ReentrancyGuard.sol\":3023:3044  _nonReentrantBefore() */\n      tag_83\n        /* \"@openzeppelin/contracts/utils/ReentrancyGuard.sol\":3023:3042  _nonReentrantBefore */\n      tag_56\n        /* \"@openzeppelin/contracts/utils/ReentrancyGuard.sol\":3023:3044  _nonReentrantBefore() */\n      jump\t// in\n    tag_83:\n        /* \"contracts/Staking.sol\":685:686  0 */\n      0x00\n        /* \"contracts/Staking.sol\":676:682  amount */\n      dup2\n        /* \"contracts/Staking.sol\":676:686  amount > 0 */\n      gt\n        /* \"contracts/Staking.sol\":668:705  require(amount > 0, \"Valor invalido\") */\n      tag_85\n      jumpi\n      mload(0x40)\n      0x08c379a000000000000000000000000000000000000000000000000000000000\n      dup2\n      mstore\n      0x04\n      add\n      tag_86\n      swap1\n      tag_87\n      jump\t// in\n    tag_86:\n      mload(0x40)\n      dup1\n      swap2\n      sub\n      swap1\n      revert\n    tag_85:\n        /* \"contracts/Staking.sol\":718:730  stakingToken */\n      0x01\n      0x00\n      swap1\n      sload\n      swap1\n      0x0100\n      exp\n      swap1\n      div\n      0xffffffffffffffffffffffffffffffffffffffff\n      and\n        /* \"contracts/Staking.sol\":718:743  stakingToken.transferFrom */\n      0xffffffffffffffffffffffffffffffffffffffff\n      and\n      0x23b872dd\n        /* \"contracts/Staking.sol\":744:754  msg.sender */\n      caller\n        /* \"contracts/Staking.sol\":764:768  this */\n      address\n        /* \"contracts/Staking.sol\":771:777  amount */\n      dup5\n        /* \"contracts/Staking.sol\":718:778  stakingToken.transferFrom(msg.sender, address(this), amount) */\n      mload(0x40)\n      dup5\n      0xffffffff\n      and\n      0xe0\n      shl\n      dup2\n      mstore\n      0x04\n      add\n      tag_88\n      swap4\n      swap3\n      swap2\n      swap1\n      tag_89\n      jump\t// in\n    tag_88:\n      0x20\n      mload(0x40)\n      dup1\n      dup4\n      sub\n      dup2\n      0x00\n      dup8\n      gas\n      call\n      iszero\n      dup1\n      iszero\n      tag_91\n      jumpi\n      returndatacopy(0x00, 0x00, returndatasize)\n      revert(0x00, returndatasize)\n    tag_91:\n      pop\n      pop\n      pop\n      pop\n      mload(0x40)\n      returndatasize\n      not(0x1f)\n      0x1f\n      dup3\n      add\n      and\n      dup3\n      add\n      dup1\n      0x40\n      mstore\n      pop\n      dup2\n      add\n      swap1\n      tag_92\n      swap2\n      swap1\n      tag_69\n      jump\t// in\n    tag_92:\n      pop\n        /* \"contracts/Staking.sol\":820:826  amount */\n      dup1\n        /* \"contracts/Staking.sol\":791:804  stakedBalance */\n      0x02\n        /* \"contracts/Staking.sol\":791:816  stakedBalance[msg.sender] */\n      0x00\n        /* \"contracts/Staking.sol\":805:815  msg.sender */\n      caller\n        /* \"contracts/Staking.sol\":791:816  stakedBalance[msg.sender] */\n      0xffffffffffffffffffffffffffffffffffffffff\n      and\n      0xffffffffffffffffffffffffffffffffffffffff\n      and\n      dup2\n      mstore\n      0x20\n      add\n      swap1\n      dup2\n      mstore\n      0x20\n      add\n      0x00\n      keccak256\n      0x00\n        /* \"contracts/Staking.sol\":791:826  stakedBalance[msg.sender] += amount */\n      dup3\n      dup3\n      sload\n      tag_93\n      swap2\n      swap1\n      tag_63\n      jump\t// in\n    tag_93:\n      swap3\n      pop\n      pop\n      dup2\n      swap1\n      sstore\n      pop\n        /* \"contracts/Staking.sol\":863:878  block.timestamp */\n      timestamp\n        /* \"contracts/Staking.sol\":837:848  stakingTime */\n      0x03\n        /* \"contracts/Staking.sol\":837:860  stakingTime[msg.sender] */\n      0x00\n        /* \"contracts/Staking.sol\":849:859  msg.sender */\n      caller\n        /* \"contracts/Staking.sol\":837:860  stakingTime[msg.sender] */\n      0xffffffffffffffffffffffffffffffffffffffff\n      and\n      0xffffffffffffffffffffffffffffffffffffffff\n      and\n      dup2\n      mstore\n      0x20\n      add\n      swap1\n      dup2\n      mstore\n      0x20\n      add\n      0x00\n      keccak256\n        /* \"contracts/Staking.sol\":837:878  stakingTime[msg.sender] = block.timestamp */\n      dup2\n      swap1\n      sstore\n      pop\n        /* \"@openzeppelin/contracts/utils/ReentrancyGuard.sol\":3065:3085  _nonReentrantAfter() */\n      tag_94\n        /* \"@openzeppelin/contracts/utils/ReentrancyGuard.sol\":3065:3083  _nonReentrantAfter */\n      tag_71\n        /* \"@openzeppelin/contracts/utils/ReentrancyGuard.sol\":3065:3085  _nonReentrantAfter() */\n      jump\t// in\n    tag_94:\n        /* \"contracts/Staking.sol\":604:886  function stake(uint256 amount) external nonReentrant {... */\n      pop\n      jump\t// out\n        /* \"contracts/Staking.sol\":1258:1474  function calculateReward(address user) public view returns (uint256) {... */\n    tag_49:\n        /* \"contracts/Staking.sol\":1318:1325  uint256 */\n      0x00\n        /* \"contracts/Staking.sol\":1338:1356  uint256 timeStaked */\n      0x00\n        /* \"contracts/Staking.sol\":1377:1388  stakingTime */\n      0x03\n        /* \"contracts/Staking.sol\":1377:1394  stakingTime[user] */\n      0x00\n        /* \"contracts/Staking.sol\":1389:1393  user */\n      dup5\n        /* \"contracts/Staking.sol\":1377:1394  stakingTime[user] */\n      0xffffffffffffffffffffffffffffffffffffffff\n      and\n      0xffffffffffffffffffffffffffffffffffffffff\n      and\n      dup2\n      mstore\n      0x20\n      add\n      swap1\n      dup2\n      mstore\n      0x20\n      add\n      0x00\n      keccak256\n      sload\n        /* \"contracts/Staking.sol\":1359:1374  block.timestamp */\n      timestamp\n        /* \"contracts/Staking.sol\":1359:1394  block.timestamp - stakingTime[user] */\n      tag_96\n      swap2\n      swap1\n      tag_97\n      jump\t// in\n    tag_96:\n        /* \"contracts/Staking.sol\":1338:1394  uint256 timeStaked = block.timestamp - stakingTime[user] */\n      swap1\n      pop\n        /* \"contracts/Staking.sol\":1462:1466  1e18 */\n      0x0de0b6b3a7640000\n        /* \"contracts/Staking.sol\":1448:1458  rewardRate */\n      sload(0x04)\n        /* \"contracts/Staking.sol\":1435:1445  timeStaked */\n      dup3\n        /* \"contracts/Staking.sol\":1413:1426  stakedBalance */\n      0x02\n        /* \"contracts/Staking.sol\":1413:1432  stakedBalance[user] */\n      0x00\n        /* \"contracts/Staking.sol\":1427:1431  user */\n      dup8\n        /* \"contracts/Staking.sol\":1413:1432  stakedBalance[user] */\n      0xffffffffffffffffffffffffffffffffffffffff\n      and\n      0xffffffffffffffffffffffffffffffffffffffff\n      and\n      dup2\n      mstore\n      0x20\n      add\n      swap1\n      dup2\n      mstore\n      0x20\n      add\n      0x00\n      keccak256\n      sload\n        /* \"contracts/Staking.sol\":1413:1445  stakedBalance[user] * timeStaked */\n      tag_98\n      swap2\n      swap1\n      tag_99\n      jump\t// in\n    tag_98:\n        /* \"contracts/Staking.sol\":1413:1458  stakedBalance[user] * timeStaked * rewardRate */\n      tag_100\n      swap2\n      swap1\n      tag_99\n      jump\t// in\n    tag_100:\n        /* \"contracts/Staking.sol\":1412:1466  (stakedBalance[user] * timeStaked * rewardRate) / 1e18 */\n      tag_101\n      swap2\n      swap1\n      tag_102\n      jump\t// in\n    tag_101:\n        /* \"contracts/Staking.sol\":1405:1466  return (stakedBalance[user] * timeStaked * rewardRate) / 1e18 */\n      swap2\n      pop\n      pop\n        /* \"contracts/Staking.sol\":1258:1474  function calculateReward(address user) public view returns (uint256) {... */\n      swap2\n      swap1\n      pop\n      jump\t// out\n        /* \"@openzeppelin/contracts/access/Ownable.sol\":2543:2758  function transferOwnership(address newOwner) public virtual onlyOwner {... */\n    tag_53:\n        /* \"@openzeppelin/contracts/access/Ownable.sol\":1531:1544  _checkOwner() */\n      tag_104\n        /* \"@openzeppelin/contracts/access/Ownable.sol\":1531:1542  _checkOwner */\n      tag_74\n        /* \"@openzeppelin/contracts/access/Ownable.sol\":1531:1544  _checkOwner() */\n      jump\t// in\n    tag_104:\n        /* \"@openzeppelin/contracts/access/Ownable.sol\":2647:2648  0 */\n      0x00\n        /* \"@openzeppelin/contracts/access/Ownable.sol\":2627:2649  newOwner == address(0) */\n      0xffffffffffffffffffffffffffffffffffffffff\n      and\n        /* \"@openzeppelin/contracts/access/Ownable.sol\":2627:2635  newOwner */\n      dup2\n        /* \"@openzeppelin/contracts/access/Ownable.sol\":2627:2649  newOwner == address(0) */\n      0xffffffffffffffffffffffffffffffffffffffff\n      and\n      sub\n        /* \"@openzeppelin/contracts/access/Ownable.sol\":2623:2714  if (newOwner == address(0)) {... */\n      tag_106\n      jumpi\n        /* \"@openzeppelin/contracts/access/Ownable.sol\":2700:2701  0 */\n      0x00\n        /* \"@openzeppelin/contracts/access/Ownable.sol\":2672:2703  OwnableInvalidOwner(address(0)) */\n      mload(0x40)\n      0x1e4fbdf700000000000000000000000000000000000000000000000000000000\n      dup2\n      mstore\n      0x04\n      add\n      tag_107\n      swap2\n      swap1\n      tag_39\n      jump\t// in\n    tag_107:\n      mload(0x40)\n      dup1\n      swap2\n      sub\n      swap1\n      revert\n        /* \"@openzeppelin/contracts/access/Ownable.sol\":2623:2714  if (newOwner == address(0)) {... */\n    tag_106:\n        /* \"@openzeppelin/contracts/access/Ownable.sol\":2723:2751  _transferOwnership(newOwner) */\n      tag_108\n        /* \"@openzeppelin/contracts/access/Ownable.sol\":2742:2750  newOwner */\n      dup2\n        /* \"@openzeppelin/contracts/access/Ownable.sol\":2723:2741  _transferOwnership */\n      tag_77\n        /* \"@openzeppelin/contracts/access/Ownable.sol\":2723:2751  _transferOwnership(newOwner) */\n      jump\t// in\n    tag_108:\n        /* \"@openzeppelin/contracts/access/Ownable.sol\":2543:2758  function transferOwnership(address newOwner) public virtual onlyOwner {... */\n      pop\n      jump\t// out\n        /* \"@openzeppelin/contracts/utils/ReentrancyGuard.sol\":3749:4041  function _nonReentrantBefore() private {... */\n    tag_56:\n        /* \"@openzeppelin/contracts/utils/ReentrancyGuard.sol\":3872:3897  _nonReentrantBeforeView() */\n      tag_110\n        /* \"@openzeppelin/contracts/utils/ReentrancyGuard.sol\":3872:3895  _nonReentrantBeforeView */\n      tag_111\n        /* \"@openzeppelin/contracts/utils/ReentrancyGuard.sol\":3872:3897  _nonReentrantBeforeView() */\n      jump\t// in\n    tag_110:\n        /* \"@openzeppelin/contracts/utils/ReentrancyGuard.sol\":2407:2408  2 */\n      0x02\n        /* \"@openzeppelin/contracts/utils/ReentrancyGuard.sol\":3972:4018  _reentrancyGuardStorageSlot().getUint256Slot() */\n      tag_112\n        /* \"@openzeppelin/contracts/utils/ReentrancyGuard.sol\":3972:4001  _reentrancyGuardStorageSlot() */\n      tag_113\n        /* \"@openzeppelin/contracts/utils/ReentrancyGuard.sol\":3972:3999  _reentrancyGuardStorageSlot */\n      tag_114\n        /* \"@openzeppelin/contracts/utils/ReentrancyGuard.sol\":3972:4001  _reentrancyGuardStorageSlot() */\n      jump\t// in\n    tag_113:\n        /* \"@openzeppelin/contracts/utils/ReentrancyGuard.sol\":3972:4016  _reentrancyGuardStorageSlot().getUint256Slot */\n      tag_115\n        /* \"@openzeppelin/contracts/utils/ReentrancyGuard.sol\":3972:4018  _reentrancyGuardStorageSlot().getUint256Slot() */\n      jump\t// in\n    tag_112:\n        /* \"@openzeppelin/contracts/utils/ReentrancyGuard.sol\":3972:4024  _reentrancyGuardStorageSlot().getUint256Slot().value */\n      0x00\n      add\n        /* \"@openzeppelin/contracts/utils/ReentrancyGuard.sol\":3972:4034  _reentrancyGuardStorageSlot().getUint256Slot().value = ENTERED */\n      dup2\n      swap1\n      sstore\n      pop\n        /* \"@openzeppelin/contracts/utils/ReentrancyGuard.sol\":3749:4041  function _nonReentrantBefore() private {... */\n      jump\t// out\n        /* \"@openzeppelin/contracts/utils/ReentrancyGuard.sol\":4047:4300  function _nonReentrantAfter() private {... */\n    tag_71:\n        /* \"@openzeppelin/contracts/utils/ReentrancyGuard.sol\":2365:2366  1 */\n      0x01\n        /* \"@openzeppelin/contracts/utils/ReentrancyGuard.sol\":4227:4273  _reentrancyGuardStorageSlot().getUint256Slot() */\n      tag_117\n        /* \"@openzeppelin/contracts/utils/ReentrancyGuard.sol\":4227:4256  _reentrancyGuardStorageSlot() */\n      tag_118\n        /* \"@openzeppelin/contracts/utils/ReentrancyGuard.sol\":4227:4254  _reentrancyGuardStorageSlot */\n      tag_114\n        /* \"@openzeppelin/contracts/utils/ReentrancyGuard.sol\":4227:4256  _reentrancyGuardStorageSlot() */\n      jump\t// in\n    tag_118:\n        /* \"@openzeppelin/contracts/utils/ReentrancyGuard.sol\":4227:4271  _reentrancyGuardStorageSlot().getUint256Slot */\n      tag_115\n        /* \"@openzeppelin/contracts/utils/ReentrancyGuard.sol\":4227:4273  _reentrancyGuardStorageSlot().getUint256Slot() */\n      jump\t// in\n    tag_117:\n        /* \"@openzeppelin/contracts/utils/ReentrancyGuard.sol\":4227:4279  _reentrancyGuardStorageSlot().getUint256Slot().value */\n      0x00\n      add\n        /* \"@openzeppelin/contracts/utils/ReentrancyGuard.sol\":4227:4293  _reentrancyGuardStorageSlot().getUint256Slot().value = NOT_ENTERED */\n      dup2\n      swap1\n      sstore\n      pop\n        /* \"@openzeppelin/contracts/utils/ReentrancyGuard.sol\":4047:4300  function _nonReentrantAfter() private {... */\n      jump\t// out\n        /* \"@openzeppelin/contracts/access/Ownable.sol\":1796:1958  function _checkOwner() internal view virtual {... */\n    tag_74:\n        /* \"@openzeppelin/contracts/access/Ownable.sol\":1866:1878  _msgSender() */\n      tag_120\n        /* \"@openzeppelin/contracts/access/Ownable.sol\":1866:1876  _msgSender */\n      tag_121\n        /* \"@openzeppelin/contracts/access/Ownable.sol\":1866:1878  _msgSender() */\n      jump\t// in\n    tag_120:\n        /* \"@openzeppelin/contracts/access/Ownable.sol\":1855:1878  owner() != _msgSender() */\n      0xffffffffffffffffffffffffffffffffffffffff\n      and\n        /* \"@openzeppelin/contracts/access/Ownable.sol\":1855:1862  owner() */\n      tag_122\n        /* \"@openzeppelin/contracts/access/Ownable.sol\":1855:1860  owner */\n      tag_37\n        /* \"@openzeppelin/contracts/access/Ownable.sol\":1855:1862  owner() */\n      jump\t// in\n    tag_122:\n        /* \"@openzeppelin/contracts/access/Ownable.sol\":1855:1878  owner() != _msgSender() */\n      0xffffffffffffffffffffffffffffffffffffffff\n      and\n      eq\n        /* \"@openzeppelin/contracts/access/Ownable.sol\":1851:1952  if (owner() != _msgSender()) {... */\n      tag_123\n      jumpi\n        /* \"@openzeppelin/contracts/access/Ownable.sol\":1928:1940  _msgSender() */\n      tag_124\n        /* \"@openzeppelin/contracts/access/Ownable.sol\":1928:1938  _msgSender */\n      tag_121\n        /* \"@openzeppelin/contracts/access/Ownable.sol\":1928:1940  _msgSender() */\n      jump\t// in\n    tag_124:\n        /* \"@openzeppelin/contracts/access/Ownable.sol\":1901:1941  OwnableUnauthorizedAccount(_msgSender()) */\n      mload(0x40)\n      0x118cdaa700000000000000000000000000000000000000000000000000000000\n      dup2\n      mstore\n      0x04\n      add\n      tag_125\n      swap2\n      swap1\n      tag_39\n      jump\t// in\n    tag_125:\n      mload(0x40)\n      dup1\n      swap2\n      sub\n      swap1\n      revert\n        /* \"@openzeppelin/contracts/access/Ownable.sol\":1851:1952  if (owner() != _msgSender()) {... */\n    tag_123:\n        /* \"@openzeppelin/contracts/access/Ownable.sol\":1796:1958  function _checkOwner() internal view virtual {... */\n      jump\t// out\n        /* \"@openzeppelin/contracts/access/Ownable.sol\":2912:3099  function _transferOwnership(address newOwner) internal virtual {... */\n    tag_77:\n        /* \"@openzeppelin/contracts/access/Ownable.sol\":2985:3001  address oldOwner */\n      0x00\n        /* \"@openzeppelin/contracts/access/Ownable.sol\":3004:3010  _owner */\n      0x00\n      0x00\n      swap1\n      sload\n      swap1\n      0x0100\n      exp\n      swap1\n      div\n      0xffffffffffffffffffffffffffffffffffffffff\n      and\n        /* \"@openzeppelin/contracts/access/Ownable.sol\":2985:3010  address oldOwner = _owner */\n      swap1\n      pop\n        /* \"@openzeppelin/contracts/access/Ownable.sol\":3029:3037  newOwner */\n      dup2\n        /* \"@openzeppelin/contracts/access/Ownable.sol\":3020:3026  _owner */\n      0x00\n      0x00\n        /* \"@openzeppelin/contracts/access/Ownable.sol\":3020:3037  _owner = newOwner */\n      0x0100\n      exp\n      dup2\n      sload\n      dup2\n      0xffffffffffffffffffffffffffffffffffffffff\n      mul\n      not\n      and\n      swap1\n      dup4\n      0xffffffffffffffffffffffffffffffffffffffff\n      and\n      mul\n      or\n      swap1\n      sstore\n      pop\n        /* \"@openzeppelin/contracts/access/Ownable.sol\":3083:3091  newOwner */\n      dup2\n        /* \"@openzeppelin/contracts/access/Ownable.sol\":3052:3092  OwnershipTransferred(oldOwner, newOwner) */\n      0xffffffffffffffffffffffffffffffffffffffff\n      and\n        /* \"@openzeppelin/contracts/access/Ownable.sol\":3073:3081  oldOwner */\n      dup2\n        /* \"@openzeppelin/contracts/access/Ownable.sol\":3052:3092  OwnershipTransferred(oldOwner, newOwner) */\n      0xffffffffffffffffffffffffffffffffffffffff\n      and\n      0x8be0079c531659141344cd1fd0a4f28419497f9722a3daafe3b4186f6b6457e0\n      mload(0x40)\n      mload(0x40)\n      dup1\n      swap2\n      sub\n      swap1\n      log3\n        /* \"@openzeppelin/contracts/access/Ownable.sol\":2975:3099  {... */\n      pop\n        /* \"@openzeppelin/contracts/access/Ownable.sol\":2912:3099  function _transferOwnership(address newOwner) internal virtual {... */\n      pop\n      jump\t// out\n        /* \"@openzeppelin/contracts/utils/ReentrancyGuard.sol\":3586:3743  function _nonReentrantBeforeView() private view {... */\n    tag_111:\n        /* \"@openzeppelin/contracts/utils/ReentrancyGuard.sol\":3648:3673  _reentrancyGuardEntered() */\n      tag_128\n        /* \"@openzeppelin/contracts/utils/ReentrancyGuard.sol\":3648:3671  _reentrancyGuardEntered */\n      tag_129\n        /* \"@openzeppelin/contracts/utils/ReentrancyGuard.sol\":3648:3673  _reentrancyGuardEntered() */\n      jump\t// in\n    tag_128:\n        /* \"@openzeppelin/contracts/utils/ReentrancyGuard.sol\":3644:3737  if (_reentrancyGuardEntered()) {... */\n      iszero\n      tag_130\n      jumpi\n        /* \"@openzeppelin/contracts/utils/ReentrancyGuard.sol\":3696:3726  ReentrancyGuardReentrantCall() */\n      mload(0x40)\n      0x3ee5aeb500000000000000000000000000000000000000000000000000000000\n      dup2\n      mstore\n      0x04\n      add\n      mload(0x40)\n      dup1\n      swap2\n      sub\n      swap1\n      revert\n        /* \"@openzeppelin/contracts/utils/ReentrancyGuard.sol\":3644:3737  if (_reentrancyGuardEntered()) {... */\n    tag_130:\n        /* \"@openzeppelin/contracts/utils/ReentrancyGuard.sol\":3586:3743  function _nonReentrantBeforeView() private view {... */\n      jump\t// out\n        /* \"@openzeppelin/contracts/utils/ReentrancyGuard.sol\":4636:4763  function _reentrancyGuardStorageSlot() internal pure virtual returns (bytes32) {... */\n    tag_114:\n        /* \"@openzeppelin/contracts/utils/ReentrancyGuard.sol\":4706:4713  bytes32 */\n      0x00\n        /* \"@openzeppelin/contracts/utils/ReentrancyGuard.sol\":1505:1571  0x9b779b17422d0df92223018b32b4d1fa46e071723d6817e2486d003becc55f00 */\n      0x9b779b17422d0df92223018b32b4d1fa46e071723d6817e2486d003becc55f00\n        /* \"@openzeppelin/contracts/utils/ReentrancyGuard.sol\":4732:4756  REENTRANCY_GUARD_STORAGE */\n      0x00\n      shl\n        /* \"@openzeppelin/contracts/utils/ReentrancyGuard.sol\":4725:4756  return REENTRANCY_GUARD_STORAGE */\n      swap1\n      pop\n        /* \"@openzeppelin/contracts/utils/ReentrancyGuard.sol\":4636:4763  function _reentrancyGuardStorageSlot() internal pure virtual returns (bytes32) {... */\n      swap1\n      jump\t// out\n        /* \"@openzeppelin/contracts/utils/StorageSlot.sol\":2679:2842  function getUint256Slot(bytes32 slot) internal pure returns (Uint256Slot storage r) {... */\n    tag_115:\n        /* \"@openzeppelin/contracts/utils/StorageSlot.sol\":2740:2761  Uint256Slot storage r */\n      0x00\n        /* \"@openzeppelin/contracts/utils/StorageSlot.sol\":2822:2826  slot */\n      dup2\n        /* \"@openzeppelin/contracts/utils/StorageSlot.sol\":2812:2826  r.slot := slot */\n      swap1\n      pop\n        /* \"@openzeppelin/contracts/utils/StorageSlot.sol\":2679:2842  function getUint256Slot(bytes32 slot) internal pure returns (Uint256Slot storage r) {... */\n      swap2\n      swap1\n      pop\n      jump\t// out\n        /* \"@openzeppelin/contracts/utils/Context.sol\":656:752  function _msgSender() internal view virtual returns (address) {... */\n    tag_121:\n        /* \"@openzeppelin/contracts/utils/Context.sol\":709:716  address */\n      0x00\n        /* \"@openzeppelin/contracts/utils/Context.sol\":735:745  msg.sender */\n      caller\n        /* \"@openzeppelin/contracts/utils/Context.sol\":728:745  return msg.sender */\n      swap1\n      pop\n        /* \"@openzeppelin/contracts/utils/Context.sol\":656:752  function _msgSender() internal view virtual returns (address) {... */\n      swap1\n      jump\t// out\n        /* \"@openzeppelin/contracts/utils/ReentrancyGuard.sol\":4479:4630  function _reentrancyGuardEntered() internal view returns (bool) {... */\n    tag_129:\n        /* \"@openzeppelin/contracts/utils/ReentrancyGuard.sol\":4537:4541  bool */\n      0x00\n        /* \"@openzeppelin/contracts/utils/ReentrancyGuard.sol\":2407:2408  2 */\n      0x02\n        /* \"@openzeppelin/contracts/utils/ReentrancyGuard.sol\":4560:4606  _reentrancyGuardStorageSlot().getUint256Slot() */\n      tag_135\n        /* \"@openzeppelin/contracts/utils/ReentrancyGuard.sol\":4560:4589  _reentrancyGuardStorageSlot() */\n      tag_136\n        /* \"@openzeppelin/contracts/utils/ReentrancyGuard.sol\":4560:4587  _reentrancyGuardStorageSlot */\n      tag_114\n        /* \"@openzeppelin/contracts/utils/ReentrancyGuard.sol\":4560:4589  _reentrancyGuardStorageSlot() */\n      jump\t// in\n    tag_136:\n        /* \"@openzeppelin/contracts/utils/ReentrancyGuard.sol\":4560:4604  _reentrancyGuardStorageSlot().getUint256Slot */\n      tag_115\n        /* \"@openzeppelin/contracts/utils/ReentrancyGuard.sol\":4560:4606  _reentrancyGuardStorageSlot().getUint256Slot() */\n      jump\t// in\n    tag_135:\n        /* \"@openzeppelin/contracts/utils/ReentrancyGuard.sol\":4560:4612  _reentrancyGuardStorageSlot().getUint256Slot().value */\n      0x00\n      add\n      sload\n        /* \"@openzeppelin/contracts/utils/ReentrancyGuard.sol\":4560:4623  _reentrancyGuardStorageSlot().getUint256Slot().value == ENTERED */\n      eq\n        /* \"@openzeppelin/contracts/utils/ReentrancyGuard.sol\":4553:4623  return _reentrancyGuardStorageSlot().getUint256Slot().value == ENTERED */\n      swap1\n      pop\n        /* \"@openzeppelin/contracts/utils/ReentrancyGuard.sol\":4479:4630  function _reentrancyGuardEntered() internal view returns (bool) {... */\n      swap1\n      jump\t// out\n        /* \"#utility.yul\":88:205   */\n    tag_138:\n        /* \"#utility.yul\":197:198   */\n      0x00\n        /* \"#utility.yul\":194:195   */\n      0x00\n        /* \"#utility.yul\":187:199   */\n      revert\n        /* \"#utility.yul\":334:460   */\n    tag_140:\n        /* \"#utility.yul\":371:378   */\n      0x00\n        /* \"#utility.yul\":411:453   */\n      0xffffffffffffffffffffffffffffffffffffffff\n        /* \"#utility.yul\":404:409   */\n      dup3\n        /* \"#utility.yul\":400:454   */\n      and\n        /* \"#utility.yul\":389:454   */\n      swap1\n      pop\n        /* \"#utility.yul\":334:460   */\n      swap2\n      swap1\n      pop\n      jump\t// out\n        /* \"#utility.yul\":466:562   */\n    tag_141:\n        /* \"#utility.yul\":503:510   */\n      0x00\n        /* \"#utility.yul\":532:556   */\n      tag_170\n        /* \"#utility.yul\":550:555   */\n      dup3\n        /* \"#utility.yul\":532:556   */\n      tag_140\n      jump\t// in\n    tag_170:\n        /* \"#utility.yul\":521:556   */\n      swap1\n      pop\n        /* \"#utility.yul\":466:562   */\n      swap2\n      swap1\n      pop\n      jump\t// out\n        /* \"#utility.yul\":568:690   */\n    tag_142:\n        /* \"#utility.yul\":641:665   */\n      tag_172\n        /* \"#utility.yul\":659:664   */\n      dup2\n        /* \"#utility.yul\":641:665   */\n      tag_141\n      jump\t// in\n    tag_172:\n        /* \"#utility.yul\":634:639   */\n      dup2\n        /* \"#utility.yul\":631:666   */\n      eq\n        /* \"#utility.yul\":621:684   */\n      tag_173\n      jumpi\n        /* \"#utility.yul\":680:681   */\n      0x00\n        /* \"#utility.yul\":677:678   */\n      0x00\n        /* \"#utility.yul\":670:682   */\n      revert\n        /* \"#utility.yul\":621:684   */\n    tag_173:\n        /* \"#utility.yul\":568:690   */\n      pop\n      jump\t// out\n        /* \"#utility.yul\":696:835   */\n    tag_143:\n        /* \"#utility.yul\":742:747   */\n      0x00\n        /* \"#utility.yul\":780:786   */\n      dup2\n        /* \"#utility.yul\":767:787   */\n      calldataload\n        /* \"#utility.yul\":758:787   */\n      swap1\n      pop\n        /* \"#utility.yul\":796:829   */\n      tag_175\n        /* \"#utility.yul\":823:828   */\n      dup2\n        /* \"#utility.yul\":796:829   */\n      tag_142\n      jump\t// in\n    tag_175:\n        /* \"#utility.yul\":696:835   */\n      swap3\n      swap2\n      pop\n      pop\n      jump\t// out\n        /* \"#utility.yul\":841:1170   */\n    tag_19:\n        /* \"#utility.yul\":900:906   */\n      0x00\n        /* \"#utility.yul\":949:951   */\n      0x20\n        /* \"#utility.yul\":937:946   */\n      dup3\n        /* \"#utility.yul\":928:935   */\n      dup5\n        /* \"#utility.yul\":924:947   */\n      sub\n        /* \"#utility.yul\":920:952   */\n      slt\n        /* \"#utility.yul\":917:1036   */\n      iszero\n      tag_177\n      jumpi\n        /* \"#utility.yul\":955:1034   */\n      tag_178\n      tag_138\n      jump\t// in\n    tag_178:\n        /* \"#utility.yul\":917:1036   */\n    tag_177:\n        /* \"#utility.yul\":1075:1076   */\n      0x00\n        /* \"#utility.yul\":1100:1153   */\n      tag_179\n        /* \"#utility.yul\":1145:1152   */\n      dup5\n        /* \"#utility.yul\":1136:1142   */\n      dup3\n        /* \"#utility.yul\":1125:1134   */\n      dup6\n        /* \"#utility.yul\":1121:1143   */\n      add\n        /* \"#utility.yul\":1100:1153   */\n      tag_143\n      jump\t// in\n    tag_179:\n        /* \"#utility.yul\":1090:1153   */\n      swap2\n      pop\n        /* \"#utility.yul\":1046:1163   */\n      pop\n        /* \"#utility.yul\":841:1170   */\n      swap3\n      swap2\n      pop\n      pop\n      jump\t// out\n        /* \"#utility.yul\":1176:1253   */\n    tag_144:\n        /* \"#utility.yul\":1213:1220   */\n      0x00\n        /* \"#utility.yul\":1242:1247   */\n      dup2\n        /* \"#utility.yul\":1231:1247   */\n      swap1\n      pop\n        /* \"#utility.yul\":1176:1253   */\n      swap2\n      swap1\n      pop\n      jump\t// out\n        /* \"#utility.yul\":1259:1377   */\n    tag_145:\n        /* \"#utility.yul\":1346:1370   */\n      tag_182\n        /* \"#utility.yul\":1364:1369   */\n      dup2\n        /* \"#utility.yul\":1346:1370   */\n      tag_144\n      jump\t// in\n    tag_182:\n        /* \"#utility.yul\":1341:1344   */\n      dup3\n        /* \"#utility.yul\":1334:1371   */\n      mstore\n        /* \"#utility.yul\":1259:1377   */\n      pop\n      pop\n      jump\t// out\n        /* \"#utility.yul\":1383:1605   */\n    tag_22:\n        /* \"#utility.yul\":1476:1480   */\n      0x00\n        /* \"#utility.yul\":1514:1516   */\n      0x20\n        /* \"#utility.yul\":1503:1512   */\n      dup3\n        /* \"#utility.yul\":1499:1517   */\n      add\n        /* \"#utility.yul\":1491:1517   */\n      swap1\n      pop\n        /* \"#utility.yul\":1527:1598   */\n      tag_184\n        /* \"#utility.yul\":1595:1596   */\n      0x00\n        /* \"#utility.yul\":1584:1593   */\n      dup4\n        /* \"#utility.yul\":1580:1597   */\n      add\n        /* \"#utility.yul\":1571:1577   */\n      dup5\n        /* \"#utility.yul\":1527:1598   */\n      tag_145\n      jump\t// in\n    tag_184:\n        /* \"#utility.yul\":1383:1605   */\n      swap3\n      swap2\n      pop\n      pop\n      jump\t// out\n        /* \"#utility.yul\":1611:1671   */\n    tag_146:\n        /* \"#utility.yul\":1639:1642   */\n      0x00\n        /* \"#utility.yul\":1660:1665   */\n      dup2\n        /* \"#utility.yul\":1653:1665   */\n      swap1\n      pop\n        /* \"#utility.yul\":1611:1671   */\n      swap2\n      swap1\n      pop\n      jump\t// out\n        /* \"#utility.yul\":1677:1819   */\n    tag_147:\n        /* \"#utility.yul\":1727:1736   */\n      0x00\n        /* \"#utility.yul\":1760:1813   */\n      tag_187\n        /* \"#utility.yul\":1778:1812   */\n      tag_188\n        /* \"#utility.yul\":1787:1811   */\n      tag_189\n        /* \"#utility.yul\":1805:1810   */\n      dup5\n        /* \"#utility.yul\":1787:1811   */\n      tag_140\n      jump\t// in\n    tag_189:\n        /* \"#utility.yul\":1778:1812   */\n      tag_146\n      jump\t// in\n    tag_188:\n        /* \"#utility.yul\":1760:1813   */\n      tag_140\n      jump\t// in\n    tag_187:\n        /* \"#utility.yul\":1747:1813   */\n      swap1\n      pop\n        /* \"#utility.yul\":1677:1819   */\n      swap2\n      swap1\n      pop\n      jump\t// out\n        /* \"#utility.yul\":1825:1951   */\n    tag_148:\n        /* \"#utility.yul\":1875:1884   */\n      0x00\n        /* \"#utility.yul\":1908:1945   */\n      tag_191\n        /* \"#utility.yul\":1939:1944   */\n      dup3\n        /* \"#utility.yul\":1908:1945   */\n      tag_147\n      jump\t// in\n    tag_191:\n        /* \"#utility.yul\":1895:1945   */\n      swap1\n      pop\n        /* \"#utility.yul\":1825:1951   */\n      swap2\n      swap1\n      pop\n      jump\t// out\n        /* \"#utility.yul\":1957:2097   */\n    tag_149:\n        /* \"#utility.yul\":2021:2030   */\n      0x00\n        /* \"#utility.yul\":2054:2091   */\n      tag_193\n        /* \"#utility.yul\":2085:2090   */\n      dup3\n        /* \"#utility.yul\":2054:2091   */\n      tag_148\n      jump\t// in\n    tag_193:\n        /* \"#utility.yul\":2041:2091   */\n      swap1\n      pop\n        /* \"#utility.yul\":1957:2097   */\n      swap2\n      swap1\n      pop\n      jump\t// out\n        /* \"#utility.yul\":2103:2262   */\n    tag_150:\n        /* \"#utility.yul\":2204:2255   */\n      tag_195\n        /* \"#utility.yul\":2249:2254   */\n      dup2\n        /* \"#utility.yul\":2204:2255   */\n      tag_149\n      jump\t// in\n    tag_195:\n        /* \"#utility.yul\":2199:2202   */\n      dup3\n        /* \"#utility.yul\":2192:2256   */\n      mstore\n        /* \"#utility.yul\":2103:2262   */\n      pop\n      pop\n      jump\t// out\n        /* \"#utility.yul\":2268:2518   */\n    tag_32:\n        /* \"#utility.yul\":2375:2379   */\n      0x00\n        /* \"#utility.yul\":2413:2415   */\n      0x20\n        /* \"#utility.yul\":2402:2411   */\n      dup3\n        /* \"#utility.yul\":2398:2416   */\n      add\n        /* \"#utility.yul\":2390:2416   */\n      swap1\n      pop\n        /* \"#utility.yul\":2426:2511   */\n      tag_197\n        /* \"#utility.yul\":2508:2509   */\n      0x00\n        /* \"#utility.yul\":2497:2506   */\n      dup4\n        /* \"#utility.yul\":2493:2510   */\n      add\n        /* \"#utility.yul\":2484:2490   */\n      dup5\n        /* \"#utility.yul\":2426:2511   */\n      tag_150\n      jump\t// in\n    tag_197:\n        /* \"#utility.yul\":2268:2518   */\n      swap3\n      swap2\n      pop\n      pop\n      jump\t// out\n        /* \"#utility.yul\":2524:2642   */\n    tag_151:\n        /* \"#utility.yul\":2611:2635   */\n      tag_199\n        /* \"#utility.yul\":2629:2634   */\n      dup2\n        /* \"#utility.yul\":2611:2635   */\n      tag_141\n      jump\t// in\n    tag_199:\n        /* \"#utility.yul\":2606:2609   */\n      dup3\n        /* \"#utility.yul\":2599:2636   */\n      mstore\n        /* \"#utility.yul\":2524:2642   */\n      pop\n      pop\n      jump\t// out\n        /* \"#utility.yul\":2648:2870   */\n    tag_39:\n        /* \"#utility.yul\":2741:2745   */\n      0x00\n        /* \"#utility.yul\":2779:2781   */\n      0x20\n        /* \"#utility.yul\":2768:2777   */\n      dup3\n        /* \"#utility.yul\":2764:2782   */\n      add\n        /* \"#utility.yul\":2756:2782   */\n      swap1\n      pop\n        /* \"#utility.yul\":2792:2863   */\n      tag_201\n        /* \"#utility.yul\":2860:2861   */\n      0x00\n        /* \"#utility.yul\":2849:2858   */\n      dup4\n        /* \"#utility.yul\":2845:2862   */\n      add\n        /* \"#utility.yul\":2836:2842   */\n      dup5\n        /* \"#utility.yul\":2792:2863   */\n      tag_151\n      jump\t// in\n    tag_201:\n        /* \"#utility.yul\":2648:2870   */\n      swap3\n      swap2\n      pop\n      pop\n      jump\t// out\n        /* \"#utility.yul\":2876:2998   */\n    tag_152:\n        /* \"#utility.yul\":2949:2973   */\n      tag_203\n        /* \"#utility.yul\":2967:2972   */\n      dup2\n        /* \"#utility.yul\":2949:2973   */\n      tag_144\n      jump\t// in\n    tag_203:\n        /* \"#utility.yul\":2942:2947   */\n      dup2\n        /* \"#utility.yul\":2939:2974   */\n      eq\n        /* \"#utility.yul\":2929:2992   */\n      tag_204\n      jumpi\n        /* \"#utility.yul\":2988:2989   */\n      0x00\n        /* \"#utility.yul\":2985:2986   */\n      0x00\n        /* \"#utility.yul\":2978:2990   */\n      revert\n        /* \"#utility.yul\":2929:2992   */\n    tag_204:\n        /* \"#utility.yul\":2876:2998   */\n      pop\n      jump\t// out\n        /* \"#utility.yul\":3004:3143   */\n    tag_153:\n        /* \"#utility.yul\":3050:3055   */\n      0x00\n        /* \"#utility.yul\":3088:3094   */\n      dup2\n        /* \"#utility.yul\":3075:3095   */\n      calldataload\n        /* \"#utility.yul\":3066:3095   */\n      swap1\n      pop\n        /* \"#utility.yul\":3104:3137   */\n      tag_206\n        /* \"#utility.yul\":3131:3136   */\n      dup2\n        /* \"#utility.yul\":3104:3137   */\n      tag_152\n      jump\t// in\n    tag_206:\n        /* \"#utility.yul\":3004:3143   */\n      swap3\n      swap2\n      pop\n      pop\n      jump\t// out\n        /* \"#utility.yul\":3149:3478   */\n    tag_42:\n        /* \"#utility.yul\":3208:3214   */\n      0x00\n        /* \"#utility.yul\":3257:3259   */\n      0x20\n        /* \"#utility.yul\":3245:3254   */\n      dup3\n        /* \"#utility.yul\":3236:3243   */\n      dup5\n        /* \"#utility.yul\":3232:3255   */\n      sub\n        /* \"#utility.yul\":3228:3260   */\n      slt\n        /* \"#utility.yul\":3225:3344   */\n      iszero\n      tag_208\n      jumpi\n        /* \"#utility.yul\":3263:3342   */\n      tag_209\n      tag_138\n      jump\t// in\n    tag_209:\n        /* \"#utility.yul\":3225:3344   */\n    tag_208:\n        /* \"#utility.yul\":3383:3384   */\n      0x00\n        /* \"#utility.yul\":3408:3461   */\n      tag_210\n        /* \"#utility.yul\":3453:3460   */\n      dup5\n        /* \"#utility.yul\":3444:3450   */\n      dup3\n        /* \"#utility.yul\":3433:3442   */\n      dup6\n        /* \"#utility.yul\":3429:3451   */\n      add\n        /* \"#utility.yul\":3408:3461   */\n      tag_153\n      jump\t// in\n    tag_210:\n        /* \"#utility.yul\":3398:3461   */\n      swap2\n      pop\n        /* \"#utility.yul\":3354:3471   */\n      pop\n        /* \"#utility.yul\":3149:3478   */\n      swap3\n      swap2\n      pop\n      pop\n      jump\t// out\n        /* \"#utility.yul\":3484:3653   */\n    tag_154:\n        /* \"#utility.yul\":3568:3579   */\n      0x00\n        /* \"#utility.yul\":3602:3608   */\n      dup3\n        /* \"#utility.yul\":3597:3600   */\n      dup3\n        /* \"#utility.yul\":3590:3609   */\n      mstore\n        /* \"#utility.yul\":3642:3646   */\n      0x20\n        /* \"#utility.yul\":3637:3640   */\n      dup3\n        /* \"#utility.yul\":3633:3647   */\n      add\n        /* \"#utility.yul\":3618:3647   */\n      swap1\n      pop\n        /* \"#utility.yul\":3484:3653   */\n      swap3\n      swap2\n      pop\n      pop\n      jump\t// out\n        /* \"#utility.yul\":3659:3826   */\n    tag_155:\n        /* \"#utility.yul\":3799:3818   */\n      0x4e61646120706172612072657469726172000000000000000000000000000000\n        /* \"#utility.yul\":3795:3796   */\n      0x00\n        /* \"#utility.yul\":3787:3793   */\n      dup3\n        /* \"#utility.yul\":3783:3797   */\n      add\n        /* \"#utility.yul\":3776:3819   */\n      mstore\n        /* \"#utility.yul\":3659:3826   */\n      pop\n      jump\t// out\n        /* \"#utility.yul\":3832:4198   */\n    tag_156:\n        /* \"#utility.yul\":3974:3977   */\n      0x00\n        /* \"#utility.yul\":3995:4062   */\n      tag_214\n        /* \"#utility.yul\":4059:4061   */\n      0x11\n        /* \"#utility.yul\":4054:4057   */\n      dup4\n        /* \"#utility.yul\":3995:4062   */\n      tag_154\n      jump\t// in\n    tag_214:\n        /* \"#utility.yul\":3988:4062   */\n      swap2\n      pop\n        /* \"#utility.yul\":4071:4164   */\n      tag_215\n        /* \"#utility.yul\":4160:4163   */\n      dup3\n        /* \"#utility.yul\":4071:4164   */\n      tag_155\n      jump\t// in\n    tag_215:\n        /* \"#utility.yul\":4189:4191   */\n      0x20\n        /* \"#utility.yul\":4184:4187   */\n      dup3\n        /* \"#utility.yul\":4180:4192   */\n      add\n        /* \"#utility.yul\":4173:4192   */\n      swap1\n      pop\n        /* \"#utility.yul\":3832:4198   */\n      swap2\n      swap1\n      pop\n      jump\t// out\n        /* \"#utility.yul\":4204:4623   */\n    tag_60:\n        /* \"#utility.yul\":4370:4374   */\n      0x00\n        /* \"#utility.yul\":4408:4410   */\n      0x20\n        /* \"#utility.yul\":4397:4406   */\n      dup3\n        /* \"#utility.yul\":4393:4411   */\n      add\n        /* \"#utility.yul\":4385:4411   */\n      swap1\n      pop\n        /* \"#utility.yul\":4457:4466   */\n      dup2\n        /* \"#utility.yul\":4451:4455   */\n      dup2\n        /* \"#utility.yul\":4447:4467   */\n      sub\n        /* \"#utility.yul\":4443:4444   */\n      0x00\n        /* \"#utility.yul\":4432:4441   */\n      dup4\n        /* \"#utility.yul\":4428:4445   */\n      add\n        /* \"#utility.yul\":4421:4468   */\n      mstore\n        /* \"#utility.yul\":4485:4616   */\n      tag_217\n        /* \"#utility.yul\":4611:4615   */\n      dup2\n        /* \"#utility.yul\":4485:4616   */\n      tag_156\n      jump\t// in\n    tag_217:\n        /* \"#utility.yul\":4477:4616   */\n      swap1\n      pop\n        /* \"#utility.yul\":4204:4623   */\n      swap2\n      swap1\n      pop\n      jump\t// out\n        /* \"#utility.yul\":4629:4809   */\n    tag_157:\n        /* \"#utility.yul\":4677:4754   */\n      0x4e487b7100000000000000000000000000000000000000000000000000000000\n        /* \"#utility.yul\":4674:4675   */\n      0x00\n        /* \"#utility.yul\":4667:4755   */\n      mstore\n        /* \"#utility.yul\":4774:4778   */\n      0x11\n        /* \"#utility.yul\":4771:4772   */\n      0x04\n        /* \"#utility.yul\":4764:4779   */\n      mstore\n        /* \"#utility.yul\":4798:4802   */\n      0x24\n        /* \"#utility.yul\":4795:4796   */\n      0x00\n        /* \"#utility.yul\":4788:4803   */\n      revert\n        /* \"#utility.yul\":4815:5006   */\n    tag_63:\n        /* \"#utility.yul\":4855:4858   */\n      0x00\n        /* \"#utility.yul\":4874:4894   */\n      tag_220\n        /* \"#utility.yul\":4892:4893   */\n      dup3\n        /* \"#utility.yul\":4874:4894   */\n      tag_144\n      jump\t// in\n    tag_220:\n        /* \"#utility.yul\":4869:4894   */\n      swap2\n      pop\n        /* \"#utility.yul\":4908:4928   */\n      tag_221\n        /* \"#utility.yul\":4926:4927   */\n      dup4\n        /* \"#utility.yul\":4908:4928   */\n      tag_144\n      jump\t// in\n    tag_221:\n        /* \"#utility.yul\":4903:4928   */\n      swap3\n      pop\n        /* \"#utility.yul\":4951:4952   */\n      dup3\n        /* \"#utility.yul\":4948:4949   */\n      dup3\n        /* \"#utility.yul\":4944:4953   */\n      add\n        /* \"#utility.yul\":4937:4953   */\n      swap1\n      pop\n        /* \"#utility.yul\":4972:4975   */\n      dup1\n        /* \"#utility.yul\":4969:4970   */\n      dup3\n        /* \"#utility.yul\":4966:4976   */\n      gt\n        /* \"#utility.yul\":4963:4999   */\n      iszero\n      tag_222\n      jumpi\n        /* \"#utility.yul\":4979:4997   */\n      tag_223\n      tag_157\n      jump\t// in\n    tag_223:\n        /* \"#utility.yul\":4963:4999   */\n    tag_222:\n        /* \"#utility.yul\":4815:5006   */\n      swap3\n      swap2\n      pop\n      pop\n      jump\t// out\n        /* \"#utility.yul\":5012:5344   */\n    tag_65:\n        /* \"#utility.yul\":5133:5137   */\n      0x00\n        /* \"#utility.yul\":5171:5173   */\n      0x40\n        /* \"#utility.yul\":5160:5169   */\n      dup3\n        /* \"#utility.yul\":5156:5174   */\n      add\n        /* \"#utility.yul\":5148:5174   */\n      swap1\n      pop\n        /* \"#utility.yul\":5184:5255   */\n      tag_225\n        /* \"#utility.yul\":5252:5253   */\n      0x00\n        /* \"#utility.yul\":5241:5250   */\n      dup4\n        /* \"#utility.yul\":5237:5254   */\n      add\n        /* \"#utility.yul\":5228:5234   */\n      dup6\n        /* \"#utility.yul\":5184:5255   */\n      tag_151\n      jump\t// in\n    tag_225:\n        /* \"#utility.yul\":5265:5337   */\n      tag_226\n        /* \"#utility.yul\":5333:5335   */\n      0x20\n        /* \"#utility.yul\":5322:5331   */\n      dup4\n        /* \"#utility.yul\":5318:5336   */\n      add\n        /* \"#utility.yul\":5309:5315   */\n      dup5\n        /* \"#utility.yul\":5265:5337   */\n      tag_145\n      jump\t// in\n    tag_226:\n        /* \"#utility.yul\":5012:5344   */\n      swap4\n      swap3\n      pop\n      pop\n      pop\n      jump\t// out\n        /* \"#utility.yul\":5350:5440   */\n    tag_158:\n        /* \"#utility.yul\":5384:5391   */\n      0x00\n        /* \"#utility.yul\":5427:5432   */\n      dup2\n        /* \"#utility.yul\":5420:5433   */\n      iszero\n        /* \"#utility.yul\":5413:5434   */\n      iszero\n        /* \"#utility.yul\":5402:5434   */\n      swap1\n      pop\n        /* \"#utility.yul\":5350:5440   */\n      swap2\n      swap1\n      pop\n      jump\t// out\n        /* \"#utility.yul\":5446:5562   */\n    tag_159:\n        /* \"#utility.yul\":5516:5537   */\n      tag_229\n        /* \"#utility.yul\":5531:5536   */\n      dup2\n        /* \"#utility.yul\":5516:5537   */\n      tag_158\n      jump\t// in\n    tag_229:\n        /* \"#utility.yul\":5509:5514   */\n      dup2\n        /* \"#utility.yul\":5506:5538   */\n      eq\n        /* \"#utility.yul\":5496:5556   */\n      tag_230\n      jumpi\n        /* \"#utility.yul\":5552:5553   */\n      0x00\n        /* \"#utility.yul\":5549:5550   */\n      0x00\n        /* \"#utility.yul\":5542:5554   */\n      revert\n        /* \"#utility.yul\":5496:5556   */\n    tag_230:\n        /* \"#utility.yul\":5446:5562   */\n      pop\n      jump\t// out\n        /* \"#utility.yul\":5568:5705   */\n    tag_160:\n        /* \"#utility.yul\":5622:5627   */\n      0x00\n        /* \"#utility.yul\":5653:5659   */\n      dup2\n        /* \"#utility.yul\":5647:5660   */\n      mload\n        /* \"#utility.yul\":5638:5660   */\n      swap1\n      pop\n        /* \"#utility.yul\":5669:5699   */\n      tag_232\n        /* \"#utility.yul\":5693:5698   */\n      dup2\n        /* \"#utility.yul\":5669:5699   */\n      tag_159\n      jump\t// in\n    tag_232:\n        /* \"#utility.yul\":5568:5705   */\n      swap3\n      swap2\n      pop\n      pop\n      jump\t// out\n        /* \"#utility.yul\":5711:6056   */\n    tag_69:\n        /* \"#utility.yul\":5778:5784   */\n      0x00\n        /* \"#utility.yul\":5827:5829   */\n      0x20\n        /* \"#utility.yul\":5815:5824   */\n      dup3\n        /* \"#utility.yul\":5806:5813   */\n      dup5\n        /* \"#utility.yul\":5802:5825   */\n      sub\n        /* \"#utility.yul\":5798:5830   */\n      slt\n        /* \"#utility.yul\":5795:5914   */\n      iszero\n      tag_234\n      jumpi\n        /* \"#utility.yul\":5833:5912   */\n      tag_235\n      tag_138\n      jump\t// in\n    tag_235:\n        /* \"#utility.yul\":5795:5914   */\n    tag_234:\n        /* \"#utility.yul\":5953:5954   */\n      0x00\n        /* \"#utility.yul\":5978:6039   */\n      tag_236\n        /* \"#utility.yul\":6031:6038   */\n      dup5\n        /* \"#utility.yul\":6022:6028   */\n      dup3\n        /* \"#utility.yul\":6011:6020   */\n      dup6\n        /* \"#utility.yul\":6007:6029   */\n      add\n        /* \"#utility.yul\":5978:6039   */\n      tag_160\n      jump\t// in\n    tag_236:\n        /* \"#utility.yul\":5968:6039   */\n      swap2\n      pop\n        /* \"#utility.yul\":5924:6049   */\n      pop\n        /* \"#utility.yul\":5711:6056   */\n      swap3\n      swap2\n      pop\n      pop\n      jump\t// out\n        /* \"#utility.yul\":6062:6226   */\n    tag_161:\n        /* \"#utility.yul\":6202:6218   */\n      0x56616c6f7220696e76616c69646f000000000000000000000000000000000000\n        /* \"#utility.yul\":6198:6199   */\n      0x00\n        /* \"#utility.yul\":6190:6196   */\n      dup3\n        /* \"#utility.yul\":6186:6200   */\n      add\n        /* \"#utility.yul\":6179:6219   */\n      mstore\n        /* \"#utility.yul\":6062:6226   */\n      pop\n      jump\t// out\n        /* \"#utility.yul\":6232:6598   */\n    tag_162:\n        /* \"#utility.yul\":6374:6377   */\n      0x00\n        /* \"#utility.yul\":6395:6462   */\n      tag_239\n        /* \"#utility.yul\":6459:6461   */\n      0x0e\n        /* \"#utility.yul\":6454:6457   */\n      dup4\n        /* \"#utility.yul\":6395:6462   */\n      tag_154\n      jump\t// in\n    tag_239:\n        /* \"#utility.yul\":6388:6462   */\n      swap2\n      pop\n        /* \"#utility.yul\":6471:6564   */\n      tag_240\n        /* \"#utility.yul\":6560:6563   */\n      dup3\n        /* \"#utility.yul\":6471:6564   */\n      tag_161\n      jump\t// in\n    tag_240:\n        /* \"#utility.yul\":6589:6591   */\n      0x20\n        /* \"#utility.yul\":6584:6587   */\n      dup3\n        /* \"#utility.yul\":6580:6592   */\n      add\n        /* \"#utility.yul\":6573:6592   */\n      swap1\n      pop\n        /* \"#utility.yul\":6232:6598   */\n      swap2\n      swap1\n      pop\n      jump\t// out\n        /* \"#utility.yul\":6604:7023   */\n    tag_87:\n        /* \"#utility.yul\":6770:6774   */\n      0x00\n        /* \"#utility.yul\":6808:6810   */\n      0x20\n        /* \"#utility.yul\":6797:6806   */\n      dup3\n        /* \"#utility.yul\":6793:6811   */\n      add\n        /* \"#utility.yul\":6785:6811   */\n      swap1\n      pop\n        /* \"#utility.yul\":6857:6866   */\n      dup2\n        /* \"#utility.yul\":6851:6855   */\n      dup2\n        /* \"#utility.yul\":6847:6867   */\n      sub\n        /* \"#utility.yul\":6843:6844   */\n      0x00\n        /* \"#utility.yul\":6832:6841   */\n      dup4\n        /* \"#utility.yul\":6828:6845   */\n      add\n        /* \"#utility.yul\":6821:6868   */\n      mstore\n        /* \"#utility.yul\":6885:7016   */\n      tag_242\n        /* \"#utility.yul\":7011:7015   */\n      dup2\n        /* \"#utility.yul\":6885:7016   */\n      tag_162\n      jump\t// in\n    tag_242:\n        /* \"#utility.yul\":6877:7016   */\n      swap1\n      pop\n        /* \"#utility.yul\":6604:7023   */\n      swap2\n      swap1\n      pop\n      jump\t// out\n        /* \"#utility.yul\":7029:7471   */\n    tag_89:\n        /* \"#utility.yul\":7178:7182   */\n      0x00\n        /* \"#utility.yul\":7216:7218   */\n      0x60\n        /* \"#utility.yul\":7205:7214   */\n      dup3\n        /* \"#utility.yul\":7201:7219   */\n      add\n        /* \"#utility.yul\":7193:7219   */\n      swap1\n      pop\n        /* \"#utility.yul\":7229:7300   */\n      tag_244\n        /* \"#utility.yul\":7297:7298   */\n      0x00\n        /* \"#utility.yul\":7286:7295   */\n      dup4\n        /* \"#utility.yul\":7282:7299   */\n      add\n        /* \"#utility.yul\":7273:7279   */\n      dup7\n        /* \"#utility.yul\":7229:7300   */\n      tag_151\n      jump\t// in\n    tag_244:\n        /* \"#utility.yul\":7310:7382   */\n      tag_245\n        /* \"#utility.yul\":7378:7380   */\n      0x20\n        /* \"#utility.yul\":7367:7376   */\n      dup4\n        /* \"#utility.yul\":7363:7381   */\n      add\n        /* \"#utility.yul\":7354:7360   */\n      dup6\n        /* \"#utility.yul\":7310:7382   */\n      tag_151\n      jump\t// in\n    tag_245:\n        /* \"#utility.yul\":7392:7464   */\n      tag_246\n        /* \"#utility.yul\":7460:7462   */\n      0x40\n        /* \"#utility.yul\":7449:7458   */\n      dup4\n        /* \"#utility.yul\":7445:7463   */\n      add\n        /* \"#utility.yul\":7436:7442   */\n      dup5\n        /* \"#utility.yul\":7392:7464   */\n      tag_145\n      jump\t// in\n    tag_246:\n        /* \"#utility.yul\":7029:7471   */\n      swap5\n      swap4\n      pop\n      pop\n      pop\n      pop\n      jump\t// out\n        /* \"#utility.yul\":7477:7671   */\n    tag_97:\n        /* \"#utility.yul\":7517:7521   */\n      0x00\n        /* \"#utility.yul\":7537:7557   */\n      tag_248\n        /* \"#utility.yul\":7555:7556   */\n      dup3\n        /* \"#utility.yul\":7537:7557   */\n      tag_144\n      jump\t// in\n    tag_248:\n        /* \"#utility.yul\":7532:7557   */\n      swap2\n      pop\n        /* \"#utility.yul\":7571:7591   */\n      tag_249\n        /* \"#utility.yul\":7589:7590   */\n      dup4\n        /* \"#utility.yul\":7571:7591   */\n      tag_144\n      jump\t// in\n    tag_249:\n        /* \"#utility.yul\":7566:7591   */\n      swap3\n      pop\n        /* \"#utility.yul\":7615:7616   */\n      dup3\n        /* \"#utility.yul\":7612:7613   */\n      dup3\n        /* \"#utility.yul\":7608:7617   */\n      sub\n        /* \"#utility.yul\":7600:7617   */\n      swap1\n      pop\n        /* \"#utility.yul\":7639:7640   */\n      dup2\n        /* \"#utility.yul\":7633:7637   */\n      dup2\n        /* \"#utility.yul\":7630:7641   */\n      gt\n        /* \"#utility.yul\":7627:7664   */\n      iszero\n      tag_250\n      jumpi\n        /* \"#utility.yul\":7644:7662   */\n      tag_251\n      tag_157\n      jump\t// in\n    tag_251:\n        /* \"#utility.yul\":7627:7664   */\n    tag_250:\n        /* \"#utility.yul\":7477:7671   */\n      swap3\n      swap2\n      pop\n      pop\n      jump\t// out\n        /* \"#utility.yul\":7677:8087   */\n    tag_99:\n        /* \"#utility.yul\":7717:7724   */\n      0x00\n        /* \"#utility.yul\":7740:7760   */\n      tag_253\n        /* \"#utility.yul\":7758:7759   */\n      dup3\n        /* \"#utility.yul\":7740:7760   */\n      tag_144\n      jump\t// in\n    tag_253:\n        /* \"#utility.yul\":7735:7760   */\n      swap2\n      pop\n        /* \"#utility.yul\":7774:7794   */\n      tag_254\n        /* \"#utility.yul\":7792:7793   */\n      dup4\n        /* \"#utility.yul\":7774:7794   */\n      tag_144\n      jump\t// in\n    tag_254:\n        /* \"#utility.yul\":7769:7794   */\n      swap3\n      pop\n        /* \"#utility.yul\":7829:7830   */\n      dup3\n        /* \"#utility.yul\":7826:7827   */\n      dup3\n        /* \"#utility.yul\":7822:7831   */\n      mul\n        /* \"#utility.yul\":7851:7881   */\n      tag_255\n        /* \"#utility.yul\":7869:7880   */\n      dup2\n        /* \"#utility.yul\":7851:7881   */\n      tag_144\n      jump\t// in\n    tag_255:\n        /* \"#utility.yul\":7840:7881   */\n      swap2\n      pop\n        /* \"#utility.yul\":8030:8031   */\n      dup3\n        /* \"#utility.yul\":8021:8028   */\n      dup3\n        /* \"#utility.yul\":8017:8032   */\n      div\n        /* \"#utility.yul\":8014:8015   */\n      dup5\n        /* \"#utility.yul\":8011:8033   */\n      eq\n        /* \"#utility.yul\":7991:7992   */\n      dup4\n        /* \"#utility.yul\":7984:7993   */\n      iszero\n        /* \"#utility.yul\":7964:8047   */\n      or\n        /* \"#utility.yul\":7941:8080   */\n      tag_256\n      jumpi\n        /* \"#utility.yul\":8060:8078   */\n      tag_257\n      tag_157\n      jump\t// in\n    tag_257:\n        /* \"#utility.yul\":7941:8080   */\n    tag_256:\n        /* \"#utility.yul\":7725:8087   */\n      pop\n        /* \"#utility.yul\":7677:8087   */\n      swap3\n      swap2\n      pop\n      pop\n      jump\t// out\n        /* \"#utility.yul\":8093:8273   */\n    tag_163:\n        /* \"#utility.yul\":8141:8218   */\n      0x4e487b7100000000000000000000000000000000000000000000000000000000\n        /* \"#utility.yul\":8138:8139   */\n      0x00\n        /* \"#utility.yul\":8131:8219   */\n      mstore\n        /* \"#utility.yul\":8238:8242   */\n      0x12\n        /* \"#utility.yul\":8235:8236   */\n      0x04\n        /* \"#utility.yul\":8228:8243   */\n      mstore\n        /* \"#utility.yul\":8262:8266   */\n      0x24\n        /* \"#utility.yul\":8259:8260   */\n      0x00\n        /* \"#utility.yul\":8252:8267   */\n      revert\n        /* \"#utility.yul\":8279:8464   */\n    tag_102:\n        /* \"#utility.yul\":8319:8320   */\n      0x00\n        /* \"#utility.yul\":8336:8356   */\n      tag_260\n        /* \"#utility.yul\":8354:8355   */\n      dup3\n        /* \"#utility.yul\":8336:8356   */\n      tag_144\n      jump\t// in\n    tag_260:\n        /* \"#utility.yul\":8331:8356   */\n      swap2\n      pop\n        /* \"#utility.yul\":8370:8390   */\n      tag_261\n        /* \"#utility.yul\":8388:8389   */\n      dup4\n        /* \"#utility.yul\":8370:8390   */\n      tag_144\n      jump\t// in\n    tag_261:\n        /* \"#utility.yul\":8365:8390   */\n      swap3\n      pop\n        /* \"#utility.yul\":8409:8410   */\n      dup3\n        /* \"#utility.yul\":8399:8434   */\n      tag_262\n      jumpi\n        /* \"#utility.yul\":8414:8432   */\n      tag_263\n      tag_163\n      jump\t// in\n    tag_263:\n        /* \"#utility.yul\":8399:8434   */\n    tag_262:\n        /* \"#utility.yul\":8456:8457   */\n      dup3\n        /* \"#utility.yul\":8453:8454   */\n      dup3\n        /* \"#utility.yul\":8449:8458   */\n      div\n        /* \"#utility.yul\":8444:8458   */\n      swap1\n      pop\n        /* \"#utility.yul\":8279:8464   */\n      swap3\n      swap2\n      pop\n      pop\n      jump\t// out\n\n    auxdata: 0xa2646970667358221220c7d7953445944fa22c34b52b7142813614d4c8ba451f0419394c79aebd8c227264736f6c63430008220033\n}\n",
				"bytecode": {
					"linkReferences": {},
					"object": "60806040526001600455348015610014575f5ffd5b506040516110d23803806110d283398181016040528101906100369190610272565b335f73ffffffffffffffffffffffffffffffffffffffff168173ffffffffffffffffffffffffffffffffffffffff16036100a7575f6040517f1e4fbdf700000000000000000000000000000000000000000000000000000000815260040161009e91906102ac565b60405180910390fd5b6100b68161012160201b60201c565b5060016100d56100ca6101e260201b60201c565b61020b60201b60201c565b5f01819055508060015f6101000a81548173ffffffffffffffffffffffffffffffffffffffff021916908373ffffffffffffffffffffffffffffffffffffffff160217905550506102c5565b5f5f5f9054906101000a900473ffffffffffffffffffffffffffffffffffffffff169050815f5f6101000a81548173ffffffffffffffffffffffffffffffffffffffff021916908373ffffffffffffffffffffffffffffffffffffffff1602179055508173ffffffffffffffffffffffffffffffffffffffff168173ffffffffffffffffffffffffffffffffffffffff167f8be0079c531659141344cd1fd0a4f28419497f9722a3daafe3b4186f6b6457e060405160405180910390a35050565b5f7f9b779b17422d0df92223018b32b4d1fa46e071723d6817e2486d003becc55f005f1b905090565b5f819050919050565b5f5ffd5b5f73ffffffffffffffffffffffffffffffffffffffff82169050919050565b5f61024182610218565b9050919050565b61025181610237565b811461025b575f5ffd5b50565b5f8151905061026c81610248565b92915050565b5f6020828403121561028757610286610214565b5b5f6102948482850161025e565b91505092915050565b6102a681610237565b82525050565b5f6020820190506102bf5f83018461029d565b92915050565b610e00806102d25f395ff3fe608060405234801561000f575f5ffd5b50600436106100a7575f3560e01c80637b0a47ee1161006f5780637b0a47ee1461013d5780638da5cb5b1461015b5780639e447fc614610179578063a694fc3a14610195578063d82e3962146101b1578063f2fde38b146101e1576100a7565b80632def6620146100ab578063583d42fd146100b557806360217267146100e5578063715018a61461011557806372f702f31461011f575b5f5ffd5b6100b36101fd565b005b6100cf60048036038101906100ca91906109b0565b6103cc565b6040516100dc91906109f3565b60405180910390f35b6100ff60048036038101906100fa91906109b0565b6103e1565b60405161010c91906109f3565b60405180910390f35b61011d6103f6565b005b610127610409565b6040516101349190610a67565b60405180910390f35b61014561042e565b60405161015291906109f3565b60405180910390f35b610163610434565b6040516101709190610a8f565b60405180910390f35b610193600480360381019061018e9190610ad2565b61045b565b005b6101af60048036038101906101aa9190610ad2565b61046d565b005b6101cb60048036038101906101c691906109b0565b6105f6565b6040516101d891906109f3565b60405180910390f35b6101fb60048036038101906101f691906109b0565b6106b4565b005b610205610738565b5f60025f3373ffffffffffffffffffffffffffffffffffffffff1673ffffffffffffffffffffffffffffffffffffffff1681526020019081526020015f205490505f8111610288576040517f08c379a000000000000000000000000000000000000000000000000000000000815260040161027f90610b57565b60405180910390fd5b5f610292336105f6565b90505f60025f3373ffffffffffffffffffffffffffffffffffffffff1673ffffffffffffffffffffffffffffffffffffffff1681526020019081526020015f20819055505f60035f3373ffffffffffffffffffffffffffffffffffffffff1673ffffffffffffffffffffffffffffffffffffffff1681526020019081526020015f208190555060015f9054906101000a900473ffffffffffffffffffffffffffffffffffffffff1673ffffffffffffffffffffffffffffffffffffffff1663a9059cbb3383856103629190610ba2565b6040518363ffffffff1660e01b815260040161037f929190610bd5565b6020604051808303815f875af115801561039b573d5f5f3e3d5ffd5b505050506040513d601f19601f820116820180604052508101906103bf9190610c31565b5050506103ca61075a565b565b6003602052805f5260405f205f915090505481565b6002602052805f5260405f205f915090505481565b6103fe610774565b6104075f6107fb565b565b60015f9054906101000a900473ffffffffffffffffffffffffffffffffffffffff1681565b60045481565b5f5f5f9054906101000a900473ffffffffffffffffffffffffffffffffffffffff16905090565b610463610774565b8060048190555050565b610475610738565b5f81116104b7576040517f08c379a00000000000000000000000000000000000000000000000000000000081526004016104ae90610ca6565b60405180910390fd5b60015f9054906101000a900473ffffffffffffffffffffffffffffffffffffffff1673ffffffffffffffffffffffffffffffffffffffff166323b872dd3330846040518463ffffffff1660e01b815260040161051593929190610cc4565b6020604051808303815f875af1158015610531573d5f5f3e3d5ffd5b505050506040513d601f19601f820116820180604052508101906105559190610c31565b508060025f3373ffffffffffffffffffffffffffffffffffffffff1673ffffffffffffffffffffffffffffffffffffffff1681526020019081526020015f205f8282546105a29190610ba2565b925050819055504260035f3373ffffffffffffffffffffffffffffffffffffffff1673ffffffffffffffffffffffffffffffffffffffff1681526020019081526020015f20819055506105f361075a565b50565b5f5f60035f8473ffffffffffffffffffffffffffffffffffffffff1673ffffffffffffffffffffffffffffffffffffffff1681526020019081526020015f2054426106419190610cf9565b9050670de0b6b3a76400006004548260025f8773ffffffffffffffffffffffffffffffffffffffff1673ffffffffffffffffffffffffffffffffffffffff1681526020019081526020015f20546106989190610d2c565b6106a29190610d2c565b6106ac9190610d9a565b915050919050565b6106bc610774565b5f73ffffffffffffffffffffffffffffffffffffffff168173ffffffffffffffffffffffffffffffffffffffff160361072c575f6040517f1e4fbdf70000000000000000000000000000000000000000000000000000000081526004016107239190610a8f565b60405180910390fd5b610735816107fb565b50565b6107406108bc565b600261075261074d6108fd565b610926565b5f0181905550565b600161076c6107676108fd565b610926565b5f0181905550565b61077c61092f565b73ffffffffffffffffffffffffffffffffffffffff1661079a610434565b73ffffffffffffffffffffffffffffffffffffffff16146107f9576107bd61092f565b6040517f118cdaa70000000000000000000000000000000000000000000000000000000081526004016107f09190610a8f565b60405180910390fd5b565b5f5f5f9054906101000a900473ffffffffffffffffffffffffffffffffffffffff169050815f5f6101000a81548173ffffffffffffffffffffffffffffffffffffffff021916908373ffffffffffffffffffffffffffffffffffffffff1602179055508173ffffffffffffffffffffffffffffffffffffffff168173ffffffffffffffffffffffffffffffffffffffff167f8be0079c531659141344cd1fd0a4f28419497f9722a3daafe3b4186f6b6457e060405160405180910390a35050565b6108c4610936565b156108fb576040517f3ee5aeb500000000000000000000000000000000000000000000000000000000815260040160405180910390fd5b565b5f7f9b779b17422d0df92223018b32b4d1fa46e071723d6817e2486d003becc55f005f1b905090565b5f819050919050565b5f33905090565b5f60026109496109446108fd565b610926565b5f015414905090565b5f5ffd5b5f73ffffffffffffffffffffffffffffffffffffffff82169050919050565b5f61097f82610956565b9050919050565b61098f81610975565b8114610999575f5ffd5b50565b5f813590506109aa81610986565b92915050565b5f602082840312156109c5576109c4610952565b5b5f6109d28482850161099c565b91505092915050565b5f819050919050565b6109ed816109db565b82525050565b5f602082019050610a065f8301846109e4565b92915050565b5f819050919050565b5f610a2f610a2a610a2584610956565b610a0c565b610956565b9050919050565b5f610a4082610a15565b9050919050565b5f610a5182610a36565b9050919050565b610a6181610a47565b82525050565b5f602082019050610a7a5f830184610a58565b92915050565b610a8981610975565b82525050565b5f602082019050610aa25f830184610a80565b92915050565b610ab1816109db565b8114610abb575f5ffd5b50565b5f81359050610acc81610aa8565b92915050565b5f60208284031215610ae757610ae6610952565b5b5f610af484828501610abe565b91505092915050565b5f82825260208201905092915050565b7f4e616461207061726120726574697261720000000000000000000000000000005f82015250565b5f610b41601183610afd565b9150610b4c82610b0d565b602082019050919050565b5f6020820190508181035f830152610b6e81610b35565b9050919050565b7f4e487b71000000000000000000000000000000000000000000000000000000005f52601160045260245ffd5b5f610bac826109db565b9150610bb7836109db565b9250828201905080821115610bcf57610bce610b75565b5b92915050565b5f604082019050610be85f830185610a80565b610bf560208301846109e4565b9392505050565b5f8115159050919050565b610c1081610bfc565b8114610c1a575f5ffd5b50565b5f81519050610c2b81610c07565b92915050565b5f60208284031215610c4657610c45610952565b5b5f610c5384828501610c1d565b91505092915050565b7f56616c6f7220696e76616c69646f0000000000000000000000000000000000005f82015250565b5f610c90600e83610afd565b9150610c9b82610c5c565b602082019050919050565b5f6020820190508181035f830152610cbd81610c84565b9050919050565b5f606082019050610cd75f830186610a80565b610ce46020830185610a80565b610cf160408301846109e4565b949350505050565b5f610d03826109db565b9150610d0e836109db565b9250828203905081811115610d2657610d25610b75565b5b92915050565b5f610d36826109db565b9150610d41836109db565b9250828202610d4f816109db565b91508282048414831517610d6657610d65610b75565b5b5092915050565b7f4e487b71000000000000000000000000000000000000000000000000000000005f52601260045260245ffd5b5f610da4826109db565b9150610daf836109db565b925082610dbf57610dbe610d6d565b5b82820490509291505056fea2646970667358221220c7d7953445944fa22c34b52b7142813614d4c8ba451f0419394c79aebd8c227264736f6c63430008220033",
					"opcodes": "PUSH1 0x80 PUSH1 0x40 MSTORE PUSH1 0x1 PUSH1 0x4 SSTORE CALLVALUE DUP1 ISZERO PUSH2 0x14 JUMPI PUSH0 PUSH0 REVERT JUMPDEST POP PUSH1 0x40 MLOAD PUSH2 0x10D2 CODESIZE SUB DUP1 PUSH2 0x10D2 DUP4 CODECOPY DUP2 DUP2 ADD PUSH1 0x40 MSTORE DUP2 ADD SWAP1 PUSH2 0x36 SWAP2 SWAP1 PUSH2 0x272 JUMP JUMPDEST CALLER PUSH0 PUSH20 0xFFFFFFFFFFFFFFFFFFFFFFFFFFFFFFFFFFFFFFFF AND DUP2 PUSH20 0xFFFFFFFFFFFFFFFFFFFFFFFFFFFFFFFFFFFFFFFF AND SUB PUSH2 0xA7 JUMPI PUSH0 PUSH1 0x40 MLOAD PUSH32 0x1E4FBDF700000000000000000000000000000000000000000000000000000000 DUP2 MSTORE PUSH1 0x4 ADD PUSH2 0x9E SWAP2 SWAP1 PUSH2 0x2AC JUMP JUMPDEST PUSH1 0x40 MLOAD DUP1 SWAP2 SUB SWAP1 REVERT JUMPDEST PUSH2 0xB6 DUP2 PUSH2 0x121 PUSH1 0x20 SHL PUSH1 0x20 SHR JUMP JUMPDEST POP PUSH1 0x1 PUSH2 0xD5 PUSH2 0xCA PUSH2 0x1E2 PUSH1 0x20 SHL PUSH1 0x20 SHR JUMP JUMPDEST PUSH2 0x20B PUSH1 0x20 SHL PUSH1 0x20 SHR JUMP JUMPDEST PUSH0 ADD DUP2 SWAP1 SSTORE POP DUP1 PUSH1 0x1 PUSH0 PUSH2 0x100 EXP DUP2 SLOAD DUP2 PUSH20 0xFFFFFFFFFFFFFFFFFFFFFFFFFFFFFFFFFFFFFFFF MUL NOT AND SWAP1 DUP4 PUSH20 0xFFFFFFFFFFFFFFFFFFFFFFFFFFFFFFFFFFFFFFFF AND MUL OR SWAP1 SSTORE POP POP PUSH2 0x2C5 JUMP JUMPDEST PUSH0 PUSH0 PUSH0 SWAP1 SLOAD SWAP1 PUSH2 0x100 EXP SWAP1 DIV PUSH20 0xFFFFFFFFFFFFFFFFFFFFFFFFFFFFFFFFFFFFFFFF AND SWAP1 POP DUP2 PUSH0 PUSH0 PUSH2 0x100 EXP DUP2 SLOAD DUP2 PUSH20 0xFFFFFFFFFFFFFFFFFFFFFFFFFFFFFFFFFFFFFFFF MUL NOT AND SWAP1 DUP4 PUSH20 0xFFFFFFFFFFFFFFFFFFFFFFFFFFFFFFFFFFFFFFFF AND MUL OR SWAP1 SSTORE POP DUP2 PUSH20 0xFFFFFFFFFFFFFFFFFFFFFFFFFFFFFFFFFFFFFFFF AND DUP2 PUSH20 0xFFFFFFFFFFFFFFFFFFFFFFFFFFFFFFFFFFFFFFFF AND PUSH32 0x8BE0079C531659141344CD1FD0A4F28419497F9722A3DAAFE3B4186F6B6457E0 PUSH1 0x40 MLOAD PUSH1 0x40 MLOAD DUP1 SWAP2 SUB SWAP1 LOG3 POP POP JUMP JUMPDEST PUSH0 PUSH32 0x9B779B17422D0DF92223018B32B4D1FA46E071723D6817E2486D003BECC55F00 PUSH0 SHL SWAP1 POP SWAP1 JUMP JUMPDEST PUSH0 DUP2 SWAP1 POP SWAP2 SWAP1 POP JUMP JUMPDEST PUSH0 PUSH0 REVERT JUMPDEST PUSH0 PUSH20 0xFFFFFFFFFFFFFFFFFFFFFFFFFFFFFFFFFFFFFFFF DUP3 AND SWAP1 POP SWAP2 SWAP1 POP JUMP JUMPDEST PUSH0 PUSH2 0x241 DUP3 PUSH2 0x218 JUMP JUMPDEST SWAP1 POP SWAP2 SWAP1 POP JUMP JUMPDEST PUSH2 0x251 DUP2 PUSH2 0x237 JUMP JUMPDEST DUP2 EQ PUSH2 0x25B JUMPI PUSH0 PUSH0 REVERT JUMPDEST POP JUMP JUMPDEST PUSH0 DUP2 MLOAD SWAP1 POP PUSH2 0x26C DUP2 PUSH2 0x248 JUMP JUMPDEST SWAP3 SWAP2 POP POP JUMP JUMPDEST PUSH0 PUSH1 0x20 DUP3 DUP5 SUB SLT ISZERO PUSH2 0x287 JUMPI PUSH2 0x286 PUSH2 0x214 JUMP JUMPDEST JUMPDEST PUSH0 PUSH2 0x294 DUP5 DUP3 DUP6 ADD PUSH2 0x25E JUMP JUMPDEST SWAP2 POP POP SWAP3 SWAP2 POP POP JUMP JUMPDEST PUSH2 0x2A6 DUP2 PUSH2 0x237 JUMP JUMPDEST DUP3 MSTORE POP POP JUMP JUMPDEST PUSH0 PUSH1 0x20 DUP3 ADD SWAP1 POP PUSH2 0x2BF PUSH0 DUP4 ADD DUP5 PUSH2 0x29D JUMP JUMPDEST SWAP3 SWAP2 POP POP JUMP JUMPDEST PUSH2 0xE00 DUP1 PUSH2 0x2D2 PUSH0 CODECOPY PUSH0 RETURN INVALID PUSH1 0x80 PUSH1 0x40 MSTORE CALLVALUE DUP1 ISZERO PUSH2 0xF JUMPI PUSH0 PUSH0 REVERT JUMPDEST POP PUSH1 0x4 CALLDATASIZE LT PUSH2 0xA7 JUMPI PUSH0 CALLDATALOAD PUSH1 0xE0 SHR DUP1 PUSH4 0x7B0A47EE GT PUSH2 0x6F JUMPI DUP1 PUSH4 0x7B0A47EE EQ PUSH2 0x13D JUMPI DUP1 PUSH4 0x8DA5CB5B EQ PUSH2 0x15B JUMPI DUP1 PUSH4 0x9E447FC6 EQ PUSH2 0x179 JUMPI DUP1 PUSH4 0xA694FC3A EQ PUSH2 0x195 JUMPI DUP1 PUSH4 0xD82E3962 EQ PUSH2 0x1B1 JUMPI DUP1 PUSH4 0xF2FDE38B EQ PUSH2 0x1E1 JUMPI PUSH2 0xA7 JUMP JUMPDEST DUP1 PUSH4 0x2DEF6620 EQ PUSH2 0xAB JUMPI DUP1 PUSH4 0x583D42FD EQ PUSH2 0xB5 JUMPI DUP1 PUSH4 0x60217267 EQ PUSH2 0xE5 JUMPI DUP1 PUSH4 0x715018A6 EQ PUSH2 0x115 JUMPI DUP1 PUSH4 0x72F702F3 EQ PUSH2 0x11F JUMPI JUMPDEST PUSH0 PUSH0 REVERT JUMPDEST PUSH2 0xB3 PUSH2 0x1FD JUMP JUMPDEST STOP JUMPDEST PUSH2 0xCF PUSH1 0x4 DUP1 CALLDATASIZE SUB DUP2 ADD SWAP1 PUSH2 0xCA SWAP2 SWAP1 PUSH2 0x9B0 JUMP JUMPDEST PUSH2 0x3CC JUMP JUMPDEST PUSH1 0x40 MLOAD PUSH2 0xDC SWAP2 SWAP1 PUSH2 0x9F3 JUMP JUMPDEST PUSH1 0x40 MLOAD DUP1 SWAP2 SUB SWAP1 RETURN JUMPDEST PUSH2 0xFF PUSH1 0x4 DUP1 CALLDATASIZE SUB DUP2 ADD SWAP1 PUSH2 0xFA SWAP2 SWAP1 PUSH2 0x9B0 JUMP JUMPDEST PUSH2 0x3E1 JUMP JUMPDEST PUSH1 0x40 MLOAD PUSH2 0x10C SWAP2 SWAP1 PUSH2 0x9F3 JUMP JUMPDEST PUSH1 0x40 MLOAD DUP1 SWAP2 SUB SWAP1 RETURN JUMPDEST PUSH2 0x11D PUSH2 0x3F6 JUMP JUMPDEST STOP JUMPDEST PUSH2 0x127 PUSH2 0x409 JUMP JUMPDEST PUSH1 0x40 MLOAD PUSH2 0x134 SWAP2 SWAP1 PUSH2 0xA67 JUMP JUMPDEST PUSH1 0x40 MLOAD DUP1 SWAP2 SUB SWAP1 RETURN JUMPDEST PUSH2 0x145 PUSH2 0x42E JUMP JUMPDEST PUSH1 0x40 MLOAD PUSH2 0x152 SWAP2 SWAP1 PUSH2 0x9F3 JUMP JUMPDEST PUSH1 0x40 MLOAD DUP1 SWAP2 SUB SWAP1 RETURN JUMPDEST PUSH2 0x163 PUSH2 0x434 JUMP JUMPDEST PUSH1 0x40 MLOAD PUSH2 0x170 SWAP2 SWAP1 PUSH2 0xA8F JUMP JUMPDEST PUSH1 0x40 MLOAD DUP1 SWAP2 SUB SWAP1 RETURN JUMPDEST PUSH2 0x193 PUSH1 0x4 DUP1 CALLDATASIZE SUB DUP2 ADD SWAP1 PUSH2 0x18E SWAP2 SWAP1 PUSH2 0xAD2 JUMP JUMPDEST PUSH2 0x45B JUMP JUMPDEST STOP JUMPDEST PUSH2 0x1AF PUSH1 0x4 DUP1 CALLDATASIZE SUB DUP2 ADD SWAP1 PUSH2 0x1AA SWAP2 SWAP1 PUSH2 0xAD2 JUMP JUMPDEST PUSH2 0x46D JUMP JUMPDEST STOP JUMPDEST PUSH2 0x1CB PUSH1 0x4 DUP1 CALLDATASIZE SUB DUP2 ADD SWAP1 PUSH2 0x1C6 SWAP2 SWAP1 PUSH2 0x9B0 JUMP JUMPDEST PUSH2 0x5F6 JUMP JUMPDEST PUSH1 0x40 MLOAD PUSH2 0x1D8 SWAP2 SWAP1 PUSH2 0x9F3 JUMP JUMPDEST PUSH1 0x40 MLOAD DUP1 SWAP2 SUB SWAP1 RETURN JUMPDEST PUSH2 0x1FB PUSH1 0x4 DUP1 CALLDATASIZE SUB DUP2 ADD SWAP1 PUSH2 0x1F6 SWAP2 SWAP1 PUSH2 0x9B0 JUMP JUMPDEST PUSH2 0x6B4 JUMP JUMPDEST STOP JUMPDEST PUSH2 0x205 PUSH2 0x738 JUMP JUMPDEST PUSH0 PUSH1 0x2 PUSH0 CALLER PUSH20 0xFFFFFFFFFFFFFFFFFFFFFFFFFFFFFFFFFFFFFFFF AND PUSH20 0xFFFFFFFFFFFFFFFFFFFFFFFFFFFFFFFFFFFFFFFF AND DUP2 MSTORE PUSH1 0x20 ADD SWAP1 DUP2 MSTORE PUSH1 0x20 ADD PUSH0 KECCAK256 SLOAD SWAP1 POP PUSH0 DUP2 GT PUSH2 0x288 JUMPI PUSH1 0x40 MLOAD PUSH32 0x8C379A000000000000000000000000000000000000000000000000000000000 DUP2 MSTORE PUSH1 0x4 ADD PUSH2 0x27F SWAP1 PUSH2 0xB57 JUMP JUMPDEST PUSH1 0x40 MLOAD DUP1 SWAP2 SUB SWAP1 REVERT JUMPDEST PUSH0 PUSH2 0x292 CALLER PUSH2 0x5F6 JUMP JUMPDEST SWAP1 POP PUSH0 PUSH1 0x2 PUSH0 CALLER PUSH20 0xFFFFFFFFFFFFFFFFFFFFFFFFFFFFFFFFFFFFFFFF AND PUSH20 0xFFFFFFFFFFFFFFFFFFFFFFFFFFFFFFFFFFFFFFFF AND DUP2 MSTORE PUSH1 0x20 ADD SWAP1 DUP2 MSTORE PUSH1 0x20 ADD PUSH0 KECCAK256 DUP2 SWAP1 SSTORE POP PUSH0 PUSH1 0x3 PUSH0 CALLER PUSH20 0xFFFFFFFFFFFFFFFFFFFFFFFFFFFFFFFFFFFFFFFF AND PUSH20 0xFFFFFFFFFFFFFFFFFFFFFFFFFFFFFFFFFFFFFFFF AND DUP2 MSTORE PUSH1 0x20 ADD SWAP1 DUP2 MSTORE PUSH1 0x20 ADD PUSH0 KECCAK256 DUP2 SWAP1 SSTORE POP PUSH1 0x1 PUSH0 SWAP1 SLOAD SWAP1 PUSH2 0x100 EXP SWAP1 DIV PUSH20 0xFFFFFFFFFFFFFFFFFFFFFFFFFFFFFFFFFFFFFFFF AND PUSH20 0xFFFFFFFFFFFFFFFFFFFFFFFFFFFFFFFFFFFFFFFF AND PUSH4 0xA9059CBB CALLER DUP4 DUP6 PUSH2 0x362 SWAP2 SWAP1 PUSH2 0xBA2 JUMP JUMPDEST PUSH1 0x40 MLOAD DUP4 PUSH4 0xFFFFFFFF AND PUSH1 0xE0 SHL DUP2 MSTORE PUSH1 0x4 ADD PUSH2 0x37F SWAP3 SWAP2 SWAP1 PUSH2 0xBD5 JUMP JUMPDEST PUSH1 0x20 PUSH1 0x40 MLOAD DUP1 DUP4 SUB DUP2 PUSH0 DUP8 GAS CALL ISZERO DUP1 ISZERO PUSH2 0x39B JUMPI RETURNDATASIZE PUSH0 PUSH0 RETURNDATACOPY RETURNDATASIZE PUSH0 REVERT JUMPDEST POP POP POP POP PUSH1 0x40 MLOAD RETURNDATASIZE PUSH1 0x1F NOT PUSH1 0x1F DUP3 ADD AND DUP3 ADD DUP1 PUSH1 0x40 MSTORE POP DUP2 ADD SWAP1 PUSH2 0x3BF SWAP2 SWAP1 PUSH2 0xC31 JUMP JUMPDEST POP POP POP PUSH2 0x3CA PUSH2 0x75A JUMP JUMPDEST JUMP JUMPDEST PUSH1 0x3 PUSH1 0x20 MSTORE DUP1 PUSH0 MSTORE PUSH1 0x40 PUSH0 KECCAK256 PUSH0 SWAP2 POP SWAP1 POP SLOAD DUP2 JUMP JUMPDEST PUSH1 0x2 PUSH1 0x20 MSTORE DUP1 PUSH0 MSTORE PUSH1 0x40 PUSH0 KECCAK256 PUSH0 SWAP2 POP SWAP1 POP SLOAD DUP2 JUMP JUMPDEST PUSH2 0x3FE PUSH2 0x774 JUMP JUMPDEST PUSH2 0x407 PUSH0 PUSH2 0x7FB JUMP JUMPDEST JUMP JUMPDEST PUSH1 0x1 PUSH0 SWAP1 SLOAD SWAP1 PUSH2 0x100 EXP SWAP1 DIV PUSH20 0xFFFFFFFFFFFFFFFFFFFFFFFFFFFFFFFFFFFFFFFF AND DUP2 JUMP JUMPDEST PUSH1 0x4 SLOAD DUP2 JUMP JUMPDEST PUSH0 PUSH0 PUSH0 SWAP1 SLOAD SWAP1 PUSH2 0x100 EXP SWAP1 DIV PUSH20 0xFFFFFFFFFFFFFFFFFFFFFFFFFFFFFFFFFFFFFFFF AND SWAP1 POP SWAP1 JUMP JUMPDEST PUSH2 0x463 PUSH2 0x774 JUMP JUMPDEST DUP1 PUSH1 0x4 DUP2 SWAP1 SSTORE POP POP JUMP JUMPDEST PUSH2 0x475 PUSH2 0x738 JUMP JUMPDEST PUSH0 DUP2 GT PUSH2 0x4B7 JUMPI PUSH1 0x40 MLOAD PUSH32 0x8C379A000000000000000000000000000000000000000000000000000000000 DUP2 MSTORE PUSH1 0x4 ADD PUSH2 0x4AE SWAP1 PUSH2 0xCA6 JUMP JUMPDEST PUSH1 0x40 MLOAD DUP1 SWAP2 SUB SWAP1 REVERT JUMPDEST PUSH1 0x1 PUSH0 SWAP1 SLOAD SWAP1 PUSH2 0x100 EXP SWAP1 DIV PUSH20 0xFFFFFFFFFFFFFFFFFFFFFFFFFFFFFFFFFFFFFFFF AND PUSH20 0xFFFFFFFFFFFFFFFFFFFFFFFFFFFFFFFFFFFFFFFF AND PUSH4 0x23B872DD CALLER ADDRESS DUP5 PUSH1 0x40 MLOAD DUP5 PUSH4 0xFFFFFFFF AND PUSH1 0xE0 SHL DUP2 MSTORE PUSH1 0x4 ADD PUSH2 0x515 SWAP4 SWAP3 SWAP2 SWAP1 PUSH2 0xCC4 JUMP JUMPDEST PUSH1 0x20 PUSH1 0x40 MLOAD DUP1 DUP4 SUB DUP2 PUSH0 DUP8 GAS CALL ISZERO DUP1 ISZERO PUSH2 0x531 JUMPI RETURNDATASIZE PUSH0 PUSH0 RETURNDATACOPY RETURNDATASIZE PUSH0 REVERT JUMPDEST POP POP POP POP PUSH1 0x40 MLOAD RETURNDATASIZE PUSH1 0x1F NOT PUSH1 0x1F DUP3 ADD AND DUP3 ADD DUP1 PUSH1 0x40 MSTORE POP DUP2 ADD SWAP1 PUSH2 0x555 SWAP2 SWAP1 PUSH2 0xC31 JUMP JUMPDEST POP DUP1 PUSH1 0x2 PUSH0 CALLER PUSH20 0xFFFFFFFFFFFFFFFFFFFFFFFFFFFFFFFFFFFFFFFF AND PUSH20 0xFFFFFFFFFFFFFFFFFFFFFFFFFFFFFFFFFFFFFFFF AND DUP2 MSTORE PUSH1 0x20 ADD SWAP1 DUP2 MSTORE PUSH1 0x20 ADD PUSH0 KECCAK256 PUSH0 DUP3 DUP3 SLOAD PUSH2 0x5A2 SWAP2 SWAP1 PUSH2 0xBA2 JUMP JUMPDEST SWAP3 POP POP DUP2 SWAP1 SSTORE POP TIMESTAMP PUSH1 0x3 PUSH0 CALLER PUSH20 0xFFFFFFFFFFFFFFFFFFFFFFFFFFFFFFFFFFFFFFFF AND PUSH20 0xFFFFFFFFFFFFFFFFFFFFFFFFFFFFFFFFFFFFFFFF AND DUP2 MSTORE PUSH1 0x20 ADD SWAP1 DUP2 MSTORE PUSH1 0x20 ADD PUSH0 KECCAK256 DUP2 SWAP1 SSTORE POP PUSH2 0x5F3 PUSH2 0x75A JUMP JUMPDEST POP JUMP JUMPDEST PUSH0 PUSH0 PUSH1 0x3 PUSH0 DUP5 PUSH20 0xFFFFFFFFFFFFFFFFFFFFFFFFFFFFFFFFFFFFFFFF AND PUSH20 0xFFFFFFFFFFFFFFFFFFFFFFFFFFFFFFFFFFFFFFFF AND DUP2 MSTORE PUSH1 0x20 ADD SWAP1 DUP2 MSTORE PUSH1 0x20 ADD PUSH0 KECCAK256 SLOAD TIMESTAMP PUSH2 0x641 SWAP2 SWAP1 PUSH2 0xCF9 JUMP JUMPDEST SWAP1 POP PUSH8 0xDE0B6B3A7640000 PUSH1 0x4 SLOAD DUP3 PUSH1 0x2 PUSH0 DUP8 PUSH20 0xFFFFFFFFFFFFFFFFFFFFFFFFFFFFFFFFFFFFFFFF AND PUSH20 0xFFFFFFFFFFFFFFFFFFFFFFFFFFFFFFFFFFFFFFFF AND DUP2 MSTORE PUSH1 0x20 ADD SWAP1 DUP2 MSTORE PUSH1 0x20 ADD PUSH0 KECCAK256 SLOAD PUSH2 0x698 SWAP2 SWAP1 PUSH2 0xD2C JUMP JUMPDEST PUSH2 0x6A2 SWAP2 SWAP1 PUSH2 0xD2C JUMP JUMPDEST PUSH2 0x6AC SWAP2 SWAP1 PUSH2 0xD9A JUMP JUMPDEST SWAP2 POP POP SWAP2 SWAP1 POP JUMP JUMPDEST PUSH2 0x6BC PUSH2 0x774 JUMP JUMPDEST PUSH0 PUSH20 0xFFFFFFFFFFFFFFFFFFFFFFFFFFFFFFFFFFFFFFFF AND DUP2 PUSH20 0xFFFFFFFFFFFFFFFFFFFFFFFFFFFFFFFFFFFFFFFF AND SUB PUSH2 0x72C JUMPI PUSH0 PUSH1 0x40 MLOAD PUSH32 0x1E4FBDF700000000000000000000000000000000000000000000000000000000 DUP2 MSTORE PUSH1 0x4 ADD PUSH2 0x723 SWAP2 SWAP1 PUSH2 0xA8F JUMP JUMPDEST PUSH1 0x40 MLOAD DUP1 SWAP2 SUB SWAP1 REVERT JUMPDEST PUSH2 0x735 DUP2 PUSH2 0x7FB JUMP JUMPDEST POP JUMP JUMPDEST PUSH2 0x740 PUSH2 0x8BC JUMP JUMPDEST PUSH1 0x2 PUSH2 0x752 PUSH2 0x74D PUSH2 0x8FD JUMP JUMPDEST PUSH2 0x926 JUMP JUMPDEST PUSH0 ADD DUP2 SWAP1 SSTORE POP JUMP JUMPDEST PUSH1 0x1 PUSH2 0x76C PUSH2 0x767 PUSH2 0x8FD JUMP JUMPDEST PUSH2 0x926 JUMP JUMPDEST PUSH0 ADD DUP2 SWAP1 SSTORE POP JUMP JUMPDEST PUSH2 0x77C PUSH2 0x92F JUMP JUMPDEST PUSH20 0xFFFFFFFFFFFFFFFFFFFFFFFFFFFFFFFFFFFFFFFF AND PUSH2 0x79A PUSH2 0x434 JUMP JUMPDEST PUSH20 0xFFFFFFFFFFFFFFFFFFFFFFFFFFFFFFFFFFFFFFFF AND EQ PUSH2 0x7F9 JUMPI PUSH2 0x7BD PUSH2 0x92F JUMP JUMPDEST PUSH1 0x40 MLOAD PUSH32 0x118CDAA700000000000000000000000000000000000000000000000000000000 DUP2 MSTORE PUSH1 0x4 ADD PUSH2 0x7F0 SWAP2 SWAP1 PUSH2 0xA8F JUMP JUMPDEST PUSH1 0x40 MLOAD DUP1 SWAP2 SUB SWAP1 REVERT JUMPDEST JUMP JUMPDEST PUSH0 PUSH0 PUSH0 SWAP1 SLOAD SWAP1 PUSH2 0x100 EXP SWAP1 DIV PUSH20 0xFFFFFFFFFFFFFFFFFFFFFFFFFFFFFFFFFFFFFFFF AND SWAP1 POP DUP2 PUSH0 PUSH0 PUSH2 0x100 EXP DUP2 SLOAD DUP2 PUSH20 0xFFFFFFFFFFFFFFFFFFFFFFFFFFFFFFFFFFFFFFFF MUL NOT AND SWAP1 DUP4 PUSH20 0xFFFFFFFFFFFFFFFFFFFFFFFFFFFFFFFFFFFFFFFF AND MUL OR SWAP1 SSTORE POP DUP2 PUSH20 0xFFFFFFFFFFFFFFFFFFFFFFFFFFFFFFFFFFFFFFFF AND DUP2 PUSH20 0xFFFFFFFFFFFFFFFFFFFFFFFFFFFFFFFFFFFFFFFF AND PUSH32 0x8BE0079C531659141344CD1FD0A4F28419497F9722A3DAAFE3B4186F6B6457E0 PUSH1 0x40 MLOAD PUSH1 0x40 MLOAD DUP1 SWAP2 SUB SWAP1 LOG3 POP POP JUMP JUMPDEST PUSH2 0x8C4 PUSH2 0x936 JUMP JUMPDEST ISZERO PUSH2 0x8FB JUMPI PUSH1 0x40 MLOAD PUSH32 0x3EE5AEB500000000000000000000000000000000000000000000000000000000 DUP2 MSTORE PUSH1 0x4 ADD PUSH1 0x40 MLOAD DUP1 SWAP2 SUB SWAP1 REVERT JUMPDEST JUMP JUMPDEST PUSH0 PUSH32 0x9B779B17422D0DF92223018B32B4D1FA46E071723D6817E2486D003BECC55F00 PUSH0 SHL SWAP1 POP SWAP1 JUMP JUMPDEST PUSH0 DUP2 SWAP1 POP SWAP2 SWAP1 POP JUMP JUMPDEST PUSH0 CALLER SWAP1 POP SWAP1 JUMP JUMPDEST PUSH0 PUSH1 0x2 PUSH2 0x949 PUSH2 0x944 PUSH2 0x8FD JUMP JUMPDEST PUSH2 0x926 JUMP JUMPDEST PUSH0 ADD SLOAD EQ SWAP1 POP SWAP1 JUMP JUMPDEST PUSH0 PUSH0 REVERT JUMPDEST PUSH0 PUSH20 0xFFFFFFFFFFFFFFFFFFFFFFFFFFFFFFFFFFFFFFFF DUP3 AND SWAP1 POP SWAP2 SWAP1 POP JUMP JUMPDEST PUSH0 PUSH2 0x97F DUP3 PUSH2 0x956 JUMP JUMPDEST SWAP1 POP SWAP2 SWAP1 POP JUMP JUMPDEST PUSH2 0x98F DUP2 PUSH2 0x975 JUMP JUMPDEST DUP2 EQ PUSH2 0x999 JUMPI PUSH0 PUSH0 REVERT JUMPDEST POP JUMP JUMPDEST PUSH0 DUP2 CALLDATALOAD SWAP1 POP PUSH2 0x9AA DUP2 PUSH2 0x986 JUMP JUMPDEST SWAP3 SWAP2 POP POP JUMP JUMPDEST PUSH0 PUSH1 0x20 DUP3 DUP5 SUB SLT ISZERO PUSH2 0x9C5 JUMPI PUSH2 0x9C4 PUSH2 0x952 JUMP JUMPDEST JUMPDEST PUSH0 PUSH2 0x9D2 DUP5 DUP3 DUP6 ADD PUSH2 0x99C JUMP JUMPDEST SWAP2 POP POP SWAP3 SWAP2 POP POP JUMP JUMPDEST PUSH0 DUP2 SWAP1 POP SWAP2 SWAP1 POP JUMP JUMPDEST PUSH2 0x9ED DUP2 PUSH2 0x9DB JUMP JUMPDEST DUP3 MSTORE POP POP JUMP JUMPDEST PUSH0 PUSH1 0x20 DUP3 ADD SWAP1 POP PUSH2 0xA06 PUSH0 DUP4 ADD DUP5 PUSH2 0x9E4 JUMP JUMPDEST SWAP3 SWAP2 POP POP JUMP JUMPDEST PUSH0 DUP2 SWAP1 POP SWAP2 SWAP1 POP JUMP JUMPDEST PUSH0 PUSH2 0xA2F PUSH2 0xA2A PUSH2 0xA25 DUP5 PUSH2 0x956 JUMP JUMPDEST PUSH2 0xA0C JUMP JUMPDEST PUSH2 0x956 JUMP JUMPDEST SWAP1 POP SWAP2 SWAP1 POP JUMP JUMPDEST PUSH0 PUSH2 0xA40 DUP3 PUSH2 0xA15 JUMP JUMPDEST SWAP1 POP SWAP2 SWAP1 POP JUMP JUMPDEST PUSH0 PUSH2 0xA51 DUP3 PUSH2 0xA36 JUMP JUMPDEST SWAP1 POP SWAP2 SWAP1 POP JUMP JUMPDEST PUSH2 0xA61 DUP2 PUSH2 0xA47 JUMP JUMPDEST DUP3 MSTORE POP POP JUMP JUMPDEST PUSH0 PUSH1 0x20 DUP3 ADD SWAP1 POP PUSH2 0xA7A PUSH0 DUP4 ADD DUP5 PUSH2 0xA58 JUMP JUMPDEST SWAP3 SWAP2 POP POP JUMP JUMPDEST PUSH2 0xA89 DUP2 PUSH2 0x975 JUMP JUMPDEST DUP3 MSTORE POP POP JUMP JUMPDEST PUSH0 PUSH1 0x20 DUP3 ADD SWAP1 POP PUSH2 0xAA2 PUSH0 DUP4 ADD DUP5 PUSH2 0xA80 JUMP JUMPDEST SWAP3 SWAP2 POP POP JUMP JUMPDEST PUSH2 0xAB1 DUP2 PUSH2 0x9DB JUMP JUMPDEST DUP2 EQ PUSH2 0xABB JUMPI PUSH0 PUSH0 REVERT JUMPDEST POP JUMP JUMPDEST PUSH0 DUP2 CALLDATALOAD SWAP1 POP PUSH2 0xACC DUP2 PUSH2 0xAA8 JUMP JUMPDEST SWAP3 SWAP2 POP POP JUMP JUMPDEST PUSH0 PUSH1 0x20 DUP3 DUP5 SUB SLT ISZERO PUSH2 0xAE7 JUMPI PUSH2 0xAE6 PUSH2 0x952 JUMP JUMPDEST JUMPDEST PUSH0 PUSH2 0xAF4 DUP5 DUP3 DUP6 ADD PUSH2 0xABE JUMP JUMPDEST SWAP2 POP POP SWAP3 SWAP2 POP POP JUMP JUMPDEST PUSH0 DUP3 DUP3 MSTORE PUSH1 0x20 DUP3 ADD SWAP1 POP SWAP3 SWAP2 POP POP JUMP JUMPDEST PUSH32 0x4E61646120706172612072657469726172000000000000000000000000000000 PUSH0 DUP3 ADD MSTORE POP JUMP JUMPDEST PUSH0 PUSH2 0xB41 PUSH1 0x11 DUP4 PUSH2 0xAFD JUMP JUMPDEST SWAP2 POP PUSH2 0xB4C DUP3 PUSH2 0xB0D JUMP JUMPDEST PUSH1 0x20 DUP3 ADD SWAP1 POP SWAP2 SWAP1 POP JUMP JUMPDEST PUSH0 PUSH1 0x20 DUP3 ADD SWAP1 POP DUP2 DUP2 SUB PUSH0 DUP4 ADD MSTORE PUSH2 0xB6E DUP2 PUSH2 0xB35 JUMP JUMPDEST SWAP1 POP SWAP2 SWAP1 POP JUMP JUMPDEST PUSH32 0x4E487B7100000000000000000000000000000000000000000000000000000000 PUSH0 MSTORE PUSH1 0x11 PUSH1 0x4 MSTORE PUSH1 0x24 PUSH0 REVERT JUMPDEST PUSH0 PUSH2 0xBAC DUP3 PUSH2 0x9DB JUMP JUMPDEST SWAP2 POP PUSH2 0xBB7 DUP4 PUSH2 0x9DB JUMP JUMPDEST SWAP3 POP DUP3 DUP3 ADD SWAP1 POP DUP1 DUP3 GT ISZERO PUSH2 0xBCF JUMPI PUSH2 0xBCE PUSH2 0xB75 JUMP JUMPDEST JUMPDEST SWAP3 SWAP2 POP POP JUMP JUMPDEST PUSH0 PUSH1 0x40 DUP3 ADD SWAP1 POP PUSH2 0xBE8 PUSH0 DUP4 ADD DUP6 PUSH2 0xA80 JUMP JUMPDEST PUSH2 0xBF5 PUSH1 0x20 DUP4 ADD DUP5 PUSH2 0x9E4 JUMP JUMPDEST SWAP4 SWAP3 POP POP POP JUMP JUMPDEST PUSH0 DUP2 ISZERO ISZERO SWAP1 POP SWAP2 SWAP1 POP JUMP JUMPDEST PUSH2 0xC10 DUP2 PUSH2 0xBFC JUMP JUMPDEST DUP2 EQ PUSH2 0xC1A JUMPI PUSH0 PUSH0 REVERT JUMPDEST POP JUMP JUMPDEST PUSH0 DUP2 MLOAD SWAP1 POP PUSH2 0xC2B DUP2 PUSH2 0xC07 JUMP JUMPDEST SWAP3 SWAP2 POP POP JUMP JUMPDEST PUSH0 PUSH1 0x20 DUP3 DUP5 SUB SLT ISZERO PUSH2 0xC46 JUMPI PUSH2 0xC45 PUSH2 0x952 JUMP JUMPDEST JUMPDEST PUSH0 PUSH2 0xC53 DUP5 DUP3 DUP6 ADD PUSH2 0xC1D JUMP JUMPDEST SWAP2 POP POP SWAP3 SWAP2 POP POP JUMP JUMPDEST PUSH32 0x56616C6F7220696E76616C69646F000000000000000000000000000000000000 PUSH0 DUP3 ADD MSTORE POP JUMP JUMPDEST PUSH0 PUSH2 0xC90 PUSH1 0xE DUP4 PUSH2 0xAFD JUMP JUMPDEST SWAP2 POP PUSH2 0xC9B DUP3 PUSH2 0xC5C JUMP JUMPDEST PUSH1 0x20 DUP3 ADD SWAP1 POP SWAP2 SWAP1 POP JUMP JUMPDEST PUSH0 PUSH1 0x20 DUP3 ADD SWAP1 POP DUP2 DUP2 SUB PUSH0 DUP4 ADD MSTORE PUSH2 0xCBD DUP2 PUSH2 0xC84 JUMP JUMPDEST SWAP1 POP SWAP2 SWAP1 POP JUMP JUMPDEST PUSH0 PUSH1 0x60 DUP3 ADD SWAP1 POP PUSH2 0xCD7 PUSH0 DUP4 ADD DUP7 PUSH2 0xA80 JUMP JUMPDEST PUSH2 0xCE4 PUSH1 0x20 DUP4 ADD DUP6 PUSH2 0xA80 JUMP JUMPDEST PUSH2 0xCF1 PUSH1 0x40 DUP4 ADD DUP5 PUSH2 0x9E4 JUMP JUMPDEST SWAP5 SWAP4 POP POP POP POP JUMP JUMPDEST PUSH0 PUSH2 0xD03 DUP3 PUSH2 0x9DB JUMP JUMPDEST SWAP2 POP PUSH2 0xD0E DUP4 PUSH2 0x9DB JUMP JUMPDEST SWAP3 POP DUP3 DUP3 SUB SWAP1 POP DUP2 DUP2 GT ISZERO PUSH2 0xD26 JUMPI PUSH2 0xD25 PUSH2 0xB75 JUMP JUMPDEST JUMPDEST SWAP3 SWAP2 POP POP JUMP JUMPDEST PUSH0 PUSH2 0xD36 DUP3 PUSH2 0x9DB JUMP JUMPDEST SWAP2 POP PUSH2 0xD41 DUP4 PUSH2 0x9DB JUMP JUMPDEST SWAP3 POP DUP3 DUP3 MUL PUSH2 0xD4F DUP2 PUSH2 0x9DB JUMP JUMPDEST SWAP2 POP DUP3 DUP3 DIV DUP5 EQ DUP4 ISZERO OR PUSH2 0xD66 JUMPI PUSH2 0xD65 PUSH2 0xB75 JUMP JUMPDEST JUMPDEST POP SWAP3 SWAP2 POP POP JUMP JUMPDEST PUSH32 0x4E487B7100000000000000000000000000000000000000000000000000000000 PUSH0 MSTORE PUSH1 0x12 PUSH1 0x4 MSTORE PUSH1 0x24 PUSH0 REVERT JUMPDEST PUSH0 PUSH2 0xDA4 DUP3 PUSH2 0x9DB JUMP JUMPDEST SWAP2 POP PUSH2 0xDAF DUP4 PUSH2 0x9DB JUMP JUMPDEST SWAP3 POP DUP3 PUSH2 0xDBF JUMPI PUSH2 0xDBE PUSH2 0xD6D JUMP JUMPDEST JUMPDEST DUP3 DUP3 DIV SWAP1 POP SWAP3 SWAP2 POP POP JUMP INVALID LOG2 PUSH5 0x6970667358 0x22 SLT KECCAK256 0xC7 0xD7 SWAP6 CALLVALUE GASLIMIT SWAP5 0x4F LOG2 0x2C CALLVALUE 0xB5 0x2B PUSH18 0x42813614D4C8BA451F0419394C79AEBD8C22 PUSH19 0x64736F6C634300082200330000000000000000 "
				},
				"gasEstimates": {
					"creation": {
						"codeDepositCost": "716800",
						"executionCost": "infinite",
						"totalCost": "infinite"
					},
					"external": {
						"calculateReward(address)": "infinite",
						"owner()": "2536",
						"renounceOwnership()": "infinite",
						"rewardRate()": "2425",
						"setRewardRate(uint256)": "infinite",
						"stake(uint256)": "infinite",
						"stakedBalance(address)": "2847",
						"stakingTime(address)": "2825",
						"stakingToken()": "infinite",
						"transferOwnership(address)": "infinite",
						"unstake()": "infinite"
					}
				},
				"methodIdentifiers": {
					"calculateReward(address)": "d82e3962",
					"owner()": "8da5cb5b",
					"renounceOwnership()": "715018a6",
					"rewardRate()": "7b0a47ee",
					"setRewardRate(uint256)": "9e447fc6",
					"stake(uint256)": "a694fc3a",
					"stakedBalance(address)": "60217267",
					"stakingTime(address)": "583d42fd",
					"stakingToken()": "72f702f3",
					"transferOwnership(address)": "f2fde38b",
					"unstake()": "2def6620"
				}
			},
			"storageLayout": {
				"storage": [
					{
						"astId": 8,
						"contract": "contracts/Staking.sol:Staking",
						"label": "_owner",
						"offset": 0,
						"slot": "0",
						"type": "t_address"
					},
					{
						"astId": 504,
						"contract": "contracts/Staking.sol:Staking",
						"label": "stakingToken",
						"offset": 0,
						"slot": "1",
						"type": "t_contract(IERC20)225"
					},
					{
						"astId": 508,
						"contract": "contracts/Staking.sol:Staking",
						"label": "stakedBalance",
						"offset": 0,
						"slot": "2",
						"type": "t_mapping(t_address,t_uint256)"
					},
					{
						"astId": 512,
						"contract": "contracts/Staking.sol:Staking",
						"label": "stakingTime",
						"offset": 0,
						"slot": "3",
						"type": "t_mapping(t_address,t_uint256)"
					},
					{
						"astId": 515,
						"contract": "contracts/Staking.sol:Staking",
						"label": "rewardRate",
						"offset": 0,
						"slot": "4",
						"type": "t_uint256"
					}
				],
				"types": {
					"t_address": {
						"encoding": "inplace",
						"label": "address",
						"numberOfBytes": "20"
					},
					"t_contract(IERC20)225": {
						"encoding": "inplace",
						"label": "contract IERC20",
						"numberOfBytes": "20"
					},
					"t_mapping(t_address,t_uint256)": {
						"encoding": "mapping",
						"key": "t_address",
						"label": "mapping(address => uint256)",
						"numberOfBytes": "32",
						"value": "t_uint256"
					},
					"t_uint256": {
						"encoding": "inplace",
						"label": "uint256",
						"numberOfBytes": "32"
					}
				}
			},
			"userdoc": {
				"kind": "user",
				"methods": {},
				"version": 1
			}
		}
	}
}