{
	"contracts/Staking.sol": {
		"Staking": {
			"abi": [
				{
					"inputs": [],
					"stateMutability": "nonpayable",
					"type": "constructor"
				},
				{
					"inputs": [
						{
							"internalType": "address",
							"name": "owner",
							"type": "address"
						}
					],
					"name": "OwnableInvalidOwner",
					"type": "error"
				},
				{
					"inputs": [
						{
							"internalType": "address",
							"name": "account",
							"type": "address"
						}
					],
					"name": "OwnableUnauthorizedAccount",
					"type": "error"
				},
				{
					"inputs": [],
					"name": "ReentrancyGuardReentrantCall",
					"type": "error"
				},
				{
					"anonymous": false,
					"inputs": [
						{
							"indexed": true,
							"internalType": "address",
							"name": "previousOwner",
							"type": "address"
						},
						{
							"indexed": true,
							"internalType": "address",
							"name": "newOwner",
							"type": "address"
						}
					],
					"name": "OwnershipTransferred",
					"type": "event"
				},
				{
					"inputs": [
						{
							"internalType": "address",
							"name": "user",
							"type": "address"
						}
					],
					"name": "calculateReward",
					"outputs": [
						{
							"internalType": "uint256",
							"name": "",
							"type": "uint256"
						}
					],
					"stateMutability": "view",
					"type": "function"
				},
				{
					"inputs": [],
					"name": "getLatestPrice",
					"outputs": [
						{
							"internalType": "int256",
							"name": "",
							"type": "int256"
						}
					],
					"stateMutability": "view",
					"type": "function"
				},
				{
					"inputs": [],
					"name": "owner",
					"outputs": [
						{
							"internalType": "address",
							"name": "",
							"type": "address"
						}
					],
					"stateMutability": "view",
					"type": "function"
				},
				{
					"inputs": [],
					"name": "priceFeed",
					"outputs": [
						{
							"internalType": "contract AggregatorV3Interface",
							"name": "",
							"type": "address"
						}
					],
					"stateMutability": "view",
					"type": "function"
				},
				{
					"inputs": [],
					"name": "renounceOwnership",
					"outputs": [],
					"stateMutability": "nonpayable",
					"type": "function"
				},
				{
					"inputs": [],
					"name": "rewardRate",
					"outputs": [
						{
							"internalType": "uint256",
							"name": "",
							"type": "uint256"
						}
					],
					"stateMutability": "view",
					"type": "function"
				},
				{
					"inputs": [
						{
							"internalType": "address",
							"name": "_token",
							"type": "address"
						},
						{
							"internalType": "address",
							"name": "_priceFeed",
							"type": "address"
						}
					],
					"name": "setConfig",
					"outputs": [],
					"stateMutability": "nonpayable",
					"type": "function"
				},
				{
					"inputs": [
						{
							"internalType": "uint256",
							"name": "_rate",
							"type": "uint256"
						}
					],
					"name": "setRewardRate",
					"outputs": [],
					"stateMutability": "nonpayable",
					"type": "function"
				},
				{
					"inputs": [
						{
							"internalType": "uint256",
							"name": "amount",
							"type": "uint256"
						}
					],
					"name": "stake",
					"outputs": [],
					"stateMutability": "nonpayable",
					"type": "function"
				},
				{
					"inputs": [
						{
							"internalType": "address",
							"name": "",
							"type": "address"
						}
					],
					"name": "stakedBalance",
					"outputs": [
						{
							"internalType": "uint256",
							"name": "",
							"type": "uint256"
						}
					],
					"stateMutability": "view",
					"type": "function"
				},
				{
					"inputs": [
						{
							"internalType": "address",
							"name": "",
							"type": "address"
						}
					],
					"name": "stakingTime",
					"outputs": [
						{
							"internalType": "uint256",
							"name": "",
							"type": "uint256"
						}
					],
					"stateMutability": "view",
					"type": "function"
				},
				{
					"inputs": [],
					"name": "stakingToken",
					"outputs": [
						{
							"internalType": "contract IERC20",
							"name": "",
							"type": "address"
						}
					],
					"stateMutability": "view",
					"type": "function"
				},
				{
					"inputs": [
						{
							"internalType": "address",
							"name": "newOwner",
							"type": "address"
						}
					],
					"name": "transferOwnership",
					"outputs": [],
					"stateMutability": "nonpayable",
					"type": "function"
				},
				{
					"inputs": [],
					"name": "unstake",
					"outputs": [],
					"stateMutability": "nonpayable",
					"type": "function"
				}
			],
			"devdoc": {
				"errors": {
					"OwnableInvalidOwner(address)": [
						{
							"details": "The owner is not a valid owner account. (eg. `address(0)`)"
						}
					],
					"OwnableUnauthorizedAccount(address)": [
						{
							"details": "The caller account is not authorized to perform an operation."
						}
					],
					"ReentrancyGuardReentrantCall()": [
						{
							"details": "Unauthorized reentrant call."
						}
					]
				},
				"kind": "dev",
				"methods": {
					"owner()": {
						"details": "Returns the address of the current owner."
					},
					"renounceOwnership()": {
						"details": "Leaves the contract without owner. It will not be possible to call `onlyOwner` functions. Can only be called by the current owner. NOTE: Renouncing ownership will leave the contract without an owner, thereby disabling any functionality that is only available to the owner."
					},
					"transferOwnership(address)": {
						"details": "Transfers ownership of the contract to a new account (`newOwner`). Can only be called by the current owner."
					}
				},
				"version": 1
			},
			"evm": {
				"assembly": "    /* \"contracts/Staking.sol\":321:2601  contract Staking is Ownable, ReentrancyGuard {... */\n  mstore(0x40, 0x80)\n    /* \"contracts/Staking.sol\":591:592  1 */\n  0x01\n    /* \"contracts/Staking.sol\":563:592  uint256 public rewardRate = 1 */\n  0x05\n  sstore\n    /* \"contracts/Staking.sol\":601:637  constructor() Ownable(msg.sender) {} */\n  callvalue\n  dup1\n  iszero\n  tag_1\n  jumpi\n  revert(0x00, 0x00)\ntag_1:\n  pop\n    /* \"contracts/Staking.sol\":623:633  msg.sender */\n  caller\n    /* \"@openzeppelin/contracts/access/Ownable.sol\":1297:1298  0 */\n  0x00\n    /* \"@openzeppelin/contracts/access/Ownable.sol\":1273:1299  initialOwner == address(0) */\n  0xffffffffffffffffffffffffffffffffffffffff\n  and\n    /* \"@openzeppelin/contracts/access/Ownable.sol\":1273:1285  initialOwner */\n  dup2\n    /* \"@openzeppelin/contracts/access/Ownable.sol\":1273:1299  initialOwner == address(0) */\n  0xffffffffffffffffffffffffffffffffffffffff\n  and\n  sub\n    /* \"@openzeppelin/contracts/access/Ownable.sol\":1269:1364  if (initialOwner == address(0)) {... */\n  tag_6\n  jumpi\n    /* \"@openzeppelin/contracts/access/Ownable.sol\":1350:1351  0 */\n  0x00\n    /* \"@openzeppelin/contracts/access/Ownable.sol\":1322:1353  OwnableInvalidOwner(address(0)) */\n  mload(0x40)\n  0x1e4fbdf700000000000000000000000000000000000000000000000000000000\n  dup2\n  mstore\n  0x04\n  add\n  tag_7\n  swap2\n  swap1\n  tag_8\n  jump\t// in\ntag_7:\n  mload(0x40)\n  dup1\n  swap2\n  sub\n  swap1\n  revert\n    /* \"@openzeppelin/contracts/access/Ownable.sol\":1269:1364  if (initialOwner == address(0)) {... */\ntag_6:\n    /* \"@openzeppelin/contracts/access/Ownable.sol\":1373:1405  _transferOwnership(initialOwner) */\n  tag_9\n    /* \"@openzeppelin/contracts/access/Ownable.sol\":1392:1404  initialOwner */\n  dup2\n    /* \"@openzeppelin/contracts/access/Ownable.sol\":1373:1391  _transferOwnership */\n  shl(0x20, tag_10)\n    /* \"@openzeppelin/contracts/access/Ownable.sol\":1373:1405  _transferOwnership(initialOwner) */\n  0x20\n  shr\n  jump\t// in\ntag_9:\n    /* \"@openzeppelin/contracts/access/Ownable.sol\":1225:1412  constructor(address initialOwner) {... */\n  pop\n    /* \"@openzeppelin/contracts/utils/ReentrancyGuard.sol\":2365:2366  1 */\n  0x01\n    /* \"@openzeppelin/contracts/utils/ReentrancyGuard.sol\":2539:2585  _reentrancyGuardStorageSlot().getUint256Slot() */\n  tag_12\n    /* \"@openzeppelin/contracts/utils/ReentrancyGuard.sol\":2539:2568  _reentrancyGuardStorageSlot() */\n  tag_13\n    /* \"@openzeppelin/contracts/utils/ReentrancyGuard.sol\":2539:2566  _reentrancyGuardStorageSlot */\n  shl(0x20, tag_14)\n    /* \"@openzeppelin/contracts/utils/ReentrancyGuard.sol\":2539:2568  _reentrancyGuardStorageSlot() */\n  0x20\n  shr\n  jump\t// in\ntag_13:\n    /* \"@openzeppelin/contracts/utils/ReentrancyGuard.sol\":2539:2583  _reentrancyGuardStorageSlot().getUint256Slot */\n  shl(0x20, tag_15)\n    /* \"@openzeppelin/contracts/utils/ReentrancyGuard.sol\":2539:2585  _reentrancyGuardStorageSlot().getUint256Slot() */\n  0x20\n  shr\n  jump\t// in\ntag_12:\n    /* \"@openzeppelin/contracts/utils/ReentrancyGuard.sol\":2539:2591  _reentrancyGuardStorageSlot().getUint256Slot().value */\n  0x00\n  add\n    /* \"@openzeppelin/contracts/utils/ReentrancyGuard.sol\":2539:2605  _reentrancyGuardStorageSlot().getUint256Slot().value = NOT_ENTERED */\n  dup2\n  swap1\n  sstore\n  pop\n    /* \"contracts/Staking.sol\":321:2601  contract Staking is Ownable, ReentrancyGuard {... */\n  jump(tag_17)\n    /* \"@openzeppelin/contracts/access/Ownable.sol\":2912:3099  function _transferOwnership(address newOwner) internal virtual {... */\ntag_10:\n    /* \"@openzeppelin/contracts/access/Ownable.sol\":2985:3001  address oldOwner */\n  0x00\n    /* \"@openzeppelin/contracts/access/Ownable.sol\":3004:3010  _owner */\n  0x00\n  0x00\n  swap1\n  sload\n  swap1\n  0x0100\n  exp\n  swap1\n  div\n  0xffffffffffffffffffffffffffffffffffffffff\n  and\n    /* \"@openzeppelin/contracts/access/Ownable.sol\":2985:3010  address oldOwner = _owner */\n  swap1\n  pop\n    /* \"@openzeppelin/contracts/access/Ownable.sol\":3029:3037  newOwner */\n  dup2\n    /* \"@openzeppelin/contracts/access/Ownable.sol\":3020:3026  _owner */\n  0x00\n  0x00\n    /* \"@openzeppelin/contracts/access/Ownable.sol\":3020:3037  _owner = newOwner */\n  0x0100\n  exp\n  dup2\n  sload\n  dup2\n  0xffffffffffffffffffffffffffffffffffffffff\n  mul\n  not\n  and\n  swap1\n  dup4\n  0xffffffffffffffffffffffffffffffffffffffff\n  and\n  mul\n  or\n  swap1\n  sstore\n  pop\n    /* \"@openzeppelin/contracts/access/Ownable.sol\":3083:3091  newOwner */\n  dup2\n    /* \"@openzeppelin/contracts/access/Ownable.sol\":3052:3092  OwnershipTransferred(oldOwner, newOwner) */\n  0xffffffffffffffffffffffffffffffffffffffff\n  and\n    /* \"@openzeppelin/contracts/access/Ownable.sol\":3073:3081  oldOwner */\n  dup2\n    /* \"@openzeppelin/contracts/access/Ownable.sol\":3052:3092  OwnershipTransferred(oldOwner, newOwner) */\n  0xffffffffffffffffffffffffffffffffffffffff\n  and\n  0x8be0079c531659141344cd1fd0a4f28419497f9722a3daafe3b4186f6b6457e0\n  mload(0x40)\n  mload(0x40)\n  dup1\n  swap2\n  sub\n  swap1\n  log3\n    /* \"@openzeppelin/contracts/access/Ownable.sol\":2975:3099  {... */\n  pop\n    /* \"@openzeppelin/contracts/access/Ownable.sol\":2912:3099  function _transferOwnership(address newOwner) internal virtual {... */\n  pop\n  jump\t// out\n    /* \"@openzeppelin/contracts/utils/ReentrancyGuard.sol\":4636:4763  function _reentrancyGuardStorageSlot() internal pure virtual returns (bytes32) {... */\ntag_14:\n    /* \"@openzeppelin/contracts/utils/ReentrancyGuard.sol\":4706:4713  bytes32 */\n  0x00\n    /* \"@openzeppelin/contracts/utils/ReentrancyGuard.sol\":1505:1571  0x9b779b17422d0df92223018b32b4d1fa46e071723d6817e2486d003becc55f00 */\n  0x9b779b17422d0df92223018b32b4d1fa46e071723d6817e2486d003becc55f00\n    /* \"@openzeppelin/contracts/utils/ReentrancyGuard.sol\":4732:4756  REENTRANCY_GUARD_STORAGE */\n  0x00\n  shl\n    /* \"@openzeppelin/contracts/utils/ReentrancyGuard.sol\":4725:4756  return REENTRANCY_GUARD_STORAGE */\n  swap1\n  pop\n    /* \"@openzeppelin/contracts/utils/ReentrancyGuard.sol\":4636:4763  function _reentrancyGuardStorageSlot() internal pure virtual returns (bytes32) {... */\n  swap1\n  jump\t// out\n    /* \"@openzeppelin/contracts/utils/StorageSlot.sol\":2679:2842  function getUint256Slot(bytes32 slot) internal pure returns (Uint256Slot storage r) {... */\ntag_15:\n    /* \"@openzeppelin/contracts/utils/StorageSlot.sol\":2740:2761  Uint256Slot storage r */\n  0x00\n    /* \"@openzeppelin/contracts/utils/StorageSlot.sol\":2822:2826  slot */\n  dup2\n    /* \"@openzeppelin/contracts/utils/StorageSlot.sol\":2812:2826  r.slot := slot */\n  swap1\n  pop\n    /* \"@openzeppelin/contracts/utils/StorageSlot.sol\":2679:2842  function getUint256Slot(bytes32 slot) internal pure returns (Uint256Slot storage r) {... */\n  swap2\n  swap1\n  pop\n  jump\t// out\n    /* \"#utility.yul\":7:133   */\ntag_21:\n    /* \"#utility.yul\":44:51   */\n  0x00\n    /* \"#utility.yul\":84:126   */\n  0xffffffffffffffffffffffffffffffffffffffff\n    /* \"#utility.yul\":77:82   */\n  dup3\n    /* \"#utility.yul\":73:127   */\n  and\n    /* \"#utility.yul\":62:127   */\n  swap1\n  pop\n    /* \"#utility.yul\":7:133   */\n  swap2\n  swap1\n  pop\n  jump\t// out\n    /* \"#utility.yul\":139:235   */\ntag_22:\n    /* \"#utility.yul\":176:183   */\n  0x00\n    /* \"#utility.yul\":205:229   */\n  tag_27\n    /* \"#utility.yul\":223:228   */\n  dup3\n    /* \"#utility.yul\":205:229   */\n  tag_21\n  jump\t// in\ntag_27:\n    /* \"#utility.yul\":194:229   */\n  swap1\n  pop\n    /* \"#utility.yul\":139:235   */\n  swap2\n  swap1\n  pop\n  jump\t// out\n    /* \"#utility.yul\":241:359   */\ntag_23:\n    /* \"#utility.yul\":328:352   */\n  tag_29\n    /* \"#utility.yul\":346:351   */\n  dup2\n    /* \"#utility.yul\":328:352   */\n  tag_22\n  jump\t// in\ntag_29:\n    /* \"#utility.yul\":323:326   */\n  dup3\n    /* \"#utility.yul\":316:353   */\n  mstore\n    /* \"#utility.yul\":241:359   */\n  pop\n  pop\n  jump\t// out\n    /* \"#utility.yul\":365:587   */\ntag_8:\n    /* \"#utility.yul\":458:462   */\n  0x00\n    /* \"#utility.yul\":496:498   */\n  0x20\n    /* \"#utility.yul\":485:494   */\n  dup3\n    /* \"#utility.yul\":481:499   */\n  add\n    /* \"#utility.yul\":473:499   */\n  swap1\n  pop\n    /* \"#utility.yul\":509:580   */\n  tag_31\n    /* \"#utility.yul\":577:578   */\n  0x00\n    /* \"#utility.yul\":566:575   */\n  dup4\n    /* \"#utility.yul\":562:579   */\n  add\n    /* \"#utility.yul\":553:559   */\n  dup5\n    /* \"#utility.yul\":509:580   */\n  tag_23\n  jump\t// in\ntag_31:\n    /* \"#utility.yul\":365:587   */\n  swap3\n  swap2\n  pop\n  pop\n  jump\t// out\n    /* \"contracts/Staking.sol\":321:2601  contract Staking is Ownable, ReentrancyGuard {... */\ntag_17:\n  dataSize(sub_0)\n  dup1\n  dataOffset(sub_0)\n  0x00\n  codecopy\n  0x00\n  return\nstop\n\nsub_0: assembly {\n        /* \"contracts/Staking.sol\":321:2601  contract Staking is Ownable, ReentrancyGuard {... */\n      mstore(0x40, 0x80)\n      callvalue\n      dup1\n      iszero\n      tag_1\n      jumpi\n      revert(0x00, 0x00)\n    tag_1:\n      pop\n      jumpi(tag_2, lt(calldatasize, 0x04))\n      shr(0xe0, calldataload(0x00))\n      dup1\n      0x8da5cb5b\n      gt\n      tag_17\n      jumpi\n      dup1\n      0xa694fc3a\n      gt\n      tag_18\n      jumpi\n      dup1\n      0xa694fc3a\n      eq\n      tag_13\n      jumpi\n      dup1\n      0xb602024b\n      eq\n      tag_14\n      jumpi\n      dup1\n      0xd82e3962\n      eq\n      tag_15\n      jumpi\n      dup1\n      0xf2fde38b\n      eq\n      tag_16\n      jumpi\n      jump(tag_2)\n    tag_18:\n      dup1\n      0x8da5cb5b\n      eq\n      tag_10\n      jumpi\n      dup1\n      0x8e15f473\n      eq\n      tag_11\n      jumpi\n      dup1\n      0x9e447fc6\n      eq\n      tag_12\n      jumpi\n      jump(tag_2)\n    tag_17:\n      dup1\n      0x715018a6\n      gt\n      tag_19\n      jumpi\n      dup1\n      0x715018a6\n      eq\n      tag_6\n      jumpi\n      dup1\n      0x72f702f3\n      eq\n      tag_7\n      jumpi\n      dup1\n      0x741bef1a\n      eq\n      tag_8\n      jumpi\n      dup1\n      0x7b0a47ee\n      eq\n      tag_9\n      jumpi\n      jump(tag_2)\n    tag_19:\n      dup1\n      0x2def6620\n      eq\n      tag_3\n      jumpi\n      dup1\n      0x583d42fd\n      eq\n      tag_4\n      jumpi\n      dup1\n      0x60217267\n      eq\n      tag_5\n      jumpi\n    tag_2:\n      revert(0x00, 0x00)\n        /* \"contracts/Staking.sol\":1668:2089  function unstake() external nonReentrant {... */\n    tag_3:\n      tag_20\n      tag_21\n      jump\t// in\n    tag_20:\n      stop\n        /* \"contracts/Staking.sol\":508:554  mapping(address => uint256) public stakingTime */\n    tag_4:\n      tag_22\n      0x04\n      dup1\n      calldatasize\n      sub\n      dup2\n      add\n      swap1\n      tag_23\n      swap2\n      swap1\n      tag_24\n      jump\t// in\n    tag_23:\n      tag_25\n      jump\t// in\n    tag_22:\n      mload(0x40)\n      tag_26\n      swap2\n      swap1\n      tag_27\n      jump\t// in\n    tag_26:\n      mload(0x40)\n      dup1\n      swap2\n      sub\n      swap1\n      return\n        /* \"contracts/Staking.sol\":453:501  mapping(address => uint256) public stakedBalance */\n    tag_5:\n      tag_28\n      0x04\n      dup1\n      calldatasize\n      sub\n      dup2\n      add\n      swap1\n      tag_29\n      swap2\n      swap1\n      tag_24\n      jump\t// in\n    tag_29:\n      tag_30\n      jump\t// in\n    tag_28:\n      mload(0x40)\n      tag_31\n      swap2\n      swap1\n      tag_27\n      jump\t// in\n    tag_31:\n      mload(0x40)\n      dup1\n      swap2\n      sub\n      swap1\n      return\n        /* \"@openzeppelin/contracts/access/Ownable.sol\":2293:2394  function renounceOwnership() public virtual onlyOwner {... */\n    tag_6:\n      tag_32\n      tag_33\n      jump\t// in\n    tag_32:\n      stop\n        /* \"contracts/Staking.sol\":373:399  IERC20 public stakingToken */\n    tag_7:\n      tag_34\n      tag_35\n      jump\t// in\n    tag_34:\n      mload(0x40)\n      tag_36\n      swap2\n      swap1\n      tag_37\n      jump\t// in\n    tag_36:\n      mload(0x40)\n      dup1\n      swap2\n      sub\n      swap1\n      return\n        /* \"contracts/Staking.sol\":406:444  AggregatorV3Interface public priceFeed */\n    tag_8:\n      tag_38\n      tag_39\n      jump\t// in\n    tag_38:\n      mload(0x40)\n      tag_40\n      swap2\n      swap1\n      tag_41\n      jump\t// in\n    tag_40:\n      mload(0x40)\n      dup1\n      swap2\n      sub\n      swap1\n      return\n        /* \"contracts/Staking.sol\":563:592  uint256 public rewardRate = 1 */\n    tag_9:\n      tag_42\n      tag_43\n      jump\t// in\n    tag_42:\n      mload(0x40)\n      tag_44\n      swap2\n      swap1\n      tag_27\n      jump\t// in\n    tag_44:\n      mload(0x40)\n      dup1\n      swap2\n      sub\n      swap1\n      return\n        /* \"@openzeppelin/contracts/access/Ownable.sol\":1638:1723  function owner() public view virtual returns (address) {... */\n    tag_10:\n      tag_45\n      tag_46\n      jump\t// in\n    tag_45:\n      mload(0x40)\n      tag_47\n      swap2\n      swap1\n      tag_48\n      jump\t// in\n    tag_47:\n      mload(0x40)\n      dup1\n      swap2\n      sub\n      swap1\n      return\n        /* \"contracts/Staking.sol\":1085:1231  function getLatestPrice() public view returns (int256) {... */\n    tag_11:\n      tag_49\n      tag_50\n      jump\t// in\n    tag_49:\n      mload(0x40)\n      tag_51\n      swap2\n      swap1\n      tag_52\n      jump\t// in\n    tag_51:\n      mload(0x40)\n      dup1\n      swap2\n      sub\n      swap1\n      return\n        /* \"contracts/Staking.sol\":2504:2598  function setRewardRate(uint256 _rate) external onlyOwner {... */\n    tag_12:\n      tag_53\n      0x04\n      dup1\n      calldatasize\n      sub\n      dup2\n      add\n      swap1\n      tag_54\n      swap2\n      swap1\n      tag_55\n      jump\t// in\n    tag_54:\n      tag_56\n      jump\t// in\n    tag_53:\n      stop\n        /* \"contracts/Staking.sol\":1239:1660  function stake(uint256 amount) external nonReentrant {... */\n    tag_13:\n      tag_57\n      0x04\n      dup1\n      calldatasize\n      sub\n      dup2\n      add\n      swap1\n      tag_58\n      swap2\n      swap1\n      tag_55\n      jump\t// in\n    tag_58:\n      tag_59\n      jump\t// in\n    tag_57:\n      stop\n        /* \"contracts/Staking.sol\":700:1077  function setConfig(address _token, address _priceFeed) external onlyOwner {... */\n    tag_14:\n      tag_60\n      0x04\n      dup1\n      calldatasize\n      sub\n      dup2\n      add\n      swap1\n      tag_61\n      swap2\n      swap1\n      tag_62\n      jump\t// in\n    tag_61:\n      tag_63\n      jump\t// in\n    tag_60:\n      stop\n        /* \"contracts/Staking.sol\":2097:2496  function calculateReward(address user) public view returns (uint256) {... */\n    tag_15:\n      tag_64\n      0x04\n      dup1\n      calldatasize\n      sub\n      dup2\n      add\n      swap1\n      tag_65\n      swap2\n      swap1\n      tag_24\n      jump\t// in\n    tag_65:\n      tag_66\n      jump\t// in\n    tag_64:\n      mload(0x40)\n      tag_67\n      swap2\n      swap1\n      tag_27\n      jump\t// in\n    tag_67:\n      mload(0x40)\n      dup1\n      swap2\n      sub\n      swap1\n      return\n        /* \"@openzeppelin/contracts/access/Ownable.sol\":2543:2758  function transferOwnership(address newOwner) public virtual onlyOwner {... */\n    tag_16:\n      tag_68\n      0x04\n      dup1\n      calldatasize\n      sub\n      dup2\n      add\n      swap1\n      tag_69\n      swap2\n      swap1\n      tag_24\n      jump\t// in\n    tag_69:\n      tag_70\n      jump\t// in\n    tag_68:\n      stop\n        /* \"contracts/Staking.sol\":1668:2089  function unstake() external nonReentrant {... */\n    tag_21:\n        /* \"@openzeppelin/contracts/utils/ReentrancyGuard.sol\":3023:3044  _nonReentrantBefore() */\n      tag_72\n        /* \"@openzeppelin/contracts/utils/ReentrancyGuard.sol\":3023:3042  _nonReentrantBefore */\n      tag_73\n        /* \"@openzeppelin/contracts/utils/ReentrancyGuard.sol\":3023:3044  _nonReentrantBefore() */\n      jump\t// in\n    tag_72:\n        /* \"contracts/Staking.sol\":1720:1735  uint256 balance */\n      0x00\n        /* \"contracts/Staking.sol\":1738:1751  stakedBalance */\n      0x03\n        /* \"contracts/Staking.sol\":1738:1763  stakedBalance[msg.sender] */\n      0x00\n        /* \"contracts/Staking.sol\":1752:1762  msg.sender */\n      caller\n        /* \"contracts/Staking.sol\":1738:1763  stakedBalance[msg.sender] */\n      0xffffffffffffffffffffffffffffffffffffffff\n      and\n      0xffffffffffffffffffffffffffffffffffffffff\n      and\n      dup2\n      mstore\n      0x20\n      add\n      swap1\n      dup2\n      mstore\n      0x20\n      add\n      0x00\n      keccak256\n      sload\n        /* \"contracts/Staking.sol\":1720:1763  uint256 balance = stakedBalance[msg.sender] */\n      swap1\n      pop\n        /* \"contracts/Staking.sol\":1792:1793  0 */\n      0x00\n        /* \"contracts/Staking.sol\":1782:1789  balance */\n      dup2\n        /* \"contracts/Staking.sol\":1782:1793  balance > 0 */\n      gt\n        /* \"contracts/Staking.sol\":1774:1815  require(balance > 0, \"Nada para retirar\") */\n      tag_75\n      jumpi\n      mload(0x40)\n      0x08c379a000000000000000000000000000000000000000000000000000000000\n      dup2\n      mstore\n      0x04\n      add\n      tag_76\n      swap1\n      tag_77\n      jump\t// in\n    tag_76:\n      mload(0x40)\n      dup1\n      swap2\n      sub\n      swap1\n      revert\n    tag_75:\n        /* \"contracts/Staking.sol\":1828:1842  uint256 reward */\n      0x00\n        /* \"contracts/Staking.sol\":1845:1872  calculateReward(msg.sender) */\n      tag_78\n        /* \"contracts/Staking.sol\":1861:1871  msg.sender */\n      caller\n        /* \"contracts/Staking.sol\":1845:1860  calculateReward */\n      tag_66\n        /* \"contracts/Staking.sol\":1845:1872  calculateReward(msg.sender) */\n      jump\t// in\n    tag_78:\n        /* \"contracts/Staking.sol\":1828:1872  uint256 reward = calculateReward(msg.sender) */\n      swap1\n      pop\n        /* \"contracts/Staking.sol\":1913:1914  0 */\n      0x00\n        /* \"contracts/Staking.sol\":1885:1898  stakedBalance */\n      0x03\n        /* \"contracts/Staking.sol\":1885:1910  stakedBalance[msg.sender] */\n      0x00\n        /* \"contracts/Staking.sol\":1899:1909  msg.sender */\n      caller\n        /* \"contracts/Staking.sol\":1885:1910  stakedBalance[msg.sender] */\n      0xffffffffffffffffffffffffffffffffffffffff\n      and\n      0xffffffffffffffffffffffffffffffffffffffff\n      and\n      dup2\n      mstore\n      0x20\n      add\n      swap1\n      dup2\n      mstore\n      0x20\n      add\n      0x00\n      keccak256\n        /* \"contracts/Staking.sol\":1885:1914  stakedBalance[msg.sender] = 0 */\n      dup2\n      swap1\n      sstore\n      pop\n        /* \"contracts/Staking.sol\":1951:1952  0 */\n      0x00\n        /* \"contracts/Staking.sol\":1925:1936  stakingTime */\n      0x04\n        /* \"contracts/Staking.sol\":1925:1948  stakingTime[msg.sender] */\n      0x00\n        /* \"contracts/Staking.sol\":1937:1947  msg.sender */\n      caller\n        /* \"contracts/Staking.sol\":1925:1948  stakingTime[msg.sender] */\n      0xffffffffffffffffffffffffffffffffffffffff\n      and\n      0xffffffffffffffffffffffffffffffffffffffff\n      and\n      dup2\n      mstore\n      0x20\n      add\n      swap1\n      dup2\n      mstore\n      0x20\n      add\n      0x00\n      keccak256\n        /* \"contracts/Staking.sol\":1925:1952  stakingTime[msg.sender] = 0 */\n      dup2\n      swap1\n      sstore\n      pop\n        /* \"contracts/Staking.sol\":1987:1999  stakingToken */\n      0x01\n      0x00\n      swap1\n      sload\n      swap1\n      0x0100\n      exp\n      swap1\n      div\n      0xffffffffffffffffffffffffffffffffffffffff\n      and\n        /* \"contracts/Staking.sol\":1987:2008  stakingToken.transfer */\n      0xffffffffffffffffffffffffffffffffffffffff\n      and\n      0xa9059cbb\n        /* \"contracts/Staking.sol\":2009:2019  msg.sender */\n      caller\n        /* \"contracts/Staking.sol\":2031:2037  reward */\n      dup4\n        /* \"contracts/Staking.sol\":2021:2028  balance */\n      dup6\n        /* \"contracts/Staking.sol\":2021:2037  balance + reward */\n      tag_79\n      swap2\n      swap1\n      tag_80\n      jump\t// in\n    tag_79:\n        /* \"contracts/Staking.sol\":1987:2038  stakingToken.transfer(msg.sender, balance + reward) */\n      mload(0x40)\n      dup4\n      0xffffffff\n      and\n      0xe0\n      shl\n      dup2\n      mstore\n      0x04\n      add\n      tag_81\n      swap3\n      swap2\n      swap1\n      tag_82\n      jump\t// in\n    tag_81:\n      0x20\n      mload(0x40)\n      dup1\n      dup4\n      sub\n      dup2\n      0x00\n      dup8\n      gas\n      call\n      iszero\n      dup1\n      iszero\n      tag_84\n      jumpi\n      returndatacopy(0x00, 0x00, returndatasize)\n      revert(0x00, returndatasize)\n    tag_84:\n      pop\n      pop\n      pop\n      pop\n      mload(0x40)\n      returndatasize\n      not(0x1f)\n      0x1f\n      dup3\n      add\n      and\n      dup3\n      add\n      dup1\n      0x40\n      mstore\n      pop\n      dup2\n      add\n      swap1\n      tag_85\n      swap2\n      swap1\n      tag_86\n      jump\t// in\n    tag_85:\n        /* \"contracts/Staking.sol\":1965:2081  require(... */\n      tag_87\n      jumpi\n      mload(0x40)\n      0x08c379a000000000000000000000000000000000000000000000000000000000\n      dup2\n      mstore\n      0x04\n      add\n      tag_88\n      swap1\n      tag_89\n      jump\t// in\n    tag_88:\n      mload(0x40)\n      dup1\n      swap2\n      sub\n      swap1\n      revert\n    tag_87:\n        /* \"contracts/Staking.sol\":1709:2089  {... */\n      pop\n      pop\n        /* \"@openzeppelin/contracts/utils/ReentrancyGuard.sol\":3065:3085  _nonReentrantAfter() */\n      tag_90\n        /* \"@openzeppelin/contracts/utils/ReentrancyGuard.sol\":3065:3083  _nonReentrantAfter */\n      tag_91\n        /* \"@openzeppelin/contracts/utils/ReentrancyGuard.sol\":3065:3085  _nonReentrantAfter() */\n      jump\t// in\n    tag_90:\n        /* \"contracts/Staking.sol\":1668:2089  function unstake() external nonReentrant {... */\n      jump\t// out\n        /* \"contracts/Staking.sol\":508:554  mapping(address => uint256) public stakingTime */\n    tag_25:\n      mstore(0x20, 0x04)\n      dup1\n      0x00\n      mstore\n      keccak256(0x00, 0x40)\n      0x00\n      swap2\n      pop\n      swap1\n      pop\n      sload\n      dup2\n      jump\t// out\n        /* \"contracts/Staking.sol\":453:501  mapping(address => uint256) public stakedBalance */\n    tag_30:\n      mstore(0x20, 0x03)\n      dup1\n      0x00\n      mstore\n      keccak256(0x00, 0x40)\n      0x00\n      swap2\n      pop\n      swap1\n      pop\n      sload\n      dup2\n      jump\t// out\n        /* \"@openzeppelin/contracts/access/Ownable.sol\":2293:2394  function renounceOwnership() public virtual onlyOwner {... */\n    tag_33:\n        /* \"@openzeppelin/contracts/access/Ownable.sol\":1531:1544  _checkOwner() */\n      tag_93\n        /* \"@openzeppelin/contracts/access/Ownable.sol\":1531:1542  _checkOwner */\n      tag_94\n        /* \"@openzeppelin/contracts/access/Ownable.sol\":1531:1544  _checkOwner() */\n      jump\t// in\n    tag_93:\n        /* \"@openzeppelin/contracts/access/Ownable.sol\":2357:2387  _transferOwnership(address(0)) */\n      tag_96\n        /* \"@openzeppelin/contracts/access/Ownable.sol\":2384:2385  0 */\n      0x00\n        /* \"@openzeppelin/contracts/access/Ownable.sol\":2357:2375  _transferOwnership */\n      tag_97\n        /* \"@openzeppelin/contracts/access/Ownable.sol\":2357:2387  _transferOwnership(address(0)) */\n      jump\t// in\n    tag_96:\n        /* \"@openzeppelin/contracts/access/Ownable.sol\":2293:2394  function renounceOwnership() public virtual onlyOwner {... */\n      jump\t// out\n        /* \"contracts/Staking.sol\":373:399  IERC20 public stakingToken */\n    tag_35:\n      0x01\n      0x00\n      swap1\n      sload\n      swap1\n      0x0100\n      exp\n      swap1\n      div\n      0xffffffffffffffffffffffffffffffffffffffff\n      and\n      dup2\n      jump\t// out\n        /* \"contracts/Staking.sol\":406:444  AggregatorV3Interface public priceFeed */\n    tag_39:\n      0x02\n      0x00\n      swap1\n      sload\n      swap1\n      0x0100\n      exp\n      swap1\n      div\n      0xffffffffffffffffffffffffffffffffffffffff\n      and\n      dup2\n      jump\t// out\n        /* \"contracts/Staking.sol\":563:592  uint256 public rewardRate = 1 */\n    tag_43:\n      sload(0x05)\n      dup2\n      jump\t// out\n        /* \"@openzeppelin/contracts/access/Ownable.sol\":1638:1723  function owner() public view virtual returns (address) {... */\n    tag_46:\n        /* \"@openzeppelin/contracts/access/Ownable.sol\":1684:1691  address */\n      0x00\n        /* \"@openzeppelin/contracts/access/Ownable.sol\":1710:1716  _owner */\n      0x00\n      0x00\n      swap1\n      sload\n      swap1\n      0x0100\n      exp\n      swap1\n      div\n      0xffffffffffffffffffffffffffffffffffffffff\n      and\n        /* \"@openzeppelin/contracts/access/Ownable.sol\":1703:1716  return _owner */\n      swap1\n      pop\n        /* \"@openzeppelin/contracts/access/Ownable.sol\":1638:1723  function owner() public view virtual returns (address) {... */\n      swap1\n      jump\t// out\n        /* \"contracts/Staking.sol\":1085:1231  function getLatestPrice() public view returns (int256) {... */\n    tag_50:\n        /* \"contracts/Staking.sol\":1132:1138  int256 */\n      0x00\n        /* \"contracts/Staking.sol\":1154:1166  int256 price */\n      0x00\n        /* \"contracts/Staking.sol\":1173:1182  priceFeed */\n      0x02\n      0x00\n      swap1\n      sload\n      swap1\n      0x0100\n      exp\n      swap1\n      div\n      0xffffffffffffffffffffffffffffffffffffffff\n      and\n        /* \"contracts/Staking.sol\":1173:1198  priceFeed.latestRoundData */\n      0xffffffffffffffffffffffffffffffffffffffff\n      and\n      0xfeaf968c\n        /* \"contracts/Staking.sol\":1173:1200  priceFeed.latestRoundData() */\n      mload(0x40)\n      dup2\n      0xffffffff\n      and\n      0xe0\n      shl\n      dup2\n      mstore\n      0x04\n      add\n      0xa0\n      mload(0x40)\n      dup1\n      dup4\n      sub\n      dup2\n      dup7\n      gas\n      staticcall\n      iszero\n      dup1\n      iszero\n      tag_101\n      jumpi\n      returndatacopy(0x00, 0x00, returndatasize)\n      revert(0x00, returndatasize)\n    tag_101:\n      pop\n      pop\n      pop\n      pop\n      mload(0x40)\n      returndatasize\n      not(0x1f)\n      0x1f\n      dup3\n      add\n      and\n      dup3\n      add\n      dup1\n      0x40\n      mstore\n      pop\n      dup2\n      add\n      swap1\n      tag_102\n      swap2\n      swap1\n      tag_103\n      jump\t// in\n    tag_102:\n        /* \"contracts/Staking.sol\":1151:1200  (, int256 price,,,) = priceFeed.latestRoundData() */\n      pop\n      pop\n      pop\n      swap2\n      pop\n      pop\n        /* \"contracts/Staking.sol\":1218:1223  price */\n      dup1\n        /* \"contracts/Staking.sol\":1211:1223  return price */\n      swap2\n      pop\n      pop\n        /* \"contracts/Staking.sol\":1085:1231  function getLatestPrice() public view returns (int256) {... */\n      swap1\n      jump\t// out\n        /* \"contracts/Staking.sol\":2504:2598  function setRewardRate(uint256 _rate) external onlyOwner {... */\n    tag_56:\n        /* \"@openzeppelin/contracts/access/Ownable.sol\":1531:1544  _checkOwner() */\n      tag_105\n        /* \"@openzeppelin/contracts/access/Ownable.sol\":1531:1542  _checkOwner */\n      tag_94\n        /* \"@openzeppelin/contracts/access/Ownable.sol\":1531:1544  _checkOwner() */\n      jump\t// in\n    tag_105:\n        /* \"contracts/Staking.sol\":2585:2590  _rate */\n      dup1\n        /* \"contracts/Staking.sol\":2572:2582  rewardRate */\n      0x05\n        /* \"contracts/Staking.sol\":2572:2590  rewardRate = _rate */\n      dup2\n      swap1\n      sstore\n      pop\n        /* \"contracts/Staking.sol\":2504:2598  function setRewardRate(uint256 _rate) external onlyOwner {... */\n      pop\n      jump\t// out\n        /* \"contracts/Staking.sol\":1239:1660  function stake(uint256 amount) external nonReentrant {... */\n    tag_59:\n        /* \"@openzeppelin/contracts/utils/ReentrancyGuard.sol\":3023:3044  _nonReentrantBefore() */\n      tag_108\n        /* \"@openzeppelin/contracts/utils/ReentrancyGuard.sol\":3023:3042  _nonReentrantBefore */\n      tag_73\n        /* \"@openzeppelin/contracts/utils/ReentrancyGuard.sol\":3023:3044  _nonReentrantBefore() */\n      jump\t// in\n    tag_108:\n        /* \"contracts/Staking.sol\":1344:1345  0 */\n      0x00\n        /* \"contracts/Staking.sol\":1311:1346  address(stakingToken) != address(0) */\n      0xffffffffffffffffffffffffffffffffffffffff\n      and\n        /* \"contracts/Staking.sol\":1319:1331  stakingToken */\n      0x01\n      0x00\n      swap1\n      sload\n      swap1\n      0x0100\n      exp\n      swap1\n      div\n      0xffffffffffffffffffffffffffffffffffffffff\n      and\n        /* \"contracts/Staking.sol\":1311:1346  address(stakingToken) != address(0) */\n      0xffffffffffffffffffffffffffffffffffffffff\n      and\n      sub\n        /* \"contracts/Staking.sol\":1303:1366  require(address(stakingToken) != address(0), \"Nao configurado\") */\n      tag_110\n      jumpi\n      mload(0x40)\n      0x08c379a000000000000000000000000000000000000000000000000000000000\n      dup2\n      mstore\n      0x04\n      add\n      tag_111\n      swap1\n      tag_112\n      jump\t// in\n    tag_111:\n      mload(0x40)\n      dup1\n      swap2\n      sub\n      swap1\n      revert\n    tag_110:\n        /* \"contracts/Staking.sol\":1394:1395  0 */\n      0x00\n        /* \"contracts/Staking.sol\":1385:1391  amount */\n      dup2\n        /* \"contracts/Staking.sol\":1385:1395  amount > 0 */\n      gt\n        /* \"contracts/Staking.sol\":1377:1414  require(amount > 0, \"Valor invalido\") */\n      tag_113\n      jumpi\n      mload(0x40)\n      0x08c379a000000000000000000000000000000000000000000000000000000000\n      dup2\n      mstore\n      0x04\n      add\n      tag_114\n      swap1\n      tag_115\n      jump\t// in\n    tag_114:\n      mload(0x40)\n      dup1\n      swap2\n      sub\n      swap1\n      revert\n    tag_113:\n        /* \"contracts/Staking.sol\":1449:1461  stakingToken */\n      0x01\n      0x00\n      swap1\n      sload\n      swap1\n      0x0100\n      exp\n      swap1\n      div\n      0xffffffffffffffffffffffffffffffffffffffff\n      and\n        /* \"contracts/Staking.sol\":1449:1474  stakingToken.transferFrom */\n      0xffffffffffffffffffffffffffffffffffffffff\n      and\n      0x23b872dd\n        /* \"contracts/Staking.sol\":1475:1485  msg.sender */\n      caller\n        /* \"contracts/Staking.sol\":1495:1499  this */\n      address\n        /* \"contracts/Staking.sol\":1502:1508  amount */\n      dup5\n        /* \"contracts/Staking.sol\":1449:1509  stakingToken.transferFrom(msg.sender, address(this), amount) */\n      mload(0x40)\n      dup5\n      0xffffffff\n      and\n      0xe0\n      shl\n      dup2\n      mstore\n      0x04\n      add\n      tag_116\n      swap4\n      swap3\n      swap2\n      swap1\n      tag_117\n      jump\t// in\n    tag_116:\n      0x20\n      mload(0x40)\n      dup1\n      dup4\n      sub\n      dup2\n      0x00\n      dup8\n      gas\n      call\n      iszero\n      dup1\n      iszero\n      tag_119\n      jumpi\n      returndatacopy(0x00, 0x00, returndatasize)\n      revert(0x00, returndatasize)\n    tag_119:\n      pop\n      pop\n      pop\n      pop\n      mload(0x40)\n      returndatasize\n      not(0x1f)\n      0x1f\n      dup3\n      add\n      and\n      dup3\n      add\n      dup1\n      0x40\n      mstore\n      pop\n      dup2\n      add\n      swap1\n      tag_120\n      swap2\n      swap1\n      tag_86\n      jump\t// in\n    tag_120:\n        /* \"contracts/Staking.sol\":1427:1552  require(... */\n      tag_121\n      jumpi\n      mload(0x40)\n      0x08c379a000000000000000000000000000000000000000000000000000000000\n      dup2\n      mstore\n      0x04\n      add\n      tag_122\n      swap1\n      tag_89\n      jump\t// in\n    tag_122:\n      mload(0x40)\n      dup1\n      swap2\n      sub\n      swap1\n      revert\n    tag_121:\n        /* \"contracts/Staking.sol\":1594:1600  amount */\n      dup1\n        /* \"contracts/Staking.sol\":1565:1578  stakedBalance */\n      0x03\n        /* \"contracts/Staking.sol\":1565:1590  stakedBalance[msg.sender] */\n      0x00\n        /* \"contracts/Staking.sol\":1579:1589  msg.sender */\n      caller\n        /* \"contracts/Staking.sol\":1565:1590  stakedBalance[msg.sender] */\n      0xffffffffffffffffffffffffffffffffffffffff\n      and\n      0xffffffffffffffffffffffffffffffffffffffff\n      and\n      dup2\n      mstore\n      0x20\n      add\n      swap1\n      dup2\n      mstore\n      0x20\n      add\n      0x00\n      keccak256\n      0x00\n        /* \"contracts/Staking.sol\":1565:1600  stakedBalance[msg.sender] += amount */\n      dup3\n      dup3\n      sload\n      tag_123\n      swap2\n      swap1\n      tag_80\n      jump\t// in\n    tag_123:\n      swap3\n      pop\n      pop\n      dup2\n      swap1\n      sstore\n      pop\n        /* \"contracts/Staking.sol\":1637:1652  block.timestamp */\n      timestamp\n        /* \"contracts/Staking.sol\":1611:1622  stakingTime */\n      0x04\n        /* \"contracts/Staking.sol\":1611:1634  stakingTime[msg.sender] */\n      0x00\n        /* \"contracts/Staking.sol\":1623:1633  msg.sender */\n      caller\n        /* \"contracts/Staking.sol\":1611:1634  stakingTime[msg.sender] */\n      0xffffffffffffffffffffffffffffffffffffffff\n      and\n      0xffffffffffffffffffffffffffffffffffffffff\n      and\n      dup2\n      mstore\n      0x20\n      add\n      swap1\n      dup2\n      mstore\n      0x20\n      add\n      0x00\n      keccak256\n        /* \"contracts/Staking.sol\":1611:1652  stakingTime[msg.sender] = block.timestamp */\n      dup2\n      swap1\n      sstore\n      pop\n        /* \"@openzeppelin/contracts/utils/ReentrancyGuard.sol\":3065:3085  _nonReentrantAfter() */\n      tag_124\n        /* \"@openzeppelin/contracts/utils/ReentrancyGuard.sol\":3065:3083  _nonReentrantAfter */\n      tag_91\n        /* \"@openzeppelin/contracts/utils/ReentrancyGuard.sol\":3065:3085  _nonReentrantAfter() */\n      jump\t// in\n    tag_124:\n        /* \"contracts/Staking.sol\":1239:1660  function stake(uint256 amount) external nonReentrant {... */\n      pop\n      jump\t// out\n        /* \"contracts/Staking.sol\":700:1077  function setConfig(address _token, address _priceFeed) external onlyOwner {... */\n    tag_63:\n        /* \"@openzeppelin/contracts/access/Ownable.sol\":1531:1544  _checkOwner() */\n      tag_126\n        /* \"@openzeppelin/contracts/access/Ownable.sol\":1531:1542  _checkOwner */\n      tag_94\n        /* \"@openzeppelin/contracts/access/Ownable.sol\":1531:1544  _checkOwner() */\n      jump\t// in\n    tag_126:\n        /* \"contracts/Staking.sol\":826:827  0 */\n      0x00\n        /* \"contracts/Staking.sol\":793:828  address(stakingToken) == address(0) */\n      0xffffffffffffffffffffffffffffffffffffffff\n      and\n        /* \"contracts/Staking.sol\":801:813  stakingToken */\n      0x01\n      0x00\n      swap1\n      sload\n      swap1\n      0x0100\n      exp\n      swap1\n      div\n      0xffffffffffffffffffffffffffffffffffffffff\n      and\n        /* \"contracts/Staking.sol\":793:828  address(stakingToken) == address(0) */\n      0xffffffffffffffffffffffffffffffffffffffff\n      and\n      eq\n        /* \"contracts/Staking.sol\":785:847  require(address(stakingToken) == address(0), \"Ja configurado\") */\n      tag_128\n      jumpi\n      mload(0x40)\n      0x08c379a000000000000000000000000000000000000000000000000000000000\n      dup2\n      mstore\n      0x04\n      add\n      tag_129\n      swap1\n      tag_130\n      jump\t// in\n    tag_129:\n      mload(0x40)\n      dup1\n      swap2\n      sub\n      swap1\n      revert\n    tag_128:\n        /* \"contracts/Staking.sol\":884:885  0 */\n      0x00\n        /* \"contracts/Staking.sol\":866:886  _token != address(0) */\n      0xffffffffffffffffffffffffffffffffffffffff\n      and\n        /* \"contracts/Staking.sol\":866:872  _token */\n      dup3\n        /* \"contracts/Staking.sol\":866:886  _token != address(0) */\n      0xffffffffffffffffffffffffffffffffffffffff\n      and\n      sub\n        /* \"contracts/Staking.sol\":858:905  require(_token != address(0), \"Token invalido\") */\n      tag_131\n      jumpi\n      mload(0x40)\n      0x08c379a000000000000000000000000000000000000000000000000000000000\n      dup2\n      mstore\n      0x04\n      add\n      tag_132\n      swap1\n      tag_133\n      jump\t// in\n    tag_132:\n      mload(0x40)\n      dup1\n      swap2\n      sub\n      swap1\n      revert\n    tag_131:\n        /* \"contracts/Staking.sol\":946:947  0 */\n      0x00\n        /* \"contracts/Staking.sol\":924:948  _priceFeed != address(0) */\n      0xffffffffffffffffffffffffffffffffffffffff\n      and\n        /* \"contracts/Staking.sol\":924:934  _priceFeed */\n      dup2\n        /* \"contracts/Staking.sol\":924:948  _priceFeed != address(0) */\n      0xffffffffffffffffffffffffffffffffffffffff\n      and\n      sub\n        /* \"contracts/Staking.sol\":916:971  require(_priceFeed != address(0), \"PriceFeed invalido\") */\n      tag_134\n      jumpi\n      mload(0x40)\n      0x08c379a000000000000000000000000000000000000000000000000000000000\n      dup2\n      mstore\n      0x04\n      add\n      tag_135\n      swap1\n      tag_136\n      jump\t// in\n    tag_135:\n      mload(0x40)\n      dup1\n      swap2\n      sub\n      swap1\n      revert\n    tag_134:\n        /* \"contracts/Staking.sol\":1006:1012  _token */\n      dup2\n        /* \"contracts/Staking.sol\":984:996  stakingToken */\n      0x01\n      0x00\n        /* \"contracts/Staking.sol\":984:1013  stakingToken = IERC20(_token) */\n      0x0100\n      exp\n      dup2\n      sload\n      dup2\n      0xffffffffffffffffffffffffffffffffffffffff\n      mul\n      not\n      and\n      swap1\n      dup4\n      0xffffffffffffffffffffffffffffffffffffffff\n      and\n      mul\n      or\n      swap1\n      sstore\n      pop\n        /* \"contracts/Staking.sol\":1058:1068  _priceFeed */\n      dup1\n        /* \"contracts/Staking.sol\":1024:1033  priceFeed */\n      0x02\n      0x00\n        /* \"contracts/Staking.sol\":1024:1069  priceFeed = AggregatorV3Interface(_priceFeed) */\n      0x0100\n      exp\n      dup2\n      sload\n      dup2\n      0xffffffffffffffffffffffffffffffffffffffff\n      mul\n      not\n      and\n      swap1\n      dup4\n      0xffffffffffffffffffffffffffffffffffffffff\n      and\n      mul\n      or\n      swap1\n      sstore\n      pop\n        /* \"contracts/Staking.sol\":700:1077  function setConfig(address _token, address _priceFeed) external onlyOwner {... */\n      pop\n      pop\n      jump\t// out\n        /* \"contracts/Staking.sol\":2097:2496  function calculateReward(address user) public view returns (uint256) {... */\n    tag_66:\n        /* \"contracts/Staking.sol\":2157:2164  uint256 */\n      0x00\n        /* \"contracts/Staking.sol\":2177:2195  uint256 timeStaked */\n      0x00\n        /* \"contracts/Staking.sol\":2216:2227  stakingTime */\n      0x04\n        /* \"contracts/Staking.sol\":2216:2233  stakingTime[user] */\n      0x00\n        /* \"contracts/Staking.sol\":2228:2232  user */\n      dup5\n        /* \"contracts/Staking.sol\":2216:2233  stakingTime[user] */\n      0xffffffffffffffffffffffffffffffffffffffff\n      and\n      0xffffffffffffffffffffffffffffffffffffffff\n      and\n      dup2\n      mstore\n      0x20\n      add\n      swap1\n      dup2\n      mstore\n      0x20\n      add\n      0x00\n      keccak256\n      sload\n        /* \"contracts/Staking.sol\":2198:2213  block.timestamp */\n      timestamp\n        /* \"contracts/Staking.sol\":2198:2233  block.timestamp - stakingTime[user] */\n      tag_138\n      swap2\n      swap1\n      tag_139\n      jump\t// in\n    tag_138:\n        /* \"contracts/Staking.sol\":2177:2233  uint256 timeStaked = block.timestamp - stakingTime[user] */\n      swap1\n      pop\n        /* \"contracts/Staking.sol\":2244:2259  int256 ethPrice */\n      0x00\n        /* \"contracts/Staking.sol\":2262:2278  getLatestPrice() */\n      tag_140\n        /* \"contracts/Staking.sol\":2262:2276  getLatestPrice */\n      tag_50\n        /* \"contracts/Staking.sol\":2262:2278  getLatestPrice() */\n      jump\t// in\n    tag_140:\n        /* \"contracts/Staking.sol\":2244:2278  int256 ethPrice = getLatestPrice() */\n      swap1\n      pop\n        /* \"contracts/Staking.sol\":2291:2314  uint256 priceMultiplier */\n      0x00\n        /* \"contracts/Staking.sol\":2337:2340  1e8 */\n      0x05f5e100\n        /* \"contracts/Staking.sol\":2325:2333  ethPrice */\n      dup3\n        /* \"contracts/Staking.sol\":2317:2340  uint256(ethPrice) / 1e8 */\n      tag_141\n      swap2\n      swap1\n      tag_142\n      jump\t// in\n    tag_141:\n        /* \"contracts/Staking.sol\":2291:2340  uint256 priceMultiplier = uint256(ethPrice) / 1e8 */\n      swap1\n      pop\n        /* \"contracts/Staking.sol\":2374:2375  0 */\n      0x00\n        /* \"contracts/Staking.sol\":2355:2370  priceMultiplier */\n      dup2\n        /* \"contracts/Staking.sol\":2355:2375  priceMultiplier == 0 */\n      sub\n        /* \"contracts/Staking.sol\":2351:2396  if (priceMultiplier == 0) priceMultiplier = 1 */\n      tag_143\n      jumpi\n        /* \"contracts/Staking.sol\":2395:2396  1 */\n      0x01\n        /* \"contracts/Staking.sol\":2377:2396  priceMultiplier = 1 */\n      swap1\n      pop\n        /* \"contracts/Staking.sol\":2351:2396  if (priceMultiplier == 0) priceMultiplier = 1 */\n    tag_143:\n        /* \"contracts/Staking.sol\":2484:2488  1e18 */\n      0x0de0b6b3a7640000\n        /* \"contracts/Staking.sol\":2465:2480  priceMultiplier */\n      dup2\n        /* \"contracts/Staking.sol\":2452:2462  rewardRate */\n      sload(0x05)\n        /* \"contracts/Staking.sol\":2439:2449  timeStaked */\n      dup6\n        /* \"contracts/Staking.sol\":2417:2430  stakedBalance */\n      0x03\n        /* \"contracts/Staking.sol\":2417:2436  stakedBalance[user] */\n      0x00\n        /* \"contracts/Staking.sol\":2431:2435  user */\n      dup11\n        /* \"contracts/Staking.sol\":2417:2436  stakedBalance[user] */\n      0xffffffffffffffffffffffffffffffffffffffff\n      and\n      0xffffffffffffffffffffffffffffffffffffffff\n      and\n      dup2\n      mstore\n      0x20\n      add\n      swap1\n      dup2\n      mstore\n      0x20\n      add\n      0x00\n      keccak256\n      sload\n        /* \"contracts/Staking.sol\":2417:2449  stakedBalance[user] * timeStaked */\n      tag_144\n      swap2\n      swap1\n      tag_145\n      jump\t// in\n    tag_144:\n        /* \"contracts/Staking.sol\":2417:2462  stakedBalance[user] * timeStaked * rewardRate */\n      tag_146\n      swap2\n      swap1\n      tag_145\n      jump\t// in\n    tag_146:\n        /* \"contracts/Staking.sol\":2417:2480  stakedBalance[user] * timeStaked * rewardRate * priceMultiplier */\n      tag_147\n      swap2\n      swap1\n      tag_145\n      jump\t// in\n    tag_147:\n        /* \"contracts/Staking.sol\":2416:2488  (stakedBalance[user] * timeStaked * rewardRate * priceMultiplier) / 1e18 */\n      tag_148\n      swap2\n      swap1\n      tag_142\n      jump\t// in\n    tag_148:\n        /* \"contracts/Staking.sol\":2409:2488  return (stakedBalance[user] * timeStaked * rewardRate * priceMultiplier) / 1e18 */\n      swap4\n      pop\n      pop\n      pop\n      pop\n        /* \"contracts/Staking.sol\":2097:2496  function calculateReward(address user) public view returns (uint256) {... */\n      swap2\n      swap1\n      pop\n      jump\t// out\n        /* \"@openzeppelin/contracts/access/Ownable.sol\":2543:2758  function transferOwnership(address newOwner) public virtual onlyOwner {... */\n    tag_70:\n        /* \"@openzeppelin/contracts/access/Ownable.sol\":1531:1544  _checkOwner() */\n      tag_150\n        /* \"@openzeppelin/contracts/access/Ownable.sol\":1531:1542  _checkOwner */\n      tag_94\n        /* \"@openzeppelin/contracts/access/Ownable.sol\":1531:1544  _checkOwner() */\n      jump\t// in\n    tag_150:\n        /* \"@openzeppelin/contracts/access/Ownable.sol\":2647:2648  0 */\n      0x00\n        /* \"@openzeppelin/contracts/access/Ownable.sol\":2627:2649  newOwner == address(0) */\n      0xffffffffffffffffffffffffffffffffffffffff\n      and\n        /* \"@openzeppelin/contracts/access/Ownable.sol\":2627:2635  newOwner */\n      dup2\n        /* \"@openzeppelin/contracts/access/Ownable.sol\":2627:2649  newOwner == address(0) */\n      0xffffffffffffffffffffffffffffffffffffffff\n      and\n      sub\n        /* \"@openzeppelin/contracts/access/Ownable.sol\":2623:2714  if (newOwner == address(0)) {... */\n      tag_152\n      jumpi\n        /* \"@openzeppelin/contracts/access/Ownable.sol\":2700:2701  0 */\n      0x00\n        /* \"@openzeppelin/contracts/access/Ownable.sol\":2672:2703  OwnableInvalidOwner(address(0)) */\n      mload(0x40)\n      0x1e4fbdf700000000000000000000000000000000000000000000000000000000\n      dup2\n      mstore\n      0x04\n      add\n      tag_153\n      swap2\n      swap1\n      tag_48\n      jump\t// in\n    tag_153:\n      mload(0x40)\n      dup1\n      swap2\n      sub\n      swap1\n      revert\n        /* \"@openzeppelin/contracts/access/Ownable.sol\":2623:2714  if (newOwner == address(0)) {... */\n    tag_152:\n        /* \"@openzeppelin/contracts/access/Ownable.sol\":2723:2751  _transferOwnership(newOwner) */\n      tag_154\n        /* \"@openzeppelin/contracts/access/Ownable.sol\":2742:2750  newOwner */\n      dup2\n        /* \"@openzeppelin/contracts/access/Ownable.sol\":2723:2741  _transferOwnership */\n      tag_97\n        /* \"@openzeppelin/contracts/access/Ownable.sol\":2723:2751  _transferOwnership(newOwner) */\n      jump\t// in\n    tag_154:\n        /* \"@openzeppelin/contracts/access/Ownable.sol\":2543:2758  function transferOwnership(address newOwner) public virtual onlyOwner {... */\n      pop\n      jump\t// out\n        /* \"@openzeppelin/contracts/utils/ReentrancyGuard.sol\":3749:4041  function _nonReentrantBefore() private {... */\n    tag_73:\n        /* \"@openzeppelin/contracts/utils/ReentrancyGuard.sol\":3872:3897  _nonReentrantBeforeView() */\n      tag_156\n        /* \"@openzeppelin/contracts/utils/ReentrancyGuard.sol\":3872:3895  _nonReentrantBeforeView */\n      tag_157\n        /* \"@openzeppelin/contracts/utils/ReentrancyGuard.sol\":3872:3897  _nonReentrantBeforeView() */\n      jump\t// in\n    tag_156:\n        /* \"@openzeppelin/contracts/utils/ReentrancyGuard.sol\":2407:2408  2 */\n      0x02\n        /* \"@openzeppelin/contracts/utils/ReentrancyGuard.sol\":3972:4018  _reentrancyGuardStorageSlot().getUint256Slot() */\n      tag_158\n        /* \"@openzeppelin/contracts/utils/ReentrancyGuard.sol\":3972:4001  _reentrancyGuardStorageSlot() */\n      tag_159\n        /* \"@openzeppelin/contracts/utils/ReentrancyGuard.sol\":3972:3999  _reentrancyGuardStorageSlot */\n      tag_160\n        /* \"@openzeppelin/contracts/utils/ReentrancyGuard.sol\":3972:4001  _reentrancyGuardStorageSlot() */\n      jump\t// in\n    tag_159:\n        /* \"@openzeppelin/contracts/utils/ReentrancyGuard.sol\":3972:4016  _reentrancyGuardStorageSlot().getUint256Slot */\n      tag_161\n        /* \"@openzeppelin/contracts/utils/ReentrancyGuard.sol\":3972:4018  _reentrancyGuardStorageSlot().getUint256Slot() */\n      jump\t// in\n    tag_158:\n        /* \"@openzeppelin/contracts/utils/ReentrancyGuard.sol\":3972:4024  _reentrancyGuardStorageSlot().getUint256Slot().value */\n      0x00\n      add\n        /* \"@openzeppelin/contracts/utils/ReentrancyGuard.sol\":3972:4034  _reentrancyGuardStorageSlot().getUint256Slot().value = ENTERED */\n      dup2\n      swap1\n      sstore\n      pop\n        /* \"@openzeppelin/contracts/utils/ReentrancyGuard.sol\":3749:4041  function _nonReentrantBefore() private {... */\n      jump\t// out\n        /* \"@openzeppelin/contracts/utils/ReentrancyGuard.sol\":4047:4300  function _nonReentrantAfter() private {... */\n    tag_91:\n        /* \"@openzeppelin/contracts/utils/ReentrancyGuard.sol\":2365:2366  1 */\n      0x01\n        /* \"@openzeppelin/contracts/utils/ReentrancyGuard.sol\":4227:4273  _reentrancyGuardStorageSlot().getUint256Slot() */\n      tag_163\n        /* \"@openzeppelin/contracts/utils/ReentrancyGuard.sol\":4227:4256  _reentrancyGuardStorageSlot() */\n      tag_164\n        /* \"@openzeppelin/contracts/utils/ReentrancyGuard.sol\":4227:4254  _reentrancyGuardStorageSlot */\n      tag_160\n        /* \"@openzeppelin/contracts/utils/ReentrancyGuard.sol\":4227:4256  _reentrancyGuardStorageSlot() */\n      jump\t// in\n    tag_164:\n        /* \"@openzeppelin/contracts/utils/ReentrancyGuard.sol\":4227:4271  _reentrancyGuardStorageSlot().getUint256Slot */\n      tag_161\n        /* \"@openzeppelin/contracts/utils/ReentrancyGuard.sol\":4227:4273  _reentrancyGuardStorageSlot().getUint256Slot() */\n      jump\t// in\n    tag_163:\n        /* \"@openzeppelin/contracts/utils/ReentrancyGuard.sol\":4227:4279  _reentrancyGuardStorageSlot().getUint256Slot().value */\n      0x00\n      add\n        /* \"@openzeppelin/contracts/utils/ReentrancyGuard.sol\":4227:4293  _reentrancyGuardStorageSlot().getUint256Slot().value = NOT_ENTERED */\n      dup2\n      swap1\n      sstore\n      pop\n        /* \"@openzeppelin/contracts/utils/ReentrancyGuard.sol\":4047:4300  function _nonReentrantAfter() private {... */\n      jump\t// out\n        /* \"@openzeppelin/contracts/access/Ownable.sol\":1796:1958  function _checkOwner() internal view virtual {... */\n    tag_94:\n        /* \"@openzeppelin/contracts/access/Ownable.sol\":1866:1878  _msgSender() */\n      tag_166\n        /* \"@openzeppelin/contracts/access/Ownable.sol\":1866:1876  _msgSender */\n      tag_167\n        /* \"@openzeppelin/contracts/access/Ownable.sol\":1866:1878  _msgSender() */\n      jump\t// in\n    tag_166:\n        /* \"@openzeppelin/contracts/access/Ownable.sol\":1855:1878  owner() != _msgSender() */\n      0xffffffffffffffffffffffffffffffffffffffff\n      and\n        /* \"@openzeppelin/contracts/access/Ownable.sol\":1855:1862  owner() */\n      tag_168\n        /* \"@openzeppelin/contracts/access/Ownable.sol\":1855:1860  owner */\n      tag_46\n        /* \"@openzeppelin/contracts/access/Ownable.sol\":1855:1862  owner() */\n      jump\t// in\n    tag_168:\n        /* \"@openzeppelin/contracts/access/Ownable.sol\":1855:1878  owner() != _msgSender() */\n      0xffffffffffffffffffffffffffffffffffffffff\n      and\n      eq\n        /* \"@openzeppelin/contracts/access/Ownable.sol\":1851:1952  if (owner() != _msgSender()) {... */\n      tag_169\n      jumpi\n        /* \"@openzeppelin/contracts/access/Ownable.sol\":1928:1940  _msgSender() */\n      tag_170\n        /* \"@openzeppelin/contracts/access/Ownable.sol\":1928:1938  _msgSender */\n      tag_167\n        /* \"@openzeppelin/contracts/access/Ownable.sol\":1928:1940  _msgSender() */\n      jump\t// in\n    tag_170:\n        /* \"@openzeppelin/contracts/access/Ownable.sol\":1901:1941  OwnableUnauthorizedAccount(_msgSender()) */\n      mload(0x40)\n      0x118cdaa700000000000000000000000000000000000000000000000000000000\n      dup2\n      mstore\n      0x04\n      add\n      tag_171\n      swap2\n      swap1\n      tag_48\n      jump\t// in\n    tag_171:\n      mload(0x40)\n      dup1\n      swap2\n      sub\n      swap1\n      revert\n        /* \"@openzeppelin/contracts/access/Ownable.sol\":1851:1952  if (owner() != _msgSender()) {... */\n    tag_169:\n        /* \"@openzeppelin/contracts/access/Ownable.sol\":1796:1958  function _checkOwner() internal view virtual {... */\n      jump\t// out\n        /* \"@openzeppelin/contracts/access/Ownable.sol\":2912:3099  function _transferOwnership(address newOwner) internal virtual {... */\n    tag_97:\n        /* \"@openzeppelin/contracts/access/Ownable.sol\":2985:3001  address oldOwner */\n      0x00\n        /* \"@openzeppelin/contracts/access/Ownable.sol\":3004:3010  _owner */\n      0x00\n      0x00\n      swap1\n      sload\n      swap1\n      0x0100\n      exp\n      swap1\n      div\n      0xffffffffffffffffffffffffffffffffffffffff\n      and\n        /* \"@openzeppelin/contracts/access/Ownable.sol\":2985:3010  address oldOwner = _owner */\n      swap1\n      pop\n        /* \"@openzeppelin/contracts/access/Ownable.sol\":3029:3037  newOwner */\n      dup2\n        /* \"@openzeppelin/contracts/access/Ownable.sol\":3020:3026  _owner */\n      0x00\n      0x00\n        /* \"@openzeppelin/contracts/access/Ownable.sol\":3020:3037  _owner = newOwner */\n      0x0100\n      exp\n      dup2\n      sload\n      dup2\n      0xffffffffffffffffffffffffffffffffffffffff\n      mul\n      not\n      and\n      swap1\n      dup4\n      0xffffffffffffffffffffffffffffffffffffffff\n      and\n      mul\n      or\n      swap1\n      sstore\n      pop\n        /* \"@openzeppelin/contracts/access/Ownable.sol\":3083:3091  newOwner */\n      dup2\n        /* \"@openzeppelin/contracts/access/Ownable.sol\":3052:3092  OwnershipTransferred(oldOwner, newOwner) */\n      0xffffffffffffffffffffffffffffffffffffffff\n      and\n        /* \"@openzeppelin/contracts/access/Ownable.sol\":3073:3081  oldOwner */\n      dup2\n        /* \"@openzeppelin/contracts/access/Ownable.sol\":3052:3092  OwnershipTransferred(oldOwner, newOwner) */\n      0xffffffffffffffffffffffffffffffffffffffff\n      and\n      0x8be0079c531659141344cd1fd0a4f28419497f9722a3daafe3b4186f6b6457e0\n      mload(0x40)\n      mload(0x40)\n      dup1\n      swap2\n      sub\n      swap1\n      log3\n        /* \"@openzeppelin/contracts/access/Ownable.sol\":2975:3099  {... */\n      pop\n        /* \"@openzeppelin/contracts/access/Ownable.sol\":2912:3099  function _transferOwnership(address newOwner) internal virtual {... */\n      pop\n      jump\t// out\n        /* \"@openzeppelin/contracts/utils/ReentrancyGuard.sol\":3586:3743  function _nonReentrantBeforeView() private view {... */\n    tag_157:\n        /* \"@openzeppelin/contracts/utils/ReentrancyGuard.sol\":3648:3673  _reentrancyGuardEntered() */\n      tag_174\n        /* \"@openzeppelin/contracts/utils/ReentrancyGuard.sol\":3648:3671  _reentrancyGuardEntered */\n      tag_175\n        /* \"@openzeppelin/contracts/utils/ReentrancyGuard.sol\":3648:3673  _reentrancyGuardEntered() */\n      jump\t// in\n    tag_174:\n        /* \"@openzeppelin/contracts/utils/ReentrancyGuard.sol\":3644:3737  if (_reentrancyGuardEntered()) {... */\n      iszero\n      tag_176\n      jumpi\n        /* \"@openzeppelin/contracts/utils/ReentrancyGuard.sol\":3696:3726  ReentrancyGuardReentrantCall() */\n      mload(0x40)\n      0x3ee5aeb500000000000000000000000000000000000000000000000000000000\n      dup2\n      mstore\n      0x04\n      add\n      mload(0x40)\n      dup1\n      swap2\n      sub\n      swap1\n      revert\n        /* \"@openzeppelin/contracts/utils/ReentrancyGuard.sol\":3644:3737  if (_reentrancyGuardEntered()) {... */\n    tag_176:\n        /* \"@openzeppelin/contracts/utils/ReentrancyGuard.sol\":3586:3743  function _nonReentrantBeforeView() private view {... */\n      jump\t// out\n        /* \"@openzeppelin/contracts/utils/ReentrancyGuard.sol\":4636:4763  function _reentrancyGuardStorageSlot() internal pure virtual returns (bytes32) {... */\n    tag_160:\n        /* \"@openzeppelin/contracts/utils/ReentrancyGuard.sol\":4706:4713  bytes32 */\n      0x00\n        /* \"@openzeppelin/contracts/utils/ReentrancyGuard.sol\":1505:1571  0x9b779b17422d0df92223018b32b4d1fa46e071723d6817e2486d003becc55f00 */\n      0x9b779b17422d0df92223018b32b4d1fa46e071723d6817e2486d003becc55f00\n        /* \"@openzeppelin/contracts/utils/ReentrancyGuard.sol\":4732:4756  REENTRANCY_GUARD_STORAGE */\n      0x00\n      shl\n        /* \"@openzeppelin/contracts/utils/ReentrancyGuard.sol\":4725:4756  return REENTRANCY_GUARD_STORAGE */\n      swap1\n      pop\n        /* \"@openzeppelin/contracts/utils/ReentrancyGuard.sol\":4636:4763  function _reentrancyGuardStorageSlot() internal pure virtual returns (bytes32) {... */\n      swap1\n      jump\t// out\n        /* \"@openzeppelin/contracts/utils/StorageSlot.sol\":2679:2842  function getUint256Slot(bytes32 slot) internal pure returns (Uint256Slot storage r) {... */\n    tag_161:\n        /* \"@openzeppelin/contracts/utils/StorageSlot.sol\":2740:2761  Uint256Slot storage r */\n      0x00\n        /* \"@openzeppelin/contracts/utils/StorageSlot.sol\":2822:2826  slot */\n      dup2\n        /* \"@openzeppelin/contracts/utils/StorageSlot.sol\":2812:2826  r.slot := slot */\n      swap1\n      pop\n        /* \"@openzeppelin/contracts/utils/StorageSlot.sol\":2679:2842  function getUint256Slot(bytes32 slot) internal pure returns (Uint256Slot storage r) {... */\n      swap2\n      swap1\n      pop\n      jump\t// out\n        /* \"@openzeppelin/contracts/utils/Context.sol\":656:752  function _msgSender() internal view virtual returns (address) {... */\n    tag_167:\n        /* \"@openzeppelin/contracts/utils/Context.sol\":709:716  address */\n      0x00\n        /* \"@openzeppelin/contracts/utils/Context.sol\":735:745  msg.sender */\n      caller\n        /* \"@openzeppelin/contracts/utils/Context.sol\":728:745  return msg.sender */\n      swap1\n      pop\n        /* \"@openzeppelin/contracts/utils/Context.sol\":656:752  function _msgSender() internal view virtual returns (address) {... */\n      swap1\n      jump\t// out\n        /* \"@openzeppelin/contracts/utils/ReentrancyGuard.sol\":4479:4630  function _reentrancyGuardEntered() internal view returns (bool) {... */\n    tag_175:\n        /* \"@openzeppelin/contracts/utils/ReentrancyGuard.sol\":4537:4541  bool */\n      0x00\n        /* \"@openzeppelin/contracts/utils/ReentrancyGuard.sol\":2407:2408  2 */\n      0x02\n        /* \"@openzeppelin/contracts/utils/ReentrancyGuard.sol\":4560:4606  _reentrancyGuardStorageSlot().getUint256Slot() */\n      tag_181\n        /* \"@openzeppelin/contracts/utils/ReentrancyGuard.sol\":4560:4589  _reentrancyGuardStorageSlot() */\n      tag_182\n        /* \"@openzeppelin/contracts/utils/ReentrancyGuard.sol\":4560:4587  _reentrancyGuardStorageSlot */\n      tag_160\n        /* \"@openzeppelin/contracts/utils/ReentrancyGuard.sol\":4560:4589  _reentrancyGuardStorageSlot() */\n      jump\t// in\n    tag_182:\n        /* \"@openzeppelin/contracts/utils/ReentrancyGuard.sol\":4560:4604  _reentrancyGuardStorageSlot().getUint256Slot */\n      tag_161\n        /* \"@openzeppelin/contracts/utils/ReentrancyGuard.sol\":4560:4606  _reentrancyGuardStorageSlot().getUint256Slot() */\n      jump\t// in\n    tag_181:\n        /* \"@openzeppelin/contracts/utils/ReentrancyGuard.sol\":4560:4612  _reentrancyGuardStorageSlot().getUint256Slot().value */\n      0x00\n      add\n      sload\n        /* \"@openzeppelin/contracts/utils/ReentrancyGuard.sol\":4560:4623  _reentrancyGuardStorageSlot().getUint256Slot().value == ENTERED */\n      eq\n        /* \"@openzeppelin/contracts/utils/ReentrancyGuard.sol\":4553:4623  return _reentrancyGuardStorageSlot().getUint256Slot().value == ENTERED */\n      swap1\n      pop\n        /* \"@openzeppelin/contracts/utils/ReentrancyGuard.sol\":4479:4630  function _reentrancyGuardEntered() internal view returns (bool) {... */\n      swap1\n      jump\t// out\n        /* \"#utility.yul\":88:205   */\n    tag_184:\n        /* \"#utility.yul\":197:198   */\n      0x00\n        /* \"#utility.yul\":194:195   */\n      0x00\n        /* \"#utility.yul\":187:199   */\n      revert\n        /* \"#utility.yul\":334:460   */\n    tag_186:\n        /* \"#utility.yul\":371:378   */\n      0x00\n        /* \"#utility.yul\":411:453   */\n      0xffffffffffffffffffffffffffffffffffffffff\n        /* \"#utility.yul\":404:409   */\n      dup3\n        /* \"#utility.yul\":400:454   */\n      and\n        /* \"#utility.yul\":389:454   */\n      swap1\n      pop\n        /* \"#utility.yul\":334:460   */\n      swap2\n      swap1\n      pop\n      jump\t// out\n        /* \"#utility.yul\":466:562   */\n    tag_187:\n        /* \"#utility.yul\":503:510   */\n      0x00\n        /* \"#utility.yul\":532:556   */\n      tag_236\n        /* \"#utility.yul\":550:555   */\n      dup3\n        /* \"#utility.yul\":532:556   */\n      tag_186\n      jump\t// in\n    tag_236:\n        /* \"#utility.yul\":521:556   */\n      swap1\n      pop\n        /* \"#utility.yul\":466:562   */\n      swap2\n      swap1\n      pop\n      jump\t// out\n        /* \"#utility.yul\":568:690   */\n    tag_188:\n        /* \"#utility.yul\":641:665   */\n      tag_238\n        /* \"#utility.yul\":659:664   */\n      dup2\n        /* \"#utility.yul\":641:665   */\n      tag_187\n      jump\t// in\n    tag_238:\n        /* \"#utility.yul\":634:639   */\n      dup2\n        /* \"#utility.yul\":631:666   */\n      eq\n        /* \"#utility.yul\":621:684   */\n      tag_239\n      jumpi\n        /* \"#utility.yul\":680:681   */\n      0x00\n        /* \"#utility.yul\":677:678   */\n      0x00\n        /* \"#utility.yul\":670:682   */\n      revert\n        /* \"#utility.yul\":621:684   */\n    tag_239:\n        /* \"#utility.yul\":568:690   */\n      pop\n      jump\t// out\n        /* \"#utility.yul\":696:835   */\n    tag_189:\n        /* \"#utility.yul\":742:747   */\n      0x00\n        /* \"#utility.yul\":780:786   */\n      dup2\n        /* \"#utility.yul\":767:787   */\n      calldataload\n        /* \"#utility.yul\":758:787   */\n      swap1\n      pop\n        /* \"#utility.yul\":796:829   */\n      tag_241\n        /* \"#utility.yul\":823:828   */\n      dup2\n        /* \"#utility.yul\":796:829   */\n      tag_188\n      jump\t// in\n    tag_241:\n        /* \"#utility.yul\":696:835   */\n      swap3\n      swap2\n      pop\n      pop\n      jump\t// out\n        /* \"#utility.yul\":841:1170   */\n    tag_24:\n        /* \"#utility.yul\":900:906   */\n      0x00\n        /* \"#utility.yul\":949:951   */\n      0x20\n        /* \"#utility.yul\":937:946   */\n      dup3\n        /* \"#utility.yul\":928:935   */\n      dup5\n        /* \"#utility.yul\":924:947   */\n      sub\n        /* \"#utility.yul\":920:952   */\n      slt\n        /* \"#utility.yul\":917:1036   */\n      iszero\n      tag_243\n      jumpi\n        /* \"#utility.yul\":955:1034   */\n      tag_244\n      tag_184\n      jump\t// in\n    tag_244:\n        /* \"#utility.yul\":917:1036   */\n    tag_243:\n        /* \"#utility.yul\":1075:1076   */\n      0x00\n        /* \"#utility.yul\":1100:1153   */\n      tag_245\n        /* \"#utility.yul\":1145:1152   */\n      dup5\n        /* \"#utility.yul\":1136:1142   */\n      dup3\n        /* \"#utility.yul\":1125:1134   */\n      dup6\n        /* \"#utility.yul\":1121:1143   */\n      add\n        /* \"#utility.yul\":1100:1153   */\n      tag_189\n      jump\t// in\n    tag_245:\n        /* \"#utility.yul\":1090:1153   */\n      swap2\n      pop\n        /* \"#utility.yul\":1046:1163   */\n      pop\n        /* \"#utility.yul\":841:1170   */\n      swap3\n      swap2\n      pop\n      pop\n      jump\t// out\n        /* \"#utility.yul\":1176:1253   */\n    tag_190:\n        /* \"#utility.yul\":1213:1220   */\n      0x00\n        /* \"#utility.yul\":1242:1247   */\n      dup2\n        /* \"#utility.yul\":1231:1247   */\n      swap1\n      pop\n        /* \"#utility.yul\":1176:1253   */\n      swap2\n      swap1\n      pop\n      jump\t// out\n        /* \"#utility.yul\":1259:1377   */\n    tag_191:\n        /* \"#utility.yul\":1346:1370   */\n      tag_248\n        /* \"#utility.yul\":1364:1369   */\n      dup2\n        /* \"#utility.yul\":1346:1370   */\n      tag_190\n      jump\t// in\n    tag_248:\n        /* \"#utility.yul\":1341:1344   */\n      dup3\n        /* \"#utility.yul\":1334:1371   */\n      mstore\n        /* \"#utility.yul\":1259:1377   */\n      pop\n      pop\n      jump\t// out\n        /* \"#utility.yul\":1383:1605   */\n    tag_27:\n        /* \"#utility.yul\":1476:1480   */\n      0x00\n        /* \"#utility.yul\":1514:1516   */\n      0x20\n        /* \"#utility.yul\":1503:1512   */\n      dup3\n        /* \"#utility.yul\":1499:1517   */\n      add\n        /* \"#utility.yul\":1491:1517   */\n      swap1\n      pop\n        /* \"#utility.yul\":1527:1598   */\n      tag_250\n        /* \"#utility.yul\":1595:1596   */\n      0x00\n        /* \"#utility.yul\":1584:1593   */\n      dup4\n        /* \"#utility.yul\":1580:1597   */\n      add\n        /* \"#utility.yul\":1571:1577   */\n      dup5\n        /* \"#utility.yul\":1527:1598   */\n      tag_191\n      jump\t// in\n    tag_250:\n        /* \"#utility.yul\":1383:1605   */\n      swap3\n      swap2\n      pop\n      pop\n      jump\t// out\n        /* \"#utility.yul\":1611:1671   */\n    tag_192:\n        /* \"#utility.yul\":1639:1642   */\n      0x00\n        /* \"#utility.yul\":1660:1665   */\n      dup2\n        /* \"#utility.yul\":1653:1665   */\n      swap1\n      pop\n        /* \"#utility.yul\":1611:1671   */\n      swap2\n      swap1\n      pop\n      jump\t// out\n        /* \"#utility.yul\":1677:1819   */\n    tag_193:\n        /* \"#utility.yul\":1727:1736   */\n      0x00\n        /* \"#utility.yul\":1760:1813   */\n      tag_253\n        /* \"#utility.yul\":1778:1812   */\n      tag_254\n        /* \"#utility.yul\":1787:1811   */\n      tag_255\n        /* \"#utility.yul\":1805:1810   */\n      dup5\n        /* \"#utility.yul\":1787:1811   */\n      tag_186\n      jump\t// in\n    tag_255:\n        /* \"#utility.yul\":1778:1812   */\n      tag_192\n      jump\t// in\n    tag_254:\n        /* \"#utility.yul\":1760:1813   */\n      tag_186\n      jump\t// in\n    tag_253:\n        /* \"#utility.yul\":1747:1813   */\n      swap1\n      pop\n        /* \"#utility.yul\":1677:1819   */\n      swap2\n      swap1\n      pop\n      jump\t// out\n        /* \"#utility.yul\":1825:1951   */\n    tag_194:\n        /* \"#utility.yul\":1875:1884   */\n      0x00\n        /* \"#utility.yul\":1908:1945   */\n      tag_257\n        /* \"#utility.yul\":1939:1944   */\n      dup3\n        /* \"#utility.yul\":1908:1945   */\n      tag_193\n      jump\t// in\n    tag_257:\n        /* \"#utility.yul\":1895:1945   */\n      swap1\n      pop\n        /* \"#utility.yul\":1825:1951   */\n      swap2\n      swap1\n      pop\n      jump\t// out\n        /* \"#utility.yul\":1957:2097   */\n    tag_195:\n        /* \"#utility.yul\":2021:2030   */\n      0x00\n        /* \"#utility.yul\":2054:2091   */\n      tag_259\n        /* \"#utility.yul\":2085:2090   */\n      dup3\n        /* \"#utility.yul\":2054:2091   */\n      tag_194\n      jump\t// in\n    tag_259:\n        /* \"#utility.yul\":2041:2091   */\n      swap1\n      pop\n        /* \"#utility.yul\":1957:2097   */\n      swap2\n      swap1\n      pop\n      jump\t// out\n        /* \"#utility.yul\":2103:2262   */\n    tag_196:\n        /* \"#utility.yul\":2204:2255   */\n      tag_261\n        /* \"#utility.yul\":2249:2254   */\n      dup2\n        /* \"#utility.yul\":2204:2255   */\n      tag_195\n      jump\t// in\n    tag_261:\n        /* \"#utility.yul\":2199:2202   */\n      dup3\n        /* \"#utility.yul\":2192:2256   */\n      mstore\n        /* \"#utility.yul\":2103:2262   */\n      pop\n      pop\n      jump\t// out\n        /* \"#utility.yul\":2268:2518   */\n    tag_37:\n        /* \"#utility.yul\":2375:2379   */\n      0x00\n        /* \"#utility.yul\":2413:2415   */\n      0x20\n        /* \"#utility.yul\":2402:2411   */\n      dup3\n        /* \"#utility.yul\":2398:2416   */\n      add\n        /* \"#utility.yul\":2390:2416   */\n      swap1\n      pop\n        /* \"#utility.yul\":2426:2511   */\n      tag_263\n        /* \"#utility.yul\":2508:2509   */\n      0x00\n        /* \"#utility.yul\":2497:2506   */\n      dup4\n        /* \"#utility.yul\":2493:2510   */\n      add\n        /* \"#utility.yul\":2484:2490   */\n      dup5\n        /* \"#utility.yul\":2426:2511   */\n      tag_196\n      jump\t// in\n    tag_263:\n        /* \"#utility.yul\":2268:2518   */\n      swap3\n      swap2\n      pop\n      pop\n      jump\t// out\n        /* \"#utility.yul\":2524:2678   */\n    tag_197:\n        /* \"#utility.yul\":2602:2611   */\n      0x00\n        /* \"#utility.yul\":2635:2672   */\n      tag_265\n        /* \"#utility.yul\":2666:2671   */\n      dup3\n        /* \"#utility.yul\":2635:2672   */\n      tag_194\n      jump\t// in\n    tag_265:\n        /* \"#utility.yul\":2622:2672   */\n      swap1\n      pop\n        /* \"#utility.yul\":2524:2678   */\n      swap2\n      swap1\n      pop\n      jump\t// out\n        /* \"#utility.yul\":2684:2871   */\n    tag_198:\n        /* \"#utility.yul\":2799:2864   */\n      tag_267\n        /* \"#utility.yul\":2858:2863   */\n      dup2\n        /* \"#utility.yul\":2799:2864   */\n      tag_197\n      jump\t// in\n    tag_267:\n        /* \"#utility.yul\":2794:2797   */\n      dup3\n        /* \"#utility.yul\":2787:2865   */\n      mstore\n        /* \"#utility.yul\":2684:2871   */\n      pop\n      pop\n      jump\t// out\n        /* \"#utility.yul\":2877:3155   */\n    tag_41:\n        /* \"#utility.yul\":2998:3002   */\n      0x00\n        /* \"#utility.yul\":3036:3038   */\n      0x20\n        /* \"#utility.yul\":3025:3034   */\n      dup3\n        /* \"#utility.yul\":3021:3039   */\n      add\n        /* \"#utility.yul\":3013:3039   */\n      swap1\n      pop\n        /* \"#utility.yul\":3049:3148   */\n      tag_269\n        /* \"#utility.yul\":3145:3146   */\n      0x00\n        /* \"#utility.yul\":3134:3143   */\n      dup4\n        /* \"#utility.yul\":3130:3147   */\n      add\n        /* \"#utility.yul\":3121:3127   */\n      dup5\n        /* \"#utility.yul\":3049:3148   */\n      tag_198\n      jump\t// in\n    tag_269:\n        /* \"#utility.yul\":2877:3155   */\n      swap3\n      swap2\n      pop\n      pop\n      jump\t// out\n        /* \"#utility.yul\":3161:3279   */\n    tag_199:\n        /* \"#utility.yul\":3248:3272   */\n      tag_271\n        /* \"#utility.yul\":3266:3271   */\n      dup2\n        /* \"#utility.yul\":3248:3272   */\n      tag_187\n      jump\t// in\n    tag_271:\n        /* \"#utility.yul\":3243:3246   */\n      dup3\n        /* \"#utility.yul\":3236:3273   */\n      mstore\n        /* \"#utility.yul\":3161:3279   */\n      pop\n      pop\n      jump\t// out\n        /* \"#utility.yul\":3285:3507   */\n    tag_48:\n        /* \"#utility.yul\":3378:3382   */\n      0x00\n        /* \"#utility.yul\":3416:3418   */\n      0x20\n        /* \"#utility.yul\":3405:3414   */\n      dup3\n        /* \"#utility.yul\":3401:3419   */\n      add\n        /* \"#utility.yul\":3393:3419   */\n      swap1\n      pop\n        /* \"#utility.yul\":3429:3500   */\n      tag_273\n        /* \"#utility.yul\":3497:3498   */\n      0x00\n        /* \"#utility.yul\":3486:3495   */\n      dup4\n        /* \"#utility.yul\":3482:3499   */\n      add\n        /* \"#utility.yul\":3473:3479   */\n      dup5\n        /* \"#utility.yul\":3429:3500   */\n      tag_199\n      jump\t// in\n    tag_273:\n        /* \"#utility.yul\":3285:3507   */\n      swap3\n      swap2\n      pop\n      pop\n      jump\t// out\n        /* \"#utility.yul\":3513:3589   */\n    tag_200:\n        /* \"#utility.yul\":3549:3556   */\n      0x00\n        /* \"#utility.yul\":3578:3583   */\n      dup2\n        /* \"#utility.yul\":3567:3583   */\n      swap1\n      pop\n        /* \"#utility.yul\":3513:3589   */\n      swap2\n      swap1\n      pop\n      jump\t// out\n        /* \"#utility.yul\":3595:3710   */\n    tag_201:\n        /* \"#utility.yul\":3680:3703   */\n      tag_276\n        /* \"#utility.yul\":3697:3702   */\n      dup2\n        /* \"#utility.yul\":3680:3703   */\n      tag_200\n      jump\t// in\n    tag_276:\n        /* \"#utility.yul\":3675:3678   */\n      dup3\n        /* \"#utility.yul\":3668:3704   */\n      mstore\n        /* \"#utility.yul\":3595:3710   */\n      pop\n      pop\n      jump\t// out\n        /* \"#utility.yul\":3716:3934   */\n    tag_52:\n        /* \"#utility.yul\":3807:3811   */\n      0x00\n        /* \"#utility.yul\":3845:3847   */\n      0x20\n        /* \"#utility.yul\":3834:3843   */\n      dup3\n        /* \"#utility.yul\":3830:3848   */\n      add\n        /* \"#utility.yul\":3822:3848   */\n      swap1\n      pop\n        /* \"#utility.yul\":3858:3927   */\n      tag_278\n        /* \"#utility.yul\":3924:3925   */\n      0x00\n        /* \"#utility.yul\":3913:3922   */\n      dup4\n        /* \"#utility.yul\":3909:3926   */\n      add\n        /* \"#utility.yul\":3900:3906   */\n      dup5\n        /* \"#utility.yul\":3858:3927   */\n      tag_201\n      jump\t// in\n    tag_278:\n        /* \"#utility.yul\":3716:3934   */\n      swap3\n      swap2\n      pop\n      pop\n      jump\t// out\n        /* \"#utility.yul\":3940:4062   */\n    tag_202:\n        /* \"#utility.yul\":4013:4037   */\n      tag_280\n        /* \"#utility.yul\":4031:4036   */\n      dup2\n        /* \"#utility.yul\":4013:4037   */\n      tag_190\n      jump\t// in\n    tag_280:\n        /* \"#utility.yul\":4006:4011   */\n      dup2\n        /* \"#utility.yul\":4003:4038   */\n      eq\n        /* \"#utility.yul\":3993:4056   */\n      tag_281\n      jumpi\n        /* \"#utility.yul\":4052:4053   */\n      0x00\n        /* \"#utility.yul\":4049:4050   */\n      0x00\n        /* \"#utility.yul\":4042:4054   */\n      revert\n        /* \"#utility.yul\":3993:4056   */\n    tag_281:\n        /* \"#utility.yul\":3940:4062   */\n      pop\n      jump\t// out\n        /* \"#utility.yul\":4068:4207   */\n    tag_203:\n        /* \"#utility.yul\":4114:4119   */\n      0x00\n        /* \"#utility.yul\":4152:4158   */\n      dup2\n        /* \"#utility.yul\":4139:4159   */\n      calldataload\n        /* \"#utility.yul\":4130:4159   */\n      swap1\n      pop\n        /* \"#utility.yul\":4168:4201   */\n      tag_283\n        /* \"#utility.yul\":4195:4200   */\n      dup2\n        /* \"#utility.yul\":4168:4201   */\n      tag_202\n      jump\t// in\n    tag_283:\n        /* \"#utility.yul\":4068:4207   */\n      swap3\n      swap2\n      pop\n      pop\n      jump\t// out\n        /* \"#utility.yul\":4213:4542   */\n    tag_55:\n        /* \"#utility.yul\":4272:4278   */\n      0x00\n        /* \"#utility.yul\":4321:4323   */\n      0x20\n        /* \"#utility.yul\":4309:4318   */\n      dup3\n        /* \"#utility.yul\":4300:4307   */\n      dup5\n        /* \"#utility.yul\":4296:4319   */\n      sub\n        /* \"#utility.yul\":4292:4324   */\n      slt\n        /* \"#utility.yul\":4289:4408   */\n      iszero\n      tag_285\n      jumpi\n        /* \"#utility.yul\":4327:4406   */\n      tag_286\n      tag_184\n      jump\t// in\n    tag_286:\n        /* \"#utility.yul\":4289:4408   */\n    tag_285:\n        /* \"#utility.yul\":4447:4448   */\n      0x00\n        /* \"#utility.yul\":4472:4525   */\n      tag_287\n        /* \"#utility.yul\":4517:4524   */\n      dup5\n        /* \"#utility.yul\":4508:4514   */\n      dup3\n        /* \"#utility.yul\":4497:4506   */\n      dup6\n        /* \"#utility.yul\":4493:4515   */\n      add\n        /* \"#utility.yul\":4472:4525   */\n      tag_203\n      jump\t// in\n    tag_287:\n        /* \"#utility.yul\":4462:4525   */\n      swap2\n      pop\n        /* \"#utility.yul\":4418:4535   */\n      pop\n        /* \"#utility.yul\":4213:4542   */\n      swap3\n      swap2\n      pop\n      pop\n      jump\t// out\n        /* \"#utility.yul\":4548:5022   */\n    tag_62:\n        /* \"#utility.yul\":4616:4622   */\n      0x00\n        /* \"#utility.yul\":4624:4630   */\n      0x00\n        /* \"#utility.yul\":4673:4675   */\n      0x40\n        /* \"#utility.yul\":4661:4670   */\n      dup4\n        /* \"#utility.yul\":4652:4659   */\n      dup6\n        /* \"#utility.yul\":4648:4671   */\n      sub\n        /* \"#utility.yul\":4644:4676   */\n      slt\n        /* \"#utility.yul\":4641:4760   */\n      iszero\n      tag_289\n      jumpi\n        /* \"#utility.yul\":4679:4758   */\n      tag_290\n      tag_184\n      jump\t// in\n    tag_290:\n        /* \"#utility.yul\":4641:4760   */\n    tag_289:\n        /* \"#utility.yul\":4799:4800   */\n      0x00\n        /* \"#utility.yul\":4824:4877   */\n      tag_291\n        /* \"#utility.yul\":4869:4876   */\n      dup6\n        /* \"#utility.yul\":4860:4866   */\n      dup3\n        /* \"#utility.yul\":4849:4858   */\n      dup7\n        /* \"#utility.yul\":4845:4867   */\n      add\n        /* \"#utility.yul\":4824:4877   */\n      tag_189\n      jump\t// in\n    tag_291:\n        /* \"#utility.yul\":4814:4877   */\n      swap3\n      pop\n        /* \"#utility.yul\":4770:4887   */\n      pop\n        /* \"#utility.yul\":4926:4928   */\n      0x20\n        /* \"#utility.yul\":4952:5005   */\n      tag_292\n        /* \"#utility.yul\":4997:5004   */\n      dup6\n        /* \"#utility.yul\":4988:4994   */\n      dup3\n        /* \"#utility.yul\":4977:4986   */\n      dup7\n        /* \"#utility.yul\":4973:4995   */\n      add\n        /* \"#utility.yul\":4952:5005   */\n      tag_189\n      jump\t// in\n    tag_292:\n        /* \"#utility.yul\":4942:5005   */\n      swap2\n      pop\n        /* \"#utility.yul\":4897:5015   */\n      pop\n        /* \"#utility.yul\":4548:5022   */\n      swap3\n      pop\n      swap3\n      swap1\n      pop\n      jump\t// out\n        /* \"#utility.yul\":5028:5197   */\n    tag_204:\n        /* \"#utility.yul\":5112:5123   */\n      0x00\n        /* \"#utility.yul\":5146:5152   */\n      dup3\n        /* \"#utility.yul\":5141:5144   */\n      dup3\n        /* \"#utility.yul\":5134:5153   */\n      mstore\n        /* \"#utility.yul\":5186:5190   */\n      0x20\n        /* \"#utility.yul\":5181:5184   */\n      dup3\n        /* \"#utility.yul\":5177:5191   */\n      add\n        /* \"#utility.yul\":5162:5191   */\n      swap1\n      pop\n        /* \"#utility.yul\":5028:5197   */\n      swap3\n      swap2\n      pop\n      pop\n      jump\t// out\n        /* \"#utility.yul\":5203:5370   */\n    tag_205:\n        /* \"#utility.yul\":5343:5362   */\n      0x4e61646120706172612072657469726172000000000000000000000000000000\n        /* \"#utility.yul\":5339:5340   */\n      0x00\n        /* \"#utility.yul\":5331:5337   */\n      dup3\n        /* \"#utility.yul\":5327:5341   */\n      add\n        /* \"#utility.yul\":5320:5363   */\n      mstore\n        /* \"#utility.yul\":5203:5370   */\n      pop\n      jump\t// out\n        /* \"#utility.yul\":5376:5742   */\n    tag_206:\n        /* \"#utility.yul\":5518:5521   */\n      0x00\n        /* \"#utility.yul\":5539:5606   */\n      tag_296\n        /* \"#utility.yul\":5603:5605   */\n      0x11\n        /* \"#utility.yul\":5598:5601   */\n      dup4\n        /* \"#utility.yul\":5539:5606   */\n      tag_204\n      jump\t// in\n    tag_296:\n        /* \"#utility.yul\":5532:5606   */\n      swap2\n      pop\n        /* \"#utility.yul\":5615:5708   */\n      tag_297\n        /* \"#utility.yul\":5704:5707   */\n      dup3\n        /* \"#utility.yul\":5615:5708   */\n      tag_205\n      jump\t// in\n    tag_297:\n        /* \"#utility.yul\":5733:5735   */\n      0x20\n        /* \"#utility.yul\":5728:5731   */\n      dup3\n        /* \"#utility.yul\":5724:5736   */\n      add\n        /* \"#utility.yul\":5717:5736   */\n      swap1\n      pop\n        /* \"#utility.yul\":5376:5742   */\n      swap2\n      swap1\n      pop\n      jump\t// out\n        /* \"#utility.yul\":5748:6167   */\n    tag_77:\n        /* \"#utility.yul\":5914:5918   */\n      0x00\n        /* \"#utility.yul\":5952:5954   */\n      0x20\n        /* \"#utility.yul\":5941:5950   */\n      dup3\n        /* \"#utility.yul\":5937:5955   */\n      add\n        /* \"#utility.yul\":5929:5955   */\n      swap1\n      pop\n        /* \"#utility.yul\":6001:6010   */\n      dup2\n        /* \"#utility.yul\":5995:5999   */\n      dup2\n        /* \"#utility.yul\":5991:6011   */\n      sub\n        /* \"#utility.yul\":5987:5988   */\n      0x00\n        /* \"#utility.yul\":5976:5985   */\n      dup4\n        /* \"#utility.yul\":5972:5989   */\n      add\n        /* \"#utility.yul\":5965:6012   */\n      mstore\n        /* \"#utility.yul\":6029:6160   */\n      tag_299\n        /* \"#utility.yul\":6155:6159   */\n      dup2\n        /* \"#utility.yul\":6029:6160   */\n      tag_206\n      jump\t// in\n    tag_299:\n        /* \"#utility.yul\":6021:6160   */\n      swap1\n      pop\n        /* \"#utility.yul\":5748:6167   */\n      swap2\n      swap1\n      pop\n      jump\t// out\n        /* \"#utility.yul\":6173:6353   */\n    tag_207:\n        /* \"#utility.yul\":6221:6298   */\n      0x4e487b7100000000000000000000000000000000000000000000000000000000\n        /* \"#utility.yul\":6218:6219   */\n      0x00\n        /* \"#utility.yul\":6211:6299   */\n      mstore\n        /* \"#utility.yul\":6318:6322   */\n      0x11\n        /* \"#utility.yul\":6315:6316   */\n      0x04\n        /* \"#utility.yul\":6308:6323   */\n      mstore\n        /* \"#utility.yul\":6342:6346   */\n      0x24\n        /* \"#utility.yul\":6339:6340   */\n      0x00\n        /* \"#utility.yul\":6332:6347   */\n      revert\n        /* \"#utility.yul\":6359:6550   */\n    tag_80:\n        /* \"#utility.yul\":6399:6402   */\n      0x00\n        /* \"#utility.yul\":6418:6438   */\n      tag_302\n        /* \"#utility.yul\":6436:6437   */\n      dup3\n        /* \"#utility.yul\":6418:6438   */\n      tag_190\n      jump\t// in\n    tag_302:\n        /* \"#utility.yul\":6413:6438   */\n      swap2\n      pop\n        /* \"#utility.yul\":6452:6472   */\n      tag_303\n        /* \"#utility.yul\":6470:6471   */\n      dup4\n        /* \"#utility.yul\":6452:6472   */\n      tag_190\n      jump\t// in\n    tag_303:\n        /* \"#utility.yul\":6447:6472   */\n      swap3\n      pop\n        /* \"#utility.yul\":6495:6496   */\n      dup3\n        /* \"#utility.yul\":6492:6493   */\n      dup3\n        /* \"#utility.yul\":6488:6497   */\n      add\n        /* \"#utility.yul\":6481:6497   */\n      swap1\n      pop\n        /* \"#utility.yul\":6516:6519   */\n      dup1\n        /* \"#utility.yul\":6513:6514   */\n      dup3\n        /* \"#utility.yul\":6510:6520   */\n      gt\n        /* \"#utility.yul\":6507:6543   */\n      iszero\n      tag_304\n      jumpi\n        /* \"#utility.yul\":6523:6541   */\n      tag_305\n      tag_207\n      jump\t// in\n    tag_305:\n        /* \"#utility.yul\":6507:6543   */\n    tag_304:\n        /* \"#utility.yul\":6359:6550   */\n      swap3\n      swap2\n      pop\n      pop\n      jump\t// out\n        /* \"#utility.yul\":6556:6888   */\n    tag_82:\n        /* \"#utility.yul\":6677:6681   */\n      0x00\n        /* \"#utility.yul\":6715:6717   */\n      0x40\n        /* \"#utility.yul\":6704:6713   */\n      dup3\n        /* \"#utility.yul\":6700:6718   */\n      add\n        /* \"#utility.yul\":6692:6718   */\n      swap1\n      pop\n        /* \"#utility.yul\":6728:6799   */\n      tag_307\n        /* \"#utility.yul\":6796:6797   */\n      0x00\n        /* \"#utility.yul\":6785:6794   */\n      dup4\n        /* \"#utility.yul\":6781:6798   */\n      add\n        /* \"#utility.yul\":6772:6778   */\n      dup6\n        /* \"#utility.yul\":6728:6799   */\n      tag_199\n      jump\t// in\n    tag_307:\n        /* \"#utility.yul\":6809:6881   */\n      tag_308\n        /* \"#utility.yul\":6877:6879   */\n      0x20\n        /* \"#utility.yul\":6866:6875   */\n      dup4\n        /* \"#utility.yul\":6862:6880   */\n      add\n        /* \"#utility.yul\":6853:6859   */\n      dup5\n        /* \"#utility.yul\":6809:6881   */\n      tag_191\n      jump\t// in\n    tag_308:\n        /* \"#utility.yul\":6556:6888   */\n      swap4\n      swap3\n      pop\n      pop\n      pop\n      jump\t// out\n        /* \"#utility.yul\":6894:6984   */\n    tag_208:\n        /* \"#utility.yul\":6928:6935   */\n      0x00\n        /* \"#utility.yul\":6971:6976   */\n      dup2\n        /* \"#utility.yul\":6964:6977   */\n      iszero\n        /* \"#utility.yul\":6957:6978   */\n      iszero\n        /* \"#utility.yul\":6946:6978   */\n      swap1\n      pop\n        /* \"#utility.yul\":6894:6984   */\n      swap2\n      swap1\n      pop\n      jump\t// out\n        /* \"#utility.yul\":6990:7106   */\n    tag_209:\n        /* \"#utility.yul\":7060:7081   */\n      tag_311\n        /* \"#utility.yul\":7075:7080   */\n      dup2\n        /* \"#utility.yul\":7060:7081   */\n      tag_208\n      jump\t// in\n    tag_311:\n        /* \"#utility.yul\":7053:7058   */\n      dup2\n        /* \"#utility.yul\":7050:7082   */\n      eq\n        /* \"#utility.yul\":7040:7100   */\n      tag_312\n      jumpi\n        /* \"#utility.yul\":7096:7097   */\n      0x00\n        /* \"#utility.yul\":7093:7094   */\n      0x00\n        /* \"#utility.yul\":7086:7098   */\n      revert\n        /* \"#utility.yul\":7040:7100   */\n    tag_312:\n        /* \"#utility.yul\":6990:7106   */\n      pop\n      jump\t// out\n        /* \"#utility.yul\":7112:7249   */\n    tag_210:\n        /* \"#utility.yul\":7166:7171   */\n      0x00\n        /* \"#utility.yul\":7197:7203   */\n      dup2\n        /* \"#utility.yul\":7191:7204   */\n      mload\n        /* \"#utility.yul\":7182:7204   */\n      swap1\n      pop\n        /* \"#utility.yul\":7213:7243   */\n      tag_314\n        /* \"#utility.yul\":7237:7242   */\n      dup2\n        /* \"#utility.yul\":7213:7243   */\n      tag_209\n      jump\t// in\n    tag_314:\n        /* \"#utility.yul\":7112:7249   */\n      swap3\n      swap2\n      pop\n      pop\n      jump\t// out\n        /* \"#utility.yul\":7255:7600   */\n    tag_86:\n        /* \"#utility.yul\":7322:7328   */\n      0x00\n        /* \"#utility.yul\":7371:7373   */\n      0x20\n        /* \"#utility.yul\":7359:7368   */\n      dup3\n        /* \"#utility.yul\":7350:7357   */\n      dup5\n        /* \"#utility.yul\":7346:7369   */\n      sub\n        /* \"#utility.yul\":7342:7374   */\n      slt\n        /* \"#utility.yul\":7339:7458   */\n      iszero\n      tag_316\n      jumpi\n        /* \"#utility.yul\":7377:7456   */\n      tag_317\n      tag_184\n      jump\t// in\n    tag_317:\n        /* \"#utility.yul\":7339:7458   */\n    tag_316:\n        /* \"#utility.yul\":7497:7498   */\n      0x00\n        /* \"#utility.yul\":7522:7583   */\n      tag_318\n        /* \"#utility.yul\":7575:7582   */\n      dup5\n        /* \"#utility.yul\":7566:7572   */\n      dup3\n        /* \"#utility.yul\":7555:7564   */\n      dup6\n        /* \"#utility.yul\":7551:7573   */\n      add\n        /* \"#utility.yul\":7522:7583   */\n      tag_210\n      jump\t// in\n    tag_318:\n        /* \"#utility.yul\":7512:7583   */\n      swap2\n      pop\n        /* \"#utility.yul\":7468:7593   */\n      pop\n        /* \"#utility.yul\":7255:7600   */\n      swap3\n      swap2\n      pop\n      pop\n      jump\t// out\n        /* \"#utility.yul\":7606:7771   */\n    tag_211:\n        /* \"#utility.yul\":7746:7763   */\n      0x5472616e73666572206661696c65640000000000000000000000000000000000\n        /* \"#utility.yul\":7742:7743   */\n      0x00\n        /* \"#utility.yul\":7734:7740   */\n      dup3\n        /* \"#utility.yul\":7730:7744   */\n      add\n        /* \"#utility.yul\":7723:7764   */\n      mstore\n        /* \"#utility.yul\":7606:7771   */\n      pop\n      jump\t// out\n        /* \"#utility.yul\":7777:8143   */\n    tag_212:\n        /* \"#utility.yul\":7919:7922   */\n      0x00\n        /* \"#utility.yul\":7940:8007   */\n      tag_321\n        /* \"#utility.yul\":8004:8006   */\n      0x0f\n        /* \"#utility.yul\":7999:8002   */\n      dup4\n        /* \"#utility.yul\":7940:8007   */\n      tag_204\n      jump\t// in\n    tag_321:\n        /* \"#utility.yul\":7933:8007   */\n      swap2\n      pop\n        /* \"#utility.yul\":8016:8109   */\n      tag_322\n        /* \"#utility.yul\":8105:8108   */\n      dup3\n        /* \"#utility.yul\":8016:8109   */\n      tag_211\n      jump\t// in\n    tag_322:\n        /* \"#utility.yul\":8134:8136   */\n      0x20\n        /* \"#utility.yul\":8129:8132   */\n      dup3\n        /* \"#utility.yul\":8125:8137   */\n      add\n        /* \"#utility.yul\":8118:8137   */\n      swap1\n      pop\n        /* \"#utility.yul\":7777:8143   */\n      swap2\n      swap1\n      pop\n      jump\t// out\n        /* \"#utility.yul\":8149:8568   */\n    tag_89:\n        /* \"#utility.yul\":8315:8319   */\n      0x00\n        /* \"#utility.yul\":8353:8355   */\n      0x20\n        /* \"#utility.yul\":8342:8351   */\n      dup3\n        /* \"#utility.yul\":8338:8356   */\n      add\n        /* \"#utility.yul\":8330:8356   */\n      swap1\n      pop\n        /* \"#utility.yul\":8402:8411   */\n      dup2\n        /* \"#utility.yul\":8396:8400   */\n      dup2\n        /* \"#utility.yul\":8392:8412   */\n      sub\n        /* \"#utility.yul\":8388:8389   */\n      0x00\n        /* \"#utility.yul\":8377:8386   */\n      dup4\n        /* \"#utility.yul\":8373:8390   */\n      add\n        /* \"#utility.yul\":8366:8413   */\n      mstore\n        /* \"#utility.yul\":8430:8561   */\n      tag_324\n        /* \"#utility.yul\":8556:8560   */\n      dup2\n        /* \"#utility.yul\":8430:8561   */\n      tag_212\n      jump\t// in\n    tag_324:\n        /* \"#utility.yul\":8422:8561   */\n      swap1\n      pop\n        /* \"#utility.yul\":8149:8568   */\n      swap2\n      swap1\n      pop\n      jump\t// out\n        /* \"#utility.yul\":8574:8679   */\n    tag_213:\n        /* \"#utility.yul\":8610:8617   */\n      0x00\n        /* \"#utility.yul\":8650:8672   */\n      0xffffffffffffffffffff\n        /* \"#utility.yul\":8643:8648   */\n      dup3\n        /* \"#utility.yul\":8639:8673   */\n      and\n        /* \"#utility.yul\":8628:8673   */\n      swap1\n      pop\n        /* \"#utility.yul\":8574:8679   */\n      swap2\n      swap1\n      pop\n      jump\t// out\n        /* \"#utility.yul\":8685:8805   */\n    tag_214:\n        /* \"#utility.yul\":8757:8780   */\n      tag_327\n        /* \"#utility.yul\":8774:8779   */\n      dup2\n        /* \"#utility.yul\":8757:8780   */\n      tag_213\n      jump\t// in\n    tag_327:\n        /* \"#utility.yul\":8750:8755   */\n      dup2\n        /* \"#utility.yul\":8747:8781   */\n      eq\n        /* \"#utility.yul\":8737:8799   */\n      tag_328\n      jumpi\n        /* \"#utility.yul\":8795:8796   */\n      0x00\n        /* \"#utility.yul\":8792:8793   */\n      0x00\n        /* \"#utility.yul\":8785:8797   */\n      revert\n        /* \"#utility.yul\":8737:8799   */\n    tag_328:\n        /* \"#utility.yul\":8685:8805   */\n      pop\n      jump\t// out\n        /* \"#utility.yul\":8811:8952   */\n    tag_215:\n        /* \"#utility.yul\":8867:8872   */\n      0x00\n        /* \"#utility.yul\":8898:8904   */\n      dup2\n        /* \"#utility.yul\":8892:8905   */\n      mload\n        /* \"#utility.yul\":8883:8905   */\n      swap1\n      pop\n        /* \"#utility.yul\":8914:8946   */\n      tag_330\n        /* \"#utility.yul\":8940:8945   */\n      dup2\n        /* \"#utility.yul\":8914:8946   */\n      tag_214\n      jump\t// in\n    tag_330:\n        /* \"#utility.yul\":8811:8952   */\n      swap3\n      swap2\n      pop\n      pop\n      jump\t// out\n        /* \"#utility.yul\":8958:9078   */\n    tag_216:\n        /* \"#utility.yul\":9030:9053   */\n      tag_332\n        /* \"#utility.yul\":9047:9052   */\n      dup2\n        /* \"#utility.yul\":9030:9053   */\n      tag_200\n      jump\t// in\n    tag_332:\n        /* \"#utility.yul\":9023:9028   */\n      dup2\n        /* \"#utility.yul\":9020:9054   */\n      eq\n        /* \"#utility.yul\":9010:9072   */\n      tag_333\n      jumpi\n        /* \"#utility.yul\":9068:9069   */\n      0x00\n        /* \"#utility.yul\":9065:9066   */\n      0x00\n        /* \"#utility.yul\":9058:9070   */\n      revert\n        /* \"#utility.yul\":9010:9072   */\n    tag_333:\n        /* \"#utility.yul\":8958:9078   */\n      pop\n      jump\t// out\n        /* \"#utility.yul\":9084:9225   */\n    tag_217:\n        /* \"#utility.yul\":9140:9145   */\n      0x00\n        /* \"#utility.yul\":9171:9177   */\n      dup2\n        /* \"#utility.yul\":9165:9178   */\n      mload\n        /* \"#utility.yul\":9156:9178   */\n      swap1\n      pop\n        /* \"#utility.yul\":9187:9219   */\n      tag_335\n        /* \"#utility.yul\":9213:9218   */\n      dup2\n        /* \"#utility.yul\":9187:9219   */\n      tag_216\n      jump\t// in\n    tag_335:\n        /* \"#utility.yul\":9084:9225   */\n      swap3\n      swap2\n      pop\n      pop\n      jump\t// out\n        /* \"#utility.yul\":9231:9374   */\n    tag_218:\n        /* \"#utility.yul\":9288:9293   */\n      0x00\n        /* \"#utility.yul\":9319:9325   */\n      dup2\n        /* \"#utility.yul\":9313:9326   */\n      mload\n        /* \"#utility.yul\":9304:9326   */\n      swap1\n      pop\n        /* \"#utility.yul\":9335:9368   */\n      tag_337\n        /* \"#utility.yul\":9362:9367   */\n      dup2\n        /* \"#utility.yul\":9335:9368   */\n      tag_202\n      jump\t// in\n    tag_337:\n        /* \"#utility.yul\":9231:9374   */\n      swap3\n      swap2\n      pop\n      pop\n      jump\t// out\n        /* \"#utility.yul\":9380:10351   */\n    tag_103:\n        /* \"#utility.yul\":9483:9489   */\n      0x00\n        /* \"#utility.yul\":9491:9497   */\n      0x00\n        /* \"#utility.yul\":9499:9505   */\n      0x00\n        /* \"#utility.yul\":9507:9513   */\n      0x00\n        /* \"#utility.yul\":9515:9521   */\n      0x00\n        /* \"#utility.yul\":9564:9567   */\n      0xa0\n        /* \"#utility.yul\":9552:9561   */\n      dup7\n        /* \"#utility.yul\":9543:9550   */\n      dup9\n        /* \"#utility.yul\":9539:9562   */\n      sub\n        /* \"#utility.yul\":9535:9568   */\n      slt\n        /* \"#utility.yul\":9532:9652   */\n      iszero\n      tag_339\n      jumpi\n        /* \"#utility.yul\":9571:9650   */\n      tag_340\n      tag_184\n      jump\t// in\n    tag_340:\n        /* \"#utility.yul\":9532:9652   */\n    tag_339:\n        /* \"#utility.yul\":9691:9692   */\n      0x00\n        /* \"#utility.yul\":9716:9779   */\n      tag_341\n        /* \"#utility.yul\":9771:9778   */\n      dup9\n        /* \"#utility.yul\":9762:9768   */\n      dup3\n        /* \"#utility.yul\":9751:9760   */\n      dup10\n        /* \"#utility.yul\":9747:9769   */\n      add\n        /* \"#utility.yul\":9716:9779   */\n      tag_215\n      jump\t// in\n    tag_341:\n        /* \"#utility.yul\":9706:9779   */\n      swap6\n      pop\n        /* \"#utility.yul\":9662:9789   */\n      pop\n        /* \"#utility.yul\":9828:9830   */\n      0x20\n        /* \"#utility.yul\":9854:9917   */\n      tag_342\n        /* \"#utility.yul\":9909:9916   */\n      dup9\n        /* \"#utility.yul\":9900:9906   */\n      dup3\n        /* \"#utility.yul\":9889:9898   */\n      dup10\n        /* \"#utility.yul\":9885:9907   */\n      add\n        /* \"#utility.yul\":9854:9917   */\n      tag_217\n      jump\t// in\n    tag_342:\n        /* \"#utility.yul\":9844:9917   */\n      swap5\n      pop\n        /* \"#utility.yul\":9799:9927   */\n      pop\n        /* \"#utility.yul\":9966:9968   */\n      0x40\n        /* \"#utility.yul\":9992:10056   */\n      tag_343\n        /* \"#utility.yul\":10048:10055   */\n      dup9\n        /* \"#utility.yul\":10039:10045   */\n      dup3\n        /* \"#utility.yul\":10028:10037   */\n      dup10\n        /* \"#utility.yul\":10024:10046   */\n      add\n        /* \"#utility.yul\":9992:10056   */\n      tag_218\n      jump\t// in\n    tag_343:\n        /* \"#utility.yul\":9982:10056   */\n      swap4\n      pop\n        /* \"#utility.yul\":9937:10066   */\n      pop\n        /* \"#utility.yul\":10105:10107   */\n      0x60\n        /* \"#utility.yul\":10131:10195   */\n      tag_344\n        /* \"#utility.yul\":10187:10194   */\n      dup9\n        /* \"#utility.yul\":10178:10184   */\n      dup3\n        /* \"#utility.yul\":10167:10176   */\n      dup10\n        /* \"#utility.yul\":10163:10185   */\n      add\n        /* \"#utility.yul\":10131:10195   */\n      tag_218\n      jump\t// in\n    tag_344:\n        /* \"#utility.yul\":10121:10195   */\n      swap3\n      pop\n        /* \"#utility.yul\":10076:10205   */\n      pop\n        /* \"#utility.yul\":10244:10247   */\n      0x80\n        /* \"#utility.yul\":10271:10334   */\n      tag_345\n        /* \"#utility.yul\":10326:10333   */\n      dup9\n        /* \"#utility.yul\":10317:10323   */\n      dup3\n        /* \"#utility.yul\":10306:10315   */\n      dup10\n        /* \"#utility.yul\":10302:10324   */\n      add\n        /* \"#utility.yul\":10271:10334   */\n      tag_215\n      jump\t// in\n    tag_345:\n        /* \"#utility.yul\":10261:10334   */\n      swap2\n      pop\n        /* \"#utility.yul\":10215:10344   */\n      pop\n        /* \"#utility.yul\":9380:10351   */\n      swap3\n      swap6\n      pop\n      swap3\n      swap6\n      swap1\n      swap4\n      pop\n      jump\t// out\n        /* \"#utility.yul\":10357:10522   */\n    tag_219:\n        /* \"#utility.yul\":10497:10514   */\n      0x4e616f20636f6e666967757261646f0000000000000000000000000000000000\n        /* \"#utility.yul\":10493:10494   */\n      0x00\n        /* \"#utility.yul\":10485:10491   */\n      dup3\n        /* \"#utility.yul\":10481:10495   */\n      add\n        /* \"#utility.yul\":10474:10515   */\n      mstore\n        /* \"#utility.yul\":10357:10522   */\n      pop\n      jump\t// out\n        /* \"#utility.yul\":10528:10894   */\n    tag_220:\n        /* \"#utility.yul\":10670:10673   */\n      0x00\n        /* \"#utility.yul\":10691:10758   */\n      tag_348\n        /* \"#utility.yul\":10755:10757   */\n      0x0f\n        /* \"#utility.yul\":10750:10753   */\n      dup4\n        /* \"#utility.yul\":10691:10758   */\n      tag_204\n      jump\t// in\n    tag_348:\n        /* \"#utility.yul\":10684:10758   */\n      swap2\n      pop\n        /* \"#utility.yul\":10767:10860   */\n      tag_349\n        /* \"#utility.yul\":10856:10859   */\n      dup3\n        /* \"#utility.yul\":10767:10860   */\n      tag_219\n      jump\t// in\n    tag_349:\n        /* \"#utility.yul\":10885:10887   */\n      0x20\n        /* \"#utility.yul\":10880:10883   */\n      dup3\n        /* \"#utility.yul\":10876:10888   */\n      add\n        /* \"#utility.yul\":10869:10888   */\n      swap1\n      pop\n        /* \"#utility.yul\":10528:10894   */\n      swap2\n      swap1\n      pop\n      jump\t// out\n        /* \"#utility.yul\":10900:11319   */\n    tag_112:\n        /* \"#utility.yul\":11066:11070   */\n      0x00\n        /* \"#utility.yul\":11104:11106   */\n      0x20\n        /* \"#utility.yul\":11093:11102   */\n      dup3\n        /* \"#utility.yul\":11089:11107   */\n      add\n        /* \"#utility.yul\":11081:11107   */\n      swap1\n      pop\n        /* \"#utility.yul\":11153:11162   */\n      dup2\n        /* \"#utility.yul\":11147:11151   */\n      dup2\n        /* \"#utility.yul\":11143:11163   */\n      sub\n        /* \"#utility.yul\":11139:11140   */\n      0x00\n        /* \"#utility.yul\":11128:11137   */\n      dup4\n        /* \"#utility.yul\":11124:11141   */\n      add\n        /* \"#utility.yul\":11117:11164   */\n      mstore\n        /* \"#utility.yul\":11181:11312   */\n      tag_351\n        /* \"#utility.yul\":11307:11311   */\n      dup2\n        /* \"#utility.yul\":11181:11312   */\n      tag_220\n      jump\t// in\n    tag_351:\n        /* \"#utility.yul\":11173:11312   */\n      swap1\n      pop\n        /* \"#utility.yul\":10900:11319   */\n      swap2\n      swap1\n      pop\n      jump\t// out\n        /* \"#utility.yul\":11325:11489   */\n    tag_221:\n        /* \"#utility.yul\":11465:11481   */\n      0x56616c6f7220696e76616c69646f000000000000000000000000000000000000\n        /* \"#utility.yul\":11461:11462   */\n      0x00\n        /* \"#utility.yul\":11453:11459   */\n      dup3\n        /* \"#utility.yul\":11449:11463   */\n      add\n        /* \"#utility.yul\":11442:11482   */\n      mstore\n        /* \"#utility.yul\":11325:11489   */\n      pop\n      jump\t// out\n        /* \"#utility.yul\":11495:11861   */\n    tag_222:\n        /* \"#utility.yul\":11637:11640   */\n      0x00\n        /* \"#utility.yul\":11658:11725   */\n      tag_354\n        /* \"#utility.yul\":11722:11724   */\n      0x0e\n        /* \"#utility.yul\":11717:11720   */\n      dup4\n        /* \"#utility.yul\":11658:11725   */\n      tag_204\n      jump\t// in\n    tag_354:\n        /* \"#utility.yul\":11651:11725   */\n      swap2\n      pop\n        /* \"#utility.yul\":11734:11827   */\n      tag_355\n        /* \"#utility.yul\":11823:11826   */\n      dup3\n        /* \"#utility.yul\":11734:11827   */\n      tag_221\n      jump\t// in\n    tag_355:\n        /* \"#utility.yul\":11852:11854   */\n      0x20\n        /* \"#utility.yul\":11847:11850   */\n      dup3\n        /* \"#utility.yul\":11843:11855   */\n      add\n        /* \"#utility.yul\":11836:11855   */\n      swap1\n      pop\n        /* \"#utility.yul\":11495:11861   */\n      swap2\n      swap1\n      pop\n      jump\t// out\n        /* \"#utility.yul\":11867:12286   */\n    tag_115:\n        /* \"#utility.yul\":12033:12037   */\n      0x00\n        /* \"#utility.yul\":12071:12073   */\n      0x20\n        /* \"#utility.yul\":12060:12069   */\n      dup3\n        /* \"#utility.yul\":12056:12074   */\n      add\n        /* \"#utility.yul\":12048:12074   */\n      swap1\n      pop\n        /* \"#utility.yul\":12120:12129   */\n      dup2\n        /* \"#utility.yul\":12114:12118   */\n      dup2\n        /* \"#utility.yul\":12110:12130   */\n      sub\n        /* \"#utility.yul\":12106:12107   */\n      0x00\n        /* \"#utility.yul\":12095:12104   */\n      dup4\n        /* \"#utility.yul\":12091:12108   */\n      add\n        /* \"#utility.yul\":12084:12131   */\n      mstore\n        /* \"#utility.yul\":12148:12279   */\n      tag_357\n        /* \"#utility.yul\":12274:12278   */\n      dup2\n        /* \"#utility.yul\":12148:12279   */\n      tag_222\n      jump\t// in\n    tag_357:\n        /* \"#utility.yul\":12140:12279   */\n      swap1\n      pop\n        /* \"#utility.yul\":11867:12286   */\n      swap2\n      swap1\n      pop\n      jump\t// out\n        /* \"#utility.yul\":12292:12734   */\n    tag_117:\n        /* \"#utility.yul\":12441:12445   */\n      0x00\n        /* \"#utility.yul\":12479:12481   */\n      0x60\n        /* \"#utility.yul\":12468:12477   */\n      dup3\n        /* \"#utility.yul\":12464:12482   */\n      add\n        /* \"#utility.yul\":12456:12482   */\n      swap1\n      pop\n        /* \"#utility.yul\":12492:12563   */\n      tag_359\n        /* \"#utility.yul\":12560:12561   */\n      0x00\n        /* \"#utility.yul\":12549:12558   */\n      dup4\n        /* \"#utility.yul\":12545:12562   */\n      add\n        /* \"#utility.yul\":12536:12542   */\n      dup7\n        /* \"#utility.yul\":12492:12563   */\n      tag_199\n      jump\t// in\n    tag_359:\n        /* \"#utility.yul\":12573:12645   */\n      tag_360\n        /* \"#utility.yul\":12641:12643   */\n      0x20\n        /* \"#utility.yul\":12630:12639   */\n      dup4\n        /* \"#utility.yul\":12626:12644   */\n      add\n        /* \"#utility.yul\":12617:12623   */\n      dup6\n        /* \"#utility.yul\":12573:12645   */\n      tag_199\n      jump\t// in\n    tag_360:\n        /* \"#utility.yul\":12655:12727   */\n      tag_361\n        /* \"#utility.yul\":12723:12725   */\n      0x40\n        /* \"#utility.yul\":12712:12721   */\n      dup4\n        /* \"#utility.yul\":12708:12726   */\n      add\n        /* \"#utility.yul\":12699:12705   */\n      dup5\n        /* \"#utility.yul\":12655:12727   */\n      tag_191\n      jump\t// in\n    tag_361:\n        /* \"#utility.yul\":12292:12734   */\n      swap5\n      swap4\n      pop\n      pop\n      pop\n      pop\n      jump\t// out\n        /* \"#utility.yul\":12740:12904   */\n    tag_223:\n        /* \"#utility.yul\":12880:12896   */\n      0x4a6120636f6e666967757261646f000000000000000000000000000000000000\n        /* \"#utility.yul\":12876:12877   */\n      0x00\n        /* \"#utility.yul\":12868:12874   */\n      dup3\n        /* \"#utility.yul\":12864:12878   */\n      add\n        /* \"#utility.yul\":12857:12897   */\n      mstore\n        /* \"#utility.yul\":12740:12904   */\n      pop\n      jump\t// out\n        /* \"#utility.yul\":12910:13276   */\n    tag_224:\n        /* \"#utility.yul\":13052:13055   */\n      0x00\n        /* \"#utility.yul\":13073:13140   */\n      tag_364\n        /* \"#utility.yul\":13137:13139   */\n      0x0e\n        /* \"#utility.yul\":13132:13135   */\n      dup4\n        /* \"#utility.yul\":13073:13140   */\n      tag_204\n      jump\t// in\n    tag_364:\n        /* \"#utility.yul\":13066:13140   */\n      swap2\n      pop\n        /* \"#utility.yul\":13149:13242   */\n      tag_365\n        /* \"#utility.yul\":13238:13241   */\n      dup3\n        /* \"#utility.yul\":13149:13242   */\n      tag_223\n      jump\t// in\n    tag_365:\n        /* \"#utility.yul\":13267:13269   */\n      0x20\n        /* \"#utility.yul\":13262:13265   */\n      dup3\n        /* \"#utility.yul\":13258:13270   */\n      add\n        /* \"#utility.yul\":13251:13270   */\n      swap1\n      pop\n        /* \"#utility.yul\":12910:13276   */\n      swap2\n      swap1\n      pop\n      jump\t// out\n        /* \"#utility.yul\":13282:13701   */\n    tag_130:\n        /* \"#utility.yul\":13448:13452   */\n      0x00\n        /* \"#utility.yul\":13486:13488   */\n      0x20\n        /* \"#utility.yul\":13475:13484   */\n      dup3\n        /* \"#utility.yul\":13471:13489   */\n      add\n        /* \"#utility.yul\":13463:13489   */\n      swap1\n      pop\n        /* \"#utility.yul\":13535:13544   */\n      dup2\n        /* \"#utility.yul\":13529:13533   */\n      dup2\n        /* \"#utility.yul\":13525:13545   */\n      sub\n        /* \"#utility.yul\":13521:13522   */\n      0x00\n        /* \"#utility.yul\":13510:13519   */\n      dup4\n        /* \"#utility.yul\":13506:13523   */\n      add\n        /* \"#utility.yul\":13499:13546   */\n      mstore\n        /* \"#utility.yul\":13563:13694   */\n      tag_367\n        /* \"#utility.yul\":13689:13693   */\n      dup2\n        /* \"#utility.yul\":13563:13694   */\n      tag_224\n      jump\t// in\n    tag_367:\n        /* \"#utility.yul\":13555:13694   */\n      swap1\n      pop\n        /* \"#utility.yul\":13282:13701   */\n      swap2\n      swap1\n      pop\n      jump\t// out\n        /* \"#utility.yul\":13707:13871   */\n    tag_225:\n        /* \"#utility.yul\":13847:13863   */\n      0x546f6b656e20696e76616c69646f000000000000000000000000000000000000\n        /* \"#utility.yul\":13843:13844   */\n      0x00\n        /* \"#utility.yul\":13835:13841   */\n      dup3\n        /* \"#utility.yul\":13831:13845   */\n      add\n        /* \"#utility.yul\":13824:13864   */\n      mstore\n        /* \"#utility.yul\":13707:13871   */\n      pop\n      jump\t// out\n        /* \"#utility.yul\":13877:14243   */\n    tag_226:\n        /* \"#utility.yul\":14019:14022   */\n      0x00\n        /* \"#utility.yul\":14040:14107   */\n      tag_370\n        /* \"#utility.yul\":14104:14106   */\n      0x0e\n        /* \"#utility.yul\":14099:14102   */\n      dup4\n        /* \"#utility.yul\":14040:14107   */\n      tag_204\n      jump\t// in\n    tag_370:\n        /* \"#utility.yul\":14033:14107   */\n      swap2\n      pop\n        /* \"#utility.yul\":14116:14209   */\n      tag_371\n        /* \"#utility.yul\":14205:14208   */\n      dup3\n        /* \"#utility.yul\":14116:14209   */\n      tag_225\n      jump\t// in\n    tag_371:\n        /* \"#utility.yul\":14234:14236   */\n      0x20\n        /* \"#utility.yul\":14229:14232   */\n      dup3\n        /* \"#utility.yul\":14225:14237   */\n      add\n        /* \"#utility.yul\":14218:14237   */\n      swap1\n      pop\n        /* \"#utility.yul\":13877:14243   */\n      swap2\n      swap1\n      pop\n      jump\t// out\n        /* \"#utility.yul\":14249:14668   */\n    tag_133:\n        /* \"#utility.yul\":14415:14419   */\n      0x00\n        /* \"#utility.yul\":14453:14455   */\n      0x20\n        /* \"#utility.yul\":14442:14451   */\n      dup3\n        /* \"#utility.yul\":14438:14456   */\n      add\n        /* \"#utility.yul\":14430:14456   */\n      swap1\n      pop\n        /* \"#utility.yul\":14502:14511   */\n      dup2\n        /* \"#utility.yul\":14496:14500   */\n      dup2\n        /* \"#utility.yul\":14492:14512   */\n      sub\n        /* \"#utility.yul\":14488:14489   */\n      0x00\n        /* \"#utility.yul\":14477:14486   */\n      dup4\n        /* \"#utility.yul\":14473:14490   */\n      add\n        /* \"#utility.yul\":14466:14513   */\n      mstore\n        /* \"#utility.yul\":14530:14661   */\n      tag_373\n        /* \"#utility.yul\":14656:14660   */\n      dup2\n        /* \"#utility.yul\":14530:14661   */\n      tag_226\n      jump\t// in\n    tag_373:\n        /* \"#utility.yul\":14522:14661   */\n      swap1\n      pop\n        /* \"#utility.yul\":14249:14668   */\n      swap2\n      swap1\n      pop\n      jump\t// out\n        /* \"#utility.yul\":14674:14842   */\n    tag_227:\n        /* \"#utility.yul\":14814:14834   */\n      0x50726963654665656420696e76616c69646f0000000000000000000000000000\n        /* \"#utility.yul\":14810:14811   */\n      0x00\n        /* \"#utility.yul\":14802:14808   */\n      dup3\n        /* \"#utility.yul\":14798:14812   */\n      add\n        /* \"#utility.yul\":14791:14835   */\n      mstore\n        /* \"#utility.yul\":14674:14842   */\n      pop\n      jump\t// out\n        /* \"#utility.yul\":14848:15214   */\n    tag_228:\n        /* \"#utility.yul\":14990:14993   */\n      0x00\n        /* \"#utility.yul\":15011:15078   */\n      tag_376\n        /* \"#utility.yul\":15075:15077   */\n      0x12\n        /* \"#utility.yul\":15070:15073   */\n      dup4\n        /* \"#utility.yul\":15011:15078   */\n      tag_204\n      jump\t// in\n    tag_376:\n        /* \"#utility.yul\":15004:15078   */\n      swap2\n      pop\n        /* \"#utility.yul\":15087:15180   */\n      tag_377\n        /* \"#utility.yul\":15176:15179   */\n      dup3\n        /* \"#utility.yul\":15087:15180   */\n      tag_227\n      jump\t// in\n    tag_377:\n        /* \"#utility.yul\":15205:15207   */\n      0x20\n        /* \"#utility.yul\":15200:15203   */\n      dup3\n        /* \"#utility.yul\":15196:15208   */\n      add\n        /* \"#utility.yul\":15189:15208   */\n      swap1\n      pop\n        /* \"#utility.yul\":14848:15214   */\n      swap2\n      swap1\n      pop\n      jump\t// out\n        /* \"#utility.yul\":15220:15639   */\n    tag_136:\n        /* \"#utility.yul\":15386:15390   */\n      0x00\n        /* \"#utility.yul\":15424:15426   */\n      0x20\n        /* \"#utility.yul\":15413:15422   */\n      dup3\n        /* \"#utility.yul\":15409:15427   */\n      add\n        /* \"#utility.yul\":15401:15427   */\n      swap1\n      pop\n        /* \"#utility.yul\":15473:15482   */\n      dup2\n        /* \"#utility.yul\":15467:15471   */\n      dup2\n        /* \"#utility.yul\":15463:15483   */\n      sub\n        /* \"#utility.yul\":15459:15460   */\n      0x00\n        /* \"#utility.yul\":15448:15457   */\n      dup4\n        /* \"#utility.yul\":15444:15461   */\n      add\n        /* \"#utility.yul\":15437:15484   */\n      mstore\n        /* \"#utility.yul\":15501:15632   */\n      tag_379\n        /* \"#utility.yul\":15627:15631   */\n      dup2\n        /* \"#utility.yul\":15501:15632   */\n      tag_228\n      jump\t// in\n    tag_379:\n        /* \"#utility.yul\":15493:15632   */\n      swap1\n      pop\n        /* \"#utility.yul\":15220:15639   */\n      swap2\n      swap1\n      pop\n      jump\t// out\n        /* \"#utility.yul\":15645:15839   */\n    tag_139:\n        /* \"#utility.yul\":15685:15689   */\n      0x00\n        /* \"#utility.yul\":15705:15725   */\n      tag_381\n        /* \"#utility.yul\":15723:15724   */\n      dup3\n        /* \"#utility.yul\":15705:15725   */\n      tag_190\n      jump\t// in\n    tag_381:\n        /* \"#utility.yul\":15700:15725   */\n      swap2\n      pop\n        /* \"#utility.yul\":15739:15759   */\n      tag_382\n        /* \"#utility.yul\":15757:15758   */\n      dup4\n        /* \"#utility.yul\":15739:15759   */\n      tag_190\n      jump\t// in\n    tag_382:\n        /* \"#utility.yul\":15734:15759   */\n      swap3\n      pop\n        /* \"#utility.yul\":15783:15784   */\n      dup3\n        /* \"#utility.yul\":15780:15781   */\n      dup3\n        /* \"#utility.yul\":15776:15785   */\n      sub\n        /* \"#utility.yul\":15768:15785   */\n      swap1\n      pop\n        /* \"#utility.yul\":15807:15808   */\n      dup2\n        /* \"#utility.yul\":15801:15805   */\n      dup2\n        /* \"#utility.yul\":15798:15809   */\n      gt\n        /* \"#utility.yul\":15795:15832   */\n      iszero\n      tag_383\n      jumpi\n        /* \"#utility.yul\":15812:15830   */\n      tag_384\n      tag_207\n      jump\t// in\n    tag_384:\n        /* \"#utility.yul\":15795:15832   */\n    tag_383:\n        /* \"#utility.yul\":15645:15839   */\n      swap3\n      swap2\n      pop\n      pop\n      jump\t// out\n        /* \"#utility.yul\":15845:16025   */\n    tag_229:\n        /* \"#utility.yul\":15893:15970   */\n      0x4e487b7100000000000000000000000000000000000000000000000000000000\n        /* \"#utility.yul\":15890:15891   */\n      0x00\n        /* \"#utility.yul\":15883:15971   */\n      mstore\n        /* \"#utility.yul\":15990:15994   */\n      0x12\n        /* \"#utility.yul\":15987:15988   */\n      0x04\n        /* \"#utility.yul\":15980:15995   */\n      mstore\n        /* \"#utility.yul\":16014:16018   */\n      0x24\n        /* \"#utility.yul\":16011:16012   */\n      0x00\n        /* \"#utility.yul\":16004:16019   */\n      revert\n        /* \"#utility.yul\":16031:16216   */\n    tag_142:\n        /* \"#utility.yul\":16071:16072   */\n      0x00\n        /* \"#utility.yul\":16088:16108   */\n      tag_387\n        /* \"#utility.yul\":16106:16107   */\n      dup3\n        /* \"#utility.yul\":16088:16108   */\n      tag_190\n      jump\t// in\n    tag_387:\n        /* \"#utility.yul\":16083:16108   */\n      swap2\n      pop\n        /* \"#utility.yul\":16122:16142   */\n      tag_388\n        /* \"#utility.yul\":16140:16141   */\n      dup4\n        /* \"#utility.yul\":16122:16142   */\n      tag_190\n      jump\t// in\n    tag_388:\n        /* \"#utility.yul\":16117:16142   */\n      swap3\n      pop\n        /* \"#utility.yul\":16161:16162   */\n      dup3\n        /* \"#utility.yul\":16151:16186   */\n      tag_389\n      jumpi\n        /* \"#utility.yul\":16166:16184   */\n      tag_390\n      tag_229\n      jump\t// in\n    tag_390:\n        /* \"#utility.yul\":16151:16186   */\n    tag_389:\n        /* \"#utility.yul\":16208:16209   */\n      dup3\n        /* \"#utility.yul\":16205:16206   */\n      dup3\n        /* \"#utility.yul\":16201:16210   */\n      div\n        /* \"#utility.yul\":16196:16210   */\n      swap1\n      pop\n        /* \"#utility.yul\":16031:16216   */\n      swap3\n      swap2\n      pop\n      pop\n      jump\t// out\n        /* \"#utility.yul\":16222:16632   */\n    tag_145:\n        /* \"#utility.yul\":16262:16269   */\n      0x00\n        /* \"#utility.yul\":16285:16305   */\n      tag_392\n        /* \"#utility.yul\":16303:16304   */\n      dup3\n        /* \"#utility.yul\":16285:16305   */\n      tag_190\n      jump\t// in\n    tag_392:\n        /* \"#utility.yul\":16280:16305   */\n      swap2\n      pop\n        /* \"#utility.yul\":16319:16339   */\n      tag_393\n        /* \"#utility.yul\":16337:16338   */\n      dup4\n        /* \"#utility.yul\":16319:16339   */\n      tag_190\n      jump\t// in\n    tag_393:\n        /* \"#utility.yul\":16314:16339   */\n      swap3\n      pop\n        /* \"#utility.yul\":16374:16375   */\n      dup3\n        /* \"#utility.yul\":16371:16372   */\n      dup3\n        /* \"#utility.yul\":16367:16376   */\n      mul\n        /* \"#utility.yul\":16396:16426   */\n      tag_394\n        /* \"#utility.yul\":16414:16425   */\n      dup2\n        /* \"#utility.yul\":16396:16426   */\n      tag_190\n      jump\t// in\n    tag_394:\n        /* \"#utility.yul\":16385:16426   */\n      swap2\n      pop\n        /* \"#utility.yul\":16575:16576   */\n      dup3\n        /* \"#utility.yul\":16566:16573   */\n      dup3\n        /* \"#utility.yul\":16562:16577   */\n      div\n        /* \"#utility.yul\":16559:16560   */\n      dup5\n        /* \"#utility.yul\":16556:16578   */\n      eq\n        /* \"#utility.yul\":16536:16537   */\n      dup4\n        /* \"#utility.yul\":16529:16538   */\n      iszero\n        /* \"#utility.yul\":16509:16592   */\n      or\n        /* \"#utility.yul\":16486:16625   */\n      tag_395\n      jumpi\n        /* \"#utility.yul\":16605:16623   */\n      tag_396\n      tag_207\n      jump\t// in\n    tag_396:\n        /* \"#utility.yul\":16486:16625   */\n    tag_395:\n        /* \"#utility.yul\":16270:16632   */\n      pop\n        /* \"#utility.yul\":16222:16632   */\n      swap3\n      swap2\n      pop\n      pop\n      jump\t// out\n\n    auxdata: 0xa26469706673582212205e6c850bba8ddce7b2fbe658f4b47851a81ce039439d86b15e5710acbb4d67bb64736f6c63430008220033\n}\n",
				"bytecode": {
					"linkReferences": {},
					"object": "60806040526001600555348015610014575f5ffd5b50335f73ffffffffffffffffffffffffffffffffffffffff168173ffffffffffffffffffffffffffffffffffffffff1603610086575f6040517f1e4fbdf700000000000000000000000000000000000000000000000000000000815260040161007d91906101f1565b60405180910390fd5b610095816100bf60201b60201c565b5060016100b46100a961018060201b60201c565b6101a960201b60201c565b5f018190555061020a565b5f5f5f9054906101000a900473ffffffffffffffffffffffffffffffffffffffff169050815f5f6101000a81548173ffffffffffffffffffffffffffffffffffffffff021916908373ffffffffffffffffffffffffffffffffffffffff1602179055508173ffffffffffffffffffffffffffffffffffffffff168173ffffffffffffffffffffffffffffffffffffffff167f8be0079c531659141344cd1fd0a4f28419497f9722a3daafe3b4186f6b6457e060405160405180910390a35050565b5f7f9b779b17422d0df92223018b32b4d1fa46e071723d6817e2486d003becc55f005f1b905090565b5f819050919050565b5f73ffffffffffffffffffffffffffffffffffffffff82169050919050565b5f6101db826101b2565b9050919050565b6101eb816101d1565b82525050565b5f6020820190506102045f8301846101e2565b92915050565b611638806102175f395ff3fe608060405234801561000f575f5ffd5b50600436106100e8575f3560e01c80638da5cb5b1161008a578063a694fc3a11610064578063a694fc3a14610212578063b602024b1461022e578063d82e39621461024a578063f2fde38b1461027a576100e8565b80638da5cb5b146101ba5780638e15f473146101d85780639e447fc6146101f6576100e8565b8063715018a6116100c6578063715018a61461015657806372f702f314610160578063741bef1a1461017e5780637b0a47ee1461019c576100e8565b80632def6620146100ec578063583d42fd146100f65780636021726714610126575b5f5ffd5b6100f4610296565b005b610110600480360381019061010b9190610e44565b6104a3565b60405161011d9190610e87565b60405180910390f35b610140600480360381019061013b9190610e44565b6104b8565b60405161014d9190610e87565b60405180910390f35b61015e6104cd565b005b6101686104e0565b6040516101759190610efb565b60405180910390f35b610186610505565b6040516101939190610f34565b60405180910390f35b6101a461052a565b6040516101b19190610e87565b60405180910390f35b6101c2610530565b6040516101cf9190610f5c565b60405180910390f35b6101e0610557565b6040516101ed9190610f8d565b60405180910390f35b610210600480360381019061020b9190610fd0565b6105f4565b005b61022c60048036038101906102279190610fd0565b610606565b005b61024860048036038101906102439190610ffb565b61085c565b005b610264600480360381019061025f9190610e44565b610a53565b6040516102719190610e87565b60405180910390f35b610294600480360381019061028f9190610e44565b610b48565b005b61029e610bcc565b5f60035f3373ffffffffffffffffffffffffffffffffffffffff1673ffffffffffffffffffffffffffffffffffffffff1681526020019081526020015f205490505f8111610321576040517f08c379a000000000000000000000000000000000000000000000000000000000815260040161031890611093565b60405180910390fd5b5f61032b33610a53565b90505f60035f3373ffffffffffffffffffffffffffffffffffffffff1673ffffffffffffffffffffffffffffffffffffffff1681526020019081526020015f20819055505f60045f3373ffffffffffffffffffffffffffffffffffffffff1673ffffffffffffffffffffffffffffffffffffffff1681526020019081526020015f208190555060015f9054906101000a900473ffffffffffffffffffffffffffffffffffffffff1673ffffffffffffffffffffffffffffffffffffffff1663a9059cbb3383856103fb91906110de565b6040518363ffffffff1660e01b8152600401610418929190611111565b6020604051808303815f875af1158015610434573d5f5f3e3d5ffd5b505050506040513d601f19601f82011682018060405250810190610458919061116d565b610497576040517f08c379a000000000000000000000000000000000000000000000000000000000815260040161048e906111e2565b60405180910390fd5b50506104a1610bee565b565b6004602052805f5260405f205f915090505481565b6003602052805f5260405f205f915090505481565b6104d5610c08565b6104de5f610c8f565b565b60015f9054906101000a900473ffffffffffffffffffffffffffffffffffffffff1681565b60025f9054906101000a900473ffffffffffffffffffffffffffffffffffffffff1681565b60055481565b5f5f5f9054906101000a900473ffffffffffffffffffffffffffffffffffffffff16905090565b5f5f60025f9054906101000a900473ffffffffffffffffffffffffffffffffffffffff1673ffffffffffffffffffffffffffffffffffffffff1663feaf968c6040518163ffffffff1660e01b815260040160a060405180830381865afa1580156105c3573d5f5f3e3d5ffd5b505050506040513d601f19601f820116820180604052508101906105e7919061127d565b5050509150508091505090565b6105fc610c08565b8060058190555050565b61060e610bcc565b5f73ffffffffffffffffffffffffffffffffffffffff1660015f9054906101000a900473ffffffffffffffffffffffffffffffffffffffff1673ffffffffffffffffffffffffffffffffffffffff160361069d576040517f08c379a00000000000000000000000000000000000000000000000000000000081526004016106949061133e565b60405180910390fd5b5f81116106df576040517f08c379a00000000000000000000000000000000000000000000000000000000081526004016106d6906113a6565b60405180910390fd5b60015f9054906101000a900473ffffffffffffffffffffffffffffffffffffffff1673ffffffffffffffffffffffffffffffffffffffff166323b872dd3330846040518463ffffffff1660e01b815260040161073d939291906113c4565b6020604051808303815f875af1158015610759573d5f5f3e3d5ffd5b505050506040513d601f19601f8201168201806040525081019061077d919061116d565b6107bc576040517f08c379a00000000000000000000000000000000000000000000000000000000081526004016107b3906111e2565b60405180910390fd5b8060035f3373ffffffffffffffffffffffffffffffffffffffff1673ffffffffffffffffffffffffffffffffffffffff1681526020019081526020015f205f82825461080891906110de565b925050819055504260045f3373ffffffffffffffffffffffffffffffffffffffff1673ffffffffffffffffffffffffffffffffffffffff1681526020019081526020015f2081905550610859610bee565b50565b610864610c08565b5f73ffffffffffffffffffffffffffffffffffffffff1660015f9054906101000a900473ffffffffffffffffffffffffffffffffffffffff1673ffffffffffffffffffffffffffffffffffffffff16146108f3576040517f08c379a00000000000000000000000000000000000000000000000000000000081526004016108ea90611443565b60405180910390fd5b5f73ffffffffffffffffffffffffffffffffffffffff168273ffffffffffffffffffffffffffffffffffffffff1603610961576040517f08c379a0000000000000000000000000000000000000000000000000000000008152600401610958906114ab565b60405180910390fd5b5f73ffffffffffffffffffffffffffffffffffffffff168173ffffffffffffffffffffffffffffffffffffffff16036109cf576040517f08c379a00000000000000000000000000000000000000000000000000000000081526004016109c690611513565b60405180910390fd5b8160015f6101000a81548173ffffffffffffffffffffffffffffffffffffffff021916908373ffffffffffffffffffffffffffffffffffffffff1602179055508060025f6101000a81548173ffffffffffffffffffffffffffffffffffffffff021916908373ffffffffffffffffffffffffffffffffffffffff1602179055505050565b5f5f60045f8473ffffffffffffffffffffffffffffffffffffffff1673ffffffffffffffffffffffffffffffffffffffff1681526020019081526020015f205442610a9e9190611531565b90505f610aa9610557565b90505f6305f5e10082610abc9190611591565b90505f8103610aca57600190505b670de0b6b3a7640000816005548560035f8a73ffffffffffffffffffffffffffffffffffffffff1673ffffffffffffffffffffffffffffffffffffffff1681526020019081526020015f2054610b2091906115c1565b610b2a91906115c1565b610b3491906115c1565b610b3e9190611591565b9350505050919050565b610b50610c08565b5f73ffffffffffffffffffffffffffffffffffffffff168173ffffffffffffffffffffffffffffffffffffffff1603610bc0575f6040517f1e4fbdf7000000000000000000000000000000000000000000000000000000008152600401610bb79190610f5c565b60405180910390fd5b610bc981610c8f565b50565b610bd4610d50565b6002610be6610be1610d91565b610dba565b5f0181905550565b6001610c00610bfb610d91565b610dba565b5f0181905550565b610c10610dc3565b73ffffffffffffffffffffffffffffffffffffffff16610c2e610530565b73ffffffffffffffffffffffffffffffffffffffff1614610c8d57610c51610dc3565b6040517f118cdaa7000000000000000000000000000000000000000000000000000000008152600401610c849190610f5c565b60405180910390fd5b565b5f5f5f9054906101000a900473ffffffffffffffffffffffffffffffffffffffff169050815f5f6101000a81548173ffffffffffffffffffffffffffffffffffffffff021916908373ffffffffffffffffffffffffffffffffffffffff1602179055508173ffffffffffffffffffffffffffffffffffffffff168173ffffffffffffffffffffffffffffffffffffffff167f8be0079c531659141344cd1fd0a4f28419497f9722a3daafe3b4186f6b6457e060405160405180910390a35050565b610d58610dca565b15610d8f576040517f3ee5aeb500000000000000000000000000000000000000000000000000000000815260040160405180910390fd5b565b5f7f9b779b17422d0df92223018b32b4d1fa46e071723d6817e2486d003becc55f005f1b905090565b5f819050919050565b5f33905090565b5f6002610ddd610dd8610d91565b610dba565b5f015414905090565b5f5ffd5b5f73ffffffffffffffffffffffffffffffffffffffff82169050919050565b5f610e1382610dea565b9050919050565b610e2381610e09565b8114610e2d575f5ffd5b50565b5f81359050610e3e81610e1a565b92915050565b5f60208284031215610e5957610e58610de6565b5b5f610e6684828501610e30565b91505092915050565b5f819050919050565b610e8181610e6f565b82525050565b5f602082019050610e9a5f830184610e78565b92915050565b5f819050919050565b5f610ec3610ebe610eb984610dea565b610ea0565b610dea565b9050919050565b5f610ed482610ea9565b9050919050565b5f610ee582610eca565b9050919050565b610ef581610edb565b82525050565b5f602082019050610f0e5f830184610eec565b92915050565b5f610f1e82610eca565b9050919050565b610f2e81610f14565b82525050565b5f602082019050610f475f830184610f25565b92915050565b610f5681610e09565b82525050565b5f602082019050610f6f5f830184610f4d565b92915050565b5f819050919050565b610f8781610f75565b82525050565b5f602082019050610fa05f830184610f7e565b92915050565b610faf81610e6f565b8114610fb9575f5ffd5b50565b5f81359050610fca81610fa6565b92915050565b5f60208284031215610fe557610fe4610de6565b5b5f610ff284828501610fbc565b91505092915050565b5f5f6040838503121561101157611010610de6565b5b5f61101e85828601610e30565b925050602061102f85828601610e30565b9150509250929050565b5f82825260208201905092915050565b7f4e616461207061726120726574697261720000000000000000000000000000005f82015250565b5f61107d601183611039565b915061108882611049565b602082019050919050565b5f6020820190508181035f8301526110aa81611071565b9050919050565b7f4e487b71000000000000000000000000000000000000000000000000000000005f52601160045260245ffd5b5f6110e882610e6f565b91506110f383610e6f565b925082820190508082111561110b5761110a6110b1565b5b92915050565b5f6040820190506111245f830185610f4d565b6111316020830184610e78565b9392505050565b5f8115159050919050565b61114c81611138565b8114611156575f5ffd5b50565b5f8151905061116781611143565b92915050565b5f6020828403121561118257611181610de6565b5b5f61118f84828501611159565b91505092915050565b7f5472616e73666572206661696c656400000000000000000000000000000000005f82015250565b5f6111cc600f83611039565b91506111d782611198565b602082019050919050565b5f6020820190508181035f8301526111f9816111c0565b9050919050565b5f69ffffffffffffffffffff82169050919050565b61121e81611200565b8114611228575f5ffd5b50565b5f8151905061123981611215565b92915050565b61124881610f75565b8114611252575f5ffd5b50565b5f815190506112638161123f565b92915050565b5f8151905061127781610fa6565b92915050565b5f5f5f5f5f60a0868803121561129657611295610de6565b5b5f6112a38882890161122b565b95505060206112b488828901611255565b94505060406112c588828901611269565b93505060606112d688828901611269565b92505060806112e78882890161122b565b9150509295509295909350565b7f4e616f20636f6e666967757261646f00000000000000000000000000000000005f82015250565b5f611328600f83611039565b9150611333826112f4565b602082019050919050565b5f6020820190508181035f8301526113558161131c565b9050919050565b7f56616c6f7220696e76616c69646f0000000000000000000000000000000000005f82015250565b5f611390600e83611039565b915061139b8261135c565b602082019050919050565b5f6020820190508181035f8301526113bd81611384565b9050919050565b5f6060820190506113d75f830186610f4d565b6113e46020830185610f4d565b6113f16040830184610e78565b949350505050565b7f4a6120636f6e666967757261646f0000000000000000000000000000000000005f82015250565b5f61142d600e83611039565b9150611438826113f9565b602082019050919050565b5f6020820190508181035f83015261145a81611421565b9050919050565b7f546f6b656e20696e76616c69646f0000000000000000000000000000000000005f82015250565b5f611495600e83611039565b91506114a082611461565b602082019050919050565b5f6020820190508181035f8301526114c281611489565b9050919050565b7f50726963654665656420696e76616c69646f00000000000000000000000000005f82015250565b5f6114fd601283611039565b9150611508826114c9565b602082019050919050565b5f6020820190508181035f83015261152a816114f1565b9050919050565b5f61153b82610e6f565b915061154683610e6f565b925082820390508181111561155e5761155d6110b1565b5b92915050565b7f4e487b71000000000000000000000000000000000000000000000000000000005f52601260045260245ffd5b5f61159b82610e6f565b91506115a683610e6f565b9250826115b6576115b5611564565b5b828204905092915050565b5f6115cb82610e6f565b91506115d683610e6f565b92508282026115e481610e6f565b915082820484148315176115fb576115fa6110b1565b5b509291505056fea26469706673582212205e6c850bba8ddce7b2fbe658f4b47851a81ce039439d86b15e5710acbb4d67bb64736f6c63430008220033",
					"opcodes": "PUSH1 0x80 PUSH1 0x40 MSTORE PUSH1 0x1 PUSH1 0x5 SSTORE CALLVALUE DUP1 ISZERO PUSH2 0x14 JUMPI PUSH0 PUSH0 REVERT JUMPDEST POP CALLER PUSH0 PUSH20 0xFFFFFFFFFFFFFFFFFFFFFFFFFFFFFFFFFFFFFFFF AND DUP2 PUSH20 0xFFFFFFFFFFFFFFFFFFFFFFFFFFFFFFFFFFFFFFFF AND SUB PUSH2 0x86 JUMPI PUSH0 PUSH1 0x40 MLOAD PUSH32 0x1E4FBDF700000000000000000000000000000000000000000000000000000000 DUP2 MSTORE PUSH1 0x4 ADD PUSH2 0x7D SWAP2 SWAP1 PUSH2 0x1F1 JUMP JUMPDEST PUSH1 0x40 MLOAD DUP1 SWAP2 SUB SWAP1 REVERT JUMPDEST PUSH2 0x95 DUP2 PUSH2 0xBF PUSH1 0x20 SHL PUSH1 0x20 SHR JUMP JUMPDEST POP PUSH1 0x1 PUSH2 0xB4 PUSH2 0xA9 PUSH2 0x180 PUSH1 0x20 SHL PUSH1 0x20 SHR JUMP JUMPDEST PUSH2 0x1A9 PUSH1 0x20 SHL PUSH1 0x20 SHR JUMP JUMPDEST PUSH0 ADD DUP2 SWAP1 SSTORE POP PUSH2 0x20A JUMP JUMPDEST PUSH0 PUSH0 PUSH0 SWAP1 SLOAD SWAP1 PUSH2 0x100 EXP SWAP1 DIV PUSH20 0xFFFFFFFFFFFFFFFFFFFFFFFFFFFFFFFFFFFFFFFF AND SWAP1 POP DUP2 PUSH0 PUSH0 PUSH2 0x100 EXP DUP2 SLOAD DUP2 PUSH20 0xFFFFFFFFFFFFFFFFFFFFFFFFFFFFFFFFFFFFFFFF MUL NOT AND SWAP1 DUP4 PUSH20 0xFFFFFFFFFFFFFFFFFFFFFFFFFFFFFFFFFFFFFFFF AND MUL OR SWAP1 SSTORE POP DUP2 PUSH20 0xFFFFFFFFFFFFFFFFFFFFFFFFFFFFFFFFFFFFFFFF AND DUP2 PUSH20 0xFFFFFFFFFFFFFFFFFFFFFFFFFFFFFFFFFFFFFFFF AND PUSH32 0x8BE0079C531659141344CD1FD0A4F28419497F9722A3DAAFE3B4186F6B6457E0 PUSH1 0x40 MLOAD PUSH1 0x40 MLOAD DUP1 SWAP2 SUB SWAP1 LOG3 POP POP JUMP JUMPDEST PUSH0 PUSH32 0x9B779B17422D0DF92223018B32B4D1FA46E071723D6817E2486D003BECC55F00 PUSH0 SHL SWAP1 POP SWAP1 JUMP JUMPDEST PUSH0 DUP2 SWAP1 POP SWAP2 SWAP1 POP JUMP JUMPDEST PUSH0 PUSH20 0xFFFFFFFFFFFFFFFFFFFFFFFFFFFFFFFFFFFFFFFF DUP3 AND SWAP1 POP SWAP2 SWAP1 POP JUMP JUMPDEST PUSH0 PUSH2 0x1DB DUP3 PUSH2 0x1B2 JUMP JUMPDEST SWAP1 POP SWAP2 SWAP1 POP JUMP JUMPDEST PUSH2 0x1EB DUP2 PUSH2 0x1D1 JUMP JUMPDEST DUP3 MSTORE POP POP JUMP JUMPDEST PUSH0 PUSH1 0x20 DUP3 ADD SWAP1 POP PUSH2 0x204 PUSH0 DUP4 ADD DUP5 PUSH2 0x1E2 JUMP JUMPDEST SWAP3 SWAP2 POP POP JUMP JUMPDEST PUSH2 0x1638 DUP1 PUSH2 0x217 PUSH0 CODECOPY PUSH0 RETURN INVALID PUSH1 0x80 PUSH1 0x40 MSTORE CALLVALUE DUP1 ISZERO PUSH2 0xF JUMPI PUSH0 PUSH0 REVERT JUMPDEST POP PUSH1 0x4 CALLDATASIZE LT PUSH2 0xE8 JUMPI PUSH0 CALLDATALOAD PUSH1 0xE0 SHR DUP1 PUSH4 0x8DA5CB5B GT PUSH2 0x8A JUMPI DUP1 PUSH4 0xA694FC3A GT PUSH2 0x64 JUMPI DUP1 PUSH4 0xA694FC3A EQ PUSH2 0x212 JUMPI DUP1 PUSH4 0xB602024B EQ PUSH2 0x22E JUMPI DUP1 PUSH4 0xD82E3962 EQ PUSH2 0x24A JUMPI DUP1 PUSH4 0xF2FDE38B EQ PUSH2 0x27A JUMPI PUSH2 0xE8 JUMP JUMPDEST DUP1 PUSH4 0x8DA5CB5B EQ PUSH2 0x1BA JUMPI DUP1 PUSH4 0x8E15F473 EQ PUSH2 0x1D8 JUMPI DUP1 PUSH4 0x9E447FC6 EQ PUSH2 0x1F6 JUMPI PUSH2 0xE8 JUMP JUMPDEST DUP1 PUSH4 0x715018A6 GT PUSH2 0xC6 JUMPI DUP1 PUSH4 0x715018A6 EQ PUSH2 0x156 JUMPI DUP1 PUSH4 0x72F702F3 EQ PUSH2 0x160 JUMPI DUP1 PUSH4 0x741BEF1A EQ PUSH2 0x17E JUMPI DUP1 PUSH4 0x7B0A47EE EQ PUSH2 0x19C JUMPI PUSH2 0xE8 JUMP JUMPDEST DUP1 PUSH4 0x2DEF6620 EQ PUSH2 0xEC JUMPI DUP1 PUSH4 0x583D42FD EQ PUSH2 0xF6 JUMPI DUP1 PUSH4 0x60217267 EQ PUSH2 0x126 JUMPI JUMPDEST PUSH0 PUSH0 REVERT JUMPDEST PUSH2 0xF4 PUSH2 0x296 JUMP JUMPDEST STOP JUMPDEST PUSH2 0x110 PUSH1 0x4 DUP1 CALLDATASIZE SUB DUP2 ADD SWAP1 PUSH2 0x10B SWAP2 SWAP1 PUSH2 0xE44 JUMP JUMPDEST PUSH2 0x4A3 JUMP JUMPDEST PUSH1 0x40 MLOAD PUSH2 0x11D SWAP2 SWAP1 PUSH2 0xE87 JUMP JUMPDEST PUSH1 0x40 MLOAD DUP1 SWAP2 SUB SWAP1 RETURN JUMPDEST PUSH2 0x140 PUSH1 0x4 DUP1 CALLDATASIZE SUB DUP2 ADD SWAP1 PUSH2 0x13B SWAP2 SWAP1 PUSH2 0xE44 JUMP JUMPDEST PUSH2 0x4B8 JUMP JUMPDEST PUSH1 0x40 MLOAD PUSH2 0x14D SWAP2 SWAP1 PUSH2 0xE87 JUMP JUMPDEST PUSH1 0x40 MLOAD DUP1 SWAP2 SUB SWAP1 RETURN JUMPDEST PUSH2 0x15E PUSH2 0x4CD JUMP JUMPDEST STOP JUMPDEST PUSH2 0x168 PUSH2 0x4E0 JUMP JUMPDEST PUSH1 0x40 MLOAD PUSH2 0x175 SWAP2 SWAP1 PUSH2 0xEFB JUMP JUMPDEST PUSH1 0x40 MLOAD DUP1 SWAP2 SUB SWAP1 RETURN JUMPDEST PUSH2 0x186 PUSH2 0x505 JUMP JUMPDEST PUSH1 0x40 MLOAD PUSH2 0x193 SWAP2 SWAP1 PUSH2 0xF34 JUMP JUMPDEST PUSH1 0x40 MLOAD DUP1 SWAP2 SUB SWAP1 RETURN JUMPDEST PUSH2 0x1A4 PUSH2 0x52A JUMP JUMPDEST PUSH1 0x40 MLOAD PUSH2 0x1B1 SWAP2 SWAP1 PUSH2 0xE87 JUMP JUMPDEST PUSH1 0x40 MLOAD DUP1 SWAP2 SUB SWAP1 RETURN JUMPDEST PUSH2 0x1C2 PUSH2 0x530 JUMP JUMPDEST PUSH1 0x40 MLOAD PUSH2 0x1CF SWAP2 SWAP1 PUSH2 0xF5C JUMP JUMPDEST PUSH1 0x40 MLOAD DUP1 SWAP2 SUB SWAP1 RETURN JUMPDEST PUSH2 0x1E0 PUSH2 0x557 JUMP JUMPDEST PUSH1 0x40 MLOAD PUSH2 0x1ED SWAP2 SWAP1 PUSH2 0xF8D JUMP JUMPDEST PUSH1 0x40 MLOAD DUP1 SWAP2 SUB SWAP1 RETURN JUMPDEST PUSH2 0x210 PUSH1 0x4 DUP1 CALLDATASIZE SUB DUP2 ADD SWAP1 PUSH2 0x20B SWAP2 SWAP1 PUSH2 0xFD0 JUMP JUMPDEST PUSH2 0x5F4 JUMP JUMPDEST STOP JUMPDEST PUSH2 0x22C PUSH1 0x4 DUP1 CALLDATASIZE SUB DUP2 ADD SWAP1 PUSH2 0x227 SWAP2 SWAP1 PUSH2 0xFD0 JUMP JUMPDEST PUSH2 0x606 JUMP JUMPDEST STOP JUMPDEST PUSH2 0x248 PUSH1 0x4 DUP1 CALLDATASIZE SUB DUP2 ADD SWAP1 PUSH2 0x243 SWAP2 SWAP1 PUSH2 0xFFB JUMP JUMPDEST PUSH2 0x85C JUMP JUMPDEST STOP JUMPDEST PUSH2 0x264 PUSH1 0x4 DUP1 CALLDATASIZE SUB DUP2 ADD SWAP1 PUSH2 0x25F SWAP2 SWAP1 PUSH2 0xE44 JUMP JUMPDEST PUSH2 0xA53 JUMP JUMPDEST PUSH1 0x40 MLOAD PUSH2 0x271 SWAP2 SWAP1 PUSH2 0xE87 JUMP JUMPDEST PUSH1 0x40 MLOAD DUP1 SWAP2 SUB SWAP1 RETURN JUMPDEST PUSH2 0x294 PUSH1 0x4 DUP1 CALLDATASIZE SUB DUP2 ADD SWAP1 PUSH2 0x28F SWAP2 SWAP1 PUSH2 0xE44 JUMP JUMPDEST PUSH2 0xB48 JUMP JUMPDEST STOP JUMPDEST PUSH2 0x29E PUSH2 0xBCC JUMP JUMPDEST PUSH0 PUSH1 0x3 PUSH0 CALLER PUSH20 0xFFFFFFFFFFFFFFFFFFFFFFFFFFFFFFFFFFFFFFFF AND PUSH20 0xFFFFFFFFFFFFFFFFFFFFFFFFFFFFFFFFFFFFFFFF AND DUP2 MSTORE PUSH1 0x20 ADD SWAP1 DUP2 MSTORE PUSH1 0x20 ADD PUSH0 KECCAK256 SLOAD SWAP1 POP PUSH0 DUP2 GT PUSH2 0x321 JUMPI PUSH1 0x40 MLOAD PUSH32 0x8C379A000000000000000000000000000000000000000000000000000000000 DUP2 MSTORE PUSH1 0x4 ADD PUSH2 0x318 SWAP1 PUSH2 0x1093 JUMP JUMPDEST PUSH1 0x40 MLOAD DUP1 SWAP2 SUB SWAP1 REVERT JUMPDEST PUSH0 PUSH2 0x32B CALLER PUSH2 0xA53 JUMP JUMPDEST SWAP1 POP PUSH0 PUSH1 0x3 PUSH0 CALLER PUSH20 0xFFFFFFFFFFFFFFFFFFFFFFFFFFFFFFFFFFFFFFFF AND PUSH20 0xFFFFFFFFFFFFFFFFFFFFFFFFFFFFFFFFFFFFFFFF AND DUP2 MSTORE PUSH1 0x20 ADD SWAP1 DUP2 MSTORE PUSH1 0x20 ADD PUSH0 KECCAK256 DUP2 SWAP1 SSTORE POP PUSH0 PUSH1 0x4 PUSH0 CALLER PUSH20 0xFFFFFFFFFFFFFFFFFFFFFFFFFFFFFFFFFFFFFFFF AND PUSH20 0xFFFFFFFFFFFFFFFFFFFFFFFFFFFFFFFFFFFFFFFF AND DUP2 MSTORE PUSH1 0x20 ADD SWAP1 DUP2 MSTORE PUSH1 0x20 ADD PUSH0 KECCAK256 DUP2 SWAP1 SSTORE POP PUSH1 0x1 PUSH0 SWAP1 SLOAD SWAP1 PUSH2 0x100 EXP SWAP1 DIV PUSH20 0xFFFFFFFFFFFFFFFFFFFFFFFFFFFFFFFFFFFFFFFF AND PUSH20 0xFFFFFFFFFFFFFFFFFFFFFFFFFFFFFFFFFFFFFFFF AND PUSH4 0xA9059CBB CALLER DUP4 DUP6 PUSH2 0x3FB SWAP2 SWAP1 PUSH2 0x10DE JUMP JUMPDEST PUSH1 0x40 MLOAD DUP4 PUSH4 0xFFFFFFFF AND PUSH1 0xE0 SHL DUP2 MSTORE PUSH1 0x4 ADD PUSH2 0x418 SWAP3 SWAP2 SWAP1 PUSH2 0x1111 JUMP JUMPDEST PUSH1 0x20 PUSH1 0x40 MLOAD DUP1 DUP4 SUB DUP2 PUSH0 DUP8 GAS CALL ISZERO DUP1 ISZERO PUSH2 0x434 JUMPI RETURNDATASIZE PUSH0 PUSH0 RETURNDATACOPY RETURNDATASIZE PUSH0 REVERT JUMPDEST POP POP POP POP PUSH1 0x40 MLOAD RETURNDATASIZE PUSH1 0x1F NOT PUSH1 0x1F DUP3 ADD AND DUP3 ADD DUP1 PUSH1 0x40 MSTORE POP DUP2 ADD SWAP1 PUSH2 0x458 SWAP2 SWAP1 PUSH2 0x116D JUMP JUMPDEST PUSH2 0x497 JUMPI PUSH1 0x40 MLOAD PUSH32 0x8C379A000000000000000000000000000000000000000000000000000000000 DUP2 MSTORE PUSH1 0x4 ADD PUSH2 0x48E SWAP1 PUSH2 0x11E2 JUMP JUMPDEST PUSH1 0x40 MLOAD DUP1 SWAP2 SUB SWAP1 REVERT JUMPDEST POP POP PUSH2 0x4A1 PUSH2 0xBEE JUMP JUMPDEST JUMP JUMPDEST PUSH1 0x4 PUSH1 0x20 MSTORE DUP1 PUSH0 MSTORE PUSH1 0x40 PUSH0 KECCAK256 PUSH0 SWAP2 POP SWAP1 POP SLOAD DUP2 JUMP JUMPDEST PUSH1 0x3 PUSH1 0x20 MSTORE DUP1 PUSH0 MSTORE PUSH1 0x40 PUSH0 KECCAK256 PUSH0 SWAP2 POP SWAP1 POP SLOAD DUP2 JUMP JUMPDEST PUSH2 0x4D5 PUSH2 0xC08 JUMP JUMPDEST PUSH2 0x4DE PUSH0 PUSH2 0xC8F JUMP JUMPDEST JUMP JUMPDEST PUSH1 0x1 PUSH0 SWAP1 SLOAD SWAP1 PUSH2 0x100 EXP SWAP1 DIV PUSH20 0xFFFFFFFFFFFFFFFFFFFFFFFFFFFFFFFFFFFFFFFF AND DUP2 JUMP JUMPDEST PUSH1 0x2 PUSH0 SWAP1 SLOAD SWAP1 PUSH2 0x100 EXP SWAP1 DIV PUSH20 0xFFFFFFFFFFFFFFFFFFFFFFFFFFFFFFFFFFFFFFFF AND DUP2 JUMP JUMPDEST PUSH1 0x5 SLOAD DUP2 JUMP JUMPDEST PUSH0 PUSH0 PUSH0 SWAP1 SLOAD SWAP1 PUSH2 0x100 EXP SWAP1 DIV PUSH20 0xFFFFFFFFFFFFFFFFFFFFFFFFFFFFFFFFFFFFFFFF AND SWAP1 POP SWAP1 JUMP JUMPDEST PUSH0 PUSH0 PUSH1 0x2 PUSH0 SWAP1 SLOAD SWAP1 PUSH2 0x100 EXP SWAP1 DIV PUSH20 0xFFFFFFFFFFFFFFFFFFFFFFFFFFFFFFFFFFFFFFFF AND PUSH20 0xFFFFFFFFFFFFFFFFFFFFFFFFFFFFFFFFFFFFFFFF AND PUSH4 0xFEAF968C PUSH1 0x40 MLOAD DUP2 PUSH4 0xFFFFFFFF AND PUSH1 0xE0 SHL DUP2 MSTORE PUSH1 0x4 ADD PUSH1 0xA0 PUSH1 0x40 MLOAD DUP1 DUP4 SUB DUP2 DUP7 GAS STATICCALL ISZERO DUP1 ISZERO PUSH2 0x5C3 JUMPI RETURNDATASIZE PUSH0 PUSH0 RETURNDATACOPY RETURNDATASIZE PUSH0 REVERT JUMPDEST POP POP POP POP PUSH1 0x40 MLOAD RETURNDATASIZE PUSH1 0x1F NOT PUSH1 0x1F DUP3 ADD AND DUP3 ADD DUP1 PUSH1 0x40 MSTORE POP DUP2 ADD SWAP1 PUSH2 0x5E7 SWAP2 SWAP1 PUSH2 0x127D JUMP JUMPDEST POP POP POP SWAP2 POP POP DUP1 SWAP2 POP POP SWAP1 JUMP JUMPDEST PUSH2 0x5FC PUSH2 0xC08 JUMP JUMPDEST DUP1 PUSH1 0x5 DUP2 SWAP1 SSTORE POP POP JUMP JUMPDEST PUSH2 0x60E PUSH2 0xBCC JUMP JUMPDEST PUSH0 PUSH20 0xFFFFFFFFFFFFFFFFFFFFFFFFFFFFFFFFFFFFFFFF AND PUSH1 0x1 PUSH0 SWAP1 SLOAD SWAP1 PUSH2 0x100 EXP SWAP1 DIV PUSH20 0xFFFFFFFFFFFFFFFFFFFFFFFFFFFFFFFFFFFFFFFF AND PUSH20 0xFFFFFFFFFFFFFFFFFFFFFFFFFFFFFFFFFFFFFFFF AND SUB PUSH2 0x69D JUMPI PUSH1 0x40 MLOAD PUSH32 0x8C379A000000000000000000000000000000000000000000000000000000000 DUP2 MSTORE PUSH1 0x4 ADD PUSH2 0x694 SWAP1 PUSH2 0x133E JUMP JUMPDEST PUSH1 0x40 MLOAD DUP1 SWAP2 SUB SWAP1 REVERT JUMPDEST PUSH0 DUP2 GT PUSH2 0x6DF JUMPI PUSH1 0x40 MLOAD PUSH32 0x8C379A000000000000000000000000000000000000000000000000000000000 DUP2 MSTORE PUSH1 0x4 ADD PUSH2 0x6D6 SWAP1 PUSH2 0x13A6 JUMP JUMPDEST PUSH1 0x40 MLOAD DUP1 SWAP2 SUB SWAP1 REVERT JUMPDEST PUSH1 0x1 PUSH0 SWAP1 SLOAD SWAP1 PUSH2 0x100 EXP SWAP1 DIV PUSH20 0xFFFFFFFFFFFFFFFFFFFFFFFFFFFFFFFFFFFFFFFF AND PUSH20 0xFFFFFFFFFFFFFFFFFFFFFFFFFFFFFFFFFFFFFFFF AND PUSH4 0x23B872DD CALLER ADDRESS DUP5 PUSH1 0x40 MLOAD DUP5 PUSH4 0xFFFFFFFF AND PUSH1 0xE0 SHL DUP2 MSTORE PUSH1 0x4 ADD PUSH2 0x73D SWAP4 SWAP3 SWAP2 SWAP1 PUSH2 0x13C4 JUMP JUMPDEST PUSH1 0x20 PUSH1 0x40 MLOAD DUP1 DUP4 SUB DUP2 PUSH0 DUP8 GAS CALL ISZERO DUP1 ISZERO PUSH2 0x759 JUMPI RETURNDATASIZE PUSH0 PUSH0 RETURNDATACOPY RETURNDATASIZE PUSH0 REVERT JUMPDEST POP POP POP POP PUSH1 0x40 MLOAD RETURNDATASIZE PUSH1 0x1F NOT PUSH1 0x1F DUP3 ADD AND DUP3 ADD DUP1 PUSH1 0x40 MSTORE POP DUP2 ADD SWAP1 PUSH2 0x77D SWAP2 SWAP1 PUSH2 0x116D JUMP JUMPDEST PUSH2 0x7BC JUMPI PUSH1 0x40 MLOAD PUSH32 0x8C379A000000000000000000000000000000000000000000000000000000000 DUP2 MSTORE PUSH1 0x4 ADD PUSH2 0x7B3 SWAP1 PUSH2 0x11E2 JUMP JUMPDEST PUSH1 0x40 MLOAD DUP1 SWAP2 SUB SWAP1 REVERT JUMPDEST DUP1 PUSH1 0x3 PUSH0 CALLER PUSH20 0xFFFFFFFFFFFFFFFFFFFFFFFFFFFFFFFFFFFFFFFF AND PUSH20 0xFFFFFFFFFFFFFFFFFFFFFFFFFFFFFFFFFFFFFFFF AND DUP2 MSTORE PUSH1 0x20 ADD SWAP1 DUP2 MSTORE PUSH1 0x20 ADD PUSH0 KECCAK256 PUSH0 DUP3 DUP3 SLOAD PUSH2 0x808 SWAP2 SWAP1 PUSH2 0x10DE JUMP JUMPDEST SWAP3 POP POP DUP2 SWAP1 SSTORE POP TIMESTAMP PUSH1 0x4 PUSH0 CALLER PUSH20 0xFFFFFFFFFFFFFFFFFFFFFFFFFFFFFFFFFFFFFFFF AND PUSH20 0xFFFFFFFFFFFFFFFFFFFFFFFFFFFFFFFFFFFFFFFF AND DUP2 MSTORE PUSH1 0x20 ADD SWAP1 DUP2 MSTORE PUSH1 0x20 ADD PUSH0 KECCAK256 DUP2 SWAP1 SSTORE POP PUSH2 0x859 PUSH2 0xBEE JUMP JUMPDEST POP JUMP JUMPDEST PUSH2 0x864 PUSH2 0xC08 JUMP JUMPDEST PUSH0 PUSH20 0xFFFFFFFFFFFFFFFFFFFFFFFFFFFFFFFFFFFFFFFF AND PUSH1 0x1 PUSH0 SWAP1 SLOAD SWAP1 PUSH2 0x100 EXP SWAP1 DIV PUSH20 0xFFFFFFFFFFFFFFFFFFFFFFFFFFFFFFFFFFFFFFFF AND PUSH20 0xFFFFFFFFFFFFFFFFFFFFFFFFFFFFFFFFFFFFFFFF AND EQ PUSH2 0x8F3 JUMPI PUSH1 0x40 MLOAD PUSH32 0x8C379A000000000000000000000000000000000000000000000000000000000 DUP2 MSTORE PUSH1 0x4 ADD PUSH2 0x8EA SWAP1 PUSH2 0x1443 JUMP JUMPDEST PUSH1 0x40 MLOAD DUP1 SWAP2 SUB SWAP1 REVERT JUMPDEST PUSH0 PUSH20 0xFFFFFFFFFFFFFFFFFFFFFFFFFFFFFFFFFFFFFFFF AND DUP3 PUSH20 0xFFFFFFFFFFFFFFFFFFFFFFFFFFFFFFFFFFFFFFFF AND SUB PUSH2 0x961 JUMPI PUSH1 0x40 MLOAD PUSH32 0x8C379A000000000000000000000000000000000000000000000000000000000 DUP2 MSTORE PUSH1 0x4 ADD PUSH2 0x958 SWAP1 PUSH2 0x14AB JUMP JUMPDEST PUSH1 0x40 MLOAD DUP1 SWAP2 SUB SWAP1 REVERT JUMPDEST PUSH0 PUSH20 0xFFFFFFFFFFFFFFFFFFFFFFFFFFFFFFFFFFFFFFFF AND DUP2 PUSH20 0xFFFFFFFFFFFFFFFFFFFFFFFFFFFFFFFFFFFFFFFF AND SUB PUSH2 0x9CF JUMPI PUSH1 0x40 MLOAD PUSH32 0x8C379A000000000000000000000000000000000000000000000000000000000 DUP2 MSTORE PUSH1 0x4 ADD PUSH2 0x9C6 SWAP1 PUSH2 0x1513 JUMP JUMPDEST PUSH1 0x40 MLOAD DUP1 SWAP2 SUB SWAP1 REVERT JUMPDEST DUP2 PUSH1 0x1 PUSH0 PUSH2 0x100 EXP DUP2 SLOAD DUP2 PUSH20 0xFFFFFFFFFFFFFFFFFFFFFFFFFFFFFFFFFFFFFFFF MUL NOT AND SWAP1 DUP4 PUSH20 0xFFFFFFFFFFFFFFFFFFFFFFFFFFFFFFFFFFFFFFFF AND MUL OR SWAP1 SSTORE POP DUP1 PUSH1 0x2 PUSH0 PUSH2 0x100 EXP DUP2 SLOAD DUP2 PUSH20 0xFFFFFFFFFFFFFFFFFFFFFFFFFFFFFFFFFFFFFFFF MUL NOT AND SWAP1 DUP4 PUSH20 0xFFFFFFFFFFFFFFFFFFFFFFFFFFFFFFFFFFFFFFFF AND MUL OR SWAP1 SSTORE POP POP POP JUMP JUMPDEST PUSH0 PUSH0 PUSH1 0x4 PUSH0 DUP5 PUSH20 0xFFFFFFFFFFFFFFFFFFFFFFFFFFFFFFFFFFFFFFFF AND PUSH20 0xFFFFFFFFFFFFFFFFFFFFFFFFFFFFFFFFFFFFFFFF AND DUP2 MSTORE PUSH1 0x20 ADD SWAP1 DUP2 MSTORE PUSH1 0x20 ADD PUSH0 KECCAK256 SLOAD TIMESTAMP PUSH2 0xA9E SWAP2 SWAP1 PUSH2 0x1531 JUMP JUMPDEST SWAP1 POP PUSH0 PUSH2 0xAA9 PUSH2 0x557 JUMP JUMPDEST SWAP1 POP PUSH0 PUSH4 0x5F5E100 DUP3 PUSH2 0xABC SWAP2 SWAP1 PUSH2 0x1591 JUMP JUMPDEST SWAP1 POP PUSH0 DUP2 SUB PUSH2 0xACA JUMPI PUSH1 0x1 SWAP1 POP JUMPDEST PUSH8 0xDE0B6B3A7640000 DUP2 PUSH1 0x5 SLOAD DUP6 PUSH1 0x3 PUSH0 DUP11 PUSH20 0xFFFFFFFFFFFFFFFFFFFFFFFFFFFFFFFFFFFFFFFF AND PUSH20 0xFFFFFFFFFFFFFFFFFFFFFFFFFFFFFFFFFFFFFFFF AND DUP2 MSTORE PUSH1 0x20 ADD SWAP1 DUP2 MSTORE PUSH1 0x20 ADD PUSH0 KECCAK256 SLOAD PUSH2 0xB20 SWAP2 SWAP1 PUSH2 0x15C1 JUMP JUMPDEST PUSH2 0xB2A SWAP2 SWAP1 PUSH2 0x15C1 JUMP JUMPDEST PUSH2 0xB34 SWAP2 SWAP1 PUSH2 0x15C1 JUMP JUMPDEST PUSH2 0xB3E SWAP2 SWAP1 PUSH2 0x1591 JUMP JUMPDEST SWAP4 POP POP POP POP SWAP2 SWAP1 POP JUMP JUMPDEST PUSH2 0xB50 PUSH2 0xC08 JUMP JUMPDEST PUSH0 PUSH20 0xFFFFFFFFFFFFFFFFFFFFFFFFFFFFFFFFFFFFFFFF AND DUP2 PUSH20 0xFFFFFFFFFFFFFFFFFFFFFFFFFFFFFFFFFFFFFFFF AND SUB PUSH2 0xBC0 JUMPI PUSH0 PUSH1 0x40 MLOAD PUSH32 0x1E4FBDF700000000000000000000000000000000000000000000000000000000 DUP2 MSTORE PUSH1 0x4 ADD PUSH2 0xBB7 SWAP2 SWAP1 PUSH2 0xF5C JUMP JUMPDEST PUSH1 0x40 MLOAD DUP1 SWAP2 SUB SWAP1 REVERT JUMPDEST PUSH2 0xBC9 DUP2 PUSH2 0xC8F JUMP JUMPDEST POP JUMP JUMPDEST PUSH2 0xBD4 PUSH2 0xD50 JUMP JUMPDEST PUSH1 0x2 PUSH2 0xBE6 PUSH2 0xBE1 PUSH2 0xD91 JUMP JUMPDEST PUSH2 0xDBA JUMP JUMPDEST PUSH0 ADD DUP2 SWAP1 SSTORE POP JUMP JUMPDEST PUSH1 0x1 PUSH2 0xC00 PUSH2 0xBFB PUSH2 0xD91 JUMP JUMPDEST PUSH2 0xDBA JUMP JUMPDEST PUSH0 ADD DUP2 SWAP1 SSTORE POP JUMP JUMPDEST PUSH2 0xC10 PUSH2 0xDC3 JUMP JUMPDEST PUSH20 0xFFFFFFFFFFFFFFFFFFFFFFFFFFFFFFFFFFFFFFFF AND PUSH2 0xC2E PUSH2 0x530 JUMP JUMPDEST PUSH20 0xFFFFFFFFFFFFFFFFFFFFFFFFFFFFFFFFFFFFFFFF AND EQ PUSH2 0xC8D JUMPI PUSH2 0xC51 PUSH2 0xDC3 JUMP JUMPDEST PUSH1 0x40 MLOAD PUSH32 0x118CDAA700000000000000000000000000000000000000000000000000000000 DUP2 MSTORE PUSH1 0x4 ADD PUSH2 0xC84 SWAP2 SWAP1 PUSH2 0xF5C JUMP JUMPDEST PUSH1 0x40 MLOAD DUP1 SWAP2 SUB SWAP1 REVERT JUMPDEST JUMP JUMPDEST PUSH0 PUSH0 PUSH0 SWAP1 SLOAD SWAP1 PUSH2 0x100 EXP SWAP1 DIV PUSH20 0xFFFFFFFFFFFFFFFFFFFFFFFFFFFFFFFFFFFFFFFF AND SWAP1 POP DUP2 PUSH0 PUSH0 PUSH2 0x100 EXP DUP2 SLOAD DUP2 PUSH20 0xFFFFFFFFFFFFFFFFFFFFFFFFFFFFFFFFFFFFFFFF MUL NOT AND SWAP1 DUP4 PUSH20 0xFFFFFFFFFFFFFFFFFFFFFFFFFFFFFFFFFFFFFFFF AND MUL OR SWAP1 SSTORE POP DUP2 PUSH20 0xFFFFFFFFFFFFFFFFFFFFFFFFFFFFFFFFFFFFFFFF AND DUP2 PUSH20 0xFFFFFFFFFFFFFFFFFFFFFFFFFFFFFFFFFFFFFFFF AND PUSH32 0x8BE0079C531659141344CD1FD0A4F28419497F9722A3DAAFE3B4186F6B6457E0 PUSH1 0x40 MLOAD PUSH1 0x40 MLOAD DUP1 SWAP2 SUB SWAP1 LOG3 POP POP JUMP JUMPDEST PUSH2 0xD58 PUSH2 0xDCA JUMP JUMPDEST ISZERO PUSH2 0xD8F JUMPI PUSH1 0x40 MLOAD PUSH32 0x3EE5AEB500000000000000000000000000000000000000000000000000000000 DUP2 MSTORE PUSH1 0x4 ADD PUSH1 0x40 MLOAD DUP1 SWAP2 SUB SWAP1 REVERT JUMPDEST JUMP JUMPDEST PUSH0 PUSH32 0x9B779B17422D0DF92223018B32B4D1FA46E071723D6817E2486D003BECC55F00 PUSH0 SHL SWAP1 POP SWAP1 JUMP JUMPDEST PUSH0 DUP2 SWAP1 POP SWAP2 SWAP1 POP JUMP JUMPDEST PUSH0 CALLER SWAP1 POP SWAP1 JUMP JUMPDEST PUSH0 PUSH1 0x2 PUSH2 0xDDD PUSH2 0xDD8 PUSH2 0xD91 JUMP JUMPDEST PUSH2 0xDBA JUMP JUMPDEST PUSH0 ADD SLOAD EQ SWAP1 POP SWAP1 JUMP JUMPDEST PUSH0 PUSH0 REVERT JUMPDEST PUSH0 PUSH20 0xFFFFFFFFFFFFFFFFFFFFFFFFFFFFFFFFFFFFFFFF DUP3 AND SWAP1 POP SWAP2 SWAP1 POP JUMP JUMPDEST PUSH0 PUSH2 0xE13 DUP3 PUSH2 0xDEA JUMP JUMPDEST SWAP1 POP SWAP2 SWAP1 POP JUMP JUMPDEST PUSH2 0xE23 DUP2 PUSH2 0xE09 JUMP JUMPDEST DUP2 EQ PUSH2 0xE2D JUMPI PUSH0 PUSH0 REVERT JUMPDEST POP JUMP JUMPDEST PUSH0 DUP2 CALLDATALOAD SWAP1 POP PUSH2 0xE3E DUP2 PUSH2 0xE1A JUMP JUMPDEST SWAP3 SWAP2 POP POP JUMP JUMPDEST PUSH0 PUSH1 0x20 DUP3 DUP5 SUB SLT ISZERO PUSH2 0xE59 JUMPI PUSH2 0xE58 PUSH2 0xDE6 JUMP JUMPDEST JUMPDEST PUSH0 PUSH2 0xE66 DUP5 DUP3 DUP6 ADD PUSH2 0xE30 JUMP JUMPDEST SWAP2 POP POP SWAP3 SWAP2 POP POP JUMP JUMPDEST PUSH0 DUP2 SWAP1 POP SWAP2 SWAP1 POP JUMP JUMPDEST PUSH2 0xE81 DUP2 PUSH2 0xE6F JUMP JUMPDEST DUP3 MSTORE POP POP JUMP JUMPDEST PUSH0 PUSH1 0x20 DUP3 ADD SWAP1 POP PUSH2 0xE9A PUSH0 DUP4 ADD DUP5 PUSH2 0xE78 JUMP JUMPDEST SWAP3 SWAP2 POP POP JUMP JUMPDEST PUSH0 DUP2 SWAP1 POP SWAP2 SWAP1 POP JUMP JUMPDEST PUSH0 PUSH2 0xEC3 PUSH2 0xEBE PUSH2 0xEB9 DUP5 PUSH2 0xDEA JUMP JUMPDEST PUSH2 0xEA0 JUMP JUMPDEST PUSH2 0xDEA JUMP JUMPDEST SWAP1 POP SWAP2 SWAP1 POP JUMP JUMPDEST PUSH0 PUSH2 0xED4 DUP3 PUSH2 0xEA9 JUMP JUMPDEST SWAP1 POP SWAP2 SWAP1 POP JUMP JUMPDEST PUSH0 PUSH2 0xEE5 DUP3 PUSH2 0xECA JUMP JUMPDEST SWAP1 POP SWAP2 SWAP1 POP JUMP JUMPDEST PUSH2 0xEF5 DUP2 PUSH2 0xEDB JUMP JUMPDEST DUP3 MSTORE POP POP JUMP JUMPDEST PUSH0 PUSH1 0x20 DUP3 ADD SWAP1 POP PUSH2 0xF0E PUSH0 DUP4 ADD DUP5 PUSH2 0xEEC JUMP JUMPDEST SWAP3 SWAP2 POP POP JUMP JUMPDEST PUSH0 PUSH2 0xF1E DUP3 PUSH2 0xECA JUMP JUMPDEST SWAP1 POP SWAP2 SWAP1 POP JUMP JUMPDEST PUSH2 0xF2E DUP2 PUSH2 0xF14 JUMP JUMPDEST DUP3 MSTORE POP POP JUMP JUMPDEST PUSH0 PUSH1 0x20 DUP3 ADD SWAP1 POP PUSH2 0xF47 PUSH0 DUP4 ADD DUP5 PUSH2 0xF25 JUMP JUMPDEST SWAP3 SWAP2 POP POP JUMP JUMPDEST PUSH2 0xF56 DUP2 PUSH2 0xE09 JUMP JUMPDEST DUP3 MSTORE POP POP JUMP JUMPDEST PUSH0 PUSH1 0x20 DUP3 ADD SWAP1 POP PUSH2 0xF6F PUSH0 DUP4 ADD DUP5 PUSH2 0xF4D JUMP JUMPDEST SWAP3 SWAP2 POP POP JUMP JUMPDEST PUSH0 DUP2 SWAP1 POP SWAP2 SWAP1 POP JUMP JUMPDEST PUSH2 0xF87 DUP2 PUSH2 0xF75 JUMP JUMPDEST DUP3 MSTORE POP POP JUMP JUMPDEST PUSH0 PUSH1 0x20 DUP3 ADD SWAP1 POP PUSH2 0xFA0 PUSH0 DUP4 ADD DUP5 PUSH2 0xF7E JUMP JUMPDEST SWAP3 SWAP2 POP POP JUMP JUMPDEST PUSH2 0xFAF DUP2 PUSH2 0xE6F JUMP JUMPDEST DUP2 EQ PUSH2 0xFB9 JUMPI PUSH0 PUSH0 REVERT JUMPDEST POP JUMP JUMPDEST PUSH0 DUP2 CALLDATALOAD SWAP1 POP PUSH2 0xFCA DUP2 PUSH2 0xFA6 JUMP JUMPDEST SWAP3 SWAP2 POP POP JUMP JUMPDEST PUSH0 PUSH1 0x20 DUP3 DUP5 SUB SLT ISZERO PUSH2 0xFE5 JUMPI PUSH2 0xFE4 PUSH2 0xDE6 JUMP JUMPDEST JUMPDEST PUSH0 PUSH2 0xFF2 DUP5 DUP3 DUP6 ADD PUSH2 0xFBC JUMP JUMPDEST SWAP2 POP POP SWAP3 SWAP2 POP POP JUMP JUMPDEST PUSH0 PUSH0 PUSH1 0x40 DUP4 DUP6 SUB SLT ISZERO PUSH2 0x1011 JUMPI PUSH2 0x1010 PUSH2 0xDE6 JUMP JUMPDEST JUMPDEST PUSH0 PUSH2 0x101E DUP6 DUP3 DUP7 ADD PUSH2 0xE30 JUMP JUMPDEST SWAP3 POP POP PUSH1 0x20 PUSH2 0x102F DUP6 DUP3 DUP7 ADD PUSH2 0xE30 JUMP JUMPDEST SWAP2 POP POP SWAP3 POP SWAP3 SWAP1 POP JUMP JUMPDEST PUSH0 DUP3 DUP3 MSTORE PUSH1 0x20 DUP3 ADD SWAP1 POP SWAP3 SWAP2 POP POP JUMP JUMPDEST PUSH32 0x4E61646120706172612072657469726172000000000000000000000000000000 PUSH0 DUP3 ADD MSTORE POP JUMP JUMPDEST PUSH0 PUSH2 0x107D PUSH1 0x11 DUP4 PUSH2 0x1039 JUMP JUMPDEST SWAP2 POP PUSH2 0x1088 DUP3 PUSH2 0x1049 JUMP JUMPDEST PUSH1 0x20 DUP3 ADD SWAP1 POP SWAP2 SWAP1 POP JUMP JUMPDEST PUSH0 PUSH1 0x20 DUP3 ADD SWAP1 POP DUP2 DUP2 SUB PUSH0 DUP4 ADD MSTORE PUSH2 0x10AA DUP2 PUSH2 0x1071 JUMP JUMPDEST SWAP1 POP SWAP2 SWAP1 POP JUMP JUMPDEST PUSH32 0x4E487B7100000000000000000000000000000000000000000000000000000000 PUSH0 MSTORE PUSH1 0x11 PUSH1 0x4 MSTORE PUSH1 0x24 PUSH0 REVERT JUMPDEST PUSH0 PUSH2 0x10E8 DUP3 PUSH2 0xE6F JUMP JUMPDEST SWAP2 POP PUSH2 0x10F3 DUP4 PUSH2 0xE6F JUMP JUMPDEST SWAP3 POP DUP3 DUP3 ADD SWAP1 POP DUP1 DUP3 GT ISZERO PUSH2 0x110B JUMPI PUSH2 0x110A PUSH2 0x10B1 JUMP JUMPDEST JUMPDEST SWAP3 SWAP2 POP POP JUMP JUMPDEST PUSH0 PUSH1 0x40 DUP3 ADD SWAP1 POP PUSH2 0x1124 PUSH0 DUP4 ADD DUP6 PUSH2 0xF4D JUMP JUMPDEST PUSH2 0x1131 PUSH1 0x20 DUP4 ADD DUP5 PUSH2 0xE78 JUMP JUMPDEST SWAP4 SWAP3 POP POP POP JUMP JUMPDEST PUSH0 DUP2 ISZERO ISZERO SWAP1 POP SWAP2 SWAP1 POP JUMP JUMPDEST PUSH2 0x114C DUP2 PUSH2 0x1138 JUMP JUMPDEST DUP2 EQ PUSH2 0x1156 JUMPI PUSH0 PUSH0 REVERT JUMPDEST POP JUMP JUMPDEST PUSH0 DUP2 MLOAD SWAP1 POP PUSH2 0x1167 DUP2 PUSH2 0x1143 JUMP JUMPDEST SWAP3 SWAP2 POP POP JUMP JUMPDEST PUSH0 PUSH1 0x20 DUP3 DUP5 SUB SLT ISZERO PUSH2 0x1182 JUMPI PUSH2 0x1181 PUSH2 0xDE6 JUMP JUMPDEST JUMPDEST PUSH0 PUSH2 0x118F DUP5 DUP3 DUP6 ADD PUSH2 0x1159 JUMP JUMPDEST SWAP2 POP POP SWAP3 SWAP2 POP POP JUMP JUMPDEST PUSH32 0x5472616E73666572206661696C65640000000000000000000000000000000000 PUSH0 DUP3 ADD MSTORE POP JUMP JUMPDEST PUSH0 PUSH2 0x11CC PUSH1 0xF DUP4 PUSH2 0x1039 JUMP JUMPDEST SWAP2 POP PUSH2 0x11D7 DUP3 PUSH2 0x1198 JUMP JUMPDEST PUSH1 0x20 DUP3 ADD SWAP1 POP SWAP2 SWAP1 POP JUMP JUMPDEST PUSH0 PUSH1 0x20 DUP3 ADD SWAP1 POP DUP2 DUP2 SUB PUSH0 DUP4 ADD MSTORE PUSH2 0x11F9 DUP2 PUSH2 0x11C0 JUMP JUMPDEST SWAP1 POP SWAP2 SWAP1 POP JUMP JUMPDEST PUSH0 PUSH10 0xFFFFFFFFFFFFFFFFFFFF DUP3 AND SWAP1 POP SWAP2 SWAP1 POP JUMP JUMPDEST PUSH2 0x121E DUP2 PUSH2 0x1200 JUMP JUMPDEST DUP2 EQ PUSH2 0x1228 JUMPI PUSH0 PUSH0 REVERT JUMPDEST POP JUMP JUMPDEST PUSH0 DUP2 MLOAD SWAP1 POP PUSH2 0x1239 DUP2 PUSH2 0x1215 JUMP JUMPDEST SWAP3 SWAP2 POP POP JUMP JUMPDEST PUSH2 0x1248 DUP2 PUSH2 0xF75 JUMP JUMPDEST DUP2 EQ PUSH2 0x1252 JUMPI PUSH0 PUSH0 REVERT JUMPDEST POP JUMP JUMPDEST PUSH0 DUP2 MLOAD SWAP1 POP PUSH2 0x1263 DUP2 PUSH2 0x123F JUMP JUMPDEST SWAP3 SWAP2 POP POP JUMP JUMPDEST PUSH0 DUP2 MLOAD SWAP1 POP PUSH2 0x1277 DUP2 PUSH2 0xFA6 JUMP JUMPDEST SWAP3 SWAP2 POP POP JUMP JUMPDEST PUSH0 PUSH0 PUSH0 PUSH0 PUSH0 PUSH1 0xA0 DUP7 DUP9 SUB SLT ISZERO PUSH2 0x1296 JUMPI PUSH2 0x1295 PUSH2 0xDE6 JUMP JUMPDEST JUMPDEST PUSH0 PUSH2 0x12A3 DUP9 DUP3 DUP10 ADD PUSH2 0x122B JUMP JUMPDEST SWAP6 POP POP PUSH1 0x20 PUSH2 0x12B4 DUP9 DUP3 DUP10 ADD PUSH2 0x1255 JUMP JUMPDEST SWAP5 POP POP PUSH1 0x40 PUSH2 0x12C5 DUP9 DUP3 DUP10 ADD PUSH2 0x1269 JUMP JUMPDEST SWAP4 POP POP PUSH1 0x60 PUSH2 0x12D6 DUP9 DUP3 DUP10 ADD PUSH2 0x1269 JUMP JUMPDEST SWAP3 POP POP PUSH1 0x80 PUSH2 0x12E7 DUP9 DUP3 DUP10 ADD PUSH2 0x122B JUMP JUMPDEST SWAP2 POP POP SWAP3 SWAP6 POP SWAP3 SWAP6 SWAP1 SWAP4 POP JUMP JUMPDEST PUSH32 0x4E616F20636F6E666967757261646F0000000000000000000000000000000000 PUSH0 DUP3 ADD MSTORE POP JUMP JUMPDEST PUSH0 PUSH2 0x1328 PUSH1 0xF DUP4 PUSH2 0x1039 JUMP JUMPDEST SWAP2 POP PUSH2 0x1333 DUP3 PUSH2 0x12F4 JUMP JUMPDEST PUSH1 0x20 DUP3 ADD SWAP1 POP SWAP2 SWAP1 POP JUMP JUMPDEST PUSH0 PUSH1 0x20 DUP3 ADD SWAP1 POP DUP2 DUP2 SUB PUSH0 DUP4 ADD MSTORE PUSH2 0x1355 DUP2 PUSH2 0x131C JUMP JUMPDEST SWAP1 POP SWAP2 SWAP1 POP JUMP JUMPDEST PUSH32 0x56616C6F7220696E76616C69646F000000000000000000000000000000000000 PUSH0 DUP3 ADD MSTORE POP JUMP JUMPDEST PUSH0 PUSH2 0x1390 PUSH1 0xE DUP4 PUSH2 0x1039 JUMP JUMPDEST SWAP2 POP PUSH2 0x139B DUP3 PUSH2 0x135C JUMP JUMPDEST PUSH1 0x20 DUP3 ADD SWAP1 POP SWAP2 SWAP1 POP JUMP JUMPDEST PUSH0 PUSH1 0x20 DUP3 ADD SWAP1 POP DUP2 DUP2 SUB PUSH0 DUP4 ADD MSTORE PUSH2 0x13BD DUP2 PUSH2 0x1384 JUMP JUMPDEST SWAP1 POP SWAP2 SWAP1 POP JUMP JUMPDEST PUSH0 PUSH1 0x60 DUP3 ADD SWAP1 POP PUSH2 0x13D7 PUSH0 DUP4 ADD DUP7 PUSH2 0xF4D JUMP JUMPDEST PUSH2 0x13E4 PUSH1 0x20 DUP4 ADD DUP6 PUSH2 0xF4D JUMP JUMPDEST PUSH2 0x13F1 PUSH1 0x40 DUP4 ADD DUP5 PUSH2 0xE78 JUMP JUMPDEST SWAP5 SWAP4 POP POP POP POP JUMP JUMPDEST PUSH32 0x4A6120636F6E666967757261646F000000000000000000000000000000000000 PUSH0 DUP3 ADD MSTORE POP JUMP JUMPDEST PUSH0 PUSH2 0x142D PUSH1 0xE DUP4 PUSH2 0x1039 JUMP JUMPDEST SWAP2 POP PUSH2 0x1438 DUP3 PUSH2 0x13F9 JUMP JUMPDEST PUSH1 0x20 DUP3 ADD SWAP1 POP SWAP2 SWAP1 POP JUMP JUMPDEST PUSH0 PUSH1 0x20 DUP3 ADD SWAP1 POP DUP2 DUP2 SUB PUSH0 DUP4 ADD MSTORE PUSH2 0x145A DUP2 PUSH2 0x1421 JUMP JUMPDEST SWAP1 POP SWAP2 SWAP1 POP JUMP JUMPDEST PUSH32 0x546F6B656E20696E76616C69646F000000000000000000000000000000000000 PUSH0 DUP3 ADD MSTORE POP JUMP JUMPDEST PUSH0 PUSH2 0x1495 PUSH1 0xE DUP4 PUSH2 0x1039 JUMP JUMPDEST SWAP2 POP PUSH2 0x14A0 DUP3 PUSH2 0x1461 JUMP JUMPDEST PUSH1 0x20 DUP3 ADD SWAP1 POP SWAP2 SWAP1 POP JUMP JUMPDEST PUSH0 PUSH1 0x20 DUP3 ADD SWAP1 POP DUP2 DUP2 SUB PUSH0 DUP4 ADD MSTORE PUSH2 0x14C2 DUP2 PUSH2 0x1489 JUMP JUMPDEST SWAP1 POP SWAP2 SWAP1 POP JUMP JUMPDEST PUSH32 0x50726963654665656420696E76616C69646F0000000000000000000000000000 PUSH0 DUP3 ADD MSTORE POP JUMP JUMPDEST PUSH0 PUSH2 0x14FD PUSH1 0x12 DUP4 PUSH2 0x1039 JUMP JUMPDEST SWAP2 POP PUSH2 0x1508 DUP3 PUSH2 0x14C9 JUMP JUMPDEST PUSH1 0x20 DUP3 ADD SWAP1 POP SWAP2 SWAP1 POP JUMP JUMPDEST PUSH0 PUSH1 0x20 DUP3 ADD SWAP1 POP DUP2 DUP2 SUB PUSH0 DUP4 ADD MSTORE PUSH2 0x152A DUP2 PUSH2 0x14F1 JUMP JUMPDEST SWAP1 POP SWAP2 SWAP1 POP JUMP JUMPDEST PUSH0 PUSH2 0x153B DUP3 PUSH2 0xE6F JUMP JUMPDEST SWAP2 POP PUSH2 0x1546 DUP4 PUSH2 0xE6F JUMP JUMPDEST SWAP3 POP DUP3 DUP3 SUB SWAP1 POP DUP2 DUP2 GT ISZERO PUSH2 0x155E JUMPI PUSH2 0x155D PUSH2 0x10B1 JUMP JUMPDEST JUMPDEST SWAP3 SWAP2 POP POP JUMP JUMPDEST PUSH32 0x4E487B7100000000000000000000000000000000000000000000000000000000 PUSH0 MSTORE PUSH1 0x12 PUSH1 0x4 MSTORE PUSH1 0x24 PUSH0 REVERT JUMPDEST PUSH0 PUSH2 0x159B DUP3 PUSH2 0xE6F JUMP JUMPDEST SWAP2 POP PUSH2 0x15A6 DUP4 PUSH2 0xE6F JUMP JUMPDEST SWAP3 POP DUP3 PUSH2 0x15B6 JUMPI PUSH2 0x15B5 PUSH2 0x1564 JUMP JUMPDEST JUMPDEST DUP3 DUP3 DIV SWAP1 POP SWAP3 SWAP2 POP POP JUMP JUMPDEST PUSH0 PUSH2 0x15CB DUP3 PUSH2 0xE6F JUMP JUMPDEST SWAP2 POP PUSH2 0x15D6 DUP4 PUSH2 0xE6F JUMP JUMPDEST SWAP3 POP DUP3 DUP3 MUL PUSH2 0x15E4 DUP2 PUSH2 0xE6F JUMP JUMPDEST SWAP2 POP DUP3 DUP3 DIV DUP5 EQ DUP4 ISZERO OR PUSH2 0x15FB JUMPI PUSH2 0x15FA PUSH2 0x10B1 JUMP JUMPDEST JUMPDEST POP SWAP3 SWAP2 POP POP JUMP INVALID LOG2 PUSH5 0x6970667358 0x22 SLT KECCAK256 MCOPY PUSH13 0x850BBA8DDCE7B2FBE658F4B478 MLOAD 0xA8 SHR RJUMP 0x3943 SWAP14 DUP7 0xB1 MCOPY JUMPI LT 0xAC 0xBB 0x4D PUSH8 0xBB64736F6C634300 ADDMOD 0x22 STOP CALLER "
				},
				"gasEstimates": {
					"creation": {
						"codeDepositCost": "1137600",
						"executionCost": "infinite",
						"totalCost": "infinite"
					},
					"external": {
						"calculateReward(address)": "infinite",
						"getLatestPrice()": "infinite",
						"owner()": "2537",
						"priceFeed()": "infinite",
						"renounceOwnership()": "infinite",
						"rewardRate()": "2514",
						"setConfig(address,address)": "infinite",
						"setRewardRate(uint256)": "infinite",
						"stake(uint256)": "infinite",
						"stakedBalance(address)": "2870",
						"stakingTime(address)": "2848",
						"stakingToken()": "infinite",
						"transferOwnership(address)": "infinite",
						"unstake()": "infinite"
					}
				},
				"methodIdentifiers": {
					"calculateReward(address)": "d82e3962",
					"getLatestPrice()": "8e15f473",
					"owner()": "8da5cb5b",
					"priceFeed()": "741bef1a",
					"renounceOwnership()": "715018a6",
					"rewardRate()": "7b0a47ee",
					"setConfig(address,address)": "b602024b",
					"setRewardRate(uint256)": "9e447fc6",
					"stake(uint256)": "a694fc3a",
					"stakedBalance(address)": "60217267",
					"stakingTime(address)": "583d42fd",
					"stakingToken()": "72f702f3",
					"transferOwnership(address)": "f2fde38b",
					"unstake()": "2def6620"
				}
			},
			"storageLayout": {
				"storage": [
					{
						"astId": 54,
						"contract": "contracts/Staking.sol:Staking",
						"label": "_owner",
						"offset": 0,
						"slot": "0",
						"type": "t_address"
					},
					{
						"astId": 551,
						"contract": "contracts/Staking.sol:Staking",
						"label": "stakingToken",
						"offset": 0,
						"slot": "1",
						"type": "t_contract(IERC20)271"
					},
					{
						"astId": 554,
						"contract": "contracts/Staking.sol:Staking",
						"label": "priceFeed",
						"offset": 0,
						"slot": "2",
						"type": "t_contract(AggregatorV3Interface)45"
					},
					{
						"astId": 558,
						"contract": "contracts/Staking.sol:Staking",
						"label": "stakedBalance",
						"offset": 0,
						"slot": "3",
						"type": "t_mapping(t_address,t_uint256)"
					},
					{
						"astId": 562,
						"contract": "contracts/Staking.sol:Staking",
						"label": "stakingTime",
						"offset": 0,
						"slot": "4",
						"type": "t_mapping(t_address,t_uint256)"
					},
					{
						"astId": 565,
						"contract": "contracts/Staking.sol:Staking",
						"label": "rewardRate",
						"offset": 0,
						"slot": "5",
						"type": "t_uint256"
					}
				],
				"types": {
					"t_address": {
						"encoding": "inplace",
						"label": "address",
						"numberOfBytes": "20"
					},
					"t_contract(AggregatorV3Interface)45": {
						"encoding": "inplace",
						"label": "contract AggregatorV3Interface",
						"numberOfBytes": "20"
					},
					"t_contract(IERC20)271": {
						"encoding": "inplace",
						"label": "contract IERC20",
						"numberOfBytes": "20"
					},
					"t_mapping(t_address,t_uint256)": {
						"encoding": "mapping",
						"key": "t_address",
						"label": "mapping(address => uint256)",
						"numberOfBytes": "32",
						"value": "t_uint256"
					},
					"t_uint256": {
						"encoding": "inplace",
						"label": "uint256",
						"numberOfBytes": "32"
					}
				}
			},
			"userdoc": {
				"kind": "user",
				"methods": {},
				"version": 1
			}
		}
	}
}