{
	"contracts/GovernanceDAO.sol": {
		"GovernanceDAO": {
			"abi": [
				{
					"inputs": [
						{
							"internalType": "address",
							"name": "_token",
							"type": "address"
						}
					],
					"stateMutability": "nonpayable",
					"type": "constructor"
				},
				{
					"inputs": [
						{
							"internalType": "string",
							"name": "_description",
							"type": "string"
						},
						{
							"internalType": "uint256",
							"name": "duration",
							"type": "uint256"
						}
					],
					"name": "createProposal",
					"outputs": [],
					"stateMutability": "nonpayable",
					"type": "function"
				},
				{
					"inputs": [
						{
							"internalType": "uint256",
							"name": "proposalId",
							"type": "uint256"
						}
					],
					"name": "executeProposal",
					"outputs": [],
					"stateMutability": "nonpayable",
					"type": "function"
				},
				{
					"inputs": [],
					"name": "getProposalsCount",
					"outputs": [
						{
							"internalType": "uint256",
							"name": "",
							"type": "uint256"
						}
					],
					"stateMutability": "view",
					"type": "function"
				},
				{
					"inputs": [],
					"name": "governanceToken",
					"outputs": [
						{
							"internalType": "contract IERC20",
							"name": "",
							"type": "address"
						}
					],
					"stateMutability": "view",
					"type": "function"
				},
				{
					"inputs": [
						{
							"internalType": "uint256",
							"name": "",
							"type": "uint256"
						},
						{
							"internalType": "address",
							"name": "",
							"type": "address"
						}
					],
					"name": "hasVoted",
					"outputs": [
						{
							"internalType": "bool",
							"name": "",
							"type": "bool"
						}
					],
					"stateMutability": "view",
					"type": "function"
				},
				{
					"inputs": [
						{
							"internalType": "uint256",
							"name": "",
							"type": "uint256"
						}
					],
					"name": "proposals",
					"outputs": [
						{
							"internalType": "string",
							"name": "description",
							"type": "string"
						},
						{
							"internalType": "uint256",
							"name": "voteCount",
							"type": "uint256"
						},
						{
							"internalType": "uint256",
							"name": "deadline",
							"type": "uint256"
						},
						{
							"internalType": "bool",
							"name": "executed",
							"type": "bool"
						}
					],
					"stateMutability": "view",
					"type": "function"
				},
				{
					"inputs": [
						{
							"internalType": "uint256",
							"name": "proposalId",
							"type": "uint256"
						}
					],
					"name": "vote",
					"outputs": [],
					"stateMutability": "nonpayable",
					"type": "function"
				}
			],
			"devdoc": {
				"kind": "dev",
				"methods": {},
				"version": 1
			},
			"evm": {
				"assembly": "    /* \"contracts/GovernanceDAO.sol\":121:1750  contract GovernanceDAO {... */\n  mstore(0x40, 0x80)\n    /* \"contracts/GovernanceDAO.sol\":434:513  constructor(address _token) {... */\n  callvalue\n  dup1\n  iszero\n  tag_1\n  jumpi\n  revert(0x00, 0x00)\ntag_1:\n  pop\n  mload(0x40)\n  sub(codesize, bytecodeSize)\n  dup1\n  bytecodeSize\n  dup4\n  codecopy\n  dup2\n  dup2\n  add\n  0x40\n  mstore\n  dup2\n  add\n  swap1\n  tag_2\n  swap2\n  swap1\n  tag_3\n  jump\t// in\ntag_2:\n    /* \"contracts/GovernanceDAO.sol\":498:504  _token */\n  dup1\n    /* \"contracts/GovernanceDAO.sol\":473:488  governanceToken */\n  0x00\n  0x00\n    /* \"contracts/GovernanceDAO.sol\":473:505  governanceToken = IERC20(_token) */\n  0x0100\n  exp\n  dup2\n  sload\n  dup2\n  0xffffffffffffffffffffffffffffffffffffffff\n  mul\n  not\n  and\n  swap1\n  dup4\n  0xffffffffffffffffffffffffffffffffffffffff\n  and\n  mul\n  or\n  swap1\n  sstore\n  pop\n    /* \"contracts/GovernanceDAO.sol\":434:513  constructor(address _token) {... */\n  pop\n    /* \"contracts/GovernanceDAO.sol\":121:1750  contract GovernanceDAO {... */\n  jump(tag_6)\n    /* \"#utility.yul\":88:205   */\ntag_8:\n    /* \"#utility.yul\":197:198   */\n  0x00\n    /* \"#utility.yul\":194:195   */\n  0x00\n    /* \"#utility.yul\":187:199   */\n  revert\n    /* \"#utility.yul\":334:460   */\ntag_10:\n    /* \"#utility.yul\":371:378   */\n  0x00\n    /* \"#utility.yul\":411:453   */\n  0xffffffffffffffffffffffffffffffffffffffff\n    /* \"#utility.yul\":404:409   */\n  dup3\n    /* \"#utility.yul\":400:454   */\n  and\n    /* \"#utility.yul\":389:454   */\n  swap1\n  pop\n    /* \"#utility.yul\":334:460   */\n  swap2\n  swap1\n  pop\n  jump\t// out\n    /* \"#utility.yul\":466:562   */\ntag_11:\n    /* \"#utility.yul\":503:510   */\n  0x00\n    /* \"#utility.yul\":532:556   */\n  tag_20\n    /* \"#utility.yul\":550:555   */\n  dup3\n    /* \"#utility.yul\":532:556   */\n  tag_10\n  jump\t// in\ntag_20:\n    /* \"#utility.yul\":521:556   */\n  swap1\n  pop\n    /* \"#utility.yul\":466:562   */\n  swap2\n  swap1\n  pop\n  jump\t// out\n    /* \"#utility.yul\":568:690   */\ntag_12:\n    /* \"#utility.yul\":641:665   */\n  tag_22\n    /* \"#utility.yul\":659:664   */\n  dup2\n    /* \"#utility.yul\":641:665   */\n  tag_11\n  jump\t// in\ntag_22:\n    /* \"#utility.yul\":634:639   */\n  dup2\n    /* \"#utility.yul\":631:666   */\n  eq\n    /* \"#utility.yul\":621:684   */\n  tag_23\n  jumpi\n    /* \"#utility.yul\":680:681   */\n  0x00\n    /* \"#utility.yul\":677:678   */\n  0x00\n    /* \"#utility.yul\":670:682   */\n  revert\n    /* \"#utility.yul\":621:684   */\ntag_23:\n    /* \"#utility.yul\":568:690   */\n  pop\n  jump\t// out\n    /* \"#utility.yul\":696:839   */\ntag_13:\n    /* \"#utility.yul\":753:758   */\n  0x00\n    /* \"#utility.yul\":784:790   */\n  dup2\n    /* \"#utility.yul\":778:791   */\n  mload\n    /* \"#utility.yul\":769:791   */\n  swap1\n  pop\n    /* \"#utility.yul\":800:833   */\n  tag_25\n    /* \"#utility.yul\":827:832   */\n  dup2\n    /* \"#utility.yul\":800:833   */\n  tag_12\n  jump\t// in\ntag_25:\n    /* \"#utility.yul\":696:839   */\n  swap3\n  swap2\n  pop\n  pop\n  jump\t// out\n    /* \"#utility.yul\":845:1196   */\ntag_3:\n    /* \"#utility.yul\":915:921   */\n  0x00\n    /* \"#utility.yul\":964:966   */\n  0x20\n    /* \"#utility.yul\":952:961   */\n  dup3\n    /* \"#utility.yul\":943:950   */\n  dup5\n    /* \"#utility.yul\":939:962   */\n  sub\n    /* \"#utility.yul\":935:967   */\n  slt\n    /* \"#utility.yul\":932:1051   */\n  iszero\n  tag_27\n  jumpi\n    /* \"#utility.yul\":970:1049   */\n  tag_28\n  tag_8\n  jump\t// in\ntag_28:\n    /* \"#utility.yul\":932:1051   */\ntag_27:\n    /* \"#utility.yul\":1090:1091   */\n  0x00\n    /* \"#utility.yul\":1115:1179   */\n  tag_29\n    /* \"#utility.yul\":1171:1178   */\n  dup5\n    /* \"#utility.yul\":1162:1168   */\n  dup3\n    /* \"#utility.yul\":1151:1160   */\n  dup6\n    /* \"#utility.yul\":1147:1169   */\n  add\n    /* \"#utility.yul\":1115:1179   */\n  tag_13\n  jump\t// in\ntag_29:\n    /* \"#utility.yul\":1105:1179   */\n  swap2\n  pop\n    /* \"#utility.yul\":1061:1189   */\n  pop\n    /* \"#utility.yul\":845:1196   */\n  swap3\n  swap2\n  pop\n  pop\n  jump\t// out\n    /* \"contracts/GovernanceDAO.sol\":121:1750  contract GovernanceDAO {... */\ntag_6:\n  dataSize(sub_0)\n  dup1\n  dataOffset(sub_0)\n  0x00\n  codecopy\n  0x00\n  return\nstop\n\nsub_0: assembly {\n        /* \"contracts/GovernanceDAO.sol\":121:1750  contract GovernanceDAO {... */\n      mstore(0x40, 0x80)\n      callvalue\n      dup1\n      iszero\n      tag_1\n      jumpi\n      revert(0x00, 0x00)\n    tag_1:\n      pop\n      jumpi(tag_2, lt(calldatasize, 0x04))\n      shr(0xe0, calldataload(0x00))\n      dup1\n      0x35facf78\n      gt\n      tag_10\n      jumpi\n      dup1\n      0x35facf78\n      eq\n      tag_6\n      jumpi\n      dup1\n      0x43859632\n      eq\n      tag_7\n      jumpi\n      dup1\n      0x98e527d3\n      eq\n      tag_8\n      jumpi\n      dup1\n      0xf96dae0a\n      eq\n      tag_9\n      jumpi\n      jump(tag_2)\n    tag_10:\n      dup1\n      0x0121b93f\n      eq\n      tag_3\n      jumpi\n      dup1\n      0x013cf08b\n      eq\n      tag_4\n      jumpi\n      dup1\n      0x0d61b519\n      eq\n      tag_5\n      jumpi\n    tag_2:\n      revert(0x00, 0x00)\n        /* \"contracts/GovernanceDAO.sol\":856:1334  function vote(uint256 proposalId) external {... */\n    tag_3:\n      tag_11\n      0x04\n      dup1\n      calldatasize\n      sub\n      dup2\n      add\n      swap1\n      tag_12\n      swap2\n      swap1\n      tag_13\n      jump\t// in\n    tag_12:\n      tag_14\n      jump\t// in\n    tag_11:\n      stop\n        /* \"contracts/GovernanceDAO.sol\":329:356  Proposal[] public proposals */\n    tag_4:\n      tag_15\n      0x04\n      dup1\n      calldatasize\n      sub\n      dup2\n      add\n      swap1\n      tag_16\n      swap2\n      swap1\n      tag_13\n      jump\t// in\n    tag_16:\n      tag_17\n      jump\t// in\n    tag_15:\n      mload(0x40)\n      tag_18\n      swap5\n      swap4\n      swap3\n      swap2\n      swap1\n      tag_19\n      jump\t// in\n    tag_18:\n      mload(0x40)\n      dup1\n      swap2\n      sub\n      swap1\n      return\n        /* \"contracts/GovernanceDAO.sol\":1342:1636  function executeProposal(uint256 proposalId) external {... */\n    tag_5:\n      tag_20\n      0x04\n      dup1\n      calldatasize\n      sub\n      dup2\n      add\n      swap1\n      tag_21\n      swap2\n      swap1\n      tag_13\n      jump\t// in\n    tag_21:\n      tag_22\n      jump\t// in\n    tag_20:\n      stop\n        /* \"contracts/GovernanceDAO.sol\":521:848  function createProposal(string memory _description, uint256 duration) external {... */\n    tag_6:\n      tag_23\n      0x04\n      dup1\n      calldatasize\n      sub\n      dup2\n      add\n      swap1\n      tag_24\n      swap2\n      swap1\n      tag_25\n      jump\t// in\n    tag_24:\n      tag_26\n      jump\t// in\n    tag_23:\n      stop\n        /* \"contracts/GovernanceDAO.sol\":365:425  mapping(uint256 => mapping(address => bool)) public hasVoted */\n    tag_7:\n      tag_27\n      0x04\n      dup1\n      calldatasize\n      sub\n      dup2\n      add\n      swap1\n      tag_28\n      swap2\n      swap1\n      tag_29\n      jump\t// in\n    tag_28:\n      tag_30\n      jump\t// in\n    tag_27:\n      mload(0x40)\n      tag_31\n      swap2\n      swap1\n      tag_32\n      jump\t// in\n    tag_31:\n      mload(0x40)\n      dup1\n      swap2\n      sub\n      swap1\n      return\n        /* \"contracts/GovernanceDAO.sol\":1644:1747  function getProposalsCount() external view returns (uint256) {... */\n    tag_8:\n      tag_33\n      tag_34\n      jump\t// in\n    tag_33:\n      mload(0x40)\n      tag_35\n      swap2\n      swap1\n      tag_36\n      jump\t// in\n    tag_35:\n      mload(0x40)\n      dup1\n      swap2\n      sub\n      swap1\n      return\n        /* \"contracts/GovernanceDAO.sol\":151:180  IERC20 public governanceToken */\n    tag_9:\n      tag_37\n      tag_38\n      jump\t// in\n    tag_37:\n      mload(0x40)\n      tag_39\n      swap2\n      swap1\n      tag_40\n      jump\t// in\n    tag_39:\n      mload(0x40)\n      dup1\n      swap2\n      sub\n      swap1\n      return\n        /* \"contracts/GovernanceDAO.sol\":856:1334  function vote(uint256 proposalId) external {... */\n    tag_14:\n        /* \"contracts/GovernanceDAO.sol\":910:935  Proposal storage proposal */\n      0x00\n        /* \"contracts/GovernanceDAO.sol\":938:947  proposals */\n      0x01\n        /* \"contracts/GovernanceDAO.sol\":948:958  proposalId */\n      dup3\n        /* \"contracts/GovernanceDAO.sol\":938:959  proposals[proposalId] */\n      dup2\n      sload\n      dup2\n      lt\n      tag_42\n      jumpi\n      tag_43\n      tag_44\n      jump\t// in\n    tag_43:\n    tag_42:\n      swap1\n      0x00\n      mstore\n      keccak256(0x00, 0x20)\n      swap1\n      0x04\n      mul\n      add\n        /* \"contracts/GovernanceDAO.sol\":910:959  Proposal storage proposal = proposals[proposalId] */\n      swap1\n      pop\n        /* \"contracts/GovernanceDAO.sol\":998:1006  proposal */\n      dup1\n        /* \"contracts/GovernanceDAO.sol\":998:1015  proposal.deadline */\n      0x02\n      add\n      sload\n        /* \"contracts/GovernanceDAO.sol\":980:995  block.timestamp */\n      timestamp\n        /* \"contracts/GovernanceDAO.sol\":980:1015  block.timestamp < proposal.deadline */\n      lt\n        /* \"contracts/GovernanceDAO.sol\":972:1037  require(block.timestamp < proposal.deadline, \"Votacao encerrada\") */\n      tag_46\n      jumpi\n      mload(0x40)\n      0x08c379a000000000000000000000000000000000000000000000000000000000\n      dup2\n      mstore\n      0x04\n      add\n      tag_47\n      swap1\n      tag_48\n      jump\t// in\n    tag_47:\n      mload(0x40)\n      dup1\n      swap2\n      sub\n      swap1\n      revert\n    tag_46:\n        /* \"contracts/GovernanceDAO.sol\":1057:1065  hasVoted */\n      0x02\n        /* \"contracts/GovernanceDAO.sol\":1057:1077  hasVoted[proposalId] */\n      0x00\n        /* \"contracts/GovernanceDAO.sol\":1066:1076  proposalId */\n      dup4\n        /* \"contracts/GovernanceDAO.sol\":1057:1077  hasVoted[proposalId] */\n      dup2\n      mstore\n      0x20\n      add\n      swap1\n      dup2\n      mstore\n      0x20\n      add\n      0x00\n      keccak256\n        /* \"contracts/GovernanceDAO.sol\":1057:1089  hasVoted[proposalId][msg.sender] */\n      0x00\n        /* \"contracts/GovernanceDAO.sol\":1078:1088  msg.sender */\n      caller\n        /* \"contracts/GovernanceDAO.sol\":1057:1089  hasVoted[proposalId][msg.sender] */\n      0xffffffffffffffffffffffffffffffffffffffff\n      and\n      0xffffffffffffffffffffffffffffffffffffffff\n      and\n      dup2\n      mstore\n      0x20\n      add\n      swap1\n      dup2\n      mstore\n      0x20\n      add\n      0x00\n      keccak256\n      0x00\n      swap1\n      sload\n      swap1\n      0x0100\n      exp\n      swap1\n      div\n      0xff\n      and\n        /* \"contracts/GovernanceDAO.sol\":1056:1089  !hasVoted[proposalId][msg.sender] */\n      iszero\n        /* \"contracts/GovernanceDAO.sol\":1048:1102  require(!hasVoted[proposalId][msg.sender], \"Ja votou\") */\n      tag_49\n      jumpi\n      mload(0x40)\n      0x08c379a000000000000000000000000000000000000000000000000000000000\n      dup2\n      mstore\n      0x04\n      add\n      tag_50\n      swap1\n      tag_51\n      jump\t// in\n    tag_50:\n      mload(0x40)\n      dup1\n      swap2\n      sub\n      swap1\n      revert\n    tag_49:\n        /* \"contracts/GovernanceDAO.sol\":1115:1134  uint256 votingPower */\n      0x00\n        /* \"contracts/GovernanceDAO.sol\":1137:1152  governanceToken */\n      0x00\n      0x00\n      swap1\n      sload\n      swap1\n      0x0100\n      exp\n      swap1\n      div\n      0xffffffffffffffffffffffffffffffffffffffff\n      and\n        /* \"contracts/GovernanceDAO.sol\":1137:1162  governanceToken.balanceOf */\n      0xffffffffffffffffffffffffffffffffffffffff\n      and\n      0x70a08231\n        /* \"contracts/GovernanceDAO.sol\":1163:1173  msg.sender */\n      caller\n        /* \"contracts/GovernanceDAO.sol\":1137:1174  governanceToken.balanceOf(msg.sender) */\n      mload(0x40)\n      dup3\n      0xffffffff\n      and\n      0xe0\n      shl\n      dup2\n      mstore\n      0x04\n      add\n      tag_52\n      swap2\n      swap1\n      tag_53\n      jump\t// in\n    tag_52:\n      0x20\n      mload(0x40)\n      dup1\n      dup4\n      sub\n      dup2\n      dup7\n      gas\n      staticcall\n      iszero\n      dup1\n      iszero\n      tag_55\n      jumpi\n      returndatacopy(0x00, 0x00, returndatasize)\n      revert(0x00, returndatasize)\n    tag_55:\n      pop\n      pop\n      pop\n      pop\n      mload(0x40)\n      returndatasize\n      not(0x1f)\n      0x1f\n      dup3\n      add\n      and\n      dup3\n      add\n      dup1\n      0x40\n      mstore\n      pop\n      dup2\n      add\n      swap1\n      tag_56\n      swap2\n      swap1\n      tag_57\n      jump\t// in\n    tag_56:\n        /* \"contracts/GovernanceDAO.sol\":1115:1174  uint256 votingPower = governanceToken.balanceOf(msg.sender) */\n      swap1\n      pop\n        /* \"contracts/GovernanceDAO.sol\":1207:1208  0 */\n      0x00\n        /* \"contracts/GovernanceDAO.sol\":1193:1204  votingPower */\n      dup2\n        /* \"contracts/GovernanceDAO.sol\":1193:1208  votingPower > 0 */\n      gt\n        /* \"contracts/GovernanceDAO.sol\":1185:1230  require(votingPower > 0, \"Sem poder de voto\") */\n      tag_58\n      jumpi\n      mload(0x40)\n      0x08c379a000000000000000000000000000000000000000000000000000000000\n      dup2\n      mstore\n      0x04\n      add\n      tag_59\n      swap1\n      tag_60\n      jump\t// in\n    tag_59:\n      mload(0x40)\n      dup1\n      swap2\n      sub\n      swap1\n      revert\n    tag_58:\n        /* \"contracts/GovernanceDAO.sol\":1265:1276  votingPower */\n      dup1\n        /* \"contracts/GovernanceDAO.sol\":1243:1251  proposal */\n      dup3\n        /* \"contracts/GovernanceDAO.sol\":1243:1261  proposal.voteCount */\n      0x01\n      add\n      0x00\n        /* \"contracts/GovernanceDAO.sol\":1243:1276  proposal.voteCount += votingPower */\n      dup3\n      dup3\n      sload\n      tag_61\n      swap2\n      swap1\n      tag_62\n      jump\t// in\n    tag_61:\n      swap3\n      pop\n      pop\n      dup2\n      swap1\n      sstore\n      pop\n        /* \"contracts/GovernanceDAO.sol\":1322:1326  true */\n      0x01\n        /* \"contracts/GovernanceDAO.sol\":1287:1295  hasVoted */\n      0x02\n        /* \"contracts/GovernanceDAO.sol\":1287:1307  hasVoted[proposalId] */\n      0x00\n        /* \"contracts/GovernanceDAO.sol\":1296:1306  proposalId */\n      dup6\n        /* \"contracts/GovernanceDAO.sol\":1287:1307  hasVoted[proposalId] */\n      dup2\n      mstore\n      0x20\n      add\n      swap1\n      dup2\n      mstore\n      0x20\n      add\n      0x00\n      keccak256\n        /* \"contracts/GovernanceDAO.sol\":1287:1319  hasVoted[proposalId][msg.sender] */\n      0x00\n        /* \"contracts/GovernanceDAO.sol\":1308:1318  msg.sender */\n      caller\n        /* \"contracts/GovernanceDAO.sol\":1287:1319  hasVoted[proposalId][msg.sender] */\n      0xffffffffffffffffffffffffffffffffffffffff\n      and\n      0xffffffffffffffffffffffffffffffffffffffff\n      and\n      dup2\n      mstore\n      0x20\n      add\n      swap1\n      dup2\n      mstore\n      0x20\n      add\n      0x00\n      keccak256\n      0x00\n        /* \"contracts/GovernanceDAO.sol\":1287:1326  hasVoted[proposalId][msg.sender] = true */\n      0x0100\n      exp\n      dup2\n      sload\n      dup2\n      0xff\n      mul\n      not\n      and\n      swap1\n      dup4\n      iszero\n      iszero\n      mul\n      or\n      swap1\n      sstore\n      pop\n        /* \"contracts/GovernanceDAO.sol\":899:1334  {... */\n      pop\n      pop\n        /* \"contracts/GovernanceDAO.sol\":856:1334  function vote(uint256 proposalId) external {... */\n      pop\n      jump\t// out\n        /* \"contracts/GovernanceDAO.sol\":329:356  Proposal[] public proposals */\n    tag_17:\n      0x01\n      dup2\n      dup2\n      sload\n      dup2\n      lt\n      tag_63\n      jumpi\n      0x00\n      dup1\n      revert\n    tag_63:\n      swap1\n      0x00\n      mstore\n      keccak256(0x00, 0x20)\n      swap1\n      0x04\n      mul\n      add\n      0x00\n      swap2\n      pop\n      swap1\n      pop\n      dup1\n      0x00\n      add\n      dup1\n      sload\n      tag_65\n      swap1\n      tag_66\n      jump\t// in\n    tag_65:\n      dup1\n      0x1f\n      add\n      0x20\n      dup1\n      swap2\n      div\n      mul\n      0x20\n      add\n      mload(0x40)\n      swap1\n      dup2\n      add\n      0x40\n      mstore\n      dup1\n      swap3\n      swap2\n      swap1\n      dup2\n      dup2\n      mstore\n      0x20\n      add\n      dup3\n      dup1\n      sload\n      tag_67\n      swap1\n      tag_66\n      jump\t// in\n    tag_67:\n      dup1\n      iszero\n      tag_68\n      jumpi\n      dup1\n      0x1f\n      lt\n      tag_69\n      jumpi\n      0x0100\n      dup1\n      dup4\n      sload\n      div\n      mul\n      dup4\n      mstore\n      swap2\n      0x20\n      add\n      swap2\n      jump(tag_68)\n    tag_69:\n      dup3\n      add\n      swap2\n      swap1\n      0x00\n      mstore\n      keccak256(0x00, 0x20)\n      swap1\n    tag_70:\n      dup2\n      sload\n      dup2\n      mstore\n      swap1\n      0x01\n      add\n      swap1\n      0x20\n      add\n      dup1\n      dup4\n      gt\n      tag_70\n      jumpi\n      dup3\n      swap1\n      sub\n      0x1f\n      and\n      dup3\n      add\n      swap2\n    tag_68:\n      pop\n      pop\n      pop\n      pop\n      pop\n      swap1\n      dup1\n      0x01\n      add\n      sload\n      swap1\n      dup1\n      0x02\n      add\n      sload\n      swap1\n      dup1\n      0x03\n      add\n      0x00\n      swap1\n      sload\n      swap1\n      0x0100\n      exp\n      swap1\n      div\n      0xff\n      and\n      swap1\n      pop\n      dup5\n      jump\t// out\n        /* \"contracts/GovernanceDAO.sol\":1342:1636  function executeProposal(uint256 proposalId) external {... */\n    tag_22:\n        /* \"contracts/GovernanceDAO.sol\":1407:1432  Proposal storage proposal */\n      0x00\n        /* \"contracts/GovernanceDAO.sol\":1435:1444  proposals */\n      0x01\n        /* \"contracts/GovernanceDAO.sol\":1445:1455  proposalId */\n      dup3\n        /* \"contracts/GovernanceDAO.sol\":1435:1456  proposals[proposalId] */\n      dup2\n      sload\n      dup2\n      lt\n      tag_72\n      jumpi\n      tag_73\n      tag_44\n      jump\t// in\n    tag_73:\n    tag_72:\n      swap1\n      0x00\n      mstore\n      keccak256(0x00, 0x20)\n      swap1\n      0x04\n      mul\n      add\n        /* \"contracts/GovernanceDAO.sol\":1407:1456  Proposal storage proposal = proposals[proposalId] */\n      swap1\n      pop\n        /* \"contracts/GovernanceDAO.sol\":1496:1504  proposal */\n      dup1\n        /* \"contracts/GovernanceDAO.sol\":1496:1513  proposal.deadline */\n      0x02\n      add\n      sload\n        /* \"contracts/GovernanceDAO.sol\":1477:1492  block.timestamp */\n      timestamp\n        /* \"contracts/GovernanceDAO.sol\":1477:1513  block.timestamp >= proposal.deadline */\n      lt\n      iszero\n        /* \"contracts/GovernanceDAO.sol\":1469:1537  require(block.timestamp >= proposal.deadline, \"Votacao ainda ativa\") */\n      tag_75\n      jumpi\n      mload(0x40)\n      0x08c379a000000000000000000000000000000000000000000000000000000000\n      dup2\n      mstore\n      0x04\n      add\n      tag_76\n      swap1\n      tag_77\n      jump\t// in\n    tag_76:\n      mload(0x40)\n      dup1\n      swap2\n      sub\n      swap1\n      revert\n    tag_75:\n        /* \"contracts/GovernanceDAO.sol\":1557:1565  proposal */\n      dup1\n        /* \"contracts/GovernanceDAO.sol\":1557:1574  proposal.executed */\n      0x03\n      add\n      0x00\n      swap1\n      sload\n      swap1\n      0x0100\n      exp\n      swap1\n      div\n      0xff\n      and\n        /* \"contracts/GovernanceDAO.sol\":1556:1574  !proposal.executed */\n      iszero\n        /* \"contracts/GovernanceDAO.sol\":1548:1591  require(!proposal.executed, \"Ja executada\") */\n      tag_78\n      jumpi\n      mload(0x40)\n      0x08c379a000000000000000000000000000000000000000000000000000000000\n      dup2\n      mstore\n      0x04\n      add\n      tag_79\n      swap1\n      tag_80\n      jump\t// in\n    tag_79:\n      mload(0x40)\n      dup1\n      swap2\n      sub\n      swap1\n      revert\n    tag_78:\n        /* \"contracts/GovernanceDAO.sol\":1624:1628  true */\n      0x01\n        /* \"contracts/GovernanceDAO.sol\":1604:1612  proposal */\n      dup2\n        /* \"contracts/GovernanceDAO.sol\":1604:1621  proposal.executed */\n      0x03\n      add\n      0x00\n        /* \"contracts/GovernanceDAO.sol\":1604:1628  proposal.executed = true */\n      0x0100\n      exp\n      dup2\n      sload\n      dup2\n      0xff\n      mul\n      not\n      and\n      swap1\n      dup4\n      iszero\n      iszero\n      mul\n      or\n      swap1\n      sstore\n      pop\n        /* \"contracts/GovernanceDAO.sol\":1396:1636  {... */\n      pop\n        /* \"contracts/GovernanceDAO.sol\":1342:1636  function executeProposal(uint256 proposalId) external {... */\n      pop\n      jump\t// out\n        /* \"contracts/GovernanceDAO.sol\":521:848  function createProposal(string memory _description, uint256 duration) external {... */\n    tag_26:\n        /* \"contracts/GovernanceDAO.sol\":611:620  proposals */\n      0x01\n        /* \"contracts/GovernanceDAO.sol\":640:829  Proposal({... */\n      mload(0x40)\n      dup1\n      0x80\n      add\n      0x40\n      mstore\n      dup1\n        /* \"contracts/GovernanceDAO.sol\":681:693  _description */\n      dup5\n        /* \"contracts/GovernanceDAO.sol\":640:829  Proposal({... */\n      dup2\n      mstore\n      0x20\n      add\n        /* \"contracts/GovernanceDAO.sol\":723:724  0 */\n      0x00\n        /* \"contracts/GovernanceDAO.sol\":640:829  Proposal({... */\n      dup2\n      mstore\n      0x20\n      add\n        /* \"contracts/GovernanceDAO.sol\":771:779  duration */\n      dup4\n        /* \"contracts/GovernanceDAO.sol\":753:768  block.timestamp */\n      timestamp\n        /* \"contracts/GovernanceDAO.sol\":753:779  block.timestamp + duration */\n      tag_82\n      swap2\n      swap1\n      tag_62\n      jump\t// in\n    tag_82:\n        /* \"contracts/GovernanceDAO.sol\":640:829  Proposal({... */\n      dup2\n      mstore\n      0x20\n      add\n        /* \"contracts/GovernanceDAO.sol\":808:813  false */\n      0x00\n        /* \"contracts/GovernanceDAO.sol\":640:829  Proposal({... */\n      iszero\n      iszero\n      dup2\n      mstore\n      pop\n        /* \"contracts/GovernanceDAO.sol\":611:840  proposals.push(... */\n      swap1\n      dup1\n      0x01\n      dup2\n      sload\n      add\n      dup1\n      dup3\n      sstore\n      dup1\n      swap2\n      pop\n      pop\n      0x01\n      swap1\n      sub\n      swap1\n      0x00\n      mstore\n      keccak256(0x00, 0x20)\n      swap1\n      0x04\n      mul\n      add\n      0x00\n      swap1\n      swap2\n      swap1\n      swap2\n      swap1\n      swap2\n      pop\n      0x00\n      dup3\n      add\n      mload\n      dup2\n      0x00\n      add\n      swap1\n      dup2\n      tag_84\n      swap2\n      swap1\n      tag_85\n      jump\t// in\n    tag_84:\n      pop\n      0x20\n      dup3\n      add\n      mload\n      dup2\n      0x01\n      add\n      sstore\n      0x40\n      dup3\n      add\n      mload\n      dup2\n      0x02\n      add\n      sstore\n      0x60\n      dup3\n      add\n      mload\n      dup2\n      0x03\n      add\n      exp(0x0100, 0x00)\n      dup2\n      sload\n      dup2\n      0xff\n      mul\n      not\n      and\n      swap1\n      dup4\n      iszero\n      iszero\n      mul\n      or\n      swap1\n      sstore\n      pop\n      pop\n      pop\n        /* \"contracts/GovernanceDAO.sol\":521:848  function createProposal(string memory _description, uint256 duration) external {... */\n      pop\n      pop\n      jump\t// out\n        /* \"contracts/GovernanceDAO.sol\":365:425  mapping(uint256 => mapping(address => bool)) public hasVoted */\n    tag_30:\n      mstore(0x20, 0x02)\n      dup2\n      0x00\n      mstore\n      mstore(0x20, keccak256(0x00, 0x40))\n      dup1\n      0x00\n      mstore\n      keccak256(0x00, 0x40)\n      0x00\n      swap2\n      pop\n      swap2\n      pop\n      swap1\n      sload\n      swap1\n      0x0100\n      exp\n      swap1\n      div\n      0xff\n      and\n      dup2\n      jump\t// out\n        /* \"contracts/GovernanceDAO.sol\":1644:1747  function getProposalsCount() external view returns (uint256) {... */\n    tag_34:\n        /* \"contracts/GovernanceDAO.sol\":1696:1703  uint256 */\n      0x00\n        /* \"contracts/GovernanceDAO.sol\":1723:1732  proposals */\n      0x01\n        /* \"contracts/GovernanceDAO.sol\":1723:1739  proposals.length */\n      dup1\n      sload\n      swap1\n      pop\n        /* \"contracts/GovernanceDAO.sol\":1716:1739  return proposals.length */\n      swap1\n      pop\n        /* \"contracts/GovernanceDAO.sol\":1644:1747  function getProposalsCount() external view returns (uint256) {... */\n      swap1\n      jump\t// out\n        /* \"contracts/GovernanceDAO.sol\":151:180  IERC20 public governanceToken */\n    tag_38:\n      0x00\n      0x00\n      swap1\n      sload\n      swap1\n      0x0100\n      exp\n      swap1\n      div\n      0xffffffffffffffffffffffffffffffffffffffff\n      and\n      dup2\n      jump\t// out\n        /* \"#utility.yul\":7:82   */\n    tag_87:\n        /* \"#utility.yul\":40:46   */\n      0x00\n        /* \"#utility.yul\":73:75   */\n      0x40\n        /* \"#utility.yul\":67:76   */\n      mload\n        /* \"#utility.yul\":57:76   */\n      swap1\n      pop\n        /* \"#utility.yul\":7:82   */\n      swap1\n      jump\t// out\n        /* \"#utility.yul\":88:205   */\n    tag_88:\n        /* \"#utility.yul\":197:198   */\n      0x00\n        /* \"#utility.yul\":194:195   */\n      0x00\n        /* \"#utility.yul\":187:199   */\n      revert\n        /* \"#utility.yul\":211:328   */\n    tag_89:\n        /* \"#utility.yul\":320:321   */\n      0x00\n        /* \"#utility.yul\":317:318   */\n      0x00\n        /* \"#utility.yul\":310:322   */\n      revert\n        /* \"#utility.yul\":334:411   */\n    tag_90:\n        /* \"#utility.yul\":371:378   */\n      0x00\n        /* \"#utility.yul\":400:405   */\n      dup2\n        /* \"#utility.yul\":389:405   */\n      swap1\n      pop\n        /* \"#utility.yul\":334:411   */\n      swap2\n      swap1\n      pop\n      jump\t// out\n        /* \"#utility.yul\":417:539   */\n    tag_91:\n        /* \"#utility.yul\":490:514   */\n      tag_153\n        /* \"#utility.yul\":508:513   */\n      dup2\n        /* \"#utility.yul\":490:514   */\n      tag_90\n      jump\t// in\n    tag_153:\n        /* \"#utility.yul\":483:488   */\n      dup2\n        /* \"#utility.yul\":480:515   */\n      eq\n        /* \"#utility.yul\":470:533   */\n      tag_154\n      jumpi\n        /* \"#utility.yul\":529:530   */\n      0x00\n        /* \"#utility.yul\":526:527   */\n      0x00\n        /* \"#utility.yul\":519:531   */\n      revert\n        /* \"#utility.yul\":470:533   */\n    tag_154:\n        /* \"#utility.yul\":417:539   */\n      pop\n      jump\t// out\n        /* \"#utility.yul\":545:684   */\n    tag_92:\n        /* \"#utility.yul\":591:596   */\n      0x00\n        /* \"#utility.yul\":629:635   */\n      dup2\n        /* \"#utility.yul\":616:636   */\n      calldataload\n        /* \"#utility.yul\":607:636   */\n      swap1\n      pop\n        /* \"#utility.yul\":645:678   */\n      tag_156\n        /* \"#utility.yul\":672:677   */\n      dup2\n        /* \"#utility.yul\":645:678   */\n      tag_91\n      jump\t// in\n    tag_156:\n        /* \"#utility.yul\":545:684   */\n      swap3\n      swap2\n      pop\n      pop\n      jump\t// out\n        /* \"#utility.yul\":690:1019   */\n    tag_13:\n        /* \"#utility.yul\":749:755   */\n      0x00\n        /* \"#utility.yul\":798:800   */\n      0x20\n        /* \"#utility.yul\":786:795   */\n      dup3\n        /* \"#utility.yul\":777:784   */\n      dup5\n        /* \"#utility.yul\":773:796   */\n      sub\n        /* \"#utility.yul\":769:801   */\n      slt\n        /* \"#utility.yul\":766:885   */\n      iszero\n      tag_158\n      jumpi\n        /* \"#utility.yul\":804:883   */\n      tag_159\n      tag_88\n      jump\t// in\n    tag_159:\n        /* \"#utility.yul\":766:885   */\n    tag_158:\n        /* \"#utility.yul\":924:925   */\n      0x00\n        /* \"#utility.yul\":949:1002   */\n      tag_160\n        /* \"#utility.yul\":994:1001   */\n      dup5\n        /* \"#utility.yul\":985:991   */\n      dup3\n        /* \"#utility.yul\":974:983   */\n      dup6\n        /* \"#utility.yul\":970:992   */\n      add\n        /* \"#utility.yul\":949:1002   */\n      tag_92\n      jump\t// in\n    tag_160:\n        /* \"#utility.yul\":939:1002   */\n      swap2\n      pop\n        /* \"#utility.yul\":895:1012   */\n      pop\n        /* \"#utility.yul\":690:1019   */\n      swap3\n      swap2\n      pop\n      pop\n      jump\t// out\n        /* \"#utility.yul\":1025:1124   */\n    tag_93:\n        /* \"#utility.yul\":1077:1083   */\n      0x00\n        /* \"#utility.yul\":1111:1116   */\n      dup2\n        /* \"#utility.yul\":1105:1117   */\n      mload\n        /* \"#utility.yul\":1095:1117   */\n      swap1\n      pop\n        /* \"#utility.yul\":1025:1124   */\n      swap2\n      swap1\n      pop\n      jump\t// out\n        /* \"#utility.yul\":1130:1299   */\n    tag_94:\n        /* \"#utility.yul\":1214:1225   */\n      0x00\n        /* \"#utility.yul\":1248:1254   */\n      dup3\n        /* \"#utility.yul\":1243:1246   */\n      dup3\n        /* \"#utility.yul\":1236:1255   */\n      mstore\n        /* \"#utility.yul\":1288:1292   */\n      0x20\n        /* \"#utility.yul\":1283:1286   */\n      dup3\n        /* \"#utility.yul\":1279:1293   */\n      add\n        /* \"#utility.yul\":1264:1293   */\n      swap1\n      pop\n        /* \"#utility.yul\":1130:1299   */\n      swap3\n      swap2\n      pop\n      pop\n      jump\t// out\n        /* \"#utility.yul\":1305:1444   */\n    tag_95:\n        /* \"#utility.yul\":1394:1400   */\n      dup3\n        /* \"#utility.yul\":1389:1392   */\n      dup2\n        /* \"#utility.yul\":1384:1387   */\n      dup4\n        /* \"#utility.yul\":1378:1401   */\n      mcopy\n        /* \"#utility.yul\":1435:1436   */\n      0x00\n        /* \"#utility.yul\":1426:1432   */\n      dup4\n        /* \"#utility.yul\":1421:1424   */\n      dup4\n        /* \"#utility.yul\":1417:1433   */\n      add\n        /* \"#utility.yul\":1410:1437   */\n      mstore\n        /* \"#utility.yul\":1305:1444   */\n      pop\n      pop\n      pop\n      jump\t// out\n        /* \"#utility.yul\":1450:1552   */\n    tag_96:\n        /* \"#utility.yul\":1491:1497   */\n      0x00\n        /* \"#utility.yul\":1542:1544   */\n      0x1f\n        /* \"#utility.yul\":1538:1545   */\n      not\n        /* \"#utility.yul\":1533:1535   */\n      0x1f\n        /* \"#utility.yul\":1526:1531   */\n      dup4\n        /* \"#utility.yul\":1522:1536   */\n      add\n        /* \"#utility.yul\":1518:1546   */\n      and\n        /* \"#utility.yul\":1508:1546   */\n      swap1\n      pop\n        /* \"#utility.yul\":1450:1552   */\n      swap2\n      swap1\n      pop\n      jump\t// out\n        /* \"#utility.yul\":1558:1935   */\n    tag_97:\n        /* \"#utility.yul\":1646:1649   */\n      0x00\n        /* \"#utility.yul\":1674:1713   */\n      tag_166\n        /* \"#utility.yul\":1707:1712   */\n      dup3\n        /* \"#utility.yul\":1674:1713   */\n      tag_93\n      jump\t// in\n    tag_166:\n        /* \"#utility.yul\":1729:1800   */\n      tag_167\n        /* \"#utility.yul\":1793:1799   */\n      dup2\n        /* \"#utility.yul\":1788:1791   */\n      dup6\n        /* \"#utility.yul\":1729:1800   */\n      tag_94\n      jump\t// in\n    tag_167:\n        /* \"#utility.yul\":1722:1800   */\n      swap4\n      pop\n        /* \"#utility.yul\":1809:1874   */\n      tag_168\n        /* \"#utility.yul\":1867:1873   */\n      dup2\n        /* \"#utility.yul\":1862:1865   */\n      dup6\n        /* \"#utility.yul\":1855:1859   */\n      0x20\n        /* \"#utility.yul\":1848:1853   */\n      dup7\n        /* \"#utility.yul\":1844:1860   */\n      add\n        /* \"#utility.yul\":1809:1874   */\n      tag_95\n      jump\t// in\n    tag_168:\n        /* \"#utility.yul\":1899:1928   */\n      tag_169\n        /* \"#utility.yul\":1921:1927   */\n      dup2\n        /* \"#utility.yul\":1899:1928   */\n      tag_96\n      jump\t// in\n    tag_169:\n        /* \"#utility.yul\":1894:1897   */\n      dup5\n        /* \"#utility.yul\":1890:1929   */\n      add\n        /* \"#utility.yul\":1883:1929   */\n      swap2\n      pop\n        /* \"#utility.yul\":1650:1935   */\n      pop\n        /* \"#utility.yul\":1558:1935   */\n      swap3\n      swap2\n      pop\n      pop\n      jump\t// out\n        /* \"#utility.yul\":1941:2059   */\n    tag_98:\n        /* \"#utility.yul\":2028:2052   */\n      tag_171\n        /* \"#utility.yul\":2046:2051   */\n      dup2\n        /* \"#utility.yul\":2028:2052   */\n      tag_90\n      jump\t// in\n    tag_171:\n        /* \"#utility.yul\":2023:2026   */\n      dup3\n        /* \"#utility.yul\":2016:2053   */\n      mstore\n        /* \"#utility.yul\":1941:2059   */\n      pop\n      pop\n      jump\t// out\n        /* \"#utility.yul\":2065:2155   */\n    tag_99:\n        /* \"#utility.yul\":2099:2106   */\n      0x00\n        /* \"#utility.yul\":2142:2147   */\n      dup2\n        /* \"#utility.yul\":2135:2148   */\n      iszero\n        /* \"#utility.yul\":2128:2149   */\n      iszero\n        /* \"#utility.yul\":2117:2149   */\n      swap1\n      pop\n        /* \"#utility.yul\":2065:2155   */\n      swap2\n      swap1\n      pop\n      jump\t// out\n        /* \"#utility.yul\":2161:2270   */\n    tag_100:\n        /* \"#utility.yul\":2242:2263   */\n      tag_174\n        /* \"#utility.yul\":2257:2262   */\n      dup2\n        /* \"#utility.yul\":2242:2263   */\n      tag_99\n      jump\t// in\n    tag_174:\n        /* \"#utility.yul\":2237:2240   */\n      dup3\n        /* \"#utility.yul\":2230:2264   */\n      mstore\n        /* \"#utility.yul\":2161:2270   */\n      pop\n      pop\n      jump\t// out\n        /* \"#utility.yul\":2276:2908   */\n    tag_19:\n        /* \"#utility.yul\":2467:2471   */\n      0x00\n        /* \"#utility.yul\":2505:2508   */\n      0x80\n        /* \"#utility.yul\":2494:2503   */\n      dup3\n        /* \"#utility.yul\":2490:2509   */\n      add\n        /* \"#utility.yul\":2482:2509   */\n      swap1\n      pop\n        /* \"#utility.yul\":2555:2564   */\n      dup2\n        /* \"#utility.yul\":2549:2553   */\n      dup2\n        /* \"#utility.yul\":2545:2565   */\n      sub\n        /* \"#utility.yul\":2541:2542   */\n      0x00\n        /* \"#utility.yul\":2530:2539   */\n      dup4\n        /* \"#utility.yul\":2526:2543   */\n      add\n        /* \"#utility.yul\":2519:2566   */\n      mstore\n        /* \"#utility.yul\":2583:2661   */\n      tag_176\n        /* \"#utility.yul\":2656:2660   */\n      dup2\n        /* \"#utility.yul\":2647:2653   */\n      dup8\n        /* \"#utility.yul\":2583:2661   */\n      tag_97\n      jump\t// in\n    tag_176:\n        /* \"#utility.yul\":2575:2661   */\n      swap1\n      pop\n        /* \"#utility.yul\":2671:2743   */\n      tag_177\n        /* \"#utility.yul\":2739:2741   */\n      0x20\n        /* \"#utility.yul\":2728:2737   */\n      dup4\n        /* \"#utility.yul\":2724:2742   */\n      add\n        /* \"#utility.yul\":2715:2721   */\n      dup7\n        /* \"#utility.yul\":2671:2743   */\n      tag_98\n      jump\t// in\n    tag_177:\n        /* \"#utility.yul\":2753:2825   */\n      tag_178\n        /* \"#utility.yul\":2821:2823   */\n      0x40\n        /* \"#utility.yul\":2810:2819   */\n      dup4\n        /* \"#utility.yul\":2806:2824   */\n      add\n        /* \"#utility.yul\":2797:2803   */\n      dup6\n        /* \"#utility.yul\":2753:2825   */\n      tag_98\n      jump\t// in\n    tag_178:\n        /* \"#utility.yul\":2835:2901   */\n      tag_179\n        /* \"#utility.yul\":2897:2899   */\n      0x60\n        /* \"#utility.yul\":2886:2895   */\n      dup4\n        /* \"#utility.yul\":2882:2900   */\n      add\n        /* \"#utility.yul\":2873:2879   */\n      dup5\n        /* \"#utility.yul\":2835:2901   */\n      tag_100\n      jump\t// in\n    tag_179:\n        /* \"#utility.yul\":2276:2908   */\n      swap6\n      swap5\n      pop\n      pop\n      pop\n      pop\n      pop\n      jump\t// out\n        /* \"#utility.yul\":2914:3031   */\n    tag_101:\n        /* \"#utility.yul\":3023:3024   */\n      0x00\n        /* \"#utility.yul\":3020:3021   */\n      0x00\n        /* \"#utility.yul\":3013:3025   */\n      revert\n        /* \"#utility.yul\":3037:3154   */\n    tag_102:\n        /* \"#utility.yul\":3146:3147   */\n      0x00\n        /* \"#utility.yul\":3143:3144   */\n      0x00\n        /* \"#utility.yul\":3136:3148   */\n      revert\n        /* \"#utility.yul\":3160:3340   */\n    tag_103:\n        /* \"#utility.yul\":3208:3285   */\n      0x4e487b7100000000000000000000000000000000000000000000000000000000\n        /* \"#utility.yul\":3205:3206   */\n      0x00\n        /* \"#utility.yul\":3198:3286   */\n      mstore\n        /* \"#utility.yul\":3305:3309   */\n      0x41\n        /* \"#utility.yul\":3302:3303   */\n      0x04\n        /* \"#utility.yul\":3295:3310   */\n      mstore\n        /* \"#utility.yul\":3329:3333   */\n      0x24\n        /* \"#utility.yul\":3326:3327   */\n      0x00\n        /* \"#utility.yul\":3319:3334   */\n      revert\n        /* \"#utility.yul\":3346:3627   */\n    tag_104:\n        /* \"#utility.yul\":3429:3456   */\n      tag_184\n        /* \"#utility.yul\":3451:3455   */\n      dup3\n        /* \"#utility.yul\":3429:3456   */\n      tag_96\n      jump\t// in\n    tag_184:\n        /* \"#utility.yul\":3421:3427   */\n      dup2\n        /* \"#utility.yul\":3417:3457   */\n      add\n        /* \"#utility.yul\":3559:3565   */\n      dup2\n        /* \"#utility.yul\":3547:3557   */\n      dup2\n        /* \"#utility.yul\":3544:3566   */\n      lt\n        /* \"#utility.yul\":3523:3541   */\n      0xffffffffffffffff\n        /* \"#utility.yul\":3511:3521   */\n      dup3\n        /* \"#utility.yul\":3508:3542   */\n      gt\n        /* \"#utility.yul\":3505:3567   */\n      or\n        /* \"#utility.yul\":3502:3590   */\n      iszero\n      tag_185\n      jumpi\n        /* \"#utility.yul\":3570:3588   */\n      tag_186\n      tag_103\n      jump\t// in\n    tag_186:\n        /* \"#utility.yul\":3502:3590   */\n    tag_185:\n        /* \"#utility.yul\":3610:3620   */\n      dup1\n        /* \"#utility.yul\":3606:3608   */\n      0x40\n        /* \"#utility.yul\":3599:3621   */\n      mstore\n        /* \"#utility.yul\":3389:3627   */\n      pop\n        /* \"#utility.yul\":3346:3627   */\n      pop\n      pop\n      jump\t// out\n        /* \"#utility.yul\":3633:3762   */\n    tag_105:\n        /* \"#utility.yul\":3667:3673   */\n      0x00\n        /* \"#utility.yul\":3694:3714   */\n      tag_188\n      tag_87\n      jump\t// in\n    tag_188:\n        /* \"#utility.yul\":3684:3714   */\n      swap1\n      pop\n        /* \"#utility.yul\":3723:3756   */\n      tag_189\n        /* \"#utility.yul\":3751:3755   */\n      dup3\n        /* \"#utility.yul\":3743:3749   */\n      dup3\n        /* \"#utility.yul\":3723:3756   */\n      tag_104\n      jump\t// in\n    tag_189:\n        /* \"#utility.yul\":3633:3762   */\n      swap2\n      swap1\n      pop\n      jump\t// out\n        /* \"#utility.yul\":3768:4076   */\n    tag_106:\n        /* \"#utility.yul\":3830:3834   */\n      0x00\n        /* \"#utility.yul\":3920:3938   */\n      0xffffffffffffffff\n        /* \"#utility.yul\":3912:3918   */\n      dup3\n        /* \"#utility.yul\":3909:3939   */\n      gt\n        /* \"#utility.yul\":3906:3962   */\n      iszero\n      tag_191\n      jumpi\n        /* \"#utility.yul\":3942:3960   */\n      tag_192\n      tag_103\n      jump\t// in\n    tag_192:\n        /* \"#utility.yul\":3906:3962   */\n    tag_191:\n        /* \"#utility.yul\":3980:4009   */\n      tag_193\n        /* \"#utility.yul\":4002:4008   */\n      dup3\n        /* \"#utility.yul\":3980:4009   */\n      tag_96\n      jump\t// in\n    tag_193:\n        /* \"#utility.yul\":3972:4009   */\n      swap1\n      pop\n        /* \"#utility.yul\":4064:4068   */\n      0x20\n        /* \"#utility.yul\":4058:4062   */\n      dup2\n        /* \"#utility.yul\":4054:4069   */\n      add\n        /* \"#utility.yul\":4046:4069   */\n      swap1\n      pop\n        /* \"#utility.yul\":3768:4076   */\n      swap2\n      swap1\n      pop\n      jump\t// out\n        /* \"#utility.yul\":4082:4230   */\n    tag_107:\n        /* \"#utility.yul\":4180:4186   */\n      dup3\n        /* \"#utility.yul\":4175:4178   */\n      dup2\n        /* \"#utility.yul\":4170:4173   */\n      dup4\n        /* \"#utility.yul\":4157:4187   */\n      calldatacopy\n        /* \"#utility.yul\":4221:4222   */\n      0x00\n        /* \"#utility.yul\":4212:4218   */\n      dup4\n        /* \"#utility.yul\":4207:4210   */\n      dup4\n        /* \"#utility.yul\":4203:4219   */\n      add\n        /* \"#utility.yul\":4196:4223   */\n      mstore\n        /* \"#utility.yul\":4082:4230   */\n      pop\n      pop\n      pop\n      jump\t// out\n        /* \"#utility.yul\":4236:4661   */\n    tag_108:\n        /* \"#utility.yul\":4314:4319   */\n      0x00\n        /* \"#utility.yul\":4339:4405   */\n      tag_196\n        /* \"#utility.yul\":4355:4404   */\n      tag_197\n        /* \"#utility.yul\":4397:4403   */\n      dup5\n        /* \"#utility.yul\":4355:4404   */\n      tag_106\n      jump\t// in\n    tag_197:\n        /* \"#utility.yul\":4339:4405   */\n      tag_105\n      jump\t// in\n    tag_196:\n        /* \"#utility.yul\":4330:4405   */\n      swap1\n      pop\n        /* \"#utility.yul\":4428:4434   */\n      dup3\n        /* \"#utility.yul\":4421:4426   */\n      dup2\n        /* \"#utility.yul\":4414:4435   */\n      mstore\n        /* \"#utility.yul\":4466:4470   */\n      0x20\n        /* \"#utility.yul\":4459:4464   */\n      dup2\n        /* \"#utility.yul\":4455:4471   */\n      add\n        /* \"#utility.yul\":4504:4507   */\n      dup5\n        /* \"#utility.yul\":4495:4501   */\n      dup5\n        /* \"#utility.yul\":4490:4493   */\n      dup5\n        /* \"#utility.yul\":4486:4502   */\n      add\n        /* \"#utility.yul\":4483:4508   */\n      gt\n        /* \"#utility.yul\":4480:4592   */\n      iszero\n      tag_198\n      jumpi\n        /* \"#utility.yul\":4511:4590   */\n      tag_199\n      tag_102\n      jump\t// in\n    tag_199:\n        /* \"#utility.yul\":4480:4592   */\n    tag_198:\n        /* \"#utility.yul\":4601:4655   */\n      tag_200\n        /* \"#utility.yul\":4648:4654   */\n      dup5\n        /* \"#utility.yul\":4643:4646   */\n      dup3\n        /* \"#utility.yul\":4638:4641   */\n      dup6\n        /* \"#utility.yul\":4601:4655   */\n      tag_107\n      jump\t// in\n    tag_200:\n        /* \"#utility.yul\":4320:4661   */\n      pop\n        /* \"#utility.yul\":4236:4661   */\n      swap4\n      swap3\n      pop\n      pop\n      pop\n      jump\t// out\n        /* \"#utility.yul\":4681:5021   */\n    tag_109:\n        /* \"#utility.yul\":4737:4742   */\n      0x00\n        /* \"#utility.yul\":4786:4789   */\n      dup3\n        /* \"#utility.yul\":4779:4783   */\n      0x1f\n        /* \"#utility.yul\":4771:4777   */\n      dup4\n        /* \"#utility.yul\":4767:4784   */\n      add\n        /* \"#utility.yul\":4763:4790   */\n      slt\n        /* \"#utility.yul\":4753:4875   */\n      tag_202\n      jumpi\n        /* \"#utility.yul\":4794:4873   */\n      tag_203\n      tag_101\n      jump\t// in\n    tag_203:\n        /* \"#utility.yul\":4753:4875   */\n    tag_202:\n        /* \"#utility.yul\":4911:4917   */\n      dup2\n        /* \"#utility.yul\":4898:4918   */\n      calldataload\n        /* \"#utility.yul\":4936:5015   */\n      tag_204\n        /* \"#utility.yul\":5011:5014   */\n      dup5\n        /* \"#utility.yul\":5003:5009   */\n      dup3\n        /* \"#utility.yul\":4996:5000   */\n      0x20\n        /* \"#utility.yul\":4988:4994   */\n      dup7\n        /* \"#utility.yul\":4984:5001   */\n      add\n        /* \"#utility.yul\":4936:5015   */\n      tag_108\n      jump\t// in\n    tag_204:\n        /* \"#utility.yul\":4927:5015   */\n      swap2\n      pop\n        /* \"#utility.yul\":4743:5021   */\n      pop\n        /* \"#utility.yul\":4681:5021   */\n      swap3\n      swap2\n      pop\n      pop\n      jump\t// out\n        /* \"#utility.yul\":5027:5681   */\n    tag_25:\n        /* \"#utility.yul\":5105:5111   */\n      0x00\n        /* \"#utility.yul\":5113:5119   */\n      0x00\n        /* \"#utility.yul\":5162:5164   */\n      0x40\n        /* \"#utility.yul\":5150:5159   */\n      dup4\n        /* \"#utility.yul\":5141:5148   */\n      dup6\n        /* \"#utility.yul\":5137:5160   */\n      sub\n        /* \"#utility.yul\":5133:5165   */\n      slt\n        /* \"#utility.yul\":5130:5249   */\n      iszero\n      tag_206\n      jumpi\n        /* \"#utility.yul\":5168:5247   */\n      tag_207\n      tag_88\n      jump\t// in\n    tag_207:\n        /* \"#utility.yul\":5130:5249   */\n    tag_206:\n        /* \"#utility.yul\":5316:5317   */\n      0x00\n        /* \"#utility.yul\":5305:5314   */\n      dup4\n        /* \"#utility.yul\":5301:5318   */\n      add\n        /* \"#utility.yul\":5288:5319   */\n      calldataload\n        /* \"#utility.yul\":5346:5364   */\n      0xffffffffffffffff\n        /* \"#utility.yul\":5338:5344   */\n      dup2\n        /* \"#utility.yul\":5335:5365   */\n      gt\n        /* \"#utility.yul\":5332:5449   */\n      iszero\n      tag_208\n      jumpi\n        /* \"#utility.yul\":5368:5447   */\n      tag_209\n      tag_89\n      jump\t// in\n    tag_209:\n        /* \"#utility.yul\":5332:5449   */\n    tag_208:\n        /* \"#utility.yul\":5473:5536   */\n      tag_210\n        /* \"#utility.yul\":5528:5535   */\n      dup6\n        /* \"#utility.yul\":5519:5525   */\n      dup3\n        /* \"#utility.yul\":5508:5517   */\n      dup7\n        /* \"#utility.yul\":5504:5526   */\n      add\n        /* \"#utility.yul\":5473:5536   */\n      tag_109\n      jump\t// in\n    tag_210:\n        /* \"#utility.yul\":5463:5536   */\n      swap3\n      pop\n        /* \"#utility.yul\":5259:5546   */\n      pop\n        /* \"#utility.yul\":5585:5587   */\n      0x20\n        /* \"#utility.yul\":5611:5664   */\n      tag_211\n        /* \"#utility.yul\":5656:5663   */\n      dup6\n        /* \"#utility.yul\":5647:5653   */\n      dup3\n        /* \"#utility.yul\":5636:5645   */\n      dup7\n        /* \"#utility.yul\":5632:5654   */\n      add\n        /* \"#utility.yul\":5611:5664   */\n      tag_92\n      jump\t// in\n    tag_211:\n        /* \"#utility.yul\":5601:5664   */\n      swap2\n      pop\n        /* \"#utility.yul\":5556:5674   */\n      pop\n        /* \"#utility.yul\":5027:5681   */\n      swap3\n      pop\n      swap3\n      swap1\n      pop\n      jump\t// out\n        /* \"#utility.yul\":5687:5813   */\n    tag_110:\n        /* \"#utility.yul\":5724:5731   */\n      0x00\n        /* \"#utility.yul\":5764:5806   */\n      0xffffffffffffffffffffffffffffffffffffffff\n        /* \"#utility.yul\":5757:5762   */\n      dup3\n        /* \"#utility.yul\":5753:5807   */\n      and\n        /* \"#utility.yul\":5742:5807   */\n      swap1\n      pop\n        /* \"#utility.yul\":5687:5813   */\n      swap2\n      swap1\n      pop\n      jump\t// out\n        /* \"#utility.yul\":5819:5915   */\n    tag_111:\n        /* \"#utility.yul\":5856:5863   */\n      0x00\n        /* \"#utility.yul\":5885:5909   */\n      tag_214\n        /* \"#utility.yul\":5903:5908   */\n      dup3\n        /* \"#utility.yul\":5885:5909   */\n      tag_110\n      jump\t// in\n    tag_214:\n        /* \"#utility.yul\":5874:5909   */\n      swap1\n      pop\n        /* \"#utility.yul\":5819:5915   */\n      swap2\n      swap1\n      pop\n      jump\t// out\n        /* \"#utility.yul\":5921:6043   */\n    tag_112:\n        /* \"#utility.yul\":5994:6018   */\n      tag_216\n        /* \"#utility.yul\":6012:6017   */\n      dup2\n        /* \"#utility.yul\":5994:6018   */\n      tag_111\n      jump\t// in\n    tag_216:\n        /* \"#utility.yul\":5987:5992   */\n      dup2\n        /* \"#utility.yul\":5984:6019   */\n      eq\n        /* \"#utility.yul\":5974:6037   */\n      tag_217\n      jumpi\n        /* \"#utility.yul\":6033:6034   */\n      0x00\n        /* \"#utility.yul\":6030:6031   */\n      0x00\n        /* \"#utility.yul\":6023:6035   */\n      revert\n        /* \"#utility.yul\":5974:6037   */\n    tag_217:\n        /* \"#utility.yul\":5921:6043   */\n      pop\n      jump\t// out\n        /* \"#utility.yul\":6049:6188   */\n    tag_113:\n        /* \"#utility.yul\":6095:6100   */\n      0x00\n        /* \"#utility.yul\":6133:6139   */\n      dup2\n        /* \"#utility.yul\":6120:6140   */\n      calldataload\n        /* \"#utility.yul\":6111:6140   */\n      swap1\n      pop\n        /* \"#utility.yul\":6149:6182   */\n      tag_219\n        /* \"#utility.yul\":6176:6181   */\n      dup2\n        /* \"#utility.yul\":6149:6182   */\n      tag_112\n      jump\t// in\n    tag_219:\n        /* \"#utility.yul\":6049:6188   */\n      swap3\n      swap2\n      pop\n      pop\n      jump\t// out\n        /* \"#utility.yul\":6194:6668   */\n    tag_29:\n        /* \"#utility.yul\":6262:6268   */\n      0x00\n        /* \"#utility.yul\":6270:6276   */\n      0x00\n        /* \"#utility.yul\":6319:6321   */\n      0x40\n        /* \"#utility.yul\":6307:6316   */\n      dup4\n        /* \"#utility.yul\":6298:6305   */\n      dup6\n        /* \"#utility.yul\":6294:6317   */\n      sub\n        /* \"#utility.yul\":6290:6322   */\n      slt\n        /* \"#utility.yul\":6287:6406   */\n      iszero\n      tag_221\n      jumpi\n        /* \"#utility.yul\":6325:6404   */\n      tag_222\n      tag_88\n      jump\t// in\n    tag_222:\n        /* \"#utility.yul\":6287:6406   */\n    tag_221:\n        /* \"#utility.yul\":6445:6446   */\n      0x00\n        /* \"#utility.yul\":6470:6523   */\n      tag_223\n        /* \"#utility.yul\":6515:6522   */\n      dup6\n        /* \"#utility.yul\":6506:6512   */\n      dup3\n        /* \"#utility.yul\":6495:6504   */\n      dup7\n        /* \"#utility.yul\":6491:6513   */\n      add\n        /* \"#utility.yul\":6470:6523   */\n      tag_92\n      jump\t// in\n    tag_223:\n        /* \"#utility.yul\":6460:6523   */\n      swap3\n      pop\n        /* \"#utility.yul\":6416:6533   */\n      pop\n        /* \"#utility.yul\":6572:6574   */\n      0x20\n        /* \"#utility.yul\":6598:6651   */\n      tag_224\n        /* \"#utility.yul\":6643:6650   */\n      dup6\n        /* \"#utility.yul\":6634:6640   */\n      dup3\n        /* \"#utility.yul\":6623:6632   */\n      dup7\n        /* \"#utility.yul\":6619:6641   */\n      add\n        /* \"#utility.yul\":6598:6651   */\n      tag_113\n      jump\t// in\n    tag_224:\n        /* \"#utility.yul\":6588:6651   */\n      swap2\n      pop\n        /* \"#utility.yul\":6543:6661   */\n      pop\n        /* \"#utility.yul\":6194:6668   */\n      swap3\n      pop\n      swap3\n      swap1\n      pop\n      jump\t// out\n        /* \"#utility.yul\":6674:6884   */\n    tag_32:\n        /* \"#utility.yul\":6761:6765   */\n      0x00\n        /* \"#utility.yul\":6799:6801   */\n      0x20\n        /* \"#utility.yul\":6788:6797   */\n      dup3\n        /* \"#utility.yul\":6784:6802   */\n      add\n        /* \"#utility.yul\":6776:6802   */\n      swap1\n      pop\n        /* \"#utility.yul\":6812:6877   */\n      tag_226\n        /* \"#utility.yul\":6874:6875   */\n      0x00\n        /* \"#utility.yul\":6863:6872   */\n      dup4\n        /* \"#utility.yul\":6859:6876   */\n      add\n        /* \"#utility.yul\":6850:6856   */\n      dup5\n        /* \"#utility.yul\":6812:6877   */\n      tag_100\n      jump\t// in\n    tag_226:\n        /* \"#utility.yul\":6674:6884   */\n      swap3\n      swap2\n      pop\n      pop\n      jump\t// out\n        /* \"#utility.yul\":6890:7112   */\n    tag_36:\n        /* \"#utility.yul\":6983:6987   */\n      0x00\n        /* \"#utility.yul\":7021:7023   */\n      0x20\n        /* \"#utility.yul\":7010:7019   */\n      dup3\n        /* \"#utility.yul\":7006:7024   */\n      add\n        /* \"#utility.yul\":6998:7024   */\n      swap1\n      pop\n        /* \"#utility.yul\":7034:7105   */\n      tag_228\n        /* \"#utility.yul\":7102:7103   */\n      0x00\n        /* \"#utility.yul\":7091:7100   */\n      dup4\n        /* \"#utility.yul\":7087:7104   */\n      add\n        /* \"#utility.yul\":7078:7084   */\n      dup5\n        /* \"#utility.yul\":7034:7105   */\n      tag_98\n      jump\t// in\n    tag_228:\n        /* \"#utility.yul\":6890:7112   */\n      swap3\n      swap2\n      pop\n      pop\n      jump\t// out\n        /* \"#utility.yul\":7118:7178   */\n    tag_114:\n        /* \"#utility.yul\":7146:7149   */\n      0x00\n        /* \"#utility.yul\":7167:7172   */\n      dup2\n        /* \"#utility.yul\":7160:7172   */\n      swap1\n      pop\n        /* \"#utility.yul\":7118:7178   */\n      swap2\n      swap1\n      pop\n      jump\t// out\n        /* \"#utility.yul\":7184:7326   */\n    tag_115:\n        /* \"#utility.yul\":7234:7243   */\n      0x00\n        /* \"#utility.yul\":7267:7320   */\n      tag_231\n        /* \"#utility.yul\":7285:7319   */\n      tag_232\n        /* \"#utility.yul\":7294:7318   */\n      tag_233\n        /* \"#utility.yul\":7312:7317   */\n      dup5\n        /* \"#utility.yul\":7294:7318   */\n      tag_110\n      jump\t// in\n    tag_233:\n        /* \"#utility.yul\":7285:7319   */\n      tag_114\n      jump\t// in\n    tag_232:\n        /* \"#utility.yul\":7267:7320   */\n      tag_110\n      jump\t// in\n    tag_231:\n        /* \"#utility.yul\":7254:7320   */\n      swap1\n      pop\n        /* \"#utility.yul\":7184:7326   */\n      swap2\n      swap1\n      pop\n      jump\t// out\n        /* \"#utility.yul\":7332:7458   */\n    tag_116:\n        /* \"#utility.yul\":7382:7391   */\n      0x00\n        /* \"#utility.yul\":7415:7452   */\n      tag_235\n        /* \"#utility.yul\":7446:7451   */\n      dup3\n        /* \"#utility.yul\":7415:7452   */\n      tag_115\n      jump\t// in\n    tag_235:\n        /* \"#utility.yul\":7402:7452   */\n      swap1\n      pop\n        /* \"#utility.yul\":7332:7458   */\n      swap2\n      swap1\n      pop\n      jump\t// out\n        /* \"#utility.yul\":7464:7603   */\n    tag_117:\n        /* \"#utility.yul\":7527:7536   */\n      0x00\n        /* \"#utility.yul\":7560:7597   */\n      tag_237\n        /* \"#utility.yul\":7591:7596   */\n      dup3\n        /* \"#utility.yul\":7560:7597   */\n      tag_116\n      jump\t// in\n    tag_237:\n        /* \"#utility.yul\":7547:7597   */\n      swap1\n      pop\n        /* \"#utility.yul\":7464:7603   */\n      swap2\n      swap1\n      pop\n      jump\t// out\n        /* \"#utility.yul\":7609:7766   */\n    tag_118:\n        /* \"#utility.yul\":7709:7759   */\n      tag_239\n        /* \"#utility.yul\":7753:7758   */\n      dup2\n        /* \"#utility.yul\":7709:7759   */\n      tag_117\n      jump\t// in\n    tag_239:\n        /* \"#utility.yul\":7704:7707   */\n      dup3\n        /* \"#utility.yul\":7697:7760   */\n      mstore\n        /* \"#utility.yul\":7609:7766   */\n      pop\n      pop\n      jump\t// out\n        /* \"#utility.yul\":7772:8020   */\n    tag_40:\n        /* \"#utility.yul\":7878:7882   */\n      0x00\n        /* \"#utility.yul\":7916:7918   */\n      0x20\n        /* \"#utility.yul\":7905:7914   */\n      dup3\n        /* \"#utility.yul\":7901:7919   */\n      add\n        /* \"#utility.yul\":7893:7919   */\n      swap1\n      pop\n        /* \"#utility.yul\":7929:8013   */\n      tag_241\n        /* \"#utility.yul\":8010:8011   */\n      0x00\n        /* \"#utility.yul\":7999:8008   */\n      dup4\n        /* \"#utility.yul\":7995:8012   */\n      add\n        /* \"#utility.yul\":7986:7992   */\n      dup5\n        /* \"#utility.yul\":7929:8013   */\n      tag_118\n      jump\t// in\n    tag_241:\n        /* \"#utility.yul\":7772:8020   */\n      swap3\n      swap2\n      pop\n      pop\n      jump\t// out\n        /* \"#utility.yul\":8026:8206   */\n    tag_44:\n        /* \"#utility.yul\":8074:8151   */\n      0x4e487b7100000000000000000000000000000000000000000000000000000000\n        /* \"#utility.yul\":8071:8072   */\n      0x00\n        /* \"#utility.yul\":8064:8152   */\n      mstore\n        /* \"#utility.yul\":8171:8175   */\n      0x32\n        /* \"#utility.yul\":8168:8169   */\n      0x04\n        /* \"#utility.yul\":8161:8176   */\n      mstore\n        /* \"#utility.yul\":8195:8199   */\n      0x24\n        /* \"#utility.yul\":8192:8193   */\n      0x00\n        /* \"#utility.yul\":8185:8200   */\n      revert\n        /* \"#utility.yul\":8212:8379   */\n    tag_119:\n        /* \"#utility.yul\":8352:8371   */\n      0x566f746163616f20656e63657272616461000000000000000000000000000000\n        /* \"#utility.yul\":8348:8349   */\n      0x00\n        /* \"#utility.yul\":8340:8346   */\n      dup3\n        /* \"#utility.yul\":8336:8350   */\n      add\n        /* \"#utility.yul\":8329:8372   */\n      mstore\n        /* \"#utility.yul\":8212:8379   */\n      pop\n      jump\t// out\n        /* \"#utility.yul\":8385:8751   */\n    tag_120:\n        /* \"#utility.yul\":8527:8530   */\n      0x00\n        /* \"#utility.yul\":8548:8615   */\n      tag_245\n        /* \"#utility.yul\":8612:8614   */\n      0x11\n        /* \"#utility.yul\":8607:8610   */\n      dup4\n        /* \"#utility.yul\":8548:8615   */\n      tag_94\n      jump\t// in\n    tag_245:\n        /* \"#utility.yul\":8541:8615   */\n      swap2\n      pop\n        /* \"#utility.yul\":8624:8717   */\n      tag_246\n        /* \"#utility.yul\":8713:8716   */\n      dup3\n        /* \"#utility.yul\":8624:8717   */\n      tag_119\n      jump\t// in\n    tag_246:\n        /* \"#utility.yul\":8742:8744   */\n      0x20\n        /* \"#utility.yul\":8737:8740   */\n      dup3\n        /* \"#utility.yul\":8733:8745   */\n      add\n        /* \"#utility.yul\":8726:8745   */\n      swap1\n      pop\n        /* \"#utility.yul\":8385:8751   */\n      swap2\n      swap1\n      pop\n      jump\t// out\n        /* \"#utility.yul\":8757:9176   */\n    tag_48:\n        /* \"#utility.yul\":8923:8927   */\n      0x00\n        /* \"#utility.yul\":8961:8963   */\n      0x20\n        /* \"#utility.yul\":8950:8959   */\n      dup3\n        /* \"#utility.yul\":8946:8964   */\n      add\n        /* \"#utility.yul\":8938:8964   */\n      swap1\n      pop\n        /* \"#utility.yul\":9010:9019   */\n      dup2\n        /* \"#utility.yul\":9004:9008   */\n      dup2\n        /* \"#utility.yul\":9000:9020   */\n      sub\n        /* \"#utility.yul\":8996:8997   */\n      0x00\n        /* \"#utility.yul\":8985:8994   */\n      dup4\n        /* \"#utility.yul\":8981:8998   */\n      add\n        /* \"#utility.yul\":8974:9021   */\n      mstore\n        /* \"#utility.yul\":9038:9169   */\n      tag_248\n        /* \"#utility.yul\":9164:9168   */\n      dup2\n        /* \"#utility.yul\":9038:9169   */\n      tag_120\n      jump\t// in\n    tag_248:\n        /* \"#utility.yul\":9030:9169   */\n      swap1\n      pop\n        /* \"#utility.yul\":8757:9176   */\n      swap2\n      swap1\n      pop\n      jump\t// out\n        /* \"#utility.yul\":9182:9340   */\n    tag_121:\n        /* \"#utility.yul\":9322:9332   */\n      0x4a6120766f746f75000000000000000000000000000000000000000000000000\n        /* \"#utility.yul\":9318:9319   */\n      0x00\n        /* \"#utility.yul\":9310:9316   */\n      dup3\n        /* \"#utility.yul\":9306:9320   */\n      add\n        /* \"#utility.yul\":9299:9333   */\n      mstore\n        /* \"#utility.yul\":9182:9340   */\n      pop\n      jump\t// out\n        /* \"#utility.yul\":9346:9711   */\n    tag_122:\n        /* \"#utility.yul\":9488:9491   */\n      0x00\n        /* \"#utility.yul\":9509:9575   */\n      tag_251\n        /* \"#utility.yul\":9573:9574   */\n      0x08\n        /* \"#utility.yul\":9568:9571   */\n      dup4\n        /* \"#utility.yul\":9509:9575   */\n      tag_94\n      jump\t// in\n    tag_251:\n        /* \"#utility.yul\":9502:9575   */\n      swap2\n      pop\n        /* \"#utility.yul\":9584:9677   */\n      tag_252\n        /* \"#utility.yul\":9673:9676   */\n      dup3\n        /* \"#utility.yul\":9584:9677   */\n      tag_121\n      jump\t// in\n    tag_252:\n        /* \"#utility.yul\":9702:9704   */\n      0x20\n        /* \"#utility.yul\":9697:9700   */\n      dup3\n        /* \"#utility.yul\":9693:9705   */\n      add\n        /* \"#utility.yul\":9686:9705   */\n      swap1\n      pop\n        /* \"#utility.yul\":9346:9711   */\n      swap2\n      swap1\n      pop\n      jump\t// out\n        /* \"#utility.yul\":9717:10136   */\n    tag_51:\n        /* \"#utility.yul\":9883:9887   */\n      0x00\n        /* \"#utility.yul\":9921:9923   */\n      0x20\n        /* \"#utility.yul\":9910:9919   */\n      dup3\n        /* \"#utility.yul\":9906:9924   */\n      add\n        /* \"#utility.yul\":9898:9924   */\n      swap1\n      pop\n        /* \"#utility.yul\":9970:9979   */\n      dup2\n        /* \"#utility.yul\":9964:9968   */\n      dup2\n        /* \"#utility.yul\":9960:9980   */\n      sub\n        /* \"#utility.yul\":9956:9957   */\n      0x00\n        /* \"#utility.yul\":9945:9954   */\n      dup4\n        /* \"#utility.yul\":9941:9958   */\n      add\n        /* \"#utility.yul\":9934:9981   */\n      mstore\n        /* \"#utility.yul\":9998:10129   */\n      tag_254\n        /* \"#utility.yul\":10124:10128   */\n      dup2\n        /* \"#utility.yul\":9998:10129   */\n      tag_122\n      jump\t// in\n    tag_254:\n        /* \"#utility.yul\":9990:10129   */\n      swap1\n      pop\n        /* \"#utility.yul\":9717:10136   */\n      swap2\n      swap1\n      pop\n      jump\t// out\n        /* \"#utility.yul\":10142:10260   */\n    tag_123:\n        /* \"#utility.yul\":10229:10253   */\n      tag_256\n        /* \"#utility.yul\":10247:10252   */\n      dup2\n        /* \"#utility.yul\":10229:10253   */\n      tag_111\n      jump\t// in\n    tag_256:\n        /* \"#utility.yul\":10224:10227   */\n      dup3\n        /* \"#utility.yul\":10217:10254   */\n      mstore\n        /* \"#utility.yul\":10142:10260   */\n      pop\n      pop\n      jump\t// out\n        /* \"#utility.yul\":10266:10488   */\n    tag_53:\n        /* \"#utility.yul\":10359:10363   */\n      0x00\n        /* \"#utility.yul\":10397:10399   */\n      0x20\n        /* \"#utility.yul\":10386:10395   */\n      dup3\n        /* \"#utility.yul\":10382:10400   */\n      add\n        /* \"#utility.yul\":10374:10400   */\n      swap1\n      pop\n        /* \"#utility.yul\":10410:10481   */\n      tag_258\n        /* \"#utility.yul\":10478:10479   */\n      0x00\n        /* \"#utility.yul\":10467:10476   */\n      dup4\n        /* \"#utility.yul\":10463:10480   */\n      add\n        /* \"#utility.yul\":10454:10460   */\n      dup5\n        /* \"#utility.yul\":10410:10481   */\n      tag_123\n      jump\t// in\n    tag_258:\n        /* \"#utility.yul\":10266:10488   */\n      swap3\n      swap2\n      pop\n      pop\n      jump\t// out\n        /* \"#utility.yul\":10494:10637   */\n    tag_124:\n        /* \"#utility.yul\":10551:10556   */\n      0x00\n        /* \"#utility.yul\":10582:10588   */\n      dup2\n        /* \"#utility.yul\":10576:10589   */\n      mload\n        /* \"#utility.yul\":10567:10589   */\n      swap1\n      pop\n        /* \"#utility.yul\":10598:10631   */\n      tag_260\n        /* \"#utility.yul\":10625:10630   */\n      dup2\n        /* \"#utility.yul\":10598:10631   */\n      tag_91\n      jump\t// in\n    tag_260:\n        /* \"#utility.yul\":10494:10637   */\n      swap3\n      swap2\n      pop\n      pop\n      jump\t// out\n        /* \"#utility.yul\":10643:10994   */\n    tag_57:\n        /* \"#utility.yul\":10713:10719   */\n      0x00\n        /* \"#utility.yul\":10762:10764   */\n      0x20\n        /* \"#utility.yul\":10750:10759   */\n      dup3\n        /* \"#utility.yul\":10741:10748   */\n      dup5\n        /* \"#utility.yul\":10737:10760   */\n      sub\n        /* \"#utility.yul\":10733:10765   */\n      slt\n        /* \"#utility.yul\":10730:10849   */\n      iszero\n      tag_262\n      jumpi\n        /* \"#utility.yul\":10768:10847   */\n      tag_263\n      tag_88\n      jump\t// in\n    tag_263:\n        /* \"#utility.yul\":10730:10849   */\n    tag_262:\n        /* \"#utility.yul\":10888:10889   */\n      0x00\n        /* \"#utility.yul\":10913:10977   */\n      tag_264\n        /* \"#utility.yul\":10969:10976   */\n      dup5\n        /* \"#utility.yul\":10960:10966   */\n      dup3\n        /* \"#utility.yul\":10949:10958   */\n      dup6\n        /* \"#utility.yul\":10945:10967   */\n      add\n        /* \"#utility.yul\":10913:10977   */\n      tag_124\n      jump\t// in\n    tag_264:\n        /* \"#utility.yul\":10903:10977   */\n      swap2\n      pop\n        /* \"#utility.yul\":10859:10987   */\n      pop\n        /* \"#utility.yul\":10643:10994   */\n      swap3\n      swap2\n      pop\n      pop\n      jump\t// out\n        /* \"#utility.yul\":11000:11167   */\n    tag_125:\n        /* \"#utility.yul\":11140:11159   */\n      0x53656d20706f64657220646520766f746f000000000000000000000000000000\n        /* \"#utility.yul\":11136:11137   */\n      0x00\n        /* \"#utility.yul\":11128:11134   */\n      dup3\n        /* \"#utility.yul\":11124:11138   */\n      add\n        /* \"#utility.yul\":11117:11160   */\n      mstore\n        /* \"#utility.yul\":11000:11167   */\n      pop\n      jump\t// out\n        /* \"#utility.yul\":11173:11539   */\n    tag_126:\n        /* \"#utility.yul\":11315:11318   */\n      0x00\n        /* \"#utility.yul\":11336:11403   */\n      tag_267\n        /* \"#utility.yul\":11400:11402   */\n      0x11\n        /* \"#utility.yul\":11395:11398   */\n      dup4\n        /* \"#utility.yul\":11336:11403   */\n      tag_94\n      jump\t// in\n    tag_267:\n        /* \"#utility.yul\":11329:11403   */\n      swap2\n      pop\n        /* \"#utility.yul\":11412:11505   */\n      tag_268\n        /* \"#utility.yul\":11501:11504   */\n      dup3\n        /* \"#utility.yul\":11412:11505   */\n      tag_125\n      jump\t// in\n    tag_268:\n        /* \"#utility.yul\":11530:11532   */\n      0x20\n        /* \"#utility.yul\":11525:11528   */\n      dup3\n        /* \"#utility.yul\":11521:11533   */\n      add\n        /* \"#utility.yul\":11514:11533   */\n      swap1\n      pop\n        /* \"#utility.yul\":11173:11539   */\n      swap2\n      swap1\n      pop\n      jump\t// out\n        /* \"#utility.yul\":11545:11964   */\n    tag_60:\n        /* \"#utility.yul\":11711:11715   */\n      0x00\n        /* \"#utility.yul\":11749:11751   */\n      0x20\n        /* \"#utility.yul\":11738:11747   */\n      dup3\n        /* \"#utility.yul\":11734:11752   */\n      add\n        /* \"#utility.yul\":11726:11752   */\n      swap1\n      pop\n        /* \"#utility.yul\":11798:11807   */\n      dup2\n        /* \"#utility.yul\":11792:11796   */\n      dup2\n        /* \"#utility.yul\":11788:11808   */\n      sub\n        /* \"#utility.yul\":11784:11785   */\n      0x00\n        /* \"#utility.yul\":11773:11782   */\n      dup4\n        /* \"#utility.yul\":11769:11786   */\n      add\n        /* \"#utility.yul\":11762:11809   */\n      mstore\n        /* \"#utility.yul\":11826:11957   */\n      tag_270\n        /* \"#utility.yul\":11952:11956   */\n      dup2\n        /* \"#utility.yul\":11826:11957   */\n      tag_126\n      jump\t// in\n    tag_270:\n        /* \"#utility.yul\":11818:11957   */\n      swap1\n      pop\n        /* \"#utility.yul\":11545:11964   */\n      swap2\n      swap1\n      pop\n      jump\t// out\n        /* \"#utility.yul\":11970:12150   */\n    tag_127:\n        /* \"#utility.yul\":12018:12095   */\n      0x4e487b7100000000000000000000000000000000000000000000000000000000\n        /* \"#utility.yul\":12015:12016   */\n      0x00\n        /* \"#utility.yul\":12008:12096   */\n      mstore\n        /* \"#utility.yul\":12115:12119   */\n      0x11\n        /* \"#utility.yul\":12112:12113   */\n      0x04\n        /* \"#utility.yul\":12105:12120   */\n      mstore\n        /* \"#utility.yul\":12139:12143   */\n      0x24\n        /* \"#utility.yul\":12136:12137   */\n      0x00\n        /* \"#utility.yul\":12129:12144   */\n      revert\n        /* \"#utility.yul\":12156:12347   */\n    tag_62:\n        /* \"#utility.yul\":12196:12199   */\n      0x00\n        /* \"#utility.yul\":12215:12235   */\n      tag_273\n        /* \"#utility.yul\":12233:12234   */\n      dup3\n        /* \"#utility.yul\":12215:12235   */\n      tag_90\n      jump\t// in\n    tag_273:\n        /* \"#utility.yul\":12210:12235   */\n      swap2\n      pop\n        /* \"#utility.yul\":12249:12269   */\n      tag_274\n        /* \"#utility.yul\":12267:12268   */\n      dup4\n        /* \"#utility.yul\":12249:12269   */\n      tag_90\n      jump\t// in\n    tag_274:\n        /* \"#utility.yul\":12244:12269   */\n      swap3\n      pop\n        /* \"#utility.yul\":12292:12293   */\n      dup3\n        /* \"#utility.yul\":12289:12290   */\n      dup3\n        /* \"#utility.yul\":12285:12294   */\n      add\n        /* \"#utility.yul\":12278:12294   */\n      swap1\n      pop\n        /* \"#utility.yul\":12313:12316   */\n      dup1\n        /* \"#utility.yul\":12310:12311   */\n      dup3\n        /* \"#utility.yul\":12307:12317   */\n      gt\n        /* \"#utility.yul\":12304:12340   */\n      iszero\n      tag_275\n      jumpi\n        /* \"#utility.yul\":12320:12338   */\n      tag_276\n      tag_127\n      jump\t// in\n    tag_276:\n        /* \"#utility.yul\":12304:12340   */\n    tag_275:\n        /* \"#utility.yul\":12156:12347   */\n      swap3\n      swap2\n      pop\n      pop\n      jump\t// out\n        /* \"#utility.yul\":12353:12533   */\n    tag_128:\n        /* \"#utility.yul\":12401:12478   */\n      0x4e487b7100000000000000000000000000000000000000000000000000000000\n        /* \"#utility.yul\":12398:12399   */\n      0x00\n        /* \"#utility.yul\":12391:12479   */\n      mstore\n        /* \"#utility.yul\":12498:12502   */\n      0x22\n        /* \"#utility.yul\":12495:12496   */\n      0x04\n        /* \"#utility.yul\":12488:12503   */\n      mstore\n        /* \"#utility.yul\":12522:12526   */\n      0x24\n        /* \"#utility.yul\":12519:12520   */\n      0x00\n        /* \"#utility.yul\":12512:12527   */\n      revert\n        /* \"#utility.yul\":12539:12859   */\n    tag_66:\n        /* \"#utility.yul\":12583:12589   */\n      0x00\n        /* \"#utility.yul\":12620:12621   */\n      0x02\n        /* \"#utility.yul\":12614:12618   */\n      dup3\n        /* \"#utility.yul\":12610:12622   */\n      div\n        /* \"#utility.yul\":12600:12622   */\n      swap1\n      pop\n        /* \"#utility.yul\":12667:12668   */\n      0x01\n        /* \"#utility.yul\":12661:12665   */\n      dup3\n        /* \"#utility.yul\":12657:12669   */\n      and\n        /* \"#utility.yul\":12688:12706   */\n      dup1\n        /* \"#utility.yul\":12678:12759   */\n      tag_279\n      jumpi\n        /* \"#utility.yul\":12744:12748   */\n      0x7f\n        /* \"#utility.yul\":12736:12742   */\n      dup3\n        /* \"#utility.yul\":12732:12749   */\n      and\n        /* \"#utility.yul\":12722:12749   */\n      swap2\n      pop\n        /* \"#utility.yul\":12678:12759   */\n    tag_279:\n        /* \"#utility.yul\":12806:12808   */\n      0x20\n        /* \"#utility.yul\":12798:12804   */\n      dup3\n        /* \"#utility.yul\":12795:12809   */\n      lt\n        /* \"#utility.yul\":12775:12793   */\n      dup2\n        /* \"#utility.yul\":12772:12810   */\n      sub\n        /* \"#utility.yul\":12769:12853   */\n      tag_280\n      jumpi\n        /* \"#utility.yul\":12825:12843   */\n      tag_281\n      tag_128\n      jump\t// in\n    tag_281:\n        /* \"#utility.yul\":12769:12853   */\n    tag_280:\n        /* \"#utility.yul\":12590:12859   */\n      pop\n        /* \"#utility.yul\":12539:12859   */\n      swap2\n      swap1\n      pop\n      jump\t// out\n        /* \"#utility.yul\":12865:13034   */\n    tag_129:\n        /* \"#utility.yul\":13005:13026   */\n      0x566f746163616f2061696e646120617469766100000000000000000000000000\n        /* \"#utility.yul\":13001:13002   */\n      0x00\n        /* \"#utility.yul\":12993:12999   */\n      dup3\n        /* \"#utility.yul\":12989:13003   */\n      add\n        /* \"#utility.yul\":12982:13027   */\n      mstore\n        /* \"#utility.yul\":12865:13034   */\n      pop\n      jump\t// out\n        /* \"#utility.yul\":13040:13406   */\n    tag_130:\n        /* \"#utility.yul\":13182:13185   */\n      0x00\n        /* \"#utility.yul\":13203:13270   */\n      tag_284\n        /* \"#utility.yul\":13267:13269   */\n      0x13\n        /* \"#utility.yul\":13262:13265   */\n      dup4\n        /* \"#utility.yul\":13203:13270   */\n      tag_94\n      jump\t// in\n    tag_284:\n        /* \"#utility.yul\":13196:13270   */\n      swap2\n      pop\n        /* \"#utility.yul\":13279:13372   */\n      tag_285\n        /* \"#utility.yul\":13368:13371   */\n      dup3\n        /* \"#utility.yul\":13279:13372   */\n      tag_129\n      jump\t// in\n    tag_285:\n        /* \"#utility.yul\":13397:13399   */\n      0x20\n        /* \"#utility.yul\":13392:13395   */\n      dup3\n        /* \"#utility.yul\":13388:13400   */\n      add\n        /* \"#utility.yul\":13381:13400   */\n      swap1\n      pop\n        /* \"#utility.yul\":13040:13406   */\n      swap2\n      swap1\n      pop\n      jump\t// out\n        /* \"#utility.yul\":13412:13831   */\n    tag_77:\n        /* \"#utility.yul\":13578:13582   */\n      0x00\n        /* \"#utility.yul\":13616:13618   */\n      0x20\n        /* \"#utility.yul\":13605:13614   */\n      dup3\n        /* \"#utility.yul\":13601:13619   */\n      add\n        /* \"#utility.yul\":13593:13619   */\n      swap1\n      pop\n        /* \"#utility.yul\":13665:13674   */\n      dup2\n        /* \"#utility.yul\":13659:13663   */\n      dup2\n        /* \"#utility.yul\":13655:13675   */\n      sub\n        /* \"#utility.yul\":13651:13652   */\n      0x00\n        /* \"#utility.yul\":13640:13649   */\n      dup4\n        /* \"#utility.yul\":13636:13653   */\n      add\n        /* \"#utility.yul\":13629:13676   */\n      mstore\n        /* \"#utility.yul\":13693:13824   */\n      tag_287\n        /* \"#utility.yul\":13819:13823   */\n      dup2\n        /* \"#utility.yul\":13693:13824   */\n      tag_130\n      jump\t// in\n    tag_287:\n        /* \"#utility.yul\":13685:13824   */\n      swap1\n      pop\n        /* \"#utility.yul\":13412:13831   */\n      swap2\n      swap1\n      pop\n      jump\t// out\n        /* \"#utility.yul\":13837:13999   */\n    tag_131:\n        /* \"#utility.yul\":13977:13991   */\n      0x4a61206578656375746164610000000000000000000000000000000000000000\n        /* \"#utility.yul\":13973:13974   */\n      0x00\n        /* \"#utility.yul\":13965:13971   */\n      dup3\n        /* \"#utility.yul\":13961:13975   */\n      add\n        /* \"#utility.yul\":13954:13992   */\n      mstore\n        /* \"#utility.yul\":13837:13999   */\n      pop\n      jump\t// out\n        /* \"#utility.yul\":14005:14371   */\n    tag_132:\n        /* \"#utility.yul\":14147:14150   */\n      0x00\n        /* \"#utility.yul\":14168:14235   */\n      tag_290\n        /* \"#utility.yul\":14232:14234   */\n      0x0c\n        /* \"#utility.yul\":14227:14230   */\n      dup4\n        /* \"#utility.yul\":14168:14235   */\n      tag_94\n      jump\t// in\n    tag_290:\n        /* \"#utility.yul\":14161:14235   */\n      swap2\n      pop\n        /* \"#utility.yul\":14244:14337   */\n      tag_291\n        /* \"#utility.yul\":14333:14336   */\n      dup3\n        /* \"#utility.yul\":14244:14337   */\n      tag_131\n      jump\t// in\n    tag_291:\n        /* \"#utility.yul\":14362:14364   */\n      0x20\n        /* \"#utility.yul\":14357:14360   */\n      dup3\n        /* \"#utility.yul\":14353:14365   */\n      add\n        /* \"#utility.yul\":14346:14365   */\n      swap1\n      pop\n        /* \"#utility.yul\":14005:14371   */\n      swap2\n      swap1\n      pop\n      jump\t// out\n        /* \"#utility.yul\":14377:14796   */\n    tag_80:\n        /* \"#utility.yul\":14543:14547   */\n      0x00\n        /* \"#utility.yul\":14581:14583   */\n      0x20\n        /* \"#utility.yul\":14570:14579   */\n      dup3\n        /* \"#utility.yul\":14566:14584   */\n      add\n        /* \"#utility.yul\":14558:14584   */\n      swap1\n      pop\n        /* \"#utility.yul\":14630:14639   */\n      dup2\n        /* \"#utility.yul\":14624:14628   */\n      dup2\n        /* \"#utility.yul\":14620:14640   */\n      sub\n        /* \"#utility.yul\":14616:14617   */\n      0x00\n        /* \"#utility.yul\":14605:14614   */\n      dup4\n        /* \"#utility.yul\":14601:14618   */\n      add\n        /* \"#utility.yul\":14594:14641   */\n      mstore\n        /* \"#utility.yul\":14658:14789   */\n      tag_293\n        /* \"#utility.yul\":14784:14788   */\n      dup2\n        /* \"#utility.yul\":14658:14789   */\n      tag_132\n      jump\t// in\n    tag_293:\n        /* \"#utility.yul\":14650:14789   */\n      swap1\n      pop\n        /* \"#utility.yul\":14377:14796   */\n      swap2\n      swap1\n      pop\n      jump\t// out\n        /* \"#utility.yul\":14802:14943   */\n    tag_133:\n        /* \"#utility.yul\":14851:14855   */\n      0x00\n        /* \"#utility.yul\":14874:14877   */\n      dup2\n        /* \"#utility.yul\":14866:14877   */\n      swap1\n      pop\n        /* \"#utility.yul\":14897:14900   */\n      dup2\n        /* \"#utility.yul\":14894:14895   */\n      0x00\n        /* \"#utility.yul\":14887:14901   */\n      mstore\n        /* \"#utility.yul\":14931:14935   */\n      0x20\n        /* \"#utility.yul\":14928:14929   */\n      0x00\n        /* \"#utility.yul\":14918:14936   */\n      keccak256\n        /* \"#utility.yul\":14910:14936   */\n      swap1\n      pop\n        /* \"#utility.yul\":14802:14943   */\n      swap2\n      swap1\n      pop\n      jump\t// out\n        /* \"#utility.yul\":14949:15042   */\n    tag_134:\n        /* \"#utility.yul\":14986:14992   */\n      0x00\n        /* \"#utility.yul\":15033:15035   */\n      0x20\n        /* \"#utility.yul\":15028:15030   */\n      0x1f\n        /* \"#utility.yul\":15021:15026   */\n      dup4\n        /* \"#utility.yul\":15017:15031   */\n      add\n        /* \"#utility.yul\":15013:15036   */\n      div\n        /* \"#utility.yul\":15003:15036   */\n      swap1\n      pop\n        /* \"#utility.yul\":14949:15042   */\n      swap2\n      swap1\n      pop\n      jump\t// out\n        /* \"#utility.yul\":15048:15155   */\n    tag_135:\n        /* \"#utility.yul\":15092:15100   */\n      0x00\n        /* \"#utility.yul\":15142:15147   */\n      dup3\n        /* \"#utility.yul\":15136:15140   */\n      dup3\n        /* \"#utility.yul\":15132:15148   */\n      shl\n        /* \"#utility.yul\":15111:15148   */\n      swap1\n      pop\n        /* \"#utility.yul\":15048:15155   */\n      swap3\n      swap2\n      pop\n      pop\n      jump\t// out\n        /* \"#utility.yul\":15161:15554   */\n    tag_136:\n        /* \"#utility.yul\":15230:15236   */\n      0x00\n        /* \"#utility.yul\":15280:15281   */\n      0x08\n        /* \"#utility.yul\":15268:15278   */\n      dup4\n        /* \"#utility.yul\":15264:15282   */\n      mul\n        /* \"#utility.yul\":15303:15400   */\n      tag_298\n        /* \"#utility.yul\":15333:15399   */\n      0xffffffffffffffffffffffffffffffffffffffffffffffffffffffffffffffff\n        /* \"#utility.yul\":15322:15331   */\n      dup3\n        /* \"#utility.yul\":15303:15400   */\n      tag_135\n      jump\t// in\n    tag_298:\n        /* \"#utility.yul\":15421:15460   */\n      tag_299\n        /* \"#utility.yul\":15451:15459   */\n      dup7\n        /* \"#utility.yul\":15440:15449   */\n      dup4\n        /* \"#utility.yul\":15421:15460   */\n      tag_135\n      jump\t// in\n    tag_299:\n        /* \"#utility.yul\":15409:15460   */\n      swap6\n      pop\n        /* \"#utility.yul\":15493:15497   */\n      dup1\n        /* \"#utility.yul\":15489:15498   */\n      not\n        /* \"#utility.yul\":15482:15487   */\n      dup5\n        /* \"#utility.yul\":15478:15499   */\n      and\n        /* \"#utility.yul\":15469:15499   */\n      swap4\n      pop\n        /* \"#utility.yul\":15542:15546   */\n      dup1\n        /* \"#utility.yul\":15532:15540   */\n      dup7\n        /* \"#utility.yul\":15528:15547   */\n      and\n        /* \"#utility.yul\":15521:15526   */\n      dup5\n        /* \"#utility.yul\":15518:15548   */\n      or\n        /* \"#utility.yul\":15508:15548   */\n      swap3\n      pop\n        /* \"#utility.yul\":15237:15554   */\n      pop\n      pop\n        /* \"#utility.yul\":15161:15554   */\n      swap4\n      swap3\n      pop\n      pop\n      pop\n      jump\t// out\n        /* \"#utility.yul\":15560:15702   */\n    tag_137:\n        /* \"#utility.yul\":15610:15619   */\n      0x00\n        /* \"#utility.yul\":15643:15696   */\n      tag_301\n        /* \"#utility.yul\":15661:15695   */\n      tag_302\n        /* \"#utility.yul\":15670:15694   */\n      tag_303\n        /* \"#utility.yul\":15688:15693   */\n      dup5\n        /* \"#utility.yul\":15670:15694   */\n      tag_90\n      jump\t// in\n    tag_303:\n        /* \"#utility.yul\":15661:15695   */\n      tag_114\n      jump\t// in\n    tag_302:\n        /* \"#utility.yul\":15643:15696   */\n      tag_90\n      jump\t// in\n    tag_301:\n        /* \"#utility.yul\":15630:15696   */\n      swap1\n      pop\n        /* \"#utility.yul\":15560:15702   */\n      swap2\n      swap1\n      pop\n      jump\t// out\n        /* \"#utility.yul\":15708:15783   */\n    tag_138:\n        /* \"#utility.yul\":15751:15754   */\n      0x00\n        /* \"#utility.yul\":15772:15777   */\n      dup2\n        /* \"#utility.yul\":15765:15777   */\n      swap1\n      pop\n        /* \"#utility.yul\":15708:15783   */\n      swap2\n      swap1\n      pop\n      jump\t// out\n        /* \"#utility.yul\":15789:16058   */\n    tag_139:\n        /* \"#utility.yul\":15899:15938   */\n      tag_306\n        /* \"#utility.yul\":15930:15937   */\n      dup4\n        /* \"#utility.yul\":15899:15938   */\n      tag_137\n      jump\t// in\n    tag_306:\n        /* \"#utility.yul\":15960:16051   */\n      tag_307\n        /* \"#utility.yul\":16009:16050   */\n      tag_308\n        /* \"#utility.yul\":16033:16049   */\n      dup3\n        /* \"#utility.yul\":16009:16050   */\n      tag_138\n      jump\t// in\n    tag_308:\n        /* \"#utility.yul\":16001:16007   */\n      dup5\n        /* \"#utility.yul\":15994:15998   */\n      dup5\n        /* \"#utility.yul\":15988:15999   */\n      sload\n        /* \"#utility.yul\":15960:16051   */\n      tag_136\n      jump\t// in\n    tag_307:\n        /* \"#utility.yul\":15954:15958   */\n      dup3\n        /* \"#utility.yul\":15947:16052   */\n      sstore\n        /* \"#utility.yul\":15865:16058   */\n      pop\n        /* \"#utility.yul\":15789:16058   */\n      pop\n      pop\n      pop\n      jump\t// out\n        /* \"#utility.yul\":16064:16137   */\n    tag_140:\n        /* \"#utility.yul\":16109:16112   */\n      0x00\n        /* \"#utility.yul\":16130:16131   */\n      0x00\n        /* \"#utility.yul\":16123:16131   */\n      swap1\n      pop\n        /* \"#utility.yul\":16064:16137   */\n      swap1\n      jump\t// out\n        /* \"#utility.yul\":16143:16332   */\n    tag_141:\n        /* \"#utility.yul\":16220:16252   */\n      tag_311\n      tag_140\n      jump\t// in\n    tag_311:\n        /* \"#utility.yul\":16261:16326   */\n      tag_312\n        /* \"#utility.yul\":16319:16325   */\n      dup2\n        /* \"#utility.yul\":16311:16317   */\n      dup5\n        /* \"#utility.yul\":16305:16309   */\n      dup5\n        /* \"#utility.yul\":16261:16326   */\n      tag_139\n      jump\t// in\n    tag_312:\n        /* \"#utility.yul\":16196:16332   */\n      pop\n        /* \"#utility.yul\":16143:16332   */\n      pop\n      pop\n      jump\t// out\n        /* \"#utility.yul\":16338:16552   */\n    tag_142:\n        /* \"#utility.yul\":16423:16424   */\n      0x00\n        /* \"#utility.yul\":16408:16546   */\n    tag_314:\n        /* \"#utility.yul\":16433:16442   */\n      dup3\n        /* \"#utility.yul\":16430:16431   */\n      dup2\n        /* \"#utility.yul\":16427:16443   */\n      lt\n        /* \"#utility.yul\":16408:16546   */\n      iszero\n      tag_316\n      jumpi\n        /* \"#utility.yul\":16485:16536   */\n      tag_317\n        /* \"#utility.yul\":16534:16535   */\n      0x00\n        /* \"#utility.yul\":16530:16531   */\n      dup3\n        /* \"#utility.yul\":16519:16528   */\n      dup5\n        /* \"#utility.yul\":16515:16532   */\n      add\n        /* \"#utility.yul\":16485:16536   */\n      tag_141\n      jump\t// in\n    tag_317:\n        /* \"#utility.yul\":16458:16459   */\n      0x01\n        /* \"#utility.yul\":16455:16456   */\n      dup2\n        /* \"#utility.yul\":16451:16460   */\n      add\n        /* \"#utility.yul\":16446:16460   */\n      swap1\n      pop\n        /* \"#utility.yul\":16408:16546   */\n      jump(tag_314)\n    tag_316:\n        /* \"#utility.yul\":16412:16426   */\n      pop\n        /* \"#utility.yul\":16338:16552   */\n      pop\n      pop\n      jump\t// out\n        /* \"#utility.yul\":16558:17304   */\n    tag_143:\n        /* \"#utility.yul\":16659:16661   */\n      0x1f\n        /* \"#utility.yul\":16654:16657   */\n      dup3\n        /* \"#utility.yul\":16651:16662   */\n      gt\n        /* \"#utility.yul\":16648:17297   */\n      iszero\n      tag_319\n      jumpi\n        /* \"#utility.yul\":16688:16698   */\n      dup3\n        /* \"#utility.yul\":16683:16686   */\n      dup3\n        /* \"#utility.yul\":16680:16699   */\n      gt\n        /* \"#utility.yul\":16677:17287   */\n      iszero\n      tag_320\n      jumpi\n        /* \"#utility.yul\":16734:16772   */\n      tag_321\n        /* \"#utility.yul\":16766:16771   */\n      dup2\n        /* \"#utility.yul\":16734:16772   */\n      tag_133\n      jump\t// in\n    tag_321:\n        /* \"#utility.yul\":16809:16831   */\n      tag_322\n        /* \"#utility.yul\":16827:16830   */\n      dup4\n        /* \"#utility.yul\":16809:16831   */\n      tag_134\n      jump\t// in\n    tag_322:\n        /* \"#utility.yul\":16868:16897   */\n      tag_323\n        /* \"#utility.yul\":16886:16896   */\n      dup6\n        /* \"#utility.yul\":16868:16897   */\n      tag_134\n      jump\t// in\n    tag_323:\n        /* \"#utility.yul\":17058:17060   */\n      0x20\n        /* \"#utility.yul\":17046:17056   */\n      dup7\n        /* \"#utility.yul\":17043:17061   */\n      lt\n        /* \"#utility.yul\":17040:17119   */\n      iszero\n      tag_324\n      jumpi\n        /* \"#utility.yul\":17100:17101   */\n      0x00\n        /* \"#utility.yul\":17084:17101   */\n      swap1\n      pop\n        /* \"#utility.yul\":17040:17119   */\n    tag_324:\n        /* \"#utility.yul\":17169:17181   */\n      dup1\n        /* \"#utility.yul\":17159:17167   */\n      dup4\n        /* \"#utility.yul\":17155:17182   */\n      add\n        /* \"#utility.yul\":17199:17273   */\n      tag_325\n        /* \"#utility.yul\":17259:17271   */\n      dup3\n        /* \"#utility.yul\":17245:17257   */\n      dup5\n        /* \"#utility.yul\":17241:17272   */\n      sub\n        /* \"#utility.yul\":17228:17239   */\n      dup3\n        /* \"#utility.yul\":17199:17273   */\n      tag_142\n      jump\t// in\n    tag_325:\n        /* \"#utility.yul\":16700:17287   */\n      pop\n      pop\n      pop\n      pop\n        /* \"#utility.yul\":16677:17287   */\n    tag_320:\n        /* \"#utility.yul\":16648:17297   */\n    tag_319:\n        /* \"#utility.yul\":16558:17304   */\n      pop\n      pop\n      pop\n      jump\t// out\n        /* \"#utility.yul\":17310:17427   */\n    tag_144:\n        /* \"#utility.yul\":17364:17372   */\n      0x00\n        /* \"#utility.yul\":17414:17419   */\n      dup3\n        /* \"#utility.yul\":17408:17412   */\n      dup3\n        /* \"#utility.yul\":17404:17420   */\n      shr\n        /* \"#utility.yul\":17383:17420   */\n      swap1\n      pop\n        /* \"#utility.yul\":17310:17427   */\n      swap3\n      swap2\n      pop\n      pop\n      jump\t// out\n        /* \"#utility.yul\":17433:17602   */\n    tag_145:\n        /* \"#utility.yul\":17477:17483   */\n      0x00\n        /* \"#utility.yul\":17510:17561   */\n      tag_328\n        /* \"#utility.yul\":17558:17559   */\n      0x00\n        /* \"#utility.yul\":17554:17560   */\n      not\n        /* \"#utility.yul\":17546:17551   */\n      dup5\n        /* \"#utility.yul\":17543:17544   */\n      0x08\n        /* \"#utility.yul\":17539:17552   */\n      mul\n        /* \"#utility.yul\":17510:17561   */\n      tag_144\n      jump\t// in\n    tag_328:\n        /* \"#utility.yul\":17506:17562   */\n      not\n        /* \"#utility.yul\":17591:17595   */\n      dup1\n        /* \"#utility.yul\":17585:17589   */\n      dup4\n        /* \"#utility.yul\":17581:17596   */\n      and\n        /* \"#utility.yul\":17571:17596   */\n      swap2\n      pop\n        /* \"#utility.yul\":17484:17602   */\n      pop\n        /* \"#utility.yul\":17433:17602   */\n      swap3\n      swap2\n      pop\n      pop\n      jump\t// out\n        /* \"#utility.yul\":17607:17902   */\n    tag_146:\n        /* \"#utility.yul\":17683:17687   */\n      0x00\n        /* \"#utility.yul\":17829:17858   */\n      tag_330\n        /* \"#utility.yul\":17854:17857   */\n      dup4\n        /* \"#utility.yul\":17848:17852   */\n      dup4\n        /* \"#utility.yul\":17829:17858   */\n      tag_145\n      jump\t// in\n    tag_330:\n        /* \"#utility.yul\":17821:17858   */\n      swap2\n      pop\n        /* \"#utility.yul\":17891:17894   */\n      dup3\n        /* \"#utility.yul\":17888:17889   */\n      0x02\n        /* \"#utility.yul\":17884:17895   */\n      mul\n        /* \"#utility.yul\":17878:17882   */\n      dup3\n        /* \"#utility.yul\":17875:17896   */\n      or\n        /* \"#utility.yul\":17867:17896   */\n      swap1\n      pop\n        /* \"#utility.yul\":17607:17902   */\n      swap3\n      swap2\n      pop\n      pop\n      jump\t// out\n        /* \"#utility.yul\":17907:19302   */\n    tag_85:\n        /* \"#utility.yul\":18024:18061   */\n      tag_332\n        /* \"#utility.yul\":18057:18060   */\n      dup3\n        /* \"#utility.yul\":18024:18061   */\n      tag_93\n      jump\t// in\n    tag_332:\n        /* \"#utility.yul\":18126:18144   */\n      0xffffffffffffffff\n        /* \"#utility.yul\":18118:18124   */\n      dup2\n        /* \"#utility.yul\":18115:18145   */\n      gt\n        /* \"#utility.yul\":18112:18168   */\n      iszero\n      tag_333\n      jumpi\n        /* \"#utility.yul\":18148:18166   */\n      tag_334\n      tag_103\n      jump\t// in\n    tag_334:\n        /* \"#utility.yul\":18112:18168   */\n    tag_333:\n        /* \"#utility.yul\":18192:18230   */\n      tag_335\n        /* \"#utility.yul\":18224:18228   */\n      dup3\n        /* \"#utility.yul\":18218:18229   */\n      sload\n        /* \"#utility.yul\":18192:18230   */\n      tag_66\n      jump\t// in\n    tag_335:\n        /* \"#utility.yul\":18277:18344   */\n      tag_336\n        /* \"#utility.yul\":18337:18343   */\n      dup3\n        /* \"#utility.yul\":18329:18335   */\n      dup3\n        /* \"#utility.yul\":18323:18327   */\n      dup6\n        /* \"#utility.yul\":18277:18344   */\n      tag_143\n      jump\t// in\n    tag_336:\n        /* \"#utility.yul\":18371:18372   */\n      0x00\n        /* \"#utility.yul\":18395:18399   */\n      0x20\n        /* \"#utility.yul\":18382:18399   */\n      swap1\n      pop\n        /* \"#utility.yul\":18427:18429   */\n      0x1f\n        /* \"#utility.yul\":18419:18425   */\n      dup4\n        /* \"#utility.yul\":18416:18430   */\n      gt\n        /* \"#utility.yul\":18444:18445   */\n      0x01\n        /* \"#utility.yul\":18439:19057   */\n      dup2\n      eq\n      tag_338\n      jumpi\n        /* \"#utility.yul\":19101:19102   */\n      0x00\n        /* \"#utility.yul\":19118:19124   */\n      dup5\n        /* \"#utility.yul\":19115:19192   */\n      iszero\n      tag_339\n      jumpi\n        /* \"#utility.yul\":19167:19176   */\n      dup3\n        /* \"#utility.yul\":19162:19165   */\n      dup8\n        /* \"#utility.yul\":19158:19177   */\n      add\n        /* \"#utility.yul\":19152:19178   */\n      mload\n        /* \"#utility.yul\":19143:19178   */\n      swap1\n      pop\n        /* \"#utility.yul\":19115:19192   */\n    tag_339:\n        /* \"#utility.yul\":19218:19285   */\n      tag_340\n        /* \"#utility.yul\":19278:19284   */\n      dup6\n        /* \"#utility.yul\":19271:19276   */\n      dup3\n        /* \"#utility.yul\":19218:19285   */\n      tag_146\n      jump\t// in\n    tag_340:\n        /* \"#utility.yul\":19212:19216   */\n      dup7\n        /* \"#utility.yul\":19205:19286   */\n      sstore\n        /* \"#utility.yul\":19074:19296   */\n      pop\n        /* \"#utility.yul\":18409:19296   */\n      jump(tag_337)\n        /* \"#utility.yul\":18439:19057   */\n    tag_338:\n        /* \"#utility.yul\":18491:18495   */\n      0x1f\n        /* \"#utility.yul\":18487:18496   */\n      not\n        /* \"#utility.yul\":18479:18485   */\n      dup5\n        /* \"#utility.yul\":18475:18497   */\n      and\n        /* \"#utility.yul\":18525:18562   */\n      tag_341\n        /* \"#utility.yul\":18557:18561   */\n      dup7\n        /* \"#utility.yul\":18525:18562   */\n      tag_133\n      jump\t// in\n    tag_341:\n        /* \"#utility.yul\":18584:18585   */\n      0x00\n        /* \"#utility.yul\":18598:18806   */\n    tag_342:\n        /* \"#utility.yul\":18612:18619   */\n      dup3\n        /* \"#utility.yul\":18609:18610   */\n      dup2\n        /* \"#utility.yul\":18606:18620   */\n      lt\n        /* \"#utility.yul\":18598:18806   */\n      iszero\n      tag_344\n      jumpi\n        /* \"#utility.yul\":18691:18700   */\n      dup5\n        /* \"#utility.yul\":18686:18689   */\n      dup10\n        /* \"#utility.yul\":18682:18701   */\n      add\n        /* \"#utility.yul\":18676:18702   */\n      mload\n        /* \"#utility.yul\":18668:18674   */\n      dup3\n        /* \"#utility.yul\":18661:18703   */\n      sstore\n        /* \"#utility.yul\":18742:18743   */\n      0x01\n        /* \"#utility.yul\":18734:18740   */\n      dup3\n        /* \"#utility.yul\":18730:18744   */\n      add\n        /* \"#utility.yul\":18720:18744   */\n      swap2\n      pop\n        /* \"#utility.yul\":18789:18791   */\n      0x20\n        /* \"#utility.yul\":18778:18787   */\n      dup6\n        /* \"#utility.yul\":18774:18792   */\n      add\n        /* \"#utility.yul\":18761:18792   */\n      swap5\n      pop\n        /* \"#utility.yul\":18635:18639   */\n      0x20\n        /* \"#utility.yul\":18632:18633   */\n      dup2\n        /* \"#utility.yul\":18628:18640   */\n      add\n        /* \"#utility.yul\":18623:18640   */\n      swap1\n      pop\n        /* \"#utility.yul\":18598:18806   */\n      jump(tag_342)\n    tag_344:\n        /* \"#utility.yul\":18834:18840   */\n      dup7\n        /* \"#utility.yul\":18825:18832   */\n      dup4\n        /* \"#utility.yul\":18822:18841   */\n      lt\n        /* \"#utility.yul\":18819:18998   */\n      iszero\n      tag_345\n      jumpi\n        /* \"#utility.yul\":18892:18901   */\n      dup5\n        /* \"#utility.yul\":18887:18890   */\n      dup10\n        /* \"#utility.yul\":18883:18902   */\n      add\n        /* \"#utility.yul\":18877:18903   */\n      mload\n        /* \"#utility.yul\":18935:18983   */\n      tag_346\n        /* \"#utility.yul\":18977:18981   */\n      0x1f\n        /* \"#utility.yul\":18969:18975   */\n      dup10\n        /* \"#utility.yul\":18965:18982   */\n      and\n        /* \"#utility.yul\":18954:18963   */\n      dup3\n        /* \"#utility.yul\":18935:18983   */\n      tag_145\n      jump\t// in\n    tag_346:\n        /* \"#utility.yul\":18927:18933   */\n      dup4\n        /* \"#utility.yul\":18920:18984   */\n      sstore\n        /* \"#utility.yul\":18842:18998   */\n      pop\n        /* \"#utility.yul\":18819:18998   */\n    tag_345:\n        /* \"#utility.yul\":19044:19045   */\n      0x01\n        /* \"#utility.yul\":19040:19041   */\n      0x02\n        /* \"#utility.yul\":19032:19038   */\n      dup9\n        /* \"#utility.yul\":19028:19042   */\n      mul\n        /* \"#utility.yul\":19024:19046   */\n      add\n        /* \"#utility.yul\":19018:19022   */\n      dup9\n        /* \"#utility.yul\":19011:19047   */\n      sstore\n        /* \"#utility.yul\":18446:19057   */\n      pop\n      pop\n      pop\n        /* \"#utility.yul\":18409:19296   */\n    tag_337:\n      pop\n        /* \"#utility.yul\":17999:19302   */\n      pop\n      pop\n      pop\n        /* \"#utility.yul\":17907:19302   */\n      pop\n      pop\n      jump\t// out\n\n    auxdata: 0xa2646970667358221220e5b5c3ad060c65e941011615fbdb950ca44499ca04d47ab07e1cbda3fabba6ba64736f6c63430008220033\n}\n",
				"bytecode": {
					"linkReferences": {},
					"object": "608060405234801561000f575f5ffd5b506040516111a13803806111a1833981810160405281019061003191906100d4565b805f5f6101000a81548173ffffffffffffffffffffffffffffffffffffffff021916908373ffffffffffffffffffffffffffffffffffffffff160217905550506100ff565b5f5ffd5b5f73ffffffffffffffffffffffffffffffffffffffff82169050919050565b5f6100a38261007a565b9050919050565b6100b381610099565b81146100bd575f5ffd5b50565b5f815190506100ce816100aa565b92915050565b5f602082840312156100e9576100e8610076565b5b5f6100f6848285016100c0565b91505092915050565b6110958061010c5f395ff3fe608060405234801561000f575f5ffd5b506004361061007b575f3560e01c806335facf781161005957806335facf78146100ea578063438596321461010657806398e527d314610136578063f96dae0a146101545761007b565b80630121b93f1461007f578063013cf08b1461009b5780630d61b519146100ce575b5f5ffd5b610099600480360381019061009491906106bd565b610172565b005b6100b560048036038101906100b091906106bd565b6103d4565b6040516100c59493929190610781565b60405180910390f35b6100e860048036038101906100e391906106bd565b6104a1565b005b61010460048036038101906100ff91906108f7565b61057c565b005b610120600480360381019061011b91906109ab565b61061f565b60405161012d91906109e9565b60405180910390f35b61013e610649565b60405161014b9190610a02565b60405180910390f35b61015c610655565b6040516101699190610a76565b60405180910390f35b5f6001828154811061018757610186610a8f565b5b905f5260205f2090600402019050806002015442106101db576040517f08c379a00000000000000000000000000000000000000000000000000000000081526004016101d290610b06565b60405180910390fd5b60025f8381526020019081526020015f205f3373ffffffffffffffffffffffffffffffffffffffff1673ffffffffffffffffffffffffffffffffffffffff1681526020019081526020015f205f9054906101000a900460ff1615610274576040517f08c379a000000000000000000000000000000000000000000000000000000000815260040161026b90610b6e565b60405180910390fd5b5f5f5f9054906101000a900473ffffffffffffffffffffffffffffffffffffffff1673ffffffffffffffffffffffffffffffffffffffff166370a08231336040518263ffffffff1660e01b81526004016102ce9190610b9b565b602060405180830381865afa1580156102e9573d5f5f3e3d5ffd5b505050506040513d601f19601f8201168201806040525081019061030d9190610bc8565b90505f8111610351576040517f08c379a000000000000000000000000000000000000000000000000000000000815260040161034890610c3d565b60405180910390fd5b80826001015f8282546103649190610c88565b92505081905550600160025f8581526020019081526020015f205f3373ffffffffffffffffffffffffffffffffffffffff1673ffffffffffffffffffffffffffffffffffffffff1681526020019081526020015f205f6101000a81548160ff021916908315150217905550505050565b600181815481106103e3575f80fd5b905f5260205f2090600402015f91509050805f01805461040290610ce8565b80601f016020809104026020016040519081016040528092919081815260200182805461042e90610ce8565b80156104795780601f1061045057610100808354040283529160200191610479565b820191905f5260205f20905b81548152906001019060200180831161045c57829003601f168201915b505050505090806001015490806002015490806003015f9054906101000a900460ff16905084565b5f600182815481106104b6576104b5610a8f565b5b905f5260205f2090600402019050806002015442101561050b576040517f08c379a000000000000000000000000000000000000000000000000000000000815260040161050290610d62565b60405180910390fd5b806003015f9054906101000a900460ff161561055c576040517f08c379a000000000000000000000000000000000000000000000000000000000815260040161055390610dca565b60405180910390fd5b6001816003015f6101000a81548160ff0219169083151502179055505050565b600160405180608001604052808481526020015f815260200183426105a19190610c88565b81526020015f1515815250908060018154018082558091505060019003905f5260205f2090600402015f909190919091505f820151815f0190816105e59190610f90565b5060208201518160010155604082015181600201556060820151816003015f6101000a81548160ff02191690831515021790555050505050565b6002602052815f5260405f20602052805f5260405f205f915091509054906101000a900460ff1681565b5f600180549050905090565b5f5f9054906101000a900473ffffffffffffffffffffffffffffffffffffffff1681565b5f604051905090565b5f5ffd5b5f5ffd5b5f819050919050565b61069c8161068a565b81146106a6575f5ffd5b50565b5f813590506106b781610693565b92915050565b5f602082840312156106d2576106d1610682565b5b5f6106df848285016106a9565b91505092915050565b5f81519050919050565b5f82825260208201905092915050565b8281835e5f83830152505050565b5f601f19601f8301169050919050565b5f61072a826106e8565b61073481856106f2565b9350610744818560208601610702565b61074d81610710565b840191505092915050565b6107618161068a565b82525050565b5f8115159050919050565b61077b81610767565b82525050565b5f6080820190508181035f8301526107998187610720565b90506107a86020830186610758565b6107b56040830185610758565b6107c26060830184610772565b95945050505050565b5f5ffd5b5f5ffd5b7f4e487b71000000000000000000000000000000000000000000000000000000005f52604160045260245ffd5b61080982610710565b810181811067ffffffffffffffff82111715610828576108276107d3565b5b80604052505050565b5f61083a610679565b90506108468282610800565b919050565b5f67ffffffffffffffff821115610865576108646107d3565b5b61086e82610710565b9050602081019050919050565b828183375f83830152505050565b5f61089b6108968461084b565b610831565b9050828152602081018484840111156108b7576108b66107cf565b5b6108c284828561087b565b509392505050565b5f82601f8301126108de576108dd6107cb565b5b81356108ee848260208601610889565b91505092915050565b5f5f6040838503121561090d5761090c610682565b5b5f83013567ffffffffffffffff81111561092a57610929610686565b5b610936858286016108ca565b9250506020610947858286016106a9565b9150509250929050565b5f73ffffffffffffffffffffffffffffffffffffffff82169050919050565b5f61097a82610951565b9050919050565b61098a81610970565b8114610994575f5ffd5b50565b5f813590506109a581610981565b92915050565b5f5f604083850312156109c1576109c0610682565b5b5f6109ce858286016106a9565b92505060206109df85828601610997565b9150509250929050565b5f6020820190506109fc5f830184610772565b92915050565b5f602082019050610a155f830184610758565b92915050565b5f819050919050565b5f610a3e610a39610a3484610951565b610a1b565b610951565b9050919050565b5f610a4f82610a24565b9050919050565b5f610a6082610a45565b9050919050565b610a7081610a56565b82525050565b5f602082019050610a895f830184610a67565b92915050565b7f4e487b71000000000000000000000000000000000000000000000000000000005f52603260045260245ffd5b7f566f746163616f20656e636572726164610000000000000000000000000000005f82015250565b5f610af06011836106f2565b9150610afb82610abc565b602082019050919050565b5f6020820190508181035f830152610b1d81610ae4565b9050919050565b7f4a6120766f746f750000000000000000000000000000000000000000000000005f82015250565b5f610b586008836106f2565b9150610b6382610b24565b602082019050919050565b5f6020820190508181035f830152610b8581610b4c565b9050919050565b610b9581610970565b82525050565b5f602082019050610bae5f830184610b8c565b92915050565b5f81519050610bc281610693565b92915050565b5f60208284031215610bdd57610bdc610682565b5b5f610bea84828501610bb4565b91505092915050565b7f53656d20706f64657220646520766f746f0000000000000000000000000000005f82015250565b5f610c276011836106f2565b9150610c3282610bf3565b602082019050919050565b5f6020820190508181035f830152610c5481610c1b565b9050919050565b7f4e487b71000000000000000000000000000000000000000000000000000000005f52601160045260245ffd5b5f610c928261068a565b9150610c9d8361068a565b9250828201905080821115610cb557610cb4610c5b565b5b92915050565b7f4e487b71000000000000000000000000000000000000000000000000000000005f52602260045260245ffd5b5f6002820490506001821680610cff57607f821691505b602082108103610d1257610d11610cbb565b5b50919050565b7f566f746163616f2061696e6461206174697661000000000000000000000000005f82015250565b5f610d4c6013836106f2565b9150610d5782610d18565b602082019050919050565b5f6020820190508181035f830152610d7981610d40565b9050919050565b7f4a612065786563757461646100000000000000000000000000000000000000005f82015250565b5f610db4600c836106f2565b9150610dbf82610d80565b602082019050919050565b5f6020820190508181035f830152610de181610da8565b9050919050565b5f819050815f5260205f209050919050565b5f6020601f8301049050919050565b5f82821b905092915050565b5f60088302610e447fffffffffffffffffffffffffffffffffffffffffffffffffffffffffffffffff82610e09565b610e4e8683610e09565b95508019841693508086168417925050509392505050565b5f610e80610e7b610e768461068a565b610a1b565b61068a565b9050919050565b5f819050919050565b610e9983610e66565b610ead610ea582610e87565b848454610e15565b825550505050565b5f5f905090565b610ec4610eb5565b610ecf818484610e90565b505050565b5f5b82811015610ef557610eea5f828401610ebc565b600181019050610ed6565b505050565b601f821115610f485782821115610f4757610f1481610de8565b610f1d83610dfa565b610f2685610dfa565b6020861015610f33575f90505b808301610f4282840382610ed4565b505050505b5b505050565b5f82821c905092915050565b5f610f685f1984600802610f4d565b1980831691505092915050565b5f610f808383610f59565b9150826002028217905092915050565b610f99826106e8565b67ffffffffffffffff811115610fb257610fb16107d3565b5b610fbc8254610ce8565b610fc7828285610efa565b5f60209050601f831160018114610ff8575f8415610fe6578287015190505b610ff08582610f75565b865550611057565b601f19841661100686610de8565b5f5b8281101561102d57848901518255600182019150602085019450602081019050611008565b8683101561104a5784890151611046601f891682610f59565b8355505b6001600288020188555050505b50505050505056fea2646970667358221220e5b5c3ad060c65e941011615fbdb950ca44499ca04d47ab07e1cbda3fabba6ba64736f6c63430008220033",
					"opcodes": "PUSH1 0x80 PUSH1 0x40 MSTORE CALLVALUE DUP1 ISZERO PUSH2 0xF JUMPI PUSH0 PUSH0 REVERT JUMPDEST POP PUSH1 0x40 MLOAD PUSH2 0x11A1 CODESIZE SUB DUP1 PUSH2 0x11A1 DUP4 CODECOPY DUP2 DUP2 ADD PUSH1 0x40 MSTORE DUP2 ADD SWAP1 PUSH2 0x31 SWAP2 SWAP1 PUSH2 0xD4 JUMP JUMPDEST DUP1 PUSH0 PUSH0 PUSH2 0x100 EXP DUP2 SLOAD DUP2 PUSH20 0xFFFFFFFFFFFFFFFFFFFFFFFFFFFFFFFFFFFFFFFF MUL NOT AND SWAP1 DUP4 PUSH20 0xFFFFFFFFFFFFFFFFFFFFFFFFFFFFFFFFFFFFFFFF AND MUL OR SWAP1 SSTORE POP POP PUSH2 0xFF JUMP JUMPDEST PUSH0 PUSH0 REVERT JUMPDEST PUSH0 PUSH20 0xFFFFFFFFFFFFFFFFFFFFFFFFFFFFFFFFFFFFFFFF DUP3 AND SWAP1 POP SWAP2 SWAP1 POP JUMP JUMPDEST PUSH0 PUSH2 0xA3 DUP3 PUSH2 0x7A JUMP JUMPDEST SWAP1 POP SWAP2 SWAP1 POP JUMP JUMPDEST PUSH2 0xB3 DUP2 PUSH2 0x99 JUMP JUMPDEST DUP2 EQ PUSH2 0xBD JUMPI PUSH0 PUSH0 REVERT JUMPDEST POP JUMP JUMPDEST PUSH0 DUP2 MLOAD SWAP1 POP PUSH2 0xCE DUP2 PUSH2 0xAA JUMP JUMPDEST SWAP3 SWAP2 POP POP JUMP JUMPDEST PUSH0 PUSH1 0x20 DUP3 DUP5 SUB SLT ISZERO PUSH2 0xE9 JUMPI PUSH2 0xE8 PUSH2 0x76 JUMP JUMPDEST JUMPDEST PUSH0 PUSH2 0xF6 DUP5 DUP3 DUP6 ADD PUSH2 0xC0 JUMP JUMPDEST SWAP2 POP POP SWAP3 SWAP2 POP POP JUMP JUMPDEST PUSH2 0x1095 DUP1 PUSH2 0x10C PUSH0 CODECOPY PUSH0 RETURN INVALID PUSH1 0x80 PUSH1 0x40 MSTORE CALLVALUE DUP1 ISZERO PUSH2 0xF JUMPI PUSH0 PUSH0 REVERT JUMPDEST POP PUSH1 0x4 CALLDATASIZE LT PUSH2 0x7B JUMPI PUSH0 CALLDATALOAD PUSH1 0xE0 SHR DUP1 PUSH4 0x35FACF78 GT PUSH2 0x59 JUMPI DUP1 PUSH4 0x35FACF78 EQ PUSH2 0xEA JUMPI DUP1 PUSH4 0x43859632 EQ PUSH2 0x106 JUMPI DUP1 PUSH4 0x98E527D3 EQ PUSH2 0x136 JUMPI DUP1 PUSH4 0xF96DAE0A EQ PUSH2 0x154 JUMPI PUSH2 0x7B JUMP JUMPDEST DUP1 PUSH4 0x121B93F EQ PUSH2 0x7F JUMPI DUP1 PUSH4 0x13CF08B EQ PUSH2 0x9B JUMPI DUP1 PUSH4 0xD61B519 EQ PUSH2 0xCE JUMPI JUMPDEST PUSH0 PUSH0 REVERT JUMPDEST PUSH2 0x99 PUSH1 0x4 DUP1 CALLDATASIZE SUB DUP2 ADD SWAP1 PUSH2 0x94 SWAP2 SWAP1 PUSH2 0x6BD JUMP JUMPDEST PUSH2 0x172 JUMP JUMPDEST STOP JUMPDEST PUSH2 0xB5 PUSH1 0x4 DUP1 CALLDATASIZE SUB DUP2 ADD SWAP1 PUSH2 0xB0 SWAP2 SWAP1 PUSH2 0x6BD JUMP JUMPDEST PUSH2 0x3D4 JUMP JUMPDEST PUSH1 0x40 MLOAD PUSH2 0xC5 SWAP5 SWAP4 SWAP3 SWAP2 SWAP1 PUSH2 0x781 JUMP JUMPDEST PUSH1 0x40 MLOAD DUP1 SWAP2 SUB SWAP1 RETURN JUMPDEST PUSH2 0xE8 PUSH1 0x4 DUP1 CALLDATASIZE SUB DUP2 ADD SWAP1 PUSH2 0xE3 SWAP2 SWAP1 PUSH2 0x6BD JUMP JUMPDEST PUSH2 0x4A1 JUMP JUMPDEST STOP JUMPDEST PUSH2 0x104 PUSH1 0x4 DUP1 CALLDATASIZE SUB DUP2 ADD SWAP1 PUSH2 0xFF SWAP2 SWAP1 PUSH2 0x8F7 JUMP JUMPDEST PUSH2 0x57C JUMP JUMPDEST STOP JUMPDEST PUSH2 0x120 PUSH1 0x4 DUP1 CALLDATASIZE SUB DUP2 ADD SWAP1 PUSH2 0x11B SWAP2 SWAP1 PUSH2 0x9AB JUMP JUMPDEST PUSH2 0x61F JUMP JUMPDEST PUSH1 0x40 MLOAD PUSH2 0x12D SWAP2 SWAP1 PUSH2 0x9E9 JUMP JUMPDEST PUSH1 0x40 MLOAD DUP1 SWAP2 SUB SWAP1 RETURN JUMPDEST PUSH2 0x13E PUSH2 0x649 JUMP JUMPDEST PUSH1 0x40 MLOAD PUSH2 0x14B SWAP2 SWAP1 PUSH2 0xA02 JUMP JUMPDEST PUSH1 0x40 MLOAD DUP1 SWAP2 SUB SWAP1 RETURN JUMPDEST PUSH2 0x15C PUSH2 0x655 JUMP JUMPDEST PUSH1 0x40 MLOAD PUSH2 0x169 SWAP2 SWAP1 PUSH2 0xA76 JUMP JUMPDEST PUSH1 0x40 MLOAD DUP1 SWAP2 SUB SWAP1 RETURN JUMPDEST PUSH0 PUSH1 0x1 DUP3 DUP2 SLOAD DUP2 LT PUSH2 0x187 JUMPI PUSH2 0x186 PUSH2 0xA8F JUMP JUMPDEST JUMPDEST SWAP1 PUSH0 MSTORE PUSH1 0x20 PUSH0 KECCAK256 SWAP1 PUSH1 0x4 MUL ADD SWAP1 POP DUP1 PUSH1 0x2 ADD SLOAD TIMESTAMP LT PUSH2 0x1DB JUMPI PUSH1 0x40 MLOAD PUSH32 0x8C379A000000000000000000000000000000000000000000000000000000000 DUP2 MSTORE PUSH1 0x4 ADD PUSH2 0x1D2 SWAP1 PUSH2 0xB06 JUMP JUMPDEST PUSH1 0x40 MLOAD DUP1 SWAP2 SUB SWAP1 REVERT JUMPDEST PUSH1 0x2 PUSH0 DUP4 DUP2 MSTORE PUSH1 0x20 ADD SWAP1 DUP2 MSTORE PUSH1 0x20 ADD PUSH0 KECCAK256 PUSH0 CALLER PUSH20 0xFFFFFFFFFFFFFFFFFFFFFFFFFFFFFFFFFFFFFFFF AND PUSH20 0xFFFFFFFFFFFFFFFFFFFFFFFFFFFFFFFFFFFFFFFF AND DUP2 MSTORE PUSH1 0x20 ADD SWAP1 DUP2 MSTORE PUSH1 0x20 ADD PUSH0 KECCAK256 PUSH0 SWAP1 SLOAD SWAP1 PUSH2 0x100 EXP SWAP1 DIV PUSH1 0xFF AND ISZERO PUSH2 0x274 JUMPI PUSH1 0x40 MLOAD PUSH32 0x8C379A000000000000000000000000000000000000000000000000000000000 DUP2 MSTORE PUSH1 0x4 ADD PUSH2 0x26B SWAP1 PUSH2 0xB6E JUMP JUMPDEST PUSH1 0x40 MLOAD DUP1 SWAP2 SUB SWAP1 REVERT JUMPDEST PUSH0 PUSH0 PUSH0 SWAP1 SLOAD SWAP1 PUSH2 0x100 EXP SWAP1 DIV PUSH20 0xFFFFFFFFFFFFFFFFFFFFFFFFFFFFFFFFFFFFFFFF AND PUSH20 0xFFFFFFFFFFFFFFFFFFFFFFFFFFFFFFFFFFFFFFFF AND PUSH4 0x70A08231 CALLER PUSH1 0x40 MLOAD DUP3 PUSH4 0xFFFFFFFF AND PUSH1 0xE0 SHL DUP2 MSTORE PUSH1 0x4 ADD PUSH2 0x2CE SWAP2 SWAP1 PUSH2 0xB9B JUMP JUMPDEST PUSH1 0x20 PUSH1 0x40 MLOAD DUP1 DUP4 SUB DUP2 DUP7 GAS STATICCALL ISZERO DUP1 ISZERO PUSH2 0x2E9 JUMPI RETURNDATASIZE PUSH0 PUSH0 RETURNDATACOPY RETURNDATASIZE PUSH0 REVERT JUMPDEST POP POP POP POP PUSH1 0x40 MLOAD RETURNDATASIZE PUSH1 0x1F NOT PUSH1 0x1F DUP3 ADD AND DUP3 ADD DUP1 PUSH1 0x40 MSTORE POP DUP2 ADD SWAP1 PUSH2 0x30D SWAP2 SWAP1 PUSH2 0xBC8 JUMP JUMPDEST SWAP1 POP PUSH0 DUP2 GT PUSH2 0x351 JUMPI PUSH1 0x40 MLOAD PUSH32 0x8C379A000000000000000000000000000000000000000000000000000000000 DUP2 MSTORE PUSH1 0x4 ADD PUSH2 0x348 SWAP1 PUSH2 0xC3D JUMP JUMPDEST PUSH1 0x40 MLOAD DUP1 SWAP2 SUB SWAP1 REVERT JUMPDEST DUP1 DUP3 PUSH1 0x1 ADD PUSH0 DUP3 DUP3 SLOAD PUSH2 0x364 SWAP2 SWAP1 PUSH2 0xC88 JUMP JUMPDEST SWAP3 POP POP DUP2 SWAP1 SSTORE POP PUSH1 0x1 PUSH1 0x2 PUSH0 DUP6 DUP2 MSTORE PUSH1 0x20 ADD SWAP1 DUP2 MSTORE PUSH1 0x20 ADD PUSH0 KECCAK256 PUSH0 CALLER PUSH20 0xFFFFFFFFFFFFFFFFFFFFFFFFFFFFFFFFFFFFFFFF AND PUSH20 0xFFFFFFFFFFFFFFFFFFFFFFFFFFFFFFFFFFFFFFFF AND DUP2 MSTORE PUSH1 0x20 ADD SWAP1 DUP2 MSTORE PUSH1 0x20 ADD PUSH0 KECCAK256 PUSH0 PUSH2 0x100 EXP DUP2 SLOAD DUP2 PUSH1 0xFF MUL NOT AND SWAP1 DUP4 ISZERO ISZERO MUL OR SWAP1 SSTORE POP POP POP POP JUMP JUMPDEST PUSH1 0x1 DUP2 DUP2 SLOAD DUP2 LT PUSH2 0x3E3 JUMPI PUSH0 DUP1 REVERT JUMPDEST SWAP1 PUSH0 MSTORE PUSH1 0x20 PUSH0 KECCAK256 SWAP1 PUSH1 0x4 MUL ADD PUSH0 SWAP2 POP SWAP1 POP DUP1 PUSH0 ADD DUP1 SLOAD PUSH2 0x402 SWAP1 PUSH2 0xCE8 JUMP JUMPDEST DUP1 PUSH1 0x1F ADD PUSH1 0x20 DUP1 SWAP2 DIV MUL PUSH1 0x20 ADD PUSH1 0x40 MLOAD SWAP1 DUP2 ADD PUSH1 0x40 MSTORE DUP1 SWAP3 SWAP2 SWAP1 DUP2 DUP2 MSTORE PUSH1 0x20 ADD DUP3 DUP1 SLOAD PUSH2 0x42E SWAP1 PUSH2 0xCE8 JUMP JUMPDEST DUP1 ISZERO PUSH2 0x479 JUMPI DUP1 PUSH1 0x1F LT PUSH2 0x450 JUMPI PUSH2 0x100 DUP1 DUP4 SLOAD DIV MUL DUP4 MSTORE SWAP2 PUSH1 0x20 ADD SWAP2 PUSH2 0x479 JUMP JUMPDEST DUP3 ADD SWAP2 SWAP1 PUSH0 MSTORE PUSH1 0x20 PUSH0 KECCAK256 SWAP1 JUMPDEST DUP2 SLOAD DUP2 MSTORE SWAP1 PUSH1 0x1 ADD SWAP1 PUSH1 0x20 ADD DUP1 DUP4 GT PUSH2 0x45C JUMPI DUP3 SWAP1 SUB PUSH1 0x1F AND DUP3 ADD SWAP2 JUMPDEST POP POP POP POP POP SWAP1 DUP1 PUSH1 0x1 ADD SLOAD SWAP1 DUP1 PUSH1 0x2 ADD SLOAD SWAP1 DUP1 PUSH1 0x3 ADD PUSH0 SWAP1 SLOAD SWAP1 PUSH2 0x100 EXP SWAP1 DIV PUSH1 0xFF AND SWAP1 POP DUP5 JUMP JUMPDEST PUSH0 PUSH1 0x1 DUP3 DUP2 SLOAD DUP2 LT PUSH2 0x4B6 JUMPI PUSH2 0x4B5 PUSH2 0xA8F JUMP JUMPDEST JUMPDEST SWAP1 PUSH0 MSTORE PUSH1 0x20 PUSH0 KECCAK256 SWAP1 PUSH1 0x4 MUL ADD SWAP1 POP DUP1 PUSH1 0x2 ADD SLOAD TIMESTAMP LT ISZERO PUSH2 0x50B JUMPI PUSH1 0x40 MLOAD PUSH32 0x8C379A000000000000000000000000000000000000000000000000000000000 DUP2 MSTORE PUSH1 0x4 ADD PUSH2 0x502 SWAP1 PUSH2 0xD62 JUMP JUMPDEST PUSH1 0x40 MLOAD DUP1 SWAP2 SUB SWAP1 REVERT JUMPDEST DUP1 PUSH1 0x3 ADD PUSH0 SWAP1 SLOAD SWAP1 PUSH2 0x100 EXP SWAP1 DIV PUSH1 0xFF AND ISZERO PUSH2 0x55C JUMPI PUSH1 0x40 MLOAD PUSH32 0x8C379A000000000000000000000000000000000000000000000000000000000 DUP2 MSTORE PUSH1 0x4 ADD PUSH2 0x553 SWAP1 PUSH2 0xDCA JUMP JUMPDEST PUSH1 0x40 MLOAD DUP1 SWAP2 SUB SWAP1 REVERT JUMPDEST PUSH1 0x1 DUP2 PUSH1 0x3 ADD PUSH0 PUSH2 0x100 EXP DUP2 SLOAD DUP2 PUSH1 0xFF MUL NOT AND SWAP1 DUP4 ISZERO ISZERO MUL OR SWAP1 SSTORE POP POP POP JUMP JUMPDEST PUSH1 0x1 PUSH1 0x40 MLOAD DUP1 PUSH1 0x80 ADD PUSH1 0x40 MSTORE DUP1 DUP5 DUP2 MSTORE PUSH1 0x20 ADD PUSH0 DUP2 MSTORE PUSH1 0x20 ADD DUP4 TIMESTAMP PUSH2 0x5A1 SWAP2 SWAP1 PUSH2 0xC88 JUMP JUMPDEST DUP2 MSTORE PUSH1 0x20 ADD PUSH0 ISZERO ISZERO DUP2 MSTORE POP SWAP1 DUP1 PUSH1 0x1 DUP2 SLOAD ADD DUP1 DUP3 SSTORE DUP1 SWAP2 POP POP PUSH1 0x1 SWAP1 SUB SWAP1 PUSH0 MSTORE PUSH1 0x20 PUSH0 KECCAK256 SWAP1 PUSH1 0x4 MUL ADD PUSH0 SWAP1 SWAP2 SWAP1 SWAP2 SWAP1 SWAP2 POP PUSH0 DUP3 ADD MLOAD DUP2 PUSH0 ADD SWAP1 DUP2 PUSH2 0x5E5 SWAP2 SWAP1 PUSH2 0xF90 JUMP JUMPDEST POP PUSH1 0x20 DUP3 ADD MLOAD DUP2 PUSH1 0x1 ADD SSTORE PUSH1 0x40 DUP3 ADD MLOAD DUP2 PUSH1 0x2 ADD SSTORE PUSH1 0x60 DUP3 ADD MLOAD DUP2 PUSH1 0x3 ADD PUSH0 PUSH2 0x100 EXP DUP2 SLOAD DUP2 PUSH1 0xFF MUL NOT AND SWAP1 DUP4 ISZERO ISZERO MUL OR SWAP1 SSTORE POP POP POP POP POP JUMP JUMPDEST PUSH1 0x2 PUSH1 0x20 MSTORE DUP2 PUSH0 MSTORE PUSH1 0x40 PUSH0 KECCAK256 PUSH1 0x20 MSTORE DUP1 PUSH0 MSTORE PUSH1 0x40 PUSH0 KECCAK256 PUSH0 SWAP2 POP SWAP2 POP SWAP1 SLOAD SWAP1 PUSH2 0x100 EXP SWAP1 DIV PUSH1 0xFF AND DUP2 JUMP JUMPDEST PUSH0 PUSH1 0x1 DUP1 SLOAD SWAP1 POP SWAP1 POP SWAP1 JUMP JUMPDEST PUSH0 PUSH0 SWAP1 SLOAD SWAP1 PUSH2 0x100 EXP SWAP1 DIV PUSH20 0xFFFFFFFFFFFFFFFFFFFFFFFFFFFFFFFFFFFFFFFF AND DUP2 JUMP JUMPDEST PUSH0 PUSH1 0x40 MLOAD SWAP1 POP SWAP1 JUMP JUMPDEST PUSH0 PUSH0 REVERT JUMPDEST PUSH0 PUSH0 REVERT JUMPDEST PUSH0 DUP2 SWAP1 POP SWAP2 SWAP1 POP JUMP JUMPDEST PUSH2 0x69C DUP2 PUSH2 0x68A JUMP JUMPDEST DUP2 EQ PUSH2 0x6A6 JUMPI PUSH0 PUSH0 REVERT JUMPDEST POP JUMP JUMPDEST PUSH0 DUP2 CALLDATALOAD SWAP1 POP PUSH2 0x6B7 DUP2 PUSH2 0x693 JUMP JUMPDEST SWAP3 SWAP2 POP POP JUMP JUMPDEST PUSH0 PUSH1 0x20 DUP3 DUP5 SUB SLT ISZERO PUSH2 0x6D2 JUMPI PUSH2 0x6D1 PUSH2 0x682 JUMP JUMPDEST JUMPDEST PUSH0 PUSH2 0x6DF DUP5 DUP3 DUP6 ADD PUSH2 0x6A9 JUMP JUMPDEST SWAP2 POP POP SWAP3 SWAP2 POP POP JUMP JUMPDEST PUSH0 DUP2 MLOAD SWAP1 POP SWAP2 SWAP1 POP JUMP JUMPDEST PUSH0 DUP3 DUP3 MSTORE PUSH1 0x20 DUP3 ADD SWAP1 POP SWAP3 SWAP2 POP POP JUMP JUMPDEST DUP3 DUP2 DUP4 MCOPY PUSH0 DUP4 DUP4 ADD MSTORE POP POP POP JUMP JUMPDEST PUSH0 PUSH1 0x1F NOT PUSH1 0x1F DUP4 ADD AND SWAP1 POP SWAP2 SWAP1 POP JUMP JUMPDEST PUSH0 PUSH2 0x72A DUP3 PUSH2 0x6E8 JUMP JUMPDEST PUSH2 0x734 DUP2 DUP6 PUSH2 0x6F2 JUMP JUMPDEST SWAP4 POP PUSH2 0x744 DUP2 DUP6 PUSH1 0x20 DUP7 ADD PUSH2 0x702 JUMP JUMPDEST PUSH2 0x74D DUP2 PUSH2 0x710 JUMP JUMPDEST DUP5 ADD SWAP2 POP POP SWAP3 SWAP2 POP POP JUMP JUMPDEST PUSH2 0x761 DUP2 PUSH2 0x68A JUMP JUMPDEST DUP3 MSTORE POP POP JUMP JUMPDEST PUSH0 DUP2 ISZERO ISZERO SWAP1 POP SWAP2 SWAP1 POP JUMP JUMPDEST PUSH2 0x77B DUP2 PUSH2 0x767 JUMP JUMPDEST DUP3 MSTORE POP POP JUMP JUMPDEST PUSH0 PUSH1 0x80 DUP3 ADD SWAP1 POP DUP2 DUP2 SUB PUSH0 DUP4 ADD MSTORE PUSH2 0x799 DUP2 DUP8 PUSH2 0x720 JUMP JUMPDEST SWAP1 POP PUSH2 0x7A8 PUSH1 0x20 DUP4 ADD DUP7 PUSH2 0x758 JUMP JUMPDEST PUSH2 0x7B5 PUSH1 0x40 DUP4 ADD DUP6 PUSH2 0x758 JUMP JUMPDEST PUSH2 0x7C2 PUSH1 0x60 DUP4 ADD DUP5 PUSH2 0x772 JUMP JUMPDEST SWAP6 SWAP5 POP POP POP POP POP JUMP JUMPDEST PUSH0 PUSH0 REVERT JUMPDEST PUSH0 PUSH0 REVERT JUMPDEST PUSH32 0x4E487B7100000000000000000000000000000000000000000000000000000000 PUSH0 MSTORE PUSH1 0x41 PUSH1 0x4 MSTORE PUSH1 0x24 PUSH0 REVERT JUMPDEST PUSH2 0x809 DUP3 PUSH2 0x710 JUMP JUMPDEST DUP2 ADD DUP2 DUP2 LT PUSH8 0xFFFFFFFFFFFFFFFF DUP3 GT OR ISZERO PUSH2 0x828 JUMPI PUSH2 0x827 PUSH2 0x7D3 JUMP JUMPDEST JUMPDEST DUP1 PUSH1 0x40 MSTORE POP POP POP JUMP JUMPDEST PUSH0 PUSH2 0x83A PUSH2 0x679 JUMP JUMPDEST SWAP1 POP PUSH2 0x846 DUP3 DUP3 PUSH2 0x800 JUMP JUMPDEST SWAP2 SWAP1 POP JUMP JUMPDEST PUSH0 PUSH8 0xFFFFFFFFFFFFFFFF DUP3 GT ISZERO PUSH2 0x865 JUMPI PUSH2 0x864 PUSH2 0x7D3 JUMP JUMPDEST JUMPDEST PUSH2 0x86E DUP3 PUSH2 0x710 JUMP JUMPDEST SWAP1 POP PUSH1 0x20 DUP2 ADD SWAP1 POP SWAP2 SWAP1 POP JUMP JUMPDEST DUP3 DUP2 DUP4 CALLDATACOPY PUSH0 DUP4 DUP4 ADD MSTORE POP POP POP JUMP JUMPDEST PUSH0 PUSH2 0x89B PUSH2 0x896 DUP5 PUSH2 0x84B JUMP JUMPDEST PUSH2 0x831 JUMP JUMPDEST SWAP1 POP DUP3 DUP2 MSTORE PUSH1 0x20 DUP2 ADD DUP5 DUP5 DUP5 ADD GT ISZERO PUSH2 0x8B7 JUMPI PUSH2 0x8B6 PUSH2 0x7CF JUMP JUMPDEST JUMPDEST PUSH2 0x8C2 DUP5 DUP3 DUP6 PUSH2 0x87B JUMP JUMPDEST POP SWAP4 SWAP3 POP POP POP JUMP JUMPDEST PUSH0 DUP3 PUSH1 0x1F DUP4 ADD SLT PUSH2 0x8DE JUMPI PUSH2 0x8DD PUSH2 0x7CB JUMP JUMPDEST JUMPDEST DUP2 CALLDATALOAD PUSH2 0x8EE DUP5 DUP3 PUSH1 0x20 DUP7 ADD PUSH2 0x889 JUMP JUMPDEST SWAP2 POP POP SWAP3 SWAP2 POP POP JUMP JUMPDEST PUSH0 PUSH0 PUSH1 0x40 DUP4 DUP6 SUB SLT ISZERO PUSH2 0x90D JUMPI PUSH2 0x90C PUSH2 0x682 JUMP JUMPDEST JUMPDEST PUSH0 DUP4 ADD CALLDATALOAD PUSH8 0xFFFFFFFFFFFFFFFF DUP2 GT ISZERO PUSH2 0x92A JUMPI PUSH2 0x929 PUSH2 0x686 JUMP JUMPDEST JUMPDEST PUSH2 0x936 DUP6 DUP3 DUP7 ADD PUSH2 0x8CA JUMP JUMPDEST SWAP3 POP POP PUSH1 0x20 PUSH2 0x947 DUP6 DUP3 DUP7 ADD PUSH2 0x6A9 JUMP JUMPDEST SWAP2 POP POP SWAP3 POP SWAP3 SWAP1 POP JUMP JUMPDEST PUSH0 PUSH20 0xFFFFFFFFFFFFFFFFFFFFFFFFFFFFFFFFFFFFFFFF DUP3 AND SWAP1 POP SWAP2 SWAP1 POP JUMP JUMPDEST PUSH0 PUSH2 0x97A DUP3 PUSH2 0x951 JUMP JUMPDEST SWAP1 POP SWAP2 SWAP1 POP JUMP JUMPDEST PUSH2 0x98A DUP2 PUSH2 0x970 JUMP JUMPDEST DUP2 EQ PUSH2 0x994 JUMPI PUSH0 PUSH0 REVERT JUMPDEST POP JUMP JUMPDEST PUSH0 DUP2 CALLDATALOAD SWAP1 POP PUSH2 0x9A5 DUP2 PUSH2 0x981 JUMP JUMPDEST SWAP3 SWAP2 POP POP JUMP JUMPDEST PUSH0 PUSH0 PUSH1 0x40 DUP4 DUP6 SUB SLT ISZERO PUSH2 0x9C1 JUMPI PUSH2 0x9C0 PUSH2 0x682 JUMP JUMPDEST JUMPDEST PUSH0 PUSH2 0x9CE DUP6 DUP3 DUP7 ADD PUSH2 0x6A9 JUMP JUMPDEST SWAP3 POP POP PUSH1 0x20 PUSH2 0x9DF DUP6 DUP3 DUP7 ADD PUSH2 0x997 JUMP JUMPDEST SWAP2 POP POP SWAP3 POP SWAP3 SWAP1 POP JUMP JUMPDEST PUSH0 PUSH1 0x20 DUP3 ADD SWAP1 POP PUSH2 0x9FC PUSH0 DUP4 ADD DUP5 PUSH2 0x772 JUMP JUMPDEST SWAP3 SWAP2 POP POP JUMP JUMPDEST PUSH0 PUSH1 0x20 DUP3 ADD SWAP1 POP PUSH2 0xA15 PUSH0 DUP4 ADD DUP5 PUSH2 0x758 JUMP JUMPDEST SWAP3 SWAP2 POP POP JUMP JUMPDEST PUSH0 DUP2 SWAP1 POP SWAP2 SWAP1 POP JUMP JUMPDEST PUSH0 PUSH2 0xA3E PUSH2 0xA39 PUSH2 0xA34 DUP5 PUSH2 0x951 JUMP JUMPDEST PUSH2 0xA1B JUMP JUMPDEST PUSH2 0x951 JUMP JUMPDEST SWAP1 POP SWAP2 SWAP1 POP JUMP JUMPDEST PUSH0 PUSH2 0xA4F DUP3 PUSH2 0xA24 JUMP JUMPDEST SWAP1 POP SWAP2 SWAP1 POP JUMP JUMPDEST PUSH0 PUSH2 0xA60 DUP3 PUSH2 0xA45 JUMP JUMPDEST SWAP1 POP SWAP2 SWAP1 POP JUMP JUMPDEST PUSH2 0xA70 DUP2 PUSH2 0xA56 JUMP JUMPDEST DUP3 MSTORE POP POP JUMP JUMPDEST PUSH0 PUSH1 0x20 DUP3 ADD SWAP1 POP PUSH2 0xA89 PUSH0 DUP4 ADD DUP5 PUSH2 0xA67 JUMP JUMPDEST SWAP3 SWAP2 POP POP JUMP JUMPDEST PUSH32 0x4E487B7100000000000000000000000000000000000000000000000000000000 PUSH0 MSTORE PUSH1 0x32 PUSH1 0x4 MSTORE PUSH1 0x24 PUSH0 REVERT JUMPDEST PUSH32 0x566F746163616F20656E63657272616461000000000000000000000000000000 PUSH0 DUP3 ADD MSTORE POP JUMP JUMPDEST PUSH0 PUSH2 0xAF0 PUSH1 0x11 DUP4 PUSH2 0x6F2 JUMP JUMPDEST SWAP2 POP PUSH2 0xAFB DUP3 PUSH2 0xABC JUMP JUMPDEST PUSH1 0x20 DUP3 ADD SWAP1 POP SWAP2 SWAP1 POP JUMP JUMPDEST PUSH0 PUSH1 0x20 DUP3 ADD SWAP1 POP DUP2 DUP2 SUB PUSH0 DUP4 ADD MSTORE PUSH2 0xB1D DUP2 PUSH2 0xAE4 JUMP JUMPDEST SWAP1 POP SWAP2 SWAP1 POP JUMP JUMPDEST PUSH32 0x4A6120766F746F75000000000000000000000000000000000000000000000000 PUSH0 DUP3 ADD MSTORE POP JUMP JUMPDEST PUSH0 PUSH2 0xB58 PUSH1 0x8 DUP4 PUSH2 0x6F2 JUMP JUMPDEST SWAP2 POP PUSH2 0xB63 DUP3 PUSH2 0xB24 JUMP JUMPDEST PUSH1 0x20 DUP3 ADD SWAP1 POP SWAP2 SWAP1 POP JUMP JUMPDEST PUSH0 PUSH1 0x20 DUP3 ADD SWAP1 POP DUP2 DUP2 SUB PUSH0 DUP4 ADD MSTORE PUSH2 0xB85 DUP2 PUSH2 0xB4C JUMP JUMPDEST SWAP1 POP SWAP2 SWAP1 POP JUMP JUMPDEST PUSH2 0xB95 DUP2 PUSH2 0x970 JUMP JUMPDEST DUP3 MSTORE POP POP JUMP JUMPDEST PUSH0 PUSH1 0x20 DUP3 ADD SWAP1 POP PUSH2 0xBAE PUSH0 DUP4 ADD DUP5 PUSH2 0xB8C JUMP JUMPDEST SWAP3 SWAP2 POP POP JUMP JUMPDEST PUSH0 DUP2 MLOAD SWAP1 POP PUSH2 0xBC2 DUP2 PUSH2 0x693 JUMP JUMPDEST SWAP3 SWAP2 POP POP JUMP JUMPDEST PUSH0 PUSH1 0x20 DUP3 DUP5 SUB SLT ISZERO PUSH2 0xBDD JUMPI PUSH2 0xBDC PUSH2 0x682 JUMP JUMPDEST JUMPDEST PUSH0 PUSH2 0xBEA DUP5 DUP3 DUP6 ADD PUSH2 0xBB4 JUMP JUMPDEST SWAP2 POP POP SWAP3 SWAP2 POP POP JUMP JUMPDEST PUSH32 0x53656D20706F64657220646520766F746F000000000000000000000000000000 PUSH0 DUP3 ADD MSTORE POP JUMP JUMPDEST PUSH0 PUSH2 0xC27 PUSH1 0x11 DUP4 PUSH2 0x6F2 JUMP JUMPDEST SWAP2 POP PUSH2 0xC32 DUP3 PUSH2 0xBF3 JUMP JUMPDEST PUSH1 0x20 DUP3 ADD SWAP1 POP SWAP2 SWAP1 POP JUMP JUMPDEST PUSH0 PUSH1 0x20 DUP3 ADD SWAP1 POP DUP2 DUP2 SUB PUSH0 DUP4 ADD MSTORE PUSH2 0xC54 DUP2 PUSH2 0xC1B JUMP JUMPDEST SWAP1 POP SWAP2 SWAP1 POP JUMP JUMPDEST PUSH32 0x4E487B7100000000000000000000000000000000000000000000000000000000 PUSH0 MSTORE PUSH1 0x11 PUSH1 0x4 MSTORE PUSH1 0x24 PUSH0 REVERT JUMPDEST PUSH0 PUSH2 0xC92 DUP3 PUSH2 0x68A JUMP JUMPDEST SWAP2 POP PUSH2 0xC9D DUP4 PUSH2 0x68A JUMP JUMPDEST SWAP3 POP DUP3 DUP3 ADD SWAP1 POP DUP1 DUP3 GT ISZERO PUSH2 0xCB5 JUMPI PUSH2 0xCB4 PUSH2 0xC5B JUMP JUMPDEST JUMPDEST SWAP3 SWAP2 POP POP JUMP JUMPDEST PUSH32 0x4E487B7100000000000000000000000000000000000000000000000000000000 PUSH0 MSTORE PUSH1 0x22 PUSH1 0x4 MSTORE PUSH1 0x24 PUSH0 REVERT JUMPDEST PUSH0 PUSH1 0x2 DUP3 DIV SWAP1 POP PUSH1 0x1 DUP3 AND DUP1 PUSH2 0xCFF JUMPI PUSH1 0x7F DUP3 AND SWAP2 POP JUMPDEST PUSH1 0x20 DUP3 LT DUP2 SUB PUSH2 0xD12 JUMPI PUSH2 0xD11 PUSH2 0xCBB JUMP JUMPDEST JUMPDEST POP SWAP2 SWAP1 POP JUMP JUMPDEST PUSH32 0x566F746163616F2061696E646120617469766100000000000000000000000000 PUSH0 DUP3 ADD MSTORE POP JUMP JUMPDEST PUSH0 PUSH2 0xD4C PUSH1 0x13 DUP4 PUSH2 0x6F2 JUMP JUMPDEST SWAP2 POP PUSH2 0xD57 DUP3 PUSH2 0xD18 JUMP JUMPDEST PUSH1 0x20 DUP3 ADD SWAP1 POP SWAP2 SWAP1 POP JUMP JUMPDEST PUSH0 PUSH1 0x20 DUP3 ADD SWAP1 POP DUP2 DUP2 SUB PUSH0 DUP4 ADD MSTORE PUSH2 0xD79 DUP2 PUSH2 0xD40 JUMP JUMPDEST SWAP1 POP SWAP2 SWAP1 POP JUMP JUMPDEST PUSH32 0x4A61206578656375746164610000000000000000000000000000000000000000 PUSH0 DUP3 ADD MSTORE POP JUMP JUMPDEST PUSH0 PUSH2 0xDB4 PUSH1 0xC DUP4 PUSH2 0x6F2 JUMP JUMPDEST SWAP2 POP PUSH2 0xDBF DUP3 PUSH2 0xD80 JUMP JUMPDEST PUSH1 0x20 DUP3 ADD SWAP1 POP SWAP2 SWAP1 POP JUMP JUMPDEST PUSH0 PUSH1 0x20 DUP3 ADD SWAP1 POP DUP2 DUP2 SUB PUSH0 DUP4 ADD MSTORE PUSH2 0xDE1 DUP2 PUSH2 0xDA8 JUMP JUMPDEST SWAP1 POP SWAP2 SWAP1 POP JUMP JUMPDEST PUSH0 DUP2 SWAP1 POP DUP2 PUSH0 MSTORE PUSH1 0x20 PUSH0 KECCAK256 SWAP1 POP SWAP2 SWAP1 POP JUMP JUMPDEST PUSH0 PUSH1 0x20 PUSH1 0x1F DUP4 ADD DIV SWAP1 POP SWAP2 SWAP1 POP JUMP JUMPDEST PUSH0 DUP3 DUP3 SHL SWAP1 POP SWAP3 SWAP2 POP POP JUMP JUMPDEST PUSH0 PUSH1 0x8 DUP4 MUL PUSH2 0xE44 PUSH32 0xFFFFFFFFFFFFFFFFFFFFFFFFFFFFFFFFFFFFFFFFFFFFFFFFFFFFFFFFFFFFFFFF DUP3 PUSH2 0xE09 JUMP JUMPDEST PUSH2 0xE4E DUP7 DUP4 PUSH2 0xE09 JUMP JUMPDEST SWAP6 POP DUP1 NOT DUP5 AND SWAP4 POP DUP1 DUP7 AND DUP5 OR SWAP3 POP POP POP SWAP4 SWAP3 POP POP POP JUMP JUMPDEST PUSH0 PUSH2 0xE80 PUSH2 0xE7B PUSH2 0xE76 DUP5 PUSH2 0x68A JUMP JUMPDEST PUSH2 0xA1B JUMP JUMPDEST PUSH2 0x68A JUMP JUMPDEST SWAP1 POP SWAP2 SWAP1 POP JUMP JUMPDEST PUSH0 DUP2 SWAP1 POP SWAP2 SWAP1 POP JUMP JUMPDEST PUSH2 0xE99 DUP4 PUSH2 0xE66 JUMP JUMPDEST PUSH2 0xEAD PUSH2 0xEA5 DUP3 PUSH2 0xE87 JUMP JUMPDEST DUP5 DUP5 SLOAD PUSH2 0xE15 JUMP JUMPDEST DUP3 SSTORE POP POP POP POP JUMP JUMPDEST PUSH0 PUSH0 SWAP1 POP SWAP1 JUMP JUMPDEST PUSH2 0xEC4 PUSH2 0xEB5 JUMP JUMPDEST PUSH2 0xECF DUP2 DUP5 DUP5 PUSH2 0xE90 JUMP JUMPDEST POP POP POP JUMP JUMPDEST PUSH0 JUMPDEST DUP3 DUP2 LT ISZERO PUSH2 0xEF5 JUMPI PUSH2 0xEEA PUSH0 DUP3 DUP5 ADD PUSH2 0xEBC JUMP JUMPDEST PUSH1 0x1 DUP2 ADD SWAP1 POP PUSH2 0xED6 JUMP JUMPDEST POP POP POP JUMP JUMPDEST PUSH1 0x1F DUP3 GT ISZERO PUSH2 0xF48 JUMPI DUP3 DUP3 GT ISZERO PUSH2 0xF47 JUMPI PUSH2 0xF14 DUP2 PUSH2 0xDE8 JUMP JUMPDEST PUSH2 0xF1D DUP4 PUSH2 0xDFA JUMP JUMPDEST PUSH2 0xF26 DUP6 PUSH2 0xDFA JUMP JUMPDEST PUSH1 0x20 DUP7 LT ISZERO PUSH2 0xF33 JUMPI PUSH0 SWAP1 POP JUMPDEST DUP1 DUP4 ADD PUSH2 0xF42 DUP3 DUP5 SUB DUP3 PUSH2 0xED4 JUMP JUMPDEST POP POP POP POP JUMPDEST JUMPDEST POP POP POP JUMP JUMPDEST PUSH0 DUP3 DUP3 SHR SWAP1 POP SWAP3 SWAP2 POP POP JUMP JUMPDEST PUSH0 PUSH2 0xF68 PUSH0 NOT DUP5 PUSH1 0x8 MUL PUSH2 0xF4D JUMP JUMPDEST NOT DUP1 DUP4 AND SWAP2 POP POP SWAP3 SWAP2 POP POP JUMP JUMPDEST PUSH0 PUSH2 0xF80 DUP4 DUP4 PUSH2 0xF59 JUMP JUMPDEST SWAP2 POP DUP3 PUSH1 0x2 MUL DUP3 OR SWAP1 POP SWAP3 SWAP2 POP POP JUMP JUMPDEST PUSH2 0xF99 DUP3 PUSH2 0x6E8 JUMP JUMPDEST PUSH8 0xFFFFFFFFFFFFFFFF DUP2 GT ISZERO PUSH2 0xFB2 JUMPI PUSH2 0xFB1 PUSH2 0x7D3 JUMP JUMPDEST JUMPDEST PUSH2 0xFBC DUP3 SLOAD PUSH2 0xCE8 JUMP JUMPDEST PUSH2 0xFC7 DUP3 DUP3 DUP6 PUSH2 0xEFA JUMP JUMPDEST PUSH0 PUSH1 0x20 SWAP1 POP PUSH1 0x1F DUP4 GT PUSH1 0x1 DUP2 EQ PUSH2 0xFF8 JUMPI PUSH0 DUP5 ISZERO PUSH2 0xFE6 JUMPI DUP3 DUP8 ADD MLOAD SWAP1 POP JUMPDEST PUSH2 0xFF0 DUP6 DUP3 PUSH2 0xF75 JUMP JUMPDEST DUP7 SSTORE POP PUSH2 0x1057 JUMP JUMPDEST PUSH1 0x1F NOT DUP5 AND PUSH2 0x1006 DUP7 PUSH2 0xDE8 JUMP JUMPDEST PUSH0 JUMPDEST DUP3 DUP2 LT ISZERO PUSH2 0x102D JUMPI DUP5 DUP10 ADD MLOAD DUP3 SSTORE PUSH1 0x1 DUP3 ADD SWAP2 POP PUSH1 0x20 DUP6 ADD SWAP5 POP PUSH1 0x20 DUP2 ADD SWAP1 POP PUSH2 0x1008 JUMP JUMPDEST DUP7 DUP4 LT ISZERO PUSH2 0x104A JUMPI DUP5 DUP10 ADD MLOAD PUSH2 0x1046 PUSH1 0x1F DUP10 AND DUP3 PUSH2 0xF59 JUMP JUMPDEST DUP4 SSTORE POP JUMPDEST PUSH1 0x1 PUSH1 0x2 DUP9 MUL ADD DUP9 SSTORE POP POP POP JUMPDEST POP POP POP POP POP POP JUMP INVALID LOG2 PUSH5 0x6970667358 0x22 SLT KECCAK256 JUMPF 0xB5C3 0xAD MOD 0xC PUSH6 0xE941011615FB 0xDB SWAP6 0xC LOG4 PREVRANDAO SWAP10 0xCA DIV 0xD4 PUSH27 0xB07E1CBDA3FABBA6BA64736F6C6343000822003300000000000000 "
				},
				"gasEstimates": {
					"creation": {
						"codeDepositCost": "849000",
						"executionCost": "infinite",
						"totalCost": "infinite"
					},
					"external": {
						"createProposal(string,uint256)": "infinite",
						"executeProposal(uint256)": "31211",
						"getProposalsCount()": "2484",
						"governanceToken()": "infinite",
						"hasVoted(uint256,address)": "3092",
						"proposals(uint256)": "infinite",
						"vote(uint256)": "infinite"
					}
				},
				"methodIdentifiers": {
					"createProposal(string,uint256)": "35facf78",
					"executeProposal(uint256)": "0d61b519",
					"getProposalsCount()": "98e527d3",
					"governanceToken()": "f96dae0a",
					"hasVoted(uint256,address)": "43859632",
					"proposals(uint256)": "013cf08b",
					"vote(uint256)": "0121b93f"
				}
			},
			"storageLayout": {
				"storage": [
					{
						"astId": 83,
						"contract": "contracts/GovernanceDAO.sol:GovernanceDAO",
						"label": "governanceToken",
						"offset": 0,
						"slot": "0",
						"type": "t_contract(IERC20)77"
					},
					{
						"astId": 96,
						"contract": "contracts/GovernanceDAO.sol:GovernanceDAO",
						"label": "proposals",
						"offset": 0,
						"slot": "1",
						"type": "t_array(t_struct(Proposal)92_storage)dyn_storage"
					},
					{
						"astId": 102,
						"contract": "contracts/GovernanceDAO.sol:GovernanceDAO",
						"label": "hasVoted",
						"offset": 0,
						"slot": "2",
						"type": "t_mapping(t_uint256,t_mapping(t_address,t_bool))"
					}
				],
				"types": {
					"t_address": {
						"encoding": "inplace",
						"label": "address",
						"numberOfBytes": "20"
					},
					"t_array(t_struct(Proposal)92_storage)dyn_storage": {
						"base": "t_struct(Proposal)92_storage",
						"encoding": "dynamic_array",
						"label": "struct GovernanceDAO.Proposal[]",
						"numberOfBytes": "32"
					},
					"t_bool": {
						"encoding": "inplace",
						"label": "bool",
						"numberOfBytes": "1"
					},
					"t_contract(IERC20)77": {
						"encoding": "inplace",
						"label": "contract IERC20",
						"numberOfBytes": "20"
					},
					"t_mapping(t_address,t_bool)": {
						"encoding": "mapping",
						"key": "t_address",
						"label": "mapping(address => bool)",
						"numberOfBytes": "32",
						"value": "t_bool"
					},
					"t_mapping(t_uint256,t_mapping(t_address,t_bool))": {
						"encoding": "mapping",
						"key": "t_uint256",
						"label": "mapping(uint256 => mapping(address => bool))",
						"numberOfBytes": "32",
						"value": "t_mapping(t_address,t_bool)"
					},
					"t_string_storage": {
						"encoding": "bytes",
						"label": "string",
						"numberOfBytes": "32"
					},
					"t_struct(Proposal)92_storage": {
						"encoding": "inplace",
						"label": "struct GovernanceDAO.Proposal",
						"members": [
							{
								"astId": 85,
								"contract": "contracts/GovernanceDAO.sol:GovernanceDAO",
								"label": "description",
								"offset": 0,
								"slot": "0",
								"type": "t_string_storage"
							},
							{
								"astId": 87,
								"contract": "contracts/GovernanceDAO.sol:GovernanceDAO",
								"label": "voteCount",
								"offset": 0,
								"slot": "1",
								"type": "t_uint256"
							},
							{
								"astId": 89,
								"contract": "contracts/GovernanceDAO.sol:GovernanceDAO",
								"label": "deadline",
								"offset": 0,
								"slot": "2",
								"type": "t_uint256"
							},
							{
								"astId": 91,
								"contract": "contracts/GovernanceDAO.sol:GovernanceDAO",
								"label": "executed",
								"offset": 0,
								"slot": "3",
								"type": "t_bool"
							}
						],
						"numberOfBytes": "128"
					},
					"t_uint256": {
						"encoding": "inplace",
						"label": "uint256",
						"numberOfBytes": "32"
					}
				}
			},
			"userdoc": {
				"kind": "user",
				"methods": {},
				"version": 1
			}
		}
	}
}