{
	"contracts/GovernanceDAO.sol": {
		"GovernanceDAO": {
			"abi": [
				{
					"inputs": [
						{
							"internalType": "address",
							"name": "_token",
							"type": "address"
						}
					],
					"stateMutability": "nonpayable",
					"type": "constructor"
				},
				{
					"inputs": [
						{
							"internalType": "string",
							"name": "_description",
							"type": "string"
						},
						{
							"internalType": "uint256",
							"name": "duration",
							"type": "uint256"
						}
					],
					"name": "createProposal",
					"outputs": [],
					"stateMutability": "nonpayable",
					"type": "function"
				},
				{
					"inputs": [
						{
							"internalType": "uint256",
							"name": "proposalId",
							"type": "uint256"
						}
					],
					"name": "executeProposal",
					"outputs": [],
					"stateMutability": "nonpayable",
					"type": "function"
				},
				{
					"inputs": [],
					"name": "getProposalsCount",
					"outputs": [
						{
							"internalType": "uint256",
							"name": "",
							"type": "uint256"
						}
					],
					"stateMutability": "view",
					"type": "function"
				},
				{
					"inputs": [],
					"name": "governanceToken",
					"outputs": [
						{
							"internalType": "contract IERC20",
							"name": "",
							"type": "address"
						}
					],
					"stateMutability": "view",
					"type": "function"
				},
				{
					"inputs": [
						{
							"internalType": "uint256",
							"name": "",
							"type": "uint256"
						},
						{
							"internalType": "address",
							"name": "",
							"type": "address"
						}
					],
					"name": "hasVoted",
					"outputs": [
						{
							"internalType": "bool",
							"name": "",
							"type": "bool"
						}
					],
					"stateMutability": "view",
					"type": "function"
				},
				{
					"inputs": [
						{
							"internalType": "uint256",
							"name": "",
							"type": "uint256"
						}
					],
					"name": "proposals",
					"outputs": [
						{
							"internalType": "string",
							"name": "description",
							"type": "string"
						},
						{
							"internalType": "uint256",
							"name": "voteCount",
							"type": "uint256"
						},
						{
							"internalType": "uint256",
							"name": "deadline",
							"type": "uint256"
						},
						{
							"internalType": "bool",
							"name": "executed",
							"type": "bool"
						}
					],
					"stateMutability": "view",
					"type": "function"
				},
				{
					"inputs": [
						{
							"internalType": "uint256",
							"name": "proposalId",
							"type": "uint256"
						}
					],
					"name": "vote",
					"outputs": [],
					"stateMutability": "nonpayable",
					"type": "function"
				}
			],
			"devdoc": {
				"kind": "dev",
				"methods": {},
				"version": 1
			},
			"evm": {
				"assembly": "    /* \"contracts/GovernanceDAO.sol\":121:2019  contract GovernanceDAO {... */\n  mstore(0x40, 0x80)\n    /* \"contracts/GovernanceDAO.sol\":434:513  constructor(address _token) {... */\n  callvalue\n  dup1\n  iszero\n  tag_1\n  jumpi\n  revert(0x00, 0x00)\ntag_1:\n  pop\n  mload(0x40)\n  sub(codesize, bytecodeSize)\n  dup1\n  bytecodeSize\n  dup4\n  codecopy\n  dup2\n  dup2\n  add\n  0x40\n  mstore\n  dup2\n  add\n  swap1\n  tag_2\n  swap2\n  swap1\n  tag_3\n  jump\t// in\ntag_2:\n    /* \"contracts/GovernanceDAO.sol\":498:504  _token */\n  dup1\n    /* \"contracts/GovernanceDAO.sol\":473:488  governanceToken */\n  0x00\n  0x00\n    /* \"contracts/GovernanceDAO.sol\":473:505  governanceToken = IERC20(_token) */\n  0x0100\n  exp\n  dup2\n  sload\n  dup2\n  0xffffffffffffffffffffffffffffffffffffffff\n  mul\n  not\n  and\n  swap1\n  dup4\n  0xffffffffffffffffffffffffffffffffffffffff\n  and\n  mul\n  or\n  swap1\n  sstore\n  pop\n    /* \"contracts/GovernanceDAO.sol\":434:513  constructor(address _token) {... */\n  pop\n    /* \"contracts/GovernanceDAO.sol\":121:2019  contract GovernanceDAO {... */\n  jump(tag_6)\n    /* \"#utility.yul\":88:205   */\ntag_8:\n    /* \"#utility.yul\":197:198   */\n  0x00\n    /* \"#utility.yul\":194:195   */\n  0x00\n    /* \"#utility.yul\":187:199   */\n  revert\n    /* \"#utility.yul\":334:460   */\ntag_10:\n    /* \"#utility.yul\":371:378   */\n  0x00\n    /* \"#utility.yul\":411:453   */\n  0xffffffffffffffffffffffffffffffffffffffff\n    /* \"#utility.yul\":404:409   */\n  dup3\n    /* \"#utility.yul\":400:454   */\n  and\n    /* \"#utility.yul\":389:454   */\n  swap1\n  pop\n    /* \"#utility.yul\":334:460   */\n  swap2\n  swap1\n  pop\n  jump\t// out\n    /* \"#utility.yul\":466:562   */\ntag_11:\n    /* \"#utility.yul\":503:510   */\n  0x00\n    /* \"#utility.yul\":532:556   */\n  tag_20\n    /* \"#utility.yul\":550:555   */\n  dup3\n    /* \"#utility.yul\":532:556   */\n  tag_10\n  jump\t// in\ntag_20:\n    /* \"#utility.yul\":521:556   */\n  swap1\n  pop\n    /* \"#utility.yul\":466:562   */\n  swap2\n  swap1\n  pop\n  jump\t// out\n    /* \"#utility.yul\":568:690   */\ntag_12:\n    /* \"#utility.yul\":641:665   */\n  tag_22\n    /* \"#utility.yul\":659:664   */\n  dup2\n    /* \"#utility.yul\":641:665   */\n  tag_11\n  jump\t// in\ntag_22:\n    /* \"#utility.yul\":634:639   */\n  dup2\n    /* \"#utility.yul\":631:666   */\n  eq\n    /* \"#utility.yul\":621:684   */\n  tag_23\n  jumpi\n    /* \"#utility.yul\":680:681   */\n  0x00\n    /* \"#utility.yul\":677:678   */\n  0x00\n    /* \"#utility.yul\":670:682   */\n  revert\n    /* \"#utility.yul\":621:684   */\ntag_23:\n    /* \"#utility.yul\":568:690   */\n  pop\n  jump\t// out\n    /* \"#utility.yul\":696:839   */\ntag_13:\n    /* \"#utility.yul\":753:758   */\n  0x00\n    /* \"#utility.yul\":784:790   */\n  dup2\n    /* \"#utility.yul\":778:791   */\n  mload\n    /* \"#utility.yul\":769:791   */\n  swap1\n  pop\n    /* \"#utility.yul\":800:833   */\n  tag_25\n    /* \"#utility.yul\":827:832   */\n  dup2\n    /* \"#utility.yul\":800:833   */\n  tag_12\n  jump\t// in\ntag_25:\n    /* \"#utility.yul\":696:839   */\n  swap3\n  swap2\n  pop\n  pop\n  jump\t// out\n    /* \"#utility.yul\":845:1196   */\ntag_3:\n    /* \"#utility.yul\":915:921   */\n  0x00\n    /* \"#utility.yul\":964:966   */\n  0x20\n    /* \"#utility.yul\":952:961   */\n  dup3\n    /* \"#utility.yul\":943:950   */\n  dup5\n    /* \"#utility.yul\":939:962   */\n  sub\n    /* \"#utility.yul\":935:967   */\n  slt\n    /* \"#utility.yul\":932:1051   */\n  iszero\n  tag_27\n  jumpi\n    /* \"#utility.yul\":970:1049   */\n  tag_28\n  tag_8\n  jump\t// in\ntag_28:\n    /* \"#utility.yul\":932:1051   */\ntag_27:\n    /* \"#utility.yul\":1090:1091   */\n  0x00\n    /* \"#utility.yul\":1115:1179   */\n  tag_29\n    /* \"#utility.yul\":1171:1178   */\n  dup5\n    /* \"#utility.yul\":1162:1168   */\n  dup3\n    /* \"#utility.yul\":1151:1160   */\n  dup6\n    /* \"#utility.yul\":1147:1169   */\n  add\n    /* \"#utility.yul\":1115:1179   */\n  tag_13\n  jump\t// in\ntag_29:\n    /* \"#utility.yul\":1105:1179   */\n  swap2\n  pop\n    /* \"#utility.yul\":1061:1189   */\n  pop\n    /* \"#utility.yul\":845:1196   */\n  swap3\n  swap2\n  pop\n  pop\n  jump\t// out\n    /* \"contracts/GovernanceDAO.sol\":121:2019  contract GovernanceDAO {... */\ntag_6:\n  dataSize(sub_0)\n  dup1\n  dataOffset(sub_0)\n  0x00\n  codecopy\n  0x00\n  return\nstop\n\nsub_0: assembly {\n        /* \"contracts/GovernanceDAO.sol\":121:2019  contract GovernanceDAO {... */\n      mstore(0x40, 0x80)\n      callvalue\n      dup1\n      iszero\n      tag_1\n      jumpi\n      revert(0x00, 0x00)\n    tag_1:\n      pop\n      jumpi(tag_2, lt(calldatasize, 0x04))\n      shr(0xe0, calldataload(0x00))\n      dup1\n      0x35facf78\n      gt\n      tag_10\n      jumpi\n      dup1\n      0x35facf78\n      eq\n      tag_6\n      jumpi\n      dup1\n      0x43859632\n      eq\n      tag_7\n      jumpi\n      dup1\n      0x98e527d3\n      eq\n      tag_8\n      jumpi\n      dup1\n      0xf96dae0a\n      eq\n      tag_9\n      jumpi\n      jump(tag_2)\n    tag_10:\n      dup1\n      0x0121b93f\n      eq\n      tag_3\n      jumpi\n      dup1\n      0x013cf08b\n      eq\n      tag_4\n      jumpi\n      dup1\n      0x0d61b519\n      eq\n      tag_5\n      jumpi\n    tag_2:\n      revert(0x00, 0x00)\n        /* \"contracts/GovernanceDAO.sol\":981:1531  function vote(uint256 proposalId) external {... */\n    tag_3:\n      tag_11\n      0x04\n      dup1\n      calldatasize\n      sub\n      dup2\n      add\n      swap1\n      tag_12\n      swap2\n      swap1\n      tag_13\n      jump\t// in\n    tag_12:\n      tag_14\n      jump\t// in\n    tag_11:\n      stop\n        /* \"contracts/GovernanceDAO.sol\":329:356  Proposal[] public proposals */\n    tag_4:\n      tag_15\n      0x04\n      dup1\n      calldatasize\n      sub\n      dup2\n      add\n      swap1\n      tag_16\n      swap2\n      swap1\n      tag_13\n      jump\t// in\n    tag_16:\n      tag_17\n      jump\t// in\n    tag_15:\n      mload(0x40)\n      tag_18\n      swap5\n      swap4\n      swap3\n      swap2\n      swap1\n      tag_19\n      jump\t// in\n    tag_18:\n      mload(0x40)\n      dup1\n      swap2\n      sub\n      swap1\n      return\n        /* \"contracts/GovernanceDAO.sol\":1539:1905  function executeProposal(uint256 proposalId) external {... */\n    tag_5:\n      tag_20\n      0x04\n      dup1\n      calldatasize\n      sub\n      dup2\n      add\n      swap1\n      tag_21\n      swap2\n      swap1\n      tag_13\n      jump\t// in\n    tag_21:\n      tag_22\n      jump\t// in\n    tag_20:\n      stop\n        /* \"contracts/GovernanceDAO.sol\":521:973  function createProposal(string memory _description, uint256 duration) external {... */\n    tag_6:\n      tag_23\n      0x04\n      dup1\n      calldatasize\n      sub\n      dup2\n      add\n      swap1\n      tag_24\n      swap2\n      swap1\n      tag_25\n      jump\t// in\n    tag_24:\n      tag_26\n      jump\t// in\n    tag_23:\n      stop\n        /* \"contracts/GovernanceDAO.sol\":365:425  mapping(uint256 => mapping(address => bool)) public hasVoted */\n    tag_7:\n      tag_27\n      0x04\n      dup1\n      calldatasize\n      sub\n      dup2\n      add\n      swap1\n      tag_28\n      swap2\n      swap1\n      tag_29\n      jump\t// in\n    tag_28:\n      tag_30\n      jump\t// in\n    tag_27:\n      mload(0x40)\n      tag_31\n      swap2\n      swap1\n      tag_32\n      jump\t// in\n    tag_31:\n      mload(0x40)\n      dup1\n      swap2\n      sub\n      swap1\n      return\n        /* \"contracts/GovernanceDAO.sol\":1913:2016  function getProposalsCount() external view returns (uint256) {... */\n    tag_8:\n      tag_33\n      tag_34\n      jump\t// in\n    tag_33:\n      mload(0x40)\n      tag_35\n      swap2\n      swap1\n      tag_36\n      jump\t// in\n    tag_35:\n      mload(0x40)\n      dup1\n      swap2\n      sub\n      swap1\n      return\n        /* \"contracts/GovernanceDAO.sol\":151:180  IERC20 public governanceToken */\n    tag_9:\n      tag_37\n      tag_38\n      jump\t// in\n    tag_37:\n      mload(0x40)\n      tag_39\n      swap2\n      swap1\n      tag_40\n      jump\t// in\n    tag_39:\n      mload(0x40)\n      dup1\n      swap2\n      sub\n      swap1\n      return\n        /* \"contracts/GovernanceDAO.sol\":981:1531  function vote(uint256 proposalId) external {... */\n    tag_14:\n        /* \"contracts/GovernanceDAO.sol\":1056:1065  proposals */\n      0x01\n        /* \"contracts/GovernanceDAO.sol\":1056:1072  proposals.length */\n      dup1\n      sload\n      swap1\n      pop\n        /* \"contracts/GovernanceDAO.sol\":1043:1053  proposalId */\n      dup2\n        /* \"contracts/GovernanceDAO.sol\":1043:1072  proposalId < proposals.length */\n      lt\n        /* \"contracts/GovernanceDAO.sol\":1035:1094  require(proposalId < proposals.length, \"Proposta invalida\") */\n      tag_42\n      jumpi\n      mload(0x40)\n      0x08c379a000000000000000000000000000000000000000000000000000000000\n      dup2\n      mstore\n      0x04\n      add\n      tag_43\n      swap1\n      tag_44\n      jump\t// in\n    tag_43:\n      mload(0x40)\n      dup1\n      swap2\n      sub\n      swap1\n      revert\n    tag_42:\n        /* \"contracts/GovernanceDAO.sol\":1107:1132  Proposal storage proposal */\n      0x00\n        /* \"contracts/GovernanceDAO.sol\":1135:1144  proposals */\n      0x01\n        /* \"contracts/GovernanceDAO.sol\":1145:1155  proposalId */\n      dup3\n        /* \"contracts/GovernanceDAO.sol\":1135:1156  proposals[proposalId] */\n      dup2\n      sload\n      dup2\n      lt\n      tag_45\n      jumpi\n      tag_46\n      tag_47\n      jump\t// in\n    tag_46:\n    tag_45:\n      swap1\n      0x00\n      mstore\n      keccak256(0x00, 0x20)\n      swap1\n      0x04\n      mul\n      add\n        /* \"contracts/GovernanceDAO.sol\":1107:1156  Proposal storage proposal = proposals[proposalId] */\n      swap1\n      pop\n        /* \"contracts/GovernanceDAO.sol\":1195:1203  proposal */\n      dup1\n        /* \"contracts/GovernanceDAO.sol\":1195:1212  proposal.deadline */\n      0x02\n      add\n      sload\n        /* \"contracts/GovernanceDAO.sol\":1177:1192  block.timestamp */\n      timestamp\n        /* \"contracts/GovernanceDAO.sol\":1177:1212  block.timestamp < proposal.deadline */\n      lt\n        /* \"contracts/GovernanceDAO.sol\":1169:1234  require(block.timestamp < proposal.deadline, \"Votacao encerrada\") */\n      tag_49\n      jumpi\n      mload(0x40)\n      0x08c379a000000000000000000000000000000000000000000000000000000000\n      dup2\n      mstore\n      0x04\n      add\n      tag_50\n      swap1\n      tag_51\n      jump\t// in\n    tag_50:\n      mload(0x40)\n      dup1\n      swap2\n      sub\n      swap1\n      revert\n    tag_49:\n        /* \"contracts/GovernanceDAO.sol\":1254:1262  hasVoted */\n      0x02\n        /* \"contracts/GovernanceDAO.sol\":1254:1274  hasVoted[proposalId] */\n      0x00\n        /* \"contracts/GovernanceDAO.sol\":1263:1273  proposalId */\n      dup4\n        /* \"contracts/GovernanceDAO.sol\":1254:1274  hasVoted[proposalId] */\n      dup2\n      mstore\n      0x20\n      add\n      swap1\n      dup2\n      mstore\n      0x20\n      add\n      0x00\n      keccak256\n        /* \"contracts/GovernanceDAO.sol\":1254:1286  hasVoted[proposalId][msg.sender] */\n      0x00\n        /* \"contracts/GovernanceDAO.sol\":1275:1285  msg.sender */\n      caller\n        /* \"contracts/GovernanceDAO.sol\":1254:1286  hasVoted[proposalId][msg.sender] */\n      0xffffffffffffffffffffffffffffffffffffffff\n      and\n      0xffffffffffffffffffffffffffffffffffffffff\n      and\n      dup2\n      mstore\n      0x20\n      add\n      swap1\n      dup2\n      mstore\n      0x20\n      add\n      0x00\n      keccak256\n      0x00\n      swap1\n      sload\n      swap1\n      0x0100\n      exp\n      swap1\n      div\n      0xff\n      and\n        /* \"contracts/GovernanceDAO.sol\":1253:1286  !hasVoted[proposalId][msg.sender] */\n      iszero\n        /* \"contracts/GovernanceDAO.sol\":1245:1299  require(!hasVoted[proposalId][msg.sender], \"Ja votou\") */\n      tag_52\n      jumpi\n      mload(0x40)\n      0x08c379a000000000000000000000000000000000000000000000000000000000\n      dup2\n      mstore\n      0x04\n      add\n      tag_53\n      swap1\n      tag_54\n      jump\t// in\n    tag_53:\n      mload(0x40)\n      dup1\n      swap2\n      sub\n      swap1\n      revert\n    tag_52:\n        /* \"contracts/GovernanceDAO.sol\":1312:1331  uint256 votingPower */\n      0x00\n        /* \"contracts/GovernanceDAO.sol\":1334:1349  governanceToken */\n      0x00\n      0x00\n      swap1\n      sload\n      swap1\n      0x0100\n      exp\n      swap1\n      div\n      0xffffffffffffffffffffffffffffffffffffffff\n      and\n        /* \"contracts/GovernanceDAO.sol\":1334:1359  governanceToken.balanceOf */\n      0xffffffffffffffffffffffffffffffffffffffff\n      and\n      0x70a08231\n        /* \"contracts/GovernanceDAO.sol\":1360:1370  msg.sender */\n      caller\n        /* \"contracts/GovernanceDAO.sol\":1334:1371  governanceToken.balanceOf(msg.sender) */\n      mload(0x40)\n      dup3\n      0xffffffff\n      and\n      0xe0\n      shl\n      dup2\n      mstore\n      0x04\n      add\n      tag_55\n      swap2\n      swap1\n      tag_56\n      jump\t// in\n    tag_55:\n      0x20\n      mload(0x40)\n      dup1\n      dup4\n      sub\n      dup2\n      dup7\n      gas\n      staticcall\n      iszero\n      dup1\n      iszero\n      tag_58\n      jumpi\n      returndatacopy(0x00, 0x00, returndatasize)\n      revert(0x00, returndatasize)\n    tag_58:\n      pop\n      pop\n      pop\n      pop\n      mload(0x40)\n      returndatasize\n      not(0x1f)\n      0x1f\n      dup3\n      add\n      and\n      dup3\n      add\n      dup1\n      0x40\n      mstore\n      pop\n      dup2\n      add\n      swap1\n      tag_59\n      swap2\n      swap1\n      tag_60\n      jump\t// in\n    tag_59:\n        /* \"contracts/GovernanceDAO.sol\":1312:1371  uint256 votingPower = governanceToken.balanceOf(msg.sender) */\n      swap1\n      pop\n        /* \"contracts/GovernanceDAO.sol\":1404:1405  0 */\n      0x00\n        /* \"contracts/GovernanceDAO.sol\":1390:1401  votingPower */\n      dup2\n        /* \"contracts/GovernanceDAO.sol\":1390:1405  votingPower > 0 */\n      gt\n        /* \"contracts/GovernanceDAO.sol\":1382:1427  require(votingPower > 0, \"Sem poder de voto\") */\n      tag_61\n      jumpi\n      mload(0x40)\n      0x08c379a000000000000000000000000000000000000000000000000000000000\n      dup2\n      mstore\n      0x04\n      add\n      tag_62\n      swap1\n      tag_63\n      jump\t// in\n    tag_62:\n      mload(0x40)\n      dup1\n      swap2\n      sub\n      swap1\n      revert\n    tag_61:\n        /* \"contracts/GovernanceDAO.sol\":1462:1473  votingPower */\n      dup1\n        /* \"contracts/GovernanceDAO.sol\":1440:1448  proposal */\n      dup3\n        /* \"contracts/GovernanceDAO.sol\":1440:1458  proposal.voteCount */\n      0x01\n      add\n      0x00\n        /* \"contracts/GovernanceDAO.sol\":1440:1473  proposal.voteCount += votingPower */\n      dup3\n      dup3\n      sload\n      tag_64\n      swap2\n      swap1\n      tag_65\n      jump\t// in\n    tag_64:\n      swap3\n      pop\n      pop\n      dup2\n      swap1\n      sstore\n      pop\n        /* \"contracts/GovernanceDAO.sol\":1519:1523  true */\n      0x01\n        /* \"contracts/GovernanceDAO.sol\":1484:1492  hasVoted */\n      0x02\n        /* \"contracts/GovernanceDAO.sol\":1484:1504  hasVoted[proposalId] */\n      0x00\n        /* \"contracts/GovernanceDAO.sol\":1493:1503  proposalId */\n      dup6\n        /* \"contracts/GovernanceDAO.sol\":1484:1504  hasVoted[proposalId] */\n      dup2\n      mstore\n      0x20\n      add\n      swap1\n      dup2\n      mstore\n      0x20\n      add\n      0x00\n      keccak256\n        /* \"contracts/GovernanceDAO.sol\":1484:1516  hasVoted[proposalId][msg.sender] */\n      0x00\n        /* \"contracts/GovernanceDAO.sol\":1505:1515  msg.sender */\n      caller\n        /* \"contracts/GovernanceDAO.sol\":1484:1516  hasVoted[proposalId][msg.sender] */\n      0xffffffffffffffffffffffffffffffffffffffff\n      and\n      0xffffffffffffffffffffffffffffffffffffffff\n      and\n      dup2\n      mstore\n      0x20\n      add\n      swap1\n      dup2\n      mstore\n      0x20\n      add\n      0x00\n      keccak256\n      0x00\n        /* \"contracts/GovernanceDAO.sol\":1484:1523  hasVoted[proposalId][msg.sender] = true */\n      0x0100\n      exp\n      dup2\n      sload\n      dup2\n      0xff\n      mul\n      not\n      and\n      swap1\n      dup4\n      iszero\n      iszero\n      mul\n      or\n      swap1\n      sstore\n      pop\n        /* \"contracts/GovernanceDAO.sol\":1024:1531  {... */\n      pop\n      pop\n        /* \"contracts/GovernanceDAO.sol\":981:1531  function vote(uint256 proposalId) external {... */\n      pop\n      jump\t// out\n        /* \"contracts/GovernanceDAO.sol\":329:356  Proposal[] public proposals */\n    tag_17:\n      0x01\n      dup2\n      dup2\n      sload\n      dup2\n      lt\n      tag_66\n      jumpi\n      0x00\n      dup1\n      revert\n    tag_66:\n      swap1\n      0x00\n      mstore\n      keccak256(0x00, 0x20)\n      swap1\n      0x04\n      mul\n      add\n      0x00\n      swap2\n      pop\n      swap1\n      pop\n      dup1\n      0x00\n      add\n      dup1\n      sload\n      tag_68\n      swap1\n      tag_69\n      jump\t// in\n    tag_68:\n      dup1\n      0x1f\n      add\n      0x20\n      dup1\n      swap2\n      div\n      mul\n      0x20\n      add\n      mload(0x40)\n      swap1\n      dup2\n      add\n      0x40\n      mstore\n      dup1\n      swap3\n      swap2\n      swap1\n      dup2\n      dup2\n      mstore\n      0x20\n      add\n      dup3\n      dup1\n      sload\n      tag_70\n      swap1\n      tag_69\n      jump\t// in\n    tag_70:\n      dup1\n      iszero\n      tag_71\n      jumpi\n      dup1\n      0x1f\n      lt\n      tag_72\n      jumpi\n      0x0100\n      dup1\n      dup4\n      sload\n      div\n      mul\n      dup4\n      mstore\n      swap2\n      0x20\n      add\n      swap2\n      jump(tag_71)\n    tag_72:\n      dup3\n      add\n      swap2\n      swap1\n      0x00\n      mstore\n      keccak256(0x00, 0x20)\n      swap1\n    tag_73:\n      dup2\n      sload\n      dup2\n      mstore\n      swap1\n      0x01\n      add\n      swap1\n      0x20\n      add\n      dup1\n      dup4\n      gt\n      tag_73\n      jumpi\n      dup3\n      swap1\n      sub\n      0x1f\n      and\n      dup3\n      add\n      swap2\n    tag_71:\n      pop\n      pop\n      pop\n      pop\n      pop\n      swap1\n      dup1\n      0x01\n      add\n      sload\n      swap1\n      dup1\n      0x02\n      add\n      sload\n      swap1\n      dup1\n      0x03\n      add\n      0x00\n      swap1\n      sload\n      swap1\n      0x0100\n      exp\n      swap1\n      div\n      0xff\n      and\n      swap1\n      pop\n      dup5\n      jump\t// out\n        /* \"contracts/GovernanceDAO.sol\":1539:1905  function executeProposal(uint256 proposalId) external {... */\n    tag_22:\n        /* \"contracts/GovernanceDAO.sol\":1625:1634  proposals */\n      0x01\n        /* \"contracts/GovernanceDAO.sol\":1625:1641  proposals.length */\n      dup1\n      sload\n      swap1\n      pop\n        /* \"contracts/GovernanceDAO.sol\":1612:1622  proposalId */\n      dup2\n        /* \"contracts/GovernanceDAO.sol\":1612:1641  proposalId < proposals.length */\n      lt\n        /* \"contracts/GovernanceDAO.sol\":1604:1663  require(proposalId < proposals.length, \"Proposta invalida\") */\n      tag_75\n      jumpi\n      mload(0x40)\n      0x08c379a000000000000000000000000000000000000000000000000000000000\n      dup2\n      mstore\n      0x04\n      add\n      tag_76\n      swap1\n      tag_44\n      jump\t// in\n    tag_76:\n      mload(0x40)\n      dup1\n      swap2\n      sub\n      swap1\n      revert\n    tag_75:\n        /* \"contracts/GovernanceDAO.sol\":1676:1701  Proposal storage proposal */\n      0x00\n        /* \"contracts/GovernanceDAO.sol\":1704:1713  proposals */\n      0x01\n        /* \"contracts/GovernanceDAO.sol\":1714:1724  proposalId */\n      dup3\n        /* \"contracts/GovernanceDAO.sol\":1704:1725  proposals[proposalId] */\n      dup2\n      sload\n      dup2\n      lt\n      tag_77\n      jumpi\n      tag_78\n      tag_47\n      jump\t// in\n    tag_78:\n    tag_77:\n      swap1\n      0x00\n      mstore\n      keccak256(0x00, 0x20)\n      swap1\n      0x04\n      mul\n      add\n        /* \"contracts/GovernanceDAO.sol\":1676:1725  Proposal storage proposal = proposals[proposalId] */\n      swap1\n      pop\n        /* \"contracts/GovernanceDAO.sol\":1765:1773  proposal */\n      dup1\n        /* \"contracts/GovernanceDAO.sol\":1765:1782  proposal.deadline */\n      0x02\n      add\n      sload\n        /* \"contracts/GovernanceDAO.sol\":1746:1761  block.timestamp */\n      timestamp\n        /* \"contracts/GovernanceDAO.sol\":1746:1782  block.timestamp >= proposal.deadline */\n      lt\n      iszero\n        /* \"contracts/GovernanceDAO.sol\":1738:1806  require(block.timestamp >= proposal.deadline, \"Votacao ainda ativa\") */\n      tag_80\n      jumpi\n      mload(0x40)\n      0x08c379a000000000000000000000000000000000000000000000000000000000\n      dup2\n      mstore\n      0x04\n      add\n      tag_81\n      swap1\n      tag_82\n      jump\t// in\n    tag_81:\n      mload(0x40)\n      dup1\n      swap2\n      sub\n      swap1\n      revert\n    tag_80:\n        /* \"contracts/GovernanceDAO.sol\":1826:1834  proposal */\n      dup1\n        /* \"contracts/GovernanceDAO.sol\":1826:1843  proposal.executed */\n      0x03\n      add\n      0x00\n      swap1\n      sload\n      swap1\n      0x0100\n      exp\n      swap1\n      div\n      0xff\n      and\n        /* \"contracts/GovernanceDAO.sol\":1825:1843  !proposal.executed */\n      iszero\n        /* \"contracts/GovernanceDAO.sol\":1817:1860  require(!proposal.executed, \"Ja executada\") */\n      tag_83\n      jumpi\n      mload(0x40)\n      0x08c379a000000000000000000000000000000000000000000000000000000000\n      dup2\n      mstore\n      0x04\n      add\n      tag_84\n      swap1\n      tag_85\n      jump\t// in\n    tag_84:\n      mload(0x40)\n      dup1\n      swap2\n      sub\n      swap1\n      revert\n    tag_83:\n        /* \"contracts/GovernanceDAO.sol\":1893:1897  true */\n      0x01\n        /* \"contracts/GovernanceDAO.sol\":1873:1881  proposal */\n      dup2\n        /* \"contracts/GovernanceDAO.sol\":1873:1890  proposal.executed */\n      0x03\n      add\n      0x00\n        /* \"contracts/GovernanceDAO.sol\":1873:1897  proposal.executed = true */\n      0x0100\n      exp\n      dup2\n      sload\n      dup2\n      0xff\n      mul\n      not\n      and\n      swap1\n      dup4\n      iszero\n      iszero\n      mul\n      or\n      swap1\n      sstore\n      pop\n        /* \"contracts/GovernanceDAO.sol\":1593:1905  {... */\n      pop\n        /* \"contracts/GovernanceDAO.sol\":1539:1905  function executeProposal(uint256 proposalId) external {... */\n      pop\n      jump\t// out\n        /* \"contracts/GovernanceDAO.sol\":521:973  function createProposal(string memory _description, uint256 duration) external {... */\n    tag_26:\n        /* \"contracts/GovernanceDAO.sol\":673:674  0 */\n      0x00\n        /* \"contracts/GovernanceDAO.sol\":633:648  governanceToken */\n      0x00\n      0x00\n      swap1\n      sload\n      swap1\n      0x0100\n      exp\n      swap1\n      div\n      0xffffffffffffffffffffffffffffffffffffffff\n      and\n        /* \"contracts/GovernanceDAO.sol\":633:658  governanceToken.balanceOf */\n      0xffffffffffffffffffffffffffffffffffffffff\n      and\n      0x70a08231\n        /* \"contracts/GovernanceDAO.sol\":659:669  msg.sender */\n      caller\n        /* \"contracts/GovernanceDAO.sol\":633:670  governanceToken.balanceOf(msg.sender) */\n      mload(0x40)\n      dup3\n      0xffffffff\n      and\n      0xe0\n      shl\n      dup2\n      mstore\n      0x04\n      add\n      tag_87\n      swap2\n      swap1\n      tag_56\n      jump\t// in\n    tag_87:\n      0x20\n      mload(0x40)\n      dup1\n      dup4\n      sub\n      dup2\n      dup7\n      gas\n      staticcall\n      iszero\n      dup1\n      iszero\n      tag_89\n      jumpi\n      returndatacopy(0x00, 0x00, returndatasize)\n      revert(0x00, returndatasize)\n    tag_89:\n      pop\n      pop\n      pop\n      pop\n      mload(0x40)\n      returndatasize\n      not(0x1f)\n      0x1f\n      dup3\n      add\n      and\n      dup3\n      add\n      dup1\n      0x40\n      mstore\n      pop\n      dup2\n      add\n      swap1\n      tag_90\n      swap2\n      swap1\n      tag_60\n      jump\t// in\n    tag_90:\n        /* \"contracts/GovernanceDAO.sol\":633:674  governanceToken.balanceOf(msg.sender) > 0 */\n      gt\n        /* \"contracts/GovernanceDAO.sol\":611:723  require(... */\n      tag_91\n      jumpi\n      mload(0x40)\n      0x08c379a000000000000000000000000000000000000000000000000000000000\n      dup2\n      mstore\n      0x04\n      add\n      tag_92\n      swap1\n      tag_93\n      jump\t// in\n    tag_92:\n      mload(0x40)\n      dup1\n      swap2\n      sub\n      swap1\n      revert\n    tag_91:\n        /* \"contracts/GovernanceDAO.sol\":736:745  proposals */\n      0x01\n        /* \"contracts/GovernanceDAO.sol\":765:954  Proposal({... */\n      mload(0x40)\n      dup1\n      0x80\n      add\n      0x40\n      mstore\n      dup1\n        /* \"contracts/GovernanceDAO.sol\":806:818  _description */\n      dup5\n        /* \"contracts/GovernanceDAO.sol\":765:954  Proposal({... */\n      dup2\n      mstore\n      0x20\n      add\n        /* \"contracts/GovernanceDAO.sol\":848:849  0 */\n      0x00\n        /* \"contracts/GovernanceDAO.sol\":765:954  Proposal({... */\n      dup2\n      mstore\n      0x20\n      add\n        /* \"contracts/GovernanceDAO.sol\":896:904  duration */\n      dup4\n        /* \"contracts/GovernanceDAO.sol\":878:893  block.timestamp */\n      timestamp\n        /* \"contracts/GovernanceDAO.sol\":878:904  block.timestamp + duration */\n      tag_94\n      swap2\n      swap1\n      tag_65\n      jump\t// in\n    tag_94:\n        /* \"contracts/GovernanceDAO.sol\":765:954  Proposal({... */\n      dup2\n      mstore\n      0x20\n      add\n        /* \"contracts/GovernanceDAO.sol\":933:938  false */\n      0x00\n        /* \"contracts/GovernanceDAO.sol\":765:954  Proposal({... */\n      iszero\n      iszero\n      dup2\n      mstore\n      pop\n        /* \"contracts/GovernanceDAO.sol\":736:965  proposals.push(... */\n      swap1\n      dup1\n      0x01\n      dup2\n      sload\n      add\n      dup1\n      dup3\n      sstore\n      dup1\n      swap2\n      pop\n      pop\n      0x01\n      swap1\n      sub\n      swap1\n      0x00\n      mstore\n      keccak256(0x00, 0x20)\n      swap1\n      0x04\n      mul\n      add\n      0x00\n      swap1\n      swap2\n      swap1\n      swap2\n      swap1\n      swap2\n      pop\n      0x00\n      dup3\n      add\n      mload\n      dup2\n      0x00\n      add\n      swap1\n      dup2\n      tag_96\n      swap2\n      swap1\n      tag_97\n      jump\t// in\n    tag_96:\n      pop\n      0x20\n      dup3\n      add\n      mload\n      dup2\n      0x01\n      add\n      sstore\n      0x40\n      dup3\n      add\n      mload\n      dup2\n      0x02\n      add\n      sstore\n      0x60\n      dup3\n      add\n      mload\n      dup2\n      0x03\n      add\n      exp(0x0100, 0x00)\n      dup2\n      sload\n      dup2\n      0xff\n      mul\n      not\n      and\n      swap1\n      dup4\n      iszero\n      iszero\n      mul\n      or\n      swap1\n      sstore\n      pop\n      pop\n      pop\n        /* \"contracts/GovernanceDAO.sol\":521:973  function createProposal(string memory _description, uint256 duration) external {... */\n      pop\n      pop\n      jump\t// out\n        /* \"contracts/GovernanceDAO.sol\":365:425  mapping(uint256 => mapping(address => bool)) public hasVoted */\n    tag_30:\n      mstore(0x20, 0x02)\n      dup2\n      0x00\n      mstore\n      mstore(0x20, keccak256(0x00, 0x40))\n      dup1\n      0x00\n      mstore\n      keccak256(0x00, 0x40)\n      0x00\n      swap2\n      pop\n      swap2\n      pop\n      swap1\n      sload\n      swap1\n      0x0100\n      exp\n      swap1\n      div\n      0xff\n      and\n      dup2\n      jump\t// out\n        /* \"contracts/GovernanceDAO.sol\":1913:2016  function getProposalsCount() external view returns (uint256) {... */\n    tag_34:\n        /* \"contracts/GovernanceDAO.sol\":1965:1972  uint256 */\n      0x00\n        /* \"contracts/GovernanceDAO.sol\":1992:2001  proposals */\n      0x01\n        /* \"contracts/GovernanceDAO.sol\":1992:2008  proposals.length */\n      dup1\n      sload\n      swap1\n      pop\n        /* \"contracts/GovernanceDAO.sol\":1985:2008  return proposals.length */\n      swap1\n      pop\n        /* \"contracts/GovernanceDAO.sol\":1913:2016  function getProposalsCount() external view returns (uint256) {... */\n      swap1\n      jump\t// out\n        /* \"contracts/GovernanceDAO.sol\":151:180  IERC20 public governanceToken */\n    tag_38:\n      0x00\n      0x00\n      swap1\n      sload\n      swap1\n      0x0100\n      exp\n      swap1\n      div\n      0xffffffffffffffffffffffffffffffffffffffff\n      and\n      dup2\n      jump\t// out\n        /* \"#utility.yul\":7:82   */\n    tag_99:\n        /* \"#utility.yul\":40:46   */\n      0x00\n        /* \"#utility.yul\":73:75   */\n      0x40\n        /* \"#utility.yul\":67:76   */\n      mload\n        /* \"#utility.yul\":57:76   */\n      swap1\n      pop\n        /* \"#utility.yul\":7:82   */\n      swap1\n      jump\t// out\n        /* \"#utility.yul\":88:205   */\n    tag_100:\n        /* \"#utility.yul\":197:198   */\n      0x00\n        /* \"#utility.yul\":194:195   */\n      0x00\n        /* \"#utility.yul\":187:199   */\n      revert\n        /* \"#utility.yul\":211:328   */\n    tag_101:\n        /* \"#utility.yul\":320:321   */\n      0x00\n        /* \"#utility.yul\":317:318   */\n      0x00\n        /* \"#utility.yul\":310:322   */\n      revert\n        /* \"#utility.yul\":334:411   */\n    tag_102:\n        /* \"#utility.yul\":371:378   */\n      0x00\n        /* \"#utility.yul\":400:405   */\n      dup2\n        /* \"#utility.yul\":389:405   */\n      swap1\n      pop\n        /* \"#utility.yul\":334:411   */\n      swap2\n      swap1\n      pop\n      jump\t// out\n        /* \"#utility.yul\":417:539   */\n    tag_103:\n        /* \"#utility.yul\":490:514   */\n      tag_169\n        /* \"#utility.yul\":508:513   */\n      dup2\n        /* \"#utility.yul\":490:514   */\n      tag_102\n      jump\t// in\n    tag_169:\n        /* \"#utility.yul\":483:488   */\n      dup2\n        /* \"#utility.yul\":480:515   */\n      eq\n        /* \"#utility.yul\":470:533   */\n      tag_170\n      jumpi\n        /* \"#utility.yul\":529:530   */\n      0x00\n        /* \"#utility.yul\":526:527   */\n      0x00\n        /* \"#utility.yul\":519:531   */\n      revert\n        /* \"#utility.yul\":470:533   */\n    tag_170:\n        /* \"#utility.yul\":417:539   */\n      pop\n      jump\t// out\n        /* \"#utility.yul\":545:684   */\n    tag_104:\n        /* \"#utility.yul\":591:596   */\n      0x00\n        /* \"#utility.yul\":629:635   */\n      dup2\n        /* \"#utility.yul\":616:636   */\n      calldataload\n        /* \"#utility.yul\":607:636   */\n      swap1\n      pop\n        /* \"#utility.yul\":645:678   */\n      tag_172\n        /* \"#utility.yul\":672:677   */\n      dup2\n        /* \"#utility.yul\":645:678   */\n      tag_103\n      jump\t// in\n    tag_172:\n        /* \"#utility.yul\":545:684   */\n      swap3\n      swap2\n      pop\n      pop\n      jump\t// out\n        /* \"#utility.yul\":690:1019   */\n    tag_13:\n        /* \"#utility.yul\":749:755   */\n      0x00\n        /* \"#utility.yul\":798:800   */\n      0x20\n        /* \"#utility.yul\":786:795   */\n      dup3\n        /* \"#utility.yul\":777:784   */\n      dup5\n        /* \"#utility.yul\":773:796   */\n      sub\n        /* \"#utility.yul\":769:801   */\n      slt\n        /* \"#utility.yul\":766:885   */\n      iszero\n      tag_174\n      jumpi\n        /* \"#utility.yul\":804:883   */\n      tag_175\n      tag_100\n      jump\t// in\n    tag_175:\n        /* \"#utility.yul\":766:885   */\n    tag_174:\n        /* \"#utility.yul\":924:925   */\n      0x00\n        /* \"#utility.yul\":949:1002   */\n      tag_176\n        /* \"#utility.yul\":994:1001   */\n      dup5\n        /* \"#utility.yul\":985:991   */\n      dup3\n        /* \"#utility.yul\":974:983   */\n      dup6\n        /* \"#utility.yul\":970:992   */\n      add\n        /* \"#utility.yul\":949:1002   */\n      tag_104\n      jump\t// in\n    tag_176:\n        /* \"#utility.yul\":939:1002   */\n      swap2\n      pop\n        /* \"#utility.yul\":895:1012   */\n      pop\n        /* \"#utility.yul\":690:1019   */\n      swap3\n      swap2\n      pop\n      pop\n      jump\t// out\n        /* \"#utility.yul\":1025:1124   */\n    tag_105:\n        /* \"#utility.yul\":1077:1083   */\n      0x00\n        /* \"#utility.yul\":1111:1116   */\n      dup2\n        /* \"#utility.yul\":1105:1117   */\n      mload\n        /* \"#utility.yul\":1095:1117   */\n      swap1\n      pop\n        /* \"#utility.yul\":1025:1124   */\n      swap2\n      swap1\n      pop\n      jump\t// out\n        /* \"#utility.yul\":1130:1299   */\n    tag_106:\n        /* \"#utility.yul\":1214:1225   */\n      0x00\n        /* \"#utility.yul\":1248:1254   */\n      dup3\n        /* \"#utility.yul\":1243:1246   */\n      dup3\n        /* \"#utility.yul\":1236:1255   */\n      mstore\n        /* \"#utility.yul\":1288:1292   */\n      0x20\n        /* \"#utility.yul\":1283:1286   */\n      dup3\n        /* \"#utility.yul\":1279:1293   */\n      add\n        /* \"#utility.yul\":1264:1293   */\n      swap1\n      pop\n        /* \"#utility.yul\":1130:1299   */\n      swap3\n      swap2\n      pop\n      pop\n      jump\t// out\n        /* \"#utility.yul\":1305:1444   */\n    tag_107:\n        /* \"#utility.yul\":1394:1400   */\n      dup3\n        /* \"#utility.yul\":1389:1392   */\n      dup2\n        /* \"#utility.yul\":1384:1387   */\n      dup4\n        /* \"#utility.yul\":1378:1401   */\n      mcopy\n        /* \"#utility.yul\":1435:1436   */\n      0x00\n        /* \"#utility.yul\":1426:1432   */\n      dup4\n        /* \"#utility.yul\":1421:1424   */\n      dup4\n        /* \"#utility.yul\":1417:1433   */\n      add\n        /* \"#utility.yul\":1410:1437   */\n      mstore\n        /* \"#utility.yul\":1305:1444   */\n      pop\n      pop\n      pop\n      jump\t// out\n        /* \"#utility.yul\":1450:1552   */\n    tag_108:\n        /* \"#utility.yul\":1491:1497   */\n      0x00\n        /* \"#utility.yul\":1542:1544   */\n      0x1f\n        /* \"#utility.yul\":1538:1545   */\n      not\n        /* \"#utility.yul\":1533:1535   */\n      0x1f\n        /* \"#utility.yul\":1526:1531   */\n      dup4\n        /* \"#utility.yul\":1522:1536   */\n      add\n        /* \"#utility.yul\":1518:1546   */\n      and\n        /* \"#utility.yul\":1508:1546   */\n      swap1\n      pop\n        /* \"#utility.yul\":1450:1552   */\n      swap2\n      swap1\n      pop\n      jump\t// out\n        /* \"#utility.yul\":1558:1935   */\n    tag_109:\n        /* \"#utility.yul\":1646:1649   */\n      0x00\n        /* \"#utility.yul\":1674:1713   */\n      tag_182\n        /* \"#utility.yul\":1707:1712   */\n      dup3\n        /* \"#utility.yul\":1674:1713   */\n      tag_105\n      jump\t// in\n    tag_182:\n        /* \"#utility.yul\":1729:1800   */\n      tag_183\n        /* \"#utility.yul\":1793:1799   */\n      dup2\n        /* \"#utility.yul\":1788:1791   */\n      dup6\n        /* \"#utility.yul\":1729:1800   */\n      tag_106\n      jump\t// in\n    tag_183:\n        /* \"#utility.yul\":1722:1800   */\n      swap4\n      pop\n        /* \"#utility.yul\":1809:1874   */\n      tag_184\n        /* \"#utility.yul\":1867:1873   */\n      dup2\n        /* \"#utility.yul\":1862:1865   */\n      dup6\n        /* \"#utility.yul\":1855:1859   */\n      0x20\n        /* \"#utility.yul\":1848:1853   */\n      dup7\n        /* \"#utility.yul\":1844:1860   */\n      add\n        /* \"#utility.yul\":1809:1874   */\n      tag_107\n      jump\t// in\n    tag_184:\n        /* \"#utility.yul\":1899:1928   */\n      tag_185\n        /* \"#utility.yul\":1921:1927   */\n      dup2\n        /* \"#utility.yul\":1899:1928   */\n      tag_108\n      jump\t// in\n    tag_185:\n        /* \"#utility.yul\":1894:1897   */\n      dup5\n        /* \"#utility.yul\":1890:1929   */\n      add\n        /* \"#utility.yul\":1883:1929   */\n      swap2\n      pop\n        /* \"#utility.yul\":1650:1935   */\n      pop\n        /* \"#utility.yul\":1558:1935   */\n      swap3\n      swap2\n      pop\n      pop\n      jump\t// out\n        /* \"#utility.yul\":1941:2059   */\n    tag_110:\n        /* \"#utility.yul\":2028:2052   */\n      tag_187\n        /* \"#utility.yul\":2046:2051   */\n      dup2\n        /* \"#utility.yul\":2028:2052   */\n      tag_102\n      jump\t// in\n    tag_187:\n        /* \"#utility.yul\":2023:2026   */\n      dup3\n        /* \"#utility.yul\":2016:2053   */\n      mstore\n        /* \"#utility.yul\":1941:2059   */\n      pop\n      pop\n      jump\t// out\n        /* \"#utility.yul\":2065:2155   */\n    tag_111:\n        /* \"#utility.yul\":2099:2106   */\n      0x00\n        /* \"#utility.yul\":2142:2147   */\n      dup2\n        /* \"#utility.yul\":2135:2148   */\n      iszero\n        /* \"#utility.yul\":2128:2149   */\n      iszero\n        /* \"#utility.yul\":2117:2149   */\n      swap1\n      pop\n        /* \"#utility.yul\":2065:2155   */\n      swap2\n      swap1\n      pop\n      jump\t// out\n        /* \"#utility.yul\":2161:2270   */\n    tag_112:\n        /* \"#utility.yul\":2242:2263   */\n      tag_190\n        /* \"#utility.yul\":2257:2262   */\n      dup2\n        /* \"#utility.yul\":2242:2263   */\n      tag_111\n      jump\t// in\n    tag_190:\n        /* \"#utility.yul\":2237:2240   */\n      dup3\n        /* \"#utility.yul\":2230:2264   */\n      mstore\n        /* \"#utility.yul\":2161:2270   */\n      pop\n      pop\n      jump\t// out\n        /* \"#utility.yul\":2276:2908   */\n    tag_19:\n        /* \"#utility.yul\":2467:2471   */\n      0x00\n        /* \"#utility.yul\":2505:2508   */\n      0x80\n        /* \"#utility.yul\":2494:2503   */\n      dup3\n        /* \"#utility.yul\":2490:2509   */\n      add\n        /* \"#utility.yul\":2482:2509   */\n      swap1\n      pop\n        /* \"#utility.yul\":2555:2564   */\n      dup2\n        /* \"#utility.yul\":2549:2553   */\n      dup2\n        /* \"#utility.yul\":2545:2565   */\n      sub\n        /* \"#utility.yul\":2541:2542   */\n      0x00\n        /* \"#utility.yul\":2530:2539   */\n      dup4\n        /* \"#utility.yul\":2526:2543   */\n      add\n        /* \"#utility.yul\":2519:2566   */\n      mstore\n        /* \"#utility.yul\":2583:2661   */\n      tag_192\n        /* \"#utility.yul\":2656:2660   */\n      dup2\n        /* \"#utility.yul\":2647:2653   */\n      dup8\n        /* \"#utility.yul\":2583:2661   */\n      tag_109\n      jump\t// in\n    tag_192:\n        /* \"#utility.yul\":2575:2661   */\n      swap1\n      pop\n        /* \"#utility.yul\":2671:2743   */\n      tag_193\n        /* \"#utility.yul\":2739:2741   */\n      0x20\n        /* \"#utility.yul\":2728:2737   */\n      dup4\n        /* \"#utility.yul\":2724:2742   */\n      add\n        /* \"#utility.yul\":2715:2721   */\n      dup7\n        /* \"#utility.yul\":2671:2743   */\n      tag_110\n      jump\t// in\n    tag_193:\n        /* \"#utility.yul\":2753:2825   */\n      tag_194\n        /* \"#utility.yul\":2821:2823   */\n      0x40\n        /* \"#utility.yul\":2810:2819   */\n      dup4\n        /* \"#utility.yul\":2806:2824   */\n      add\n        /* \"#utility.yul\":2797:2803   */\n      dup6\n        /* \"#utility.yul\":2753:2825   */\n      tag_110\n      jump\t// in\n    tag_194:\n        /* \"#utility.yul\":2835:2901   */\n      tag_195\n        /* \"#utility.yul\":2897:2899   */\n      0x60\n        /* \"#utility.yul\":2886:2895   */\n      dup4\n        /* \"#utility.yul\":2882:2900   */\n      add\n        /* \"#utility.yul\":2873:2879   */\n      dup5\n        /* \"#utility.yul\":2835:2901   */\n      tag_112\n      jump\t// in\n    tag_195:\n        /* \"#utility.yul\":2276:2908   */\n      swap6\n      swap5\n      pop\n      pop\n      pop\n      pop\n      pop\n      jump\t// out\n        /* \"#utility.yul\":2914:3031   */\n    tag_113:\n        /* \"#utility.yul\":3023:3024   */\n      0x00\n        /* \"#utility.yul\":3020:3021   */\n      0x00\n        /* \"#utility.yul\":3013:3025   */\n      revert\n        /* \"#utility.yul\":3037:3154   */\n    tag_114:\n        /* \"#utility.yul\":3146:3147   */\n      0x00\n        /* \"#utility.yul\":3143:3144   */\n      0x00\n        /* \"#utility.yul\":3136:3148   */\n      revert\n        /* \"#utility.yul\":3160:3340   */\n    tag_115:\n        /* \"#utility.yul\":3208:3285   */\n      0x4e487b7100000000000000000000000000000000000000000000000000000000\n        /* \"#utility.yul\":3205:3206   */\n      0x00\n        /* \"#utility.yul\":3198:3286   */\n      mstore\n        /* \"#utility.yul\":3305:3309   */\n      0x41\n        /* \"#utility.yul\":3302:3303   */\n      0x04\n        /* \"#utility.yul\":3295:3310   */\n      mstore\n        /* \"#utility.yul\":3329:3333   */\n      0x24\n        /* \"#utility.yul\":3326:3327   */\n      0x00\n        /* \"#utility.yul\":3319:3334   */\n      revert\n        /* \"#utility.yul\":3346:3627   */\n    tag_116:\n        /* \"#utility.yul\":3429:3456   */\n      tag_200\n        /* \"#utility.yul\":3451:3455   */\n      dup3\n        /* \"#utility.yul\":3429:3456   */\n      tag_108\n      jump\t// in\n    tag_200:\n        /* \"#utility.yul\":3421:3427   */\n      dup2\n        /* \"#utility.yul\":3417:3457   */\n      add\n        /* \"#utility.yul\":3559:3565   */\n      dup2\n        /* \"#utility.yul\":3547:3557   */\n      dup2\n        /* \"#utility.yul\":3544:3566   */\n      lt\n        /* \"#utility.yul\":3523:3541   */\n      0xffffffffffffffff\n        /* \"#utility.yul\":3511:3521   */\n      dup3\n        /* \"#utility.yul\":3508:3542   */\n      gt\n        /* \"#utility.yul\":3505:3567   */\n      or\n        /* \"#utility.yul\":3502:3590   */\n      iszero\n      tag_201\n      jumpi\n        /* \"#utility.yul\":3570:3588   */\n      tag_202\n      tag_115\n      jump\t// in\n    tag_202:\n        /* \"#utility.yul\":3502:3590   */\n    tag_201:\n        /* \"#utility.yul\":3610:3620   */\n      dup1\n        /* \"#utility.yul\":3606:3608   */\n      0x40\n        /* \"#utility.yul\":3599:3621   */\n      mstore\n        /* \"#utility.yul\":3389:3627   */\n      pop\n        /* \"#utility.yul\":3346:3627   */\n      pop\n      pop\n      jump\t// out\n        /* \"#utility.yul\":3633:3762   */\n    tag_117:\n        /* \"#utility.yul\":3667:3673   */\n      0x00\n        /* \"#utility.yul\":3694:3714   */\n      tag_204\n      tag_99\n      jump\t// in\n    tag_204:\n        /* \"#utility.yul\":3684:3714   */\n      swap1\n      pop\n        /* \"#utility.yul\":3723:3756   */\n      tag_205\n        /* \"#utility.yul\":3751:3755   */\n      dup3\n        /* \"#utility.yul\":3743:3749   */\n      dup3\n        /* \"#utility.yul\":3723:3756   */\n      tag_116\n      jump\t// in\n    tag_205:\n        /* \"#utility.yul\":3633:3762   */\n      swap2\n      swap1\n      pop\n      jump\t// out\n        /* \"#utility.yul\":3768:4076   */\n    tag_118:\n        /* \"#utility.yul\":3830:3834   */\n      0x00\n        /* \"#utility.yul\":3920:3938   */\n      0xffffffffffffffff\n        /* \"#utility.yul\":3912:3918   */\n      dup3\n        /* \"#utility.yul\":3909:3939   */\n      gt\n        /* \"#utility.yul\":3906:3962   */\n      iszero\n      tag_207\n      jumpi\n        /* \"#utility.yul\":3942:3960   */\n      tag_208\n      tag_115\n      jump\t// in\n    tag_208:\n        /* \"#utility.yul\":3906:3962   */\n    tag_207:\n        /* \"#utility.yul\":3980:4009   */\n      tag_209\n        /* \"#utility.yul\":4002:4008   */\n      dup3\n        /* \"#utility.yul\":3980:4009   */\n      tag_108\n      jump\t// in\n    tag_209:\n        /* \"#utility.yul\":3972:4009   */\n      swap1\n      pop\n        /* \"#utility.yul\":4064:4068   */\n      0x20\n        /* \"#utility.yul\":4058:4062   */\n      dup2\n        /* \"#utility.yul\":4054:4069   */\n      add\n        /* \"#utility.yul\":4046:4069   */\n      swap1\n      pop\n        /* \"#utility.yul\":3768:4076   */\n      swap2\n      swap1\n      pop\n      jump\t// out\n        /* \"#utility.yul\":4082:4230   */\n    tag_119:\n        /* \"#utility.yul\":4180:4186   */\n      dup3\n        /* \"#utility.yul\":4175:4178   */\n      dup2\n        /* \"#utility.yul\":4170:4173   */\n      dup4\n        /* \"#utility.yul\":4157:4187   */\n      calldatacopy\n        /* \"#utility.yul\":4221:4222   */\n      0x00\n        /* \"#utility.yul\":4212:4218   */\n      dup4\n        /* \"#utility.yul\":4207:4210   */\n      dup4\n        /* \"#utility.yul\":4203:4219   */\n      add\n        /* \"#utility.yul\":4196:4223   */\n      mstore\n        /* \"#utility.yul\":4082:4230   */\n      pop\n      pop\n      pop\n      jump\t// out\n        /* \"#utility.yul\":4236:4661   */\n    tag_120:\n        /* \"#utility.yul\":4314:4319   */\n      0x00\n        /* \"#utility.yul\":4339:4405   */\n      tag_212\n        /* \"#utility.yul\":4355:4404   */\n      tag_213\n        /* \"#utility.yul\":4397:4403   */\n      dup5\n        /* \"#utility.yul\":4355:4404   */\n      tag_118\n      jump\t// in\n    tag_213:\n        /* \"#utility.yul\":4339:4405   */\n      tag_117\n      jump\t// in\n    tag_212:\n        /* \"#utility.yul\":4330:4405   */\n      swap1\n      pop\n        /* \"#utility.yul\":4428:4434   */\n      dup3\n        /* \"#utility.yul\":4421:4426   */\n      dup2\n        /* \"#utility.yul\":4414:4435   */\n      mstore\n        /* \"#utility.yul\":4466:4470   */\n      0x20\n        /* \"#utility.yul\":4459:4464   */\n      dup2\n        /* \"#utility.yul\":4455:4471   */\n      add\n        /* \"#utility.yul\":4504:4507   */\n      dup5\n        /* \"#utility.yul\":4495:4501   */\n      dup5\n        /* \"#utility.yul\":4490:4493   */\n      dup5\n        /* \"#utility.yul\":4486:4502   */\n      add\n        /* \"#utility.yul\":4483:4508   */\n      gt\n        /* \"#utility.yul\":4480:4592   */\n      iszero\n      tag_214\n      jumpi\n        /* \"#utility.yul\":4511:4590   */\n      tag_215\n      tag_114\n      jump\t// in\n    tag_215:\n        /* \"#utility.yul\":4480:4592   */\n    tag_214:\n        /* \"#utility.yul\":4601:4655   */\n      tag_216\n        /* \"#utility.yul\":4648:4654   */\n      dup5\n        /* \"#utility.yul\":4643:4646   */\n      dup3\n        /* \"#utility.yul\":4638:4641   */\n      dup6\n        /* \"#utility.yul\":4601:4655   */\n      tag_119\n      jump\t// in\n    tag_216:\n        /* \"#utility.yul\":4320:4661   */\n      pop\n        /* \"#utility.yul\":4236:4661   */\n      swap4\n      swap3\n      pop\n      pop\n      pop\n      jump\t// out\n        /* \"#utility.yul\":4681:5021   */\n    tag_121:\n        /* \"#utility.yul\":4737:4742   */\n      0x00\n        /* \"#utility.yul\":4786:4789   */\n      dup3\n        /* \"#utility.yul\":4779:4783   */\n      0x1f\n        /* \"#utility.yul\":4771:4777   */\n      dup4\n        /* \"#utility.yul\":4767:4784   */\n      add\n        /* \"#utility.yul\":4763:4790   */\n      slt\n        /* \"#utility.yul\":4753:4875   */\n      tag_218\n      jumpi\n        /* \"#utility.yul\":4794:4873   */\n      tag_219\n      tag_113\n      jump\t// in\n    tag_219:\n        /* \"#utility.yul\":4753:4875   */\n    tag_218:\n        /* \"#utility.yul\":4911:4917   */\n      dup2\n        /* \"#utility.yul\":4898:4918   */\n      calldataload\n        /* \"#utility.yul\":4936:5015   */\n      tag_220\n        /* \"#utility.yul\":5011:5014   */\n      dup5\n        /* \"#utility.yul\":5003:5009   */\n      dup3\n        /* \"#utility.yul\":4996:5000   */\n      0x20\n        /* \"#utility.yul\":4988:4994   */\n      dup7\n        /* \"#utility.yul\":4984:5001   */\n      add\n        /* \"#utility.yul\":4936:5015   */\n      tag_120\n      jump\t// in\n    tag_220:\n        /* \"#utility.yul\":4927:5015   */\n      swap2\n      pop\n        /* \"#utility.yul\":4743:5021   */\n      pop\n        /* \"#utility.yul\":4681:5021   */\n      swap3\n      swap2\n      pop\n      pop\n      jump\t// out\n        /* \"#utility.yul\":5027:5681   */\n    tag_25:\n        /* \"#utility.yul\":5105:5111   */\n      0x00\n        /* \"#utility.yul\":5113:5119   */\n      0x00\n        /* \"#utility.yul\":5162:5164   */\n      0x40\n        /* \"#utility.yul\":5150:5159   */\n      dup4\n        /* \"#utility.yul\":5141:5148   */\n      dup6\n        /* \"#utility.yul\":5137:5160   */\n      sub\n        /* \"#utility.yul\":5133:5165   */\n      slt\n        /* \"#utility.yul\":5130:5249   */\n      iszero\n      tag_222\n      jumpi\n        /* \"#utility.yul\":5168:5247   */\n      tag_223\n      tag_100\n      jump\t// in\n    tag_223:\n        /* \"#utility.yul\":5130:5249   */\n    tag_222:\n        /* \"#utility.yul\":5316:5317   */\n      0x00\n        /* \"#utility.yul\":5305:5314   */\n      dup4\n        /* \"#utility.yul\":5301:5318   */\n      add\n        /* \"#utility.yul\":5288:5319   */\n      calldataload\n        /* \"#utility.yul\":5346:5364   */\n      0xffffffffffffffff\n        /* \"#utility.yul\":5338:5344   */\n      dup2\n        /* \"#utility.yul\":5335:5365   */\n      gt\n        /* \"#utility.yul\":5332:5449   */\n      iszero\n      tag_224\n      jumpi\n        /* \"#utility.yul\":5368:5447   */\n      tag_225\n      tag_101\n      jump\t// in\n    tag_225:\n        /* \"#utility.yul\":5332:5449   */\n    tag_224:\n        /* \"#utility.yul\":5473:5536   */\n      tag_226\n        /* \"#utility.yul\":5528:5535   */\n      dup6\n        /* \"#utility.yul\":5519:5525   */\n      dup3\n        /* \"#utility.yul\":5508:5517   */\n      dup7\n        /* \"#utility.yul\":5504:5526   */\n      add\n        /* \"#utility.yul\":5473:5536   */\n      tag_121\n      jump\t// in\n    tag_226:\n        /* \"#utility.yul\":5463:5536   */\n      swap3\n      pop\n        /* \"#utility.yul\":5259:5546   */\n      pop\n        /* \"#utility.yul\":5585:5587   */\n      0x20\n        /* \"#utility.yul\":5611:5664   */\n      tag_227\n        /* \"#utility.yul\":5656:5663   */\n      dup6\n        /* \"#utility.yul\":5647:5653   */\n      dup3\n        /* \"#utility.yul\":5636:5645   */\n      dup7\n        /* \"#utility.yul\":5632:5654   */\n      add\n        /* \"#utility.yul\":5611:5664   */\n      tag_104\n      jump\t// in\n    tag_227:\n        /* \"#utility.yul\":5601:5664   */\n      swap2\n      pop\n        /* \"#utility.yul\":5556:5674   */\n      pop\n        /* \"#utility.yul\":5027:5681   */\n      swap3\n      pop\n      swap3\n      swap1\n      pop\n      jump\t// out\n        /* \"#utility.yul\":5687:5813   */\n    tag_122:\n        /* \"#utility.yul\":5724:5731   */\n      0x00\n        /* \"#utility.yul\":5764:5806   */\n      0xffffffffffffffffffffffffffffffffffffffff\n        /* \"#utility.yul\":5757:5762   */\n      dup3\n        /* \"#utility.yul\":5753:5807   */\n      and\n        /* \"#utility.yul\":5742:5807   */\n      swap1\n      pop\n        /* \"#utility.yul\":5687:5813   */\n      swap2\n      swap1\n      pop\n      jump\t// out\n        /* \"#utility.yul\":5819:5915   */\n    tag_123:\n        /* \"#utility.yul\":5856:5863   */\n      0x00\n        /* \"#utility.yul\":5885:5909   */\n      tag_230\n        /* \"#utility.yul\":5903:5908   */\n      dup3\n        /* \"#utility.yul\":5885:5909   */\n      tag_122\n      jump\t// in\n    tag_230:\n        /* \"#utility.yul\":5874:5909   */\n      swap1\n      pop\n        /* \"#utility.yul\":5819:5915   */\n      swap2\n      swap1\n      pop\n      jump\t// out\n        /* \"#utility.yul\":5921:6043   */\n    tag_124:\n        /* \"#utility.yul\":5994:6018   */\n      tag_232\n        /* \"#utility.yul\":6012:6017   */\n      dup2\n        /* \"#utility.yul\":5994:6018   */\n      tag_123\n      jump\t// in\n    tag_232:\n        /* \"#utility.yul\":5987:5992   */\n      dup2\n        /* \"#utility.yul\":5984:6019   */\n      eq\n        /* \"#utility.yul\":5974:6037   */\n      tag_233\n      jumpi\n        /* \"#utility.yul\":6033:6034   */\n      0x00\n        /* \"#utility.yul\":6030:6031   */\n      0x00\n        /* \"#utility.yul\":6023:6035   */\n      revert\n        /* \"#utility.yul\":5974:6037   */\n    tag_233:\n        /* \"#utility.yul\":5921:6043   */\n      pop\n      jump\t// out\n        /* \"#utility.yul\":6049:6188   */\n    tag_125:\n        /* \"#utility.yul\":6095:6100   */\n      0x00\n        /* \"#utility.yul\":6133:6139   */\n      dup2\n        /* \"#utility.yul\":6120:6140   */\n      calldataload\n        /* \"#utility.yul\":6111:6140   */\n      swap1\n      pop\n        /* \"#utility.yul\":6149:6182   */\n      tag_235\n        /* \"#utility.yul\":6176:6181   */\n      dup2\n        /* \"#utility.yul\":6149:6182   */\n      tag_124\n      jump\t// in\n    tag_235:\n        /* \"#utility.yul\":6049:6188   */\n      swap3\n      swap2\n      pop\n      pop\n      jump\t// out\n        /* \"#utility.yul\":6194:6668   */\n    tag_29:\n        /* \"#utility.yul\":6262:6268   */\n      0x00\n        /* \"#utility.yul\":6270:6276   */\n      0x00\n        /* \"#utility.yul\":6319:6321   */\n      0x40\n        /* \"#utility.yul\":6307:6316   */\n      dup4\n        /* \"#utility.yul\":6298:6305   */\n      dup6\n        /* \"#utility.yul\":6294:6317   */\n      sub\n        /* \"#utility.yul\":6290:6322   */\n      slt\n        /* \"#utility.yul\":6287:6406   */\n      iszero\n      tag_237\n      jumpi\n        /* \"#utility.yul\":6325:6404   */\n      tag_238\n      tag_100\n      jump\t// in\n    tag_238:\n        /* \"#utility.yul\":6287:6406   */\n    tag_237:\n        /* \"#utility.yul\":6445:6446   */\n      0x00\n        /* \"#utility.yul\":6470:6523   */\n      tag_239\n        /* \"#utility.yul\":6515:6522   */\n      dup6\n        /* \"#utility.yul\":6506:6512   */\n      dup3\n        /* \"#utility.yul\":6495:6504   */\n      dup7\n        /* \"#utility.yul\":6491:6513   */\n      add\n        /* \"#utility.yul\":6470:6523   */\n      tag_104\n      jump\t// in\n    tag_239:\n        /* \"#utility.yul\":6460:6523   */\n      swap3\n      pop\n        /* \"#utility.yul\":6416:6533   */\n      pop\n        /* \"#utility.yul\":6572:6574   */\n      0x20\n        /* \"#utility.yul\":6598:6651   */\n      tag_240\n        /* \"#utility.yul\":6643:6650   */\n      dup6\n        /* \"#utility.yul\":6634:6640   */\n      dup3\n        /* \"#utility.yul\":6623:6632   */\n      dup7\n        /* \"#utility.yul\":6619:6641   */\n      add\n        /* \"#utility.yul\":6598:6651   */\n      tag_125\n      jump\t// in\n    tag_240:\n        /* \"#utility.yul\":6588:6651   */\n      swap2\n      pop\n        /* \"#utility.yul\":6543:6661   */\n      pop\n        /* \"#utility.yul\":6194:6668   */\n      swap3\n      pop\n      swap3\n      swap1\n      pop\n      jump\t// out\n        /* \"#utility.yul\":6674:6884   */\n    tag_32:\n        /* \"#utility.yul\":6761:6765   */\n      0x00\n        /* \"#utility.yul\":6799:6801   */\n      0x20\n        /* \"#utility.yul\":6788:6797   */\n      dup3\n        /* \"#utility.yul\":6784:6802   */\n      add\n        /* \"#utility.yul\":6776:6802   */\n      swap1\n      pop\n        /* \"#utility.yul\":6812:6877   */\n      tag_242\n        /* \"#utility.yul\":6874:6875   */\n      0x00\n        /* \"#utility.yul\":6863:6872   */\n      dup4\n        /* \"#utility.yul\":6859:6876   */\n      add\n        /* \"#utility.yul\":6850:6856   */\n      dup5\n        /* \"#utility.yul\":6812:6877   */\n      tag_112\n      jump\t// in\n    tag_242:\n        /* \"#utility.yul\":6674:6884   */\n      swap3\n      swap2\n      pop\n      pop\n      jump\t// out\n        /* \"#utility.yul\":6890:7112   */\n    tag_36:\n        /* \"#utility.yul\":6983:6987   */\n      0x00\n        /* \"#utility.yul\":7021:7023   */\n      0x20\n        /* \"#utility.yul\":7010:7019   */\n      dup3\n        /* \"#utility.yul\":7006:7024   */\n      add\n        /* \"#utility.yul\":6998:7024   */\n      swap1\n      pop\n        /* \"#utility.yul\":7034:7105   */\n      tag_244\n        /* \"#utility.yul\":7102:7103   */\n      0x00\n        /* \"#utility.yul\":7091:7100   */\n      dup4\n        /* \"#utility.yul\":7087:7104   */\n      add\n        /* \"#utility.yul\":7078:7084   */\n      dup5\n        /* \"#utility.yul\":7034:7105   */\n      tag_110\n      jump\t// in\n    tag_244:\n        /* \"#utility.yul\":6890:7112   */\n      swap3\n      swap2\n      pop\n      pop\n      jump\t// out\n        /* \"#utility.yul\":7118:7178   */\n    tag_126:\n        /* \"#utility.yul\":7146:7149   */\n      0x00\n        /* \"#utility.yul\":7167:7172   */\n      dup2\n        /* \"#utility.yul\":7160:7172   */\n      swap1\n      pop\n        /* \"#utility.yul\":7118:7178   */\n      swap2\n      swap1\n      pop\n      jump\t// out\n        /* \"#utility.yul\":7184:7326   */\n    tag_127:\n        /* \"#utility.yul\":7234:7243   */\n      0x00\n        /* \"#utility.yul\":7267:7320   */\n      tag_247\n        /* \"#utility.yul\":7285:7319   */\n      tag_248\n        /* \"#utility.yul\":7294:7318   */\n      tag_249\n        /* \"#utility.yul\":7312:7317   */\n      dup5\n        /* \"#utility.yul\":7294:7318   */\n      tag_122\n      jump\t// in\n    tag_249:\n        /* \"#utility.yul\":7285:7319   */\n      tag_126\n      jump\t// in\n    tag_248:\n        /* \"#utility.yul\":7267:7320   */\n      tag_122\n      jump\t// in\n    tag_247:\n        /* \"#utility.yul\":7254:7320   */\n      swap1\n      pop\n        /* \"#utility.yul\":7184:7326   */\n      swap2\n      swap1\n      pop\n      jump\t// out\n        /* \"#utility.yul\":7332:7458   */\n    tag_128:\n        /* \"#utility.yul\":7382:7391   */\n      0x00\n        /* \"#utility.yul\":7415:7452   */\n      tag_251\n        /* \"#utility.yul\":7446:7451   */\n      dup3\n        /* \"#utility.yul\":7415:7452   */\n      tag_127\n      jump\t// in\n    tag_251:\n        /* \"#utility.yul\":7402:7452   */\n      swap1\n      pop\n        /* \"#utility.yul\":7332:7458   */\n      swap2\n      swap1\n      pop\n      jump\t// out\n        /* \"#utility.yul\":7464:7603   */\n    tag_129:\n        /* \"#utility.yul\":7527:7536   */\n      0x00\n        /* \"#utility.yul\":7560:7597   */\n      tag_253\n        /* \"#utility.yul\":7591:7596   */\n      dup3\n        /* \"#utility.yul\":7560:7597   */\n      tag_128\n      jump\t// in\n    tag_253:\n        /* \"#utility.yul\":7547:7597   */\n      swap1\n      pop\n        /* \"#utility.yul\":7464:7603   */\n      swap2\n      swap1\n      pop\n      jump\t// out\n        /* \"#utility.yul\":7609:7766   */\n    tag_130:\n        /* \"#utility.yul\":7709:7759   */\n      tag_255\n        /* \"#utility.yul\":7753:7758   */\n      dup2\n        /* \"#utility.yul\":7709:7759   */\n      tag_129\n      jump\t// in\n    tag_255:\n        /* \"#utility.yul\":7704:7707   */\n      dup3\n        /* \"#utility.yul\":7697:7760   */\n      mstore\n        /* \"#utility.yul\":7609:7766   */\n      pop\n      pop\n      jump\t// out\n        /* \"#utility.yul\":7772:8020   */\n    tag_40:\n        /* \"#utility.yul\":7878:7882   */\n      0x00\n        /* \"#utility.yul\":7916:7918   */\n      0x20\n        /* \"#utility.yul\":7905:7914   */\n      dup3\n        /* \"#utility.yul\":7901:7919   */\n      add\n        /* \"#utility.yul\":7893:7919   */\n      swap1\n      pop\n        /* \"#utility.yul\":7929:8013   */\n      tag_257\n        /* \"#utility.yul\":8010:8011   */\n      0x00\n        /* \"#utility.yul\":7999:8008   */\n      dup4\n        /* \"#utility.yul\":7995:8012   */\n      add\n        /* \"#utility.yul\":7986:7992   */\n      dup5\n        /* \"#utility.yul\":7929:8013   */\n      tag_130\n      jump\t// in\n    tag_257:\n        /* \"#utility.yul\":7772:8020   */\n      swap3\n      swap2\n      pop\n      pop\n      jump\t// out\n        /* \"#utility.yul\":8026:8193   */\n    tag_131:\n        /* \"#utility.yul\":8166:8185   */\n      0x50726f706f73746120696e76616c696461000000000000000000000000000000\n        /* \"#utility.yul\":8162:8163   */\n      0x00\n        /* \"#utility.yul\":8154:8160   */\n      dup3\n        /* \"#utility.yul\":8150:8164   */\n      add\n        /* \"#utility.yul\":8143:8186   */\n      mstore\n        /* \"#utility.yul\":8026:8193   */\n      pop\n      jump\t// out\n        /* \"#utility.yul\":8199:8565   */\n    tag_132:\n        /* \"#utility.yul\":8341:8344   */\n      0x00\n        /* \"#utility.yul\":8362:8429   */\n      tag_260\n        /* \"#utility.yul\":8426:8428   */\n      0x11\n        /* \"#utility.yul\":8421:8424   */\n      dup4\n        /* \"#utility.yul\":8362:8429   */\n      tag_106\n      jump\t// in\n    tag_260:\n        /* \"#utility.yul\":8355:8429   */\n      swap2\n      pop\n        /* \"#utility.yul\":8438:8531   */\n      tag_261\n        /* \"#utility.yul\":8527:8530   */\n      dup3\n        /* \"#utility.yul\":8438:8531   */\n      tag_131\n      jump\t// in\n    tag_261:\n        /* \"#utility.yul\":8556:8558   */\n      0x20\n        /* \"#utility.yul\":8551:8554   */\n      dup3\n        /* \"#utility.yul\":8547:8559   */\n      add\n        /* \"#utility.yul\":8540:8559   */\n      swap1\n      pop\n        /* \"#utility.yul\":8199:8565   */\n      swap2\n      swap1\n      pop\n      jump\t// out\n        /* \"#utility.yul\":8571:8990   */\n    tag_44:\n        /* \"#utility.yul\":8737:8741   */\n      0x00\n        /* \"#utility.yul\":8775:8777   */\n      0x20\n        /* \"#utility.yul\":8764:8773   */\n      dup3\n        /* \"#utility.yul\":8760:8778   */\n      add\n        /* \"#utility.yul\":8752:8778   */\n      swap1\n      pop\n        /* \"#utility.yul\":8824:8833   */\n      dup2\n        /* \"#utility.yul\":8818:8822   */\n      dup2\n        /* \"#utility.yul\":8814:8834   */\n      sub\n        /* \"#utility.yul\":8810:8811   */\n      0x00\n        /* \"#utility.yul\":8799:8808   */\n      dup4\n        /* \"#utility.yul\":8795:8812   */\n      add\n        /* \"#utility.yul\":8788:8835   */\n      mstore\n        /* \"#utility.yul\":8852:8983   */\n      tag_263\n        /* \"#utility.yul\":8978:8982   */\n      dup2\n        /* \"#utility.yul\":8852:8983   */\n      tag_132\n      jump\t// in\n    tag_263:\n        /* \"#utility.yul\":8844:8983   */\n      swap1\n      pop\n        /* \"#utility.yul\":8571:8990   */\n      swap2\n      swap1\n      pop\n      jump\t// out\n        /* \"#utility.yul\":8996:9176   */\n    tag_47:\n        /* \"#utility.yul\":9044:9121   */\n      0x4e487b7100000000000000000000000000000000000000000000000000000000\n        /* \"#utility.yul\":9041:9042   */\n      0x00\n        /* \"#utility.yul\":9034:9122   */\n      mstore\n        /* \"#utility.yul\":9141:9145   */\n      0x32\n        /* \"#utility.yul\":9138:9139   */\n      0x04\n        /* \"#utility.yul\":9131:9146   */\n      mstore\n        /* \"#utility.yul\":9165:9169   */\n      0x24\n        /* \"#utility.yul\":9162:9163   */\n      0x00\n        /* \"#utility.yul\":9155:9170   */\n      revert\n        /* \"#utility.yul\":9182:9349   */\n    tag_133:\n        /* \"#utility.yul\":9322:9341   */\n      0x566f746163616f20656e63657272616461000000000000000000000000000000\n        /* \"#utility.yul\":9318:9319   */\n      0x00\n        /* \"#utility.yul\":9310:9316   */\n      dup3\n        /* \"#utility.yul\":9306:9320   */\n      add\n        /* \"#utility.yul\":9299:9342   */\n      mstore\n        /* \"#utility.yul\":9182:9349   */\n      pop\n      jump\t// out\n        /* \"#utility.yul\":9355:9721   */\n    tag_134:\n        /* \"#utility.yul\":9497:9500   */\n      0x00\n        /* \"#utility.yul\":9518:9585   */\n      tag_267\n        /* \"#utility.yul\":9582:9584   */\n      0x11\n        /* \"#utility.yul\":9577:9580   */\n      dup4\n        /* \"#utility.yul\":9518:9585   */\n      tag_106\n      jump\t// in\n    tag_267:\n        /* \"#utility.yul\":9511:9585   */\n      swap2\n      pop\n        /* \"#utility.yul\":9594:9687   */\n      tag_268\n        /* \"#utility.yul\":9683:9686   */\n      dup3\n        /* \"#utility.yul\":9594:9687   */\n      tag_133\n      jump\t// in\n    tag_268:\n        /* \"#utility.yul\":9712:9714   */\n      0x20\n        /* \"#utility.yul\":9707:9710   */\n      dup3\n        /* \"#utility.yul\":9703:9715   */\n      add\n        /* \"#utility.yul\":9696:9715   */\n      swap1\n      pop\n        /* \"#utility.yul\":9355:9721   */\n      swap2\n      swap1\n      pop\n      jump\t// out\n        /* \"#utility.yul\":9727:10146   */\n    tag_51:\n        /* \"#utility.yul\":9893:9897   */\n      0x00\n        /* \"#utility.yul\":9931:9933   */\n      0x20\n        /* \"#utility.yul\":9920:9929   */\n      dup3\n        /* \"#utility.yul\":9916:9934   */\n      add\n        /* \"#utility.yul\":9908:9934   */\n      swap1\n      pop\n        /* \"#utility.yul\":9980:9989   */\n      dup2\n        /* \"#utility.yul\":9974:9978   */\n      dup2\n        /* \"#utility.yul\":9970:9990   */\n      sub\n        /* \"#utility.yul\":9966:9967   */\n      0x00\n        /* \"#utility.yul\":9955:9964   */\n      dup4\n        /* \"#utility.yul\":9951:9968   */\n      add\n        /* \"#utility.yul\":9944:9991   */\n      mstore\n        /* \"#utility.yul\":10008:10139   */\n      tag_270\n        /* \"#utility.yul\":10134:10138   */\n      dup2\n        /* \"#utility.yul\":10008:10139   */\n      tag_134\n      jump\t// in\n    tag_270:\n        /* \"#utility.yul\":10000:10139   */\n      swap1\n      pop\n        /* \"#utility.yul\":9727:10146   */\n      swap2\n      swap1\n      pop\n      jump\t// out\n        /* \"#utility.yul\":10152:10310   */\n    tag_135:\n        /* \"#utility.yul\":10292:10302   */\n      0x4a6120766f746f75000000000000000000000000000000000000000000000000\n        /* \"#utility.yul\":10288:10289   */\n      0x00\n        /* \"#utility.yul\":10280:10286   */\n      dup3\n        /* \"#utility.yul\":10276:10290   */\n      add\n        /* \"#utility.yul\":10269:10303   */\n      mstore\n        /* \"#utility.yul\":10152:10310   */\n      pop\n      jump\t// out\n        /* \"#utility.yul\":10316:10681   */\n    tag_136:\n        /* \"#utility.yul\":10458:10461   */\n      0x00\n        /* \"#utility.yul\":10479:10545   */\n      tag_273\n        /* \"#utility.yul\":10543:10544   */\n      0x08\n        /* \"#utility.yul\":10538:10541   */\n      dup4\n        /* \"#utility.yul\":10479:10545   */\n      tag_106\n      jump\t// in\n    tag_273:\n        /* \"#utility.yul\":10472:10545   */\n      swap2\n      pop\n        /* \"#utility.yul\":10554:10647   */\n      tag_274\n        /* \"#utility.yul\":10643:10646   */\n      dup3\n        /* \"#utility.yul\":10554:10647   */\n      tag_135\n      jump\t// in\n    tag_274:\n        /* \"#utility.yul\":10672:10674   */\n      0x20\n        /* \"#utility.yul\":10667:10670   */\n      dup3\n        /* \"#utility.yul\":10663:10675   */\n      add\n        /* \"#utility.yul\":10656:10675   */\n      swap1\n      pop\n        /* \"#utility.yul\":10316:10681   */\n      swap2\n      swap1\n      pop\n      jump\t// out\n        /* \"#utility.yul\":10687:11106   */\n    tag_54:\n        /* \"#utility.yul\":10853:10857   */\n      0x00\n        /* \"#utility.yul\":10891:10893   */\n      0x20\n        /* \"#utility.yul\":10880:10889   */\n      dup3\n        /* \"#utility.yul\":10876:10894   */\n      add\n        /* \"#utility.yul\":10868:10894   */\n      swap1\n      pop\n        /* \"#utility.yul\":10940:10949   */\n      dup2\n        /* \"#utility.yul\":10934:10938   */\n      dup2\n        /* \"#utility.yul\":10930:10950   */\n      sub\n        /* \"#utility.yul\":10926:10927   */\n      0x00\n        /* \"#utility.yul\":10915:10924   */\n      dup4\n        /* \"#utility.yul\":10911:10928   */\n      add\n        /* \"#utility.yul\":10904:10951   */\n      mstore\n        /* \"#utility.yul\":10968:11099   */\n      tag_276\n        /* \"#utility.yul\":11094:11098   */\n      dup2\n        /* \"#utility.yul\":10968:11099   */\n      tag_136\n      jump\t// in\n    tag_276:\n        /* \"#utility.yul\":10960:11099   */\n      swap1\n      pop\n        /* \"#utility.yul\":10687:11106   */\n      swap2\n      swap1\n      pop\n      jump\t// out\n        /* \"#utility.yul\":11112:11230   */\n    tag_137:\n        /* \"#utility.yul\":11199:11223   */\n      tag_278\n        /* \"#utility.yul\":11217:11222   */\n      dup2\n        /* \"#utility.yul\":11199:11223   */\n      tag_123\n      jump\t// in\n    tag_278:\n        /* \"#utility.yul\":11194:11197   */\n      dup3\n        /* \"#utility.yul\":11187:11224   */\n      mstore\n        /* \"#utility.yul\":11112:11230   */\n      pop\n      pop\n      jump\t// out\n        /* \"#utility.yul\":11236:11458   */\n    tag_56:\n        /* \"#utility.yul\":11329:11333   */\n      0x00\n        /* \"#utility.yul\":11367:11369   */\n      0x20\n        /* \"#utility.yul\":11356:11365   */\n      dup3\n        /* \"#utility.yul\":11352:11370   */\n      add\n        /* \"#utility.yul\":11344:11370   */\n      swap1\n      pop\n        /* \"#utility.yul\":11380:11451   */\n      tag_280\n        /* \"#utility.yul\":11448:11449   */\n      0x00\n        /* \"#utility.yul\":11437:11446   */\n      dup4\n        /* \"#utility.yul\":11433:11450   */\n      add\n        /* \"#utility.yul\":11424:11430   */\n      dup5\n        /* \"#utility.yul\":11380:11451   */\n      tag_137\n      jump\t// in\n    tag_280:\n        /* \"#utility.yul\":11236:11458   */\n      swap3\n      swap2\n      pop\n      pop\n      jump\t// out\n        /* \"#utility.yul\":11464:11607   */\n    tag_138:\n        /* \"#utility.yul\":11521:11526   */\n      0x00\n        /* \"#utility.yul\":11552:11558   */\n      dup2\n        /* \"#utility.yul\":11546:11559   */\n      mload\n        /* \"#utility.yul\":11537:11559   */\n      swap1\n      pop\n        /* \"#utility.yul\":11568:11601   */\n      tag_282\n        /* \"#utility.yul\":11595:11600   */\n      dup2\n        /* \"#utility.yul\":11568:11601   */\n      tag_103\n      jump\t// in\n    tag_282:\n        /* \"#utility.yul\":11464:11607   */\n      swap3\n      swap2\n      pop\n      pop\n      jump\t// out\n        /* \"#utility.yul\":11613:11964   */\n    tag_60:\n        /* \"#utility.yul\":11683:11689   */\n      0x00\n        /* \"#utility.yul\":11732:11734   */\n      0x20\n        /* \"#utility.yul\":11720:11729   */\n      dup3\n        /* \"#utility.yul\":11711:11718   */\n      dup5\n        /* \"#utility.yul\":11707:11730   */\n      sub\n        /* \"#utility.yul\":11703:11735   */\n      slt\n        /* \"#utility.yul\":11700:11819   */\n      iszero\n      tag_284\n      jumpi\n        /* \"#utility.yul\":11738:11817   */\n      tag_285\n      tag_100\n      jump\t// in\n    tag_285:\n        /* \"#utility.yul\":11700:11819   */\n    tag_284:\n        /* \"#utility.yul\":11858:11859   */\n      0x00\n        /* \"#utility.yul\":11883:11947   */\n      tag_286\n        /* \"#utility.yul\":11939:11946   */\n      dup5\n        /* \"#utility.yul\":11930:11936   */\n      dup3\n        /* \"#utility.yul\":11919:11928   */\n      dup6\n        /* \"#utility.yul\":11915:11937   */\n      add\n        /* \"#utility.yul\":11883:11947   */\n      tag_138\n      jump\t// in\n    tag_286:\n        /* \"#utility.yul\":11873:11947   */\n      swap2\n      pop\n        /* \"#utility.yul\":11829:11957   */\n      pop\n        /* \"#utility.yul\":11613:11964   */\n      swap3\n      swap2\n      pop\n      pop\n      jump\t// out\n        /* \"#utility.yul\":11970:12137   */\n    tag_139:\n        /* \"#utility.yul\":12110:12129   */\n      0x53656d20706f64657220646520766f746f000000000000000000000000000000\n        /* \"#utility.yul\":12106:12107   */\n      0x00\n        /* \"#utility.yul\":12098:12104   */\n      dup3\n        /* \"#utility.yul\":12094:12108   */\n      add\n        /* \"#utility.yul\":12087:12130   */\n      mstore\n        /* \"#utility.yul\":11970:12137   */\n      pop\n      jump\t// out\n        /* \"#utility.yul\":12143:12509   */\n    tag_140:\n        /* \"#utility.yul\":12285:12288   */\n      0x00\n        /* \"#utility.yul\":12306:12373   */\n      tag_289\n        /* \"#utility.yul\":12370:12372   */\n      0x11\n        /* \"#utility.yul\":12365:12368   */\n      dup4\n        /* \"#utility.yul\":12306:12373   */\n      tag_106\n      jump\t// in\n    tag_289:\n        /* \"#utility.yul\":12299:12373   */\n      swap2\n      pop\n        /* \"#utility.yul\":12382:12475   */\n      tag_290\n        /* \"#utility.yul\":12471:12474   */\n      dup3\n        /* \"#utility.yul\":12382:12475   */\n      tag_139\n      jump\t// in\n    tag_290:\n        /* \"#utility.yul\":12500:12502   */\n      0x20\n        /* \"#utility.yul\":12495:12498   */\n      dup3\n        /* \"#utility.yul\":12491:12503   */\n      add\n        /* \"#utility.yul\":12484:12503   */\n      swap1\n      pop\n        /* \"#utility.yul\":12143:12509   */\n      swap2\n      swap1\n      pop\n      jump\t// out\n        /* \"#utility.yul\":12515:12934   */\n    tag_63:\n        /* \"#utility.yul\":12681:12685   */\n      0x00\n        /* \"#utility.yul\":12719:12721   */\n      0x20\n        /* \"#utility.yul\":12708:12717   */\n      dup3\n        /* \"#utility.yul\":12704:12722   */\n      add\n        /* \"#utility.yul\":12696:12722   */\n      swap1\n      pop\n        /* \"#utility.yul\":12768:12777   */\n      dup2\n        /* \"#utility.yul\":12762:12766   */\n      dup2\n        /* \"#utility.yul\":12758:12778   */\n      sub\n        /* \"#utility.yul\":12754:12755   */\n      0x00\n        /* \"#utility.yul\":12743:12752   */\n      dup4\n        /* \"#utility.yul\":12739:12756   */\n      add\n        /* \"#utility.yul\":12732:12779   */\n      mstore\n        /* \"#utility.yul\":12796:12927   */\n      tag_292\n        /* \"#utility.yul\":12922:12926   */\n      dup2\n        /* \"#utility.yul\":12796:12927   */\n      tag_140\n      jump\t// in\n    tag_292:\n        /* \"#utility.yul\":12788:12927   */\n      swap1\n      pop\n        /* \"#utility.yul\":12515:12934   */\n      swap2\n      swap1\n      pop\n      jump\t// out\n        /* \"#utility.yul\":12940:13120   */\n    tag_141:\n        /* \"#utility.yul\":12988:13065   */\n      0x4e487b7100000000000000000000000000000000000000000000000000000000\n        /* \"#utility.yul\":12985:12986   */\n      0x00\n        /* \"#utility.yul\":12978:13066   */\n      mstore\n        /* \"#utility.yul\":13085:13089   */\n      0x11\n        /* \"#utility.yul\":13082:13083   */\n      0x04\n        /* \"#utility.yul\":13075:13090   */\n      mstore\n        /* \"#utility.yul\":13109:13113   */\n      0x24\n        /* \"#utility.yul\":13106:13107   */\n      0x00\n        /* \"#utility.yul\":13099:13114   */\n      revert\n        /* \"#utility.yul\":13126:13317   */\n    tag_65:\n        /* \"#utility.yul\":13166:13169   */\n      0x00\n        /* \"#utility.yul\":13185:13205   */\n      tag_295\n        /* \"#utility.yul\":13203:13204   */\n      dup3\n        /* \"#utility.yul\":13185:13205   */\n      tag_102\n      jump\t// in\n    tag_295:\n        /* \"#utility.yul\":13180:13205   */\n      swap2\n      pop\n        /* \"#utility.yul\":13219:13239   */\n      tag_296\n        /* \"#utility.yul\":13237:13238   */\n      dup4\n        /* \"#utility.yul\":13219:13239   */\n      tag_102\n      jump\t// in\n    tag_296:\n        /* \"#utility.yul\":13214:13239   */\n      swap3\n      pop\n        /* \"#utility.yul\":13262:13263   */\n      dup3\n        /* \"#utility.yul\":13259:13260   */\n      dup3\n        /* \"#utility.yul\":13255:13264   */\n      add\n        /* \"#utility.yul\":13248:13264   */\n      swap1\n      pop\n        /* \"#utility.yul\":13283:13286   */\n      dup1\n        /* \"#utility.yul\":13280:13281   */\n      dup3\n        /* \"#utility.yul\":13277:13287   */\n      gt\n        /* \"#utility.yul\":13274:13310   */\n      iszero\n      tag_297\n      jumpi\n        /* \"#utility.yul\":13290:13308   */\n      tag_298\n      tag_141\n      jump\t// in\n    tag_298:\n        /* \"#utility.yul\":13274:13310   */\n    tag_297:\n        /* \"#utility.yul\":13126:13317   */\n      swap3\n      swap2\n      pop\n      pop\n      jump\t// out\n        /* \"#utility.yul\":13323:13503   */\n    tag_142:\n        /* \"#utility.yul\":13371:13448   */\n      0x4e487b7100000000000000000000000000000000000000000000000000000000\n        /* \"#utility.yul\":13368:13369   */\n      0x00\n        /* \"#utility.yul\":13361:13449   */\n      mstore\n        /* \"#utility.yul\":13468:13472   */\n      0x22\n        /* \"#utility.yul\":13465:13466   */\n      0x04\n        /* \"#utility.yul\":13458:13473   */\n      mstore\n        /* \"#utility.yul\":13492:13496   */\n      0x24\n        /* \"#utility.yul\":13489:13490   */\n      0x00\n        /* \"#utility.yul\":13482:13497   */\n      revert\n        /* \"#utility.yul\":13509:13829   */\n    tag_69:\n        /* \"#utility.yul\":13553:13559   */\n      0x00\n        /* \"#utility.yul\":13590:13591   */\n      0x02\n        /* \"#utility.yul\":13584:13588   */\n      dup3\n        /* \"#utility.yul\":13580:13592   */\n      div\n        /* \"#utility.yul\":13570:13592   */\n      swap1\n      pop\n        /* \"#utility.yul\":13637:13638   */\n      0x01\n        /* \"#utility.yul\":13631:13635   */\n      dup3\n        /* \"#utility.yul\":13627:13639   */\n      and\n        /* \"#utility.yul\":13658:13676   */\n      dup1\n        /* \"#utility.yul\":13648:13729   */\n      tag_301\n      jumpi\n        /* \"#utility.yul\":13714:13718   */\n      0x7f\n        /* \"#utility.yul\":13706:13712   */\n      dup3\n        /* \"#utility.yul\":13702:13719   */\n      and\n        /* \"#utility.yul\":13692:13719   */\n      swap2\n      pop\n        /* \"#utility.yul\":13648:13729   */\n    tag_301:\n        /* \"#utility.yul\":13776:13778   */\n      0x20\n        /* \"#utility.yul\":13768:13774   */\n      dup3\n        /* \"#utility.yul\":13765:13779   */\n      lt\n        /* \"#utility.yul\":13745:13763   */\n      dup2\n        /* \"#utility.yul\":13742:13780   */\n      sub\n        /* \"#utility.yul\":13739:13823   */\n      tag_302\n      jumpi\n        /* \"#utility.yul\":13795:13813   */\n      tag_303\n      tag_142\n      jump\t// in\n    tag_303:\n        /* \"#utility.yul\":13739:13823   */\n    tag_302:\n        /* \"#utility.yul\":13560:13829   */\n      pop\n        /* \"#utility.yul\":13509:13829   */\n      swap2\n      swap1\n      pop\n      jump\t// out\n        /* \"#utility.yul\":13835:14004   */\n    tag_143:\n        /* \"#utility.yul\":13975:13996   */\n      0x566f746163616f2061696e646120617469766100000000000000000000000000\n        /* \"#utility.yul\":13971:13972   */\n      0x00\n        /* \"#utility.yul\":13963:13969   */\n      dup3\n        /* \"#utility.yul\":13959:13973   */\n      add\n        /* \"#utility.yul\":13952:13997   */\n      mstore\n        /* \"#utility.yul\":13835:14004   */\n      pop\n      jump\t// out\n        /* \"#utility.yul\":14010:14376   */\n    tag_144:\n        /* \"#utility.yul\":14152:14155   */\n      0x00\n        /* \"#utility.yul\":14173:14240   */\n      tag_306\n        /* \"#utility.yul\":14237:14239   */\n      0x13\n        /* \"#utility.yul\":14232:14235   */\n      dup4\n        /* \"#utility.yul\":14173:14240   */\n      tag_106\n      jump\t// in\n    tag_306:\n        /* \"#utility.yul\":14166:14240   */\n      swap2\n      pop\n        /* \"#utility.yul\":14249:14342   */\n      tag_307\n        /* \"#utility.yul\":14338:14341   */\n      dup3\n        /* \"#utility.yul\":14249:14342   */\n      tag_143\n      jump\t// in\n    tag_307:\n        /* \"#utility.yul\":14367:14369   */\n      0x20\n        /* \"#utility.yul\":14362:14365   */\n      dup3\n        /* \"#utility.yul\":14358:14370   */\n      add\n        /* \"#utility.yul\":14351:14370   */\n      swap1\n      pop\n        /* \"#utility.yul\":14010:14376   */\n      swap2\n      swap1\n      pop\n      jump\t// out\n        /* \"#utility.yul\":14382:14801   */\n    tag_82:\n        /* \"#utility.yul\":14548:14552   */\n      0x00\n        /* \"#utility.yul\":14586:14588   */\n      0x20\n        /* \"#utility.yul\":14575:14584   */\n      dup3\n        /* \"#utility.yul\":14571:14589   */\n      add\n        /* \"#utility.yul\":14563:14589   */\n      swap1\n      pop\n        /* \"#utility.yul\":14635:14644   */\n      dup2\n        /* \"#utility.yul\":14629:14633   */\n      dup2\n        /* \"#utility.yul\":14625:14645   */\n      sub\n        /* \"#utility.yul\":14621:14622   */\n      0x00\n        /* \"#utility.yul\":14610:14619   */\n      dup4\n        /* \"#utility.yul\":14606:14623   */\n      add\n        /* \"#utility.yul\":14599:14646   */\n      mstore\n        /* \"#utility.yul\":14663:14794   */\n      tag_309\n        /* \"#utility.yul\":14789:14793   */\n      dup2\n        /* \"#utility.yul\":14663:14794   */\n      tag_144\n      jump\t// in\n    tag_309:\n        /* \"#utility.yul\":14655:14794   */\n      swap1\n      pop\n        /* \"#utility.yul\":14382:14801   */\n      swap2\n      swap1\n      pop\n      jump\t// out\n        /* \"#utility.yul\":14807:14969   */\n    tag_145:\n        /* \"#utility.yul\":14947:14961   */\n      0x4a61206578656375746164610000000000000000000000000000000000000000\n        /* \"#utility.yul\":14943:14944   */\n      0x00\n        /* \"#utility.yul\":14935:14941   */\n      dup3\n        /* \"#utility.yul\":14931:14945   */\n      add\n        /* \"#utility.yul\":14924:14962   */\n      mstore\n        /* \"#utility.yul\":14807:14969   */\n      pop\n      jump\t// out\n        /* \"#utility.yul\":14975:15341   */\n    tag_146:\n        /* \"#utility.yul\":15117:15120   */\n      0x00\n        /* \"#utility.yul\":15138:15205   */\n      tag_312\n        /* \"#utility.yul\":15202:15204   */\n      0x0c\n        /* \"#utility.yul\":15197:15200   */\n      dup4\n        /* \"#utility.yul\":15138:15205   */\n      tag_106\n      jump\t// in\n    tag_312:\n        /* \"#utility.yul\":15131:15205   */\n      swap2\n      pop\n        /* \"#utility.yul\":15214:15307   */\n      tag_313\n        /* \"#utility.yul\":15303:15306   */\n      dup3\n        /* \"#utility.yul\":15214:15307   */\n      tag_145\n      jump\t// in\n    tag_313:\n        /* \"#utility.yul\":15332:15334   */\n      0x20\n        /* \"#utility.yul\":15327:15330   */\n      dup3\n        /* \"#utility.yul\":15323:15335   */\n      add\n        /* \"#utility.yul\":15316:15335   */\n      swap1\n      pop\n        /* \"#utility.yul\":14975:15341   */\n      swap2\n      swap1\n      pop\n      jump\t// out\n        /* \"#utility.yul\":15347:15766   */\n    tag_85:\n        /* \"#utility.yul\":15513:15517   */\n      0x00\n        /* \"#utility.yul\":15551:15553   */\n      0x20\n        /* \"#utility.yul\":15540:15549   */\n      dup3\n        /* \"#utility.yul\":15536:15554   */\n      add\n        /* \"#utility.yul\":15528:15554   */\n      swap1\n      pop\n        /* \"#utility.yul\":15600:15609   */\n      dup2\n        /* \"#utility.yul\":15594:15598   */\n      dup2\n        /* \"#utility.yul\":15590:15610   */\n      sub\n        /* \"#utility.yul\":15586:15587   */\n      0x00\n        /* \"#utility.yul\":15575:15584   */\n      dup4\n        /* \"#utility.yul\":15571:15588   */\n      add\n        /* \"#utility.yul\":15564:15611   */\n      mstore\n        /* \"#utility.yul\":15628:15759   */\n      tag_315\n        /* \"#utility.yul\":15754:15758   */\n      dup2\n        /* \"#utility.yul\":15628:15759   */\n      tag_146\n      jump\t// in\n    tag_315:\n        /* \"#utility.yul\":15620:15759   */\n      swap1\n      pop\n        /* \"#utility.yul\":15347:15766   */\n      swap2\n      swap1\n      pop\n      jump\t// out\n        /* \"#utility.yul\":15772:15943   */\n    tag_147:\n        /* \"#utility.yul\":15912:15935   */\n      0x53656d20746f6b656e20706172612070726f706f720000000000000000000000\n        /* \"#utility.yul\":15908:15909   */\n      0x00\n        /* \"#utility.yul\":15900:15906   */\n      dup3\n        /* \"#utility.yul\":15896:15910   */\n      add\n        /* \"#utility.yul\":15889:15936   */\n      mstore\n        /* \"#utility.yul\":15772:15943   */\n      pop\n      jump\t// out\n        /* \"#utility.yul\":15949:16315   */\n    tag_148:\n        /* \"#utility.yul\":16091:16094   */\n      0x00\n        /* \"#utility.yul\":16112:16179   */\n      tag_318\n        /* \"#utility.yul\":16176:16178   */\n      0x15\n        /* \"#utility.yul\":16171:16174   */\n      dup4\n        /* \"#utility.yul\":16112:16179   */\n      tag_106\n      jump\t// in\n    tag_318:\n        /* \"#utility.yul\":16105:16179   */\n      swap2\n      pop\n        /* \"#utility.yul\":16188:16281   */\n      tag_319\n        /* \"#utility.yul\":16277:16280   */\n      dup3\n        /* \"#utility.yul\":16188:16281   */\n      tag_147\n      jump\t// in\n    tag_319:\n        /* \"#utility.yul\":16306:16308   */\n      0x20\n        /* \"#utility.yul\":16301:16304   */\n      dup3\n        /* \"#utility.yul\":16297:16309   */\n      add\n        /* \"#utility.yul\":16290:16309   */\n      swap1\n      pop\n        /* \"#utility.yul\":15949:16315   */\n      swap2\n      swap1\n      pop\n      jump\t// out\n        /* \"#utility.yul\":16321:16740   */\n    tag_93:\n        /* \"#utility.yul\":16487:16491   */\n      0x00\n        /* \"#utility.yul\":16525:16527   */\n      0x20\n        /* \"#utility.yul\":16514:16523   */\n      dup3\n        /* \"#utility.yul\":16510:16528   */\n      add\n        /* \"#utility.yul\":16502:16528   */\n      swap1\n      pop\n        /* \"#utility.yul\":16574:16583   */\n      dup2\n        /* \"#utility.yul\":16568:16572   */\n      dup2\n        /* \"#utility.yul\":16564:16584   */\n      sub\n        /* \"#utility.yul\":16560:16561   */\n      0x00\n        /* \"#utility.yul\":16549:16558   */\n      dup4\n        /* \"#utility.yul\":16545:16562   */\n      add\n        /* \"#utility.yul\":16538:16585   */\n      mstore\n        /* \"#utility.yul\":16602:16733   */\n      tag_321\n        /* \"#utility.yul\":16728:16732   */\n      dup2\n        /* \"#utility.yul\":16602:16733   */\n      tag_148\n      jump\t// in\n    tag_321:\n        /* \"#utility.yul\":16594:16733   */\n      swap1\n      pop\n        /* \"#utility.yul\":16321:16740   */\n      swap2\n      swap1\n      pop\n      jump\t// out\n        /* \"#utility.yul\":16746:16887   */\n    tag_149:\n        /* \"#utility.yul\":16795:16799   */\n      0x00\n        /* \"#utility.yul\":16818:16821   */\n      dup2\n        /* \"#utility.yul\":16810:16821   */\n      swap1\n      pop\n        /* \"#utility.yul\":16841:16844   */\n      dup2\n        /* \"#utility.yul\":16838:16839   */\n      0x00\n        /* \"#utility.yul\":16831:16845   */\n      mstore\n        /* \"#utility.yul\":16875:16879   */\n      0x20\n        /* \"#utility.yul\":16872:16873   */\n      0x00\n        /* \"#utility.yul\":16862:16880   */\n      keccak256\n        /* \"#utility.yul\":16854:16880   */\n      swap1\n      pop\n        /* \"#utility.yul\":16746:16887   */\n      swap2\n      swap1\n      pop\n      jump\t// out\n        /* \"#utility.yul\":16893:16986   */\n    tag_150:\n        /* \"#utility.yul\":16930:16936   */\n      0x00\n        /* \"#utility.yul\":16977:16979   */\n      0x20\n        /* \"#utility.yul\":16972:16974   */\n      0x1f\n        /* \"#utility.yul\":16965:16970   */\n      dup4\n        /* \"#utility.yul\":16961:16975   */\n      add\n        /* \"#utility.yul\":16957:16980   */\n      div\n        /* \"#utility.yul\":16947:16980   */\n      swap1\n      pop\n        /* \"#utility.yul\":16893:16986   */\n      swap2\n      swap1\n      pop\n      jump\t// out\n        /* \"#utility.yul\":16992:17099   */\n    tag_151:\n        /* \"#utility.yul\":17036:17044   */\n      0x00\n        /* \"#utility.yul\":17086:17091   */\n      dup3\n        /* \"#utility.yul\":17080:17084   */\n      dup3\n        /* \"#utility.yul\":17076:17092   */\n      shl\n        /* \"#utility.yul\":17055:17092   */\n      swap1\n      pop\n        /* \"#utility.yul\":16992:17099   */\n      swap3\n      swap2\n      pop\n      pop\n      jump\t// out\n        /* \"#utility.yul\":17105:17498   */\n    tag_152:\n        /* \"#utility.yul\":17174:17180   */\n      0x00\n        /* \"#utility.yul\":17224:17225   */\n      0x08\n        /* \"#utility.yul\":17212:17222   */\n      dup4\n        /* \"#utility.yul\":17208:17226   */\n      mul\n        /* \"#utility.yul\":17247:17344   */\n      tag_326\n        /* \"#utility.yul\":17277:17343   */\n      0xffffffffffffffffffffffffffffffffffffffffffffffffffffffffffffffff\n        /* \"#utility.yul\":17266:17275   */\n      dup3\n        /* \"#utility.yul\":17247:17344   */\n      tag_151\n      jump\t// in\n    tag_326:\n        /* \"#utility.yul\":17365:17404   */\n      tag_327\n        /* \"#utility.yul\":17395:17403   */\n      dup7\n        /* \"#utility.yul\":17384:17393   */\n      dup4\n        /* \"#utility.yul\":17365:17404   */\n      tag_151\n      jump\t// in\n    tag_327:\n        /* \"#utility.yul\":17353:17404   */\n      swap6\n      pop\n        /* \"#utility.yul\":17437:17441   */\n      dup1\n        /* \"#utility.yul\":17433:17442   */\n      not\n        /* \"#utility.yul\":17426:17431   */\n      dup5\n        /* \"#utility.yul\":17422:17443   */\n      and\n        /* \"#utility.yul\":17413:17443   */\n      swap4\n      pop\n        /* \"#utility.yul\":17486:17490   */\n      dup1\n        /* \"#utility.yul\":17476:17484   */\n      dup7\n        /* \"#utility.yul\":17472:17491   */\n      and\n        /* \"#utility.yul\":17465:17470   */\n      dup5\n        /* \"#utility.yul\":17462:17492   */\n      or\n        /* \"#utility.yul\":17452:17492   */\n      swap3\n      pop\n        /* \"#utility.yul\":17181:17498   */\n      pop\n      pop\n        /* \"#utility.yul\":17105:17498   */\n      swap4\n      swap3\n      pop\n      pop\n      pop\n      jump\t// out\n        /* \"#utility.yul\":17504:17646   */\n    tag_153:\n        /* \"#utility.yul\":17554:17563   */\n      0x00\n        /* \"#utility.yul\":17587:17640   */\n      tag_329\n        /* \"#utility.yul\":17605:17639   */\n      tag_330\n        /* \"#utility.yul\":17614:17638   */\n      tag_331\n        /* \"#utility.yul\":17632:17637   */\n      dup5\n        /* \"#utility.yul\":17614:17638   */\n      tag_102\n      jump\t// in\n    tag_331:\n        /* \"#utility.yul\":17605:17639   */\n      tag_126\n      jump\t// in\n    tag_330:\n        /* \"#utility.yul\":17587:17640   */\n      tag_102\n      jump\t// in\n    tag_329:\n        /* \"#utility.yul\":17574:17640   */\n      swap1\n      pop\n        /* \"#utility.yul\":17504:17646   */\n      swap2\n      swap1\n      pop\n      jump\t// out\n        /* \"#utility.yul\":17652:17727   */\n    tag_154:\n        /* \"#utility.yul\":17695:17698   */\n      0x00\n        /* \"#utility.yul\":17716:17721   */\n      dup2\n        /* \"#utility.yul\":17709:17721   */\n      swap1\n      pop\n        /* \"#utility.yul\":17652:17727   */\n      swap2\n      swap1\n      pop\n      jump\t// out\n        /* \"#utility.yul\":17733:18002   */\n    tag_155:\n        /* \"#utility.yul\":17843:17882   */\n      tag_334\n        /* \"#utility.yul\":17874:17881   */\n      dup4\n        /* \"#utility.yul\":17843:17882   */\n      tag_153\n      jump\t// in\n    tag_334:\n        /* \"#utility.yul\":17904:17995   */\n      tag_335\n        /* \"#utility.yul\":17953:17994   */\n      tag_336\n        /* \"#utility.yul\":17977:17993   */\n      dup3\n        /* \"#utility.yul\":17953:17994   */\n      tag_154\n      jump\t// in\n    tag_336:\n        /* \"#utility.yul\":17945:17951   */\n      dup5\n        /* \"#utility.yul\":17938:17942   */\n      dup5\n        /* \"#utility.yul\":17932:17943   */\n      sload\n        /* \"#utility.yul\":17904:17995   */\n      tag_152\n      jump\t// in\n    tag_335:\n        /* \"#utility.yul\":17898:17902   */\n      dup3\n        /* \"#utility.yul\":17891:17996   */\n      sstore\n        /* \"#utility.yul\":17809:18002   */\n      pop\n        /* \"#utility.yul\":17733:18002   */\n      pop\n      pop\n      pop\n      jump\t// out\n        /* \"#utility.yul\":18008:18081   */\n    tag_156:\n        /* \"#utility.yul\":18053:18056   */\n      0x00\n        /* \"#utility.yul\":18074:18075   */\n      0x00\n        /* \"#utility.yul\":18067:18075   */\n      swap1\n      pop\n        /* \"#utility.yul\":18008:18081   */\n      swap1\n      jump\t// out\n        /* \"#utility.yul\":18087:18276   */\n    tag_157:\n        /* \"#utility.yul\":18164:18196   */\n      tag_339\n      tag_156\n      jump\t// in\n    tag_339:\n        /* \"#utility.yul\":18205:18270   */\n      tag_340\n        /* \"#utility.yul\":18263:18269   */\n      dup2\n        /* \"#utility.yul\":18255:18261   */\n      dup5\n        /* \"#utility.yul\":18249:18253   */\n      dup5\n        /* \"#utility.yul\":18205:18270   */\n      tag_155\n      jump\t// in\n    tag_340:\n        /* \"#utility.yul\":18140:18276   */\n      pop\n        /* \"#utility.yul\":18087:18276   */\n      pop\n      pop\n      jump\t// out\n        /* \"#utility.yul\":18282:18496   */\n    tag_158:\n        /* \"#utility.yul\":18367:18368   */\n      0x00\n        /* \"#utility.yul\":18352:18490   */\n    tag_342:\n        /* \"#utility.yul\":18377:18386   */\n      dup3\n        /* \"#utility.yul\":18374:18375   */\n      dup2\n        /* \"#utility.yul\":18371:18387   */\n      lt\n        /* \"#utility.yul\":18352:18490   */\n      iszero\n      tag_344\n      jumpi\n        /* \"#utility.yul\":18429:18480   */\n      tag_345\n        /* \"#utility.yul\":18478:18479   */\n      0x00\n        /* \"#utility.yul\":18474:18475   */\n      dup3\n        /* \"#utility.yul\":18463:18472   */\n      dup5\n        /* \"#utility.yul\":18459:18476   */\n      add\n        /* \"#utility.yul\":18429:18480   */\n      tag_157\n      jump\t// in\n    tag_345:\n        /* \"#utility.yul\":18402:18403   */\n      0x01\n        /* \"#utility.yul\":18399:18400   */\n      dup2\n        /* \"#utility.yul\":18395:18404   */\n      add\n        /* \"#utility.yul\":18390:18404   */\n      swap1\n      pop\n        /* \"#utility.yul\":18352:18490   */\n      jump(tag_342)\n    tag_344:\n        /* \"#utility.yul\":18356:18370   */\n      pop\n        /* \"#utility.yul\":18282:18496   */\n      pop\n      pop\n      jump\t// out\n        /* \"#utility.yul\":18502:19248   */\n    tag_159:\n        /* \"#utility.yul\":18603:18605   */\n      0x1f\n        /* \"#utility.yul\":18598:18601   */\n      dup3\n        /* \"#utility.yul\":18595:18606   */\n      gt\n        /* \"#utility.yul\":18592:19241   */\n      iszero\n      tag_347\n      jumpi\n        /* \"#utility.yul\":18632:18642   */\n      dup3\n        /* \"#utility.yul\":18627:18630   */\n      dup3\n        /* \"#utility.yul\":18624:18643   */\n      gt\n        /* \"#utility.yul\":18621:19231   */\n      iszero\n      tag_348\n      jumpi\n        /* \"#utility.yul\":18678:18716   */\n      tag_349\n        /* \"#utility.yul\":18710:18715   */\n      dup2\n        /* \"#utility.yul\":18678:18716   */\n      tag_149\n      jump\t// in\n    tag_349:\n        /* \"#utility.yul\":18753:18775   */\n      tag_350\n        /* \"#utility.yul\":18771:18774   */\n      dup4\n        /* \"#utility.yul\":18753:18775   */\n      tag_150\n      jump\t// in\n    tag_350:\n        /* \"#utility.yul\":18812:18841   */\n      tag_351\n        /* \"#utility.yul\":18830:18840   */\n      dup6\n        /* \"#utility.yul\":18812:18841   */\n      tag_150\n      jump\t// in\n    tag_351:\n        /* \"#utility.yul\":19002:19004   */\n      0x20\n        /* \"#utility.yul\":18990:19000   */\n      dup7\n        /* \"#utility.yul\":18987:19005   */\n      lt\n        /* \"#utility.yul\":18984:19063   */\n      iszero\n      tag_352\n      jumpi\n        /* \"#utility.yul\":19044:19045   */\n      0x00\n        /* \"#utility.yul\":19028:19045   */\n      swap1\n      pop\n        /* \"#utility.yul\":18984:19063   */\n    tag_352:\n        /* \"#utility.yul\":19113:19125   */\n      dup1\n        /* \"#utility.yul\":19103:19111   */\n      dup4\n        /* \"#utility.yul\":19099:19126   */\n      add\n        /* \"#utility.yul\":19143:19217   */\n      tag_353\n        /* \"#utility.yul\":19203:19215   */\n      dup3\n        /* \"#utility.yul\":19189:19201   */\n      dup5\n        /* \"#utility.yul\":19185:19216   */\n      sub\n        /* \"#utility.yul\":19172:19183   */\n      dup3\n        /* \"#utility.yul\":19143:19217   */\n      tag_158\n      jump\t// in\n    tag_353:\n        /* \"#utility.yul\":18644:19231   */\n      pop\n      pop\n      pop\n      pop\n        /* \"#utility.yul\":18621:19231   */\n    tag_348:\n        /* \"#utility.yul\":18592:19241   */\n    tag_347:\n        /* \"#utility.yul\":18502:19248   */\n      pop\n      pop\n      pop\n      jump\t// out\n        /* \"#utility.yul\":19254:19371   */\n    tag_160:\n        /* \"#utility.yul\":19308:19316   */\n      0x00\n        /* \"#utility.yul\":19358:19363   */\n      dup3\n        /* \"#utility.yul\":19352:19356   */\n      dup3\n        /* \"#utility.yul\":19348:19364   */\n      shr\n        /* \"#utility.yul\":19327:19364   */\n      swap1\n      pop\n        /* \"#utility.yul\":19254:19371   */\n      swap3\n      swap2\n      pop\n      pop\n      jump\t// out\n        /* \"#utility.yul\":19377:19546   */\n    tag_161:\n        /* \"#utility.yul\":19421:19427   */\n      0x00\n        /* \"#utility.yul\":19454:19505   */\n      tag_356\n        /* \"#utility.yul\":19502:19503   */\n      0x00\n        /* \"#utility.yul\":19498:19504   */\n      not\n        /* \"#utility.yul\":19490:19495   */\n      dup5\n        /* \"#utility.yul\":19487:19488   */\n      0x08\n        /* \"#utility.yul\":19483:19496   */\n      mul\n        /* \"#utility.yul\":19454:19505   */\n      tag_160\n      jump\t// in\n    tag_356:\n        /* \"#utility.yul\":19450:19506   */\n      not\n        /* \"#utility.yul\":19535:19539   */\n      dup1\n        /* \"#utility.yul\":19529:19533   */\n      dup4\n        /* \"#utility.yul\":19525:19540   */\n      and\n        /* \"#utility.yul\":19515:19540   */\n      swap2\n      pop\n        /* \"#utility.yul\":19428:19546   */\n      pop\n        /* \"#utility.yul\":19377:19546   */\n      swap3\n      swap2\n      pop\n      pop\n      jump\t// out\n        /* \"#utility.yul\":19551:19846   */\n    tag_162:\n        /* \"#utility.yul\":19627:19631   */\n      0x00\n        /* \"#utility.yul\":19773:19802   */\n      tag_358\n        /* \"#utility.yul\":19798:19801   */\n      dup4\n        /* \"#utility.yul\":19792:19796   */\n      dup4\n        /* \"#utility.yul\":19773:19802   */\n      tag_161\n      jump\t// in\n    tag_358:\n        /* \"#utility.yul\":19765:19802   */\n      swap2\n      pop\n        /* \"#utility.yul\":19835:19838   */\n      dup3\n        /* \"#utility.yul\":19832:19833   */\n      0x02\n        /* \"#utility.yul\":19828:19839   */\n      mul\n        /* \"#utility.yul\":19822:19826   */\n      dup3\n        /* \"#utility.yul\":19819:19840   */\n      or\n        /* \"#utility.yul\":19811:19840   */\n      swap1\n      pop\n        /* \"#utility.yul\":19551:19846   */\n      swap3\n      swap2\n      pop\n      pop\n      jump\t// out\n        /* \"#utility.yul\":19851:21246   */\n    tag_97:\n        /* \"#utility.yul\":19968:20005   */\n      tag_360\n        /* \"#utility.yul\":20001:20004   */\n      dup3\n        /* \"#utility.yul\":19968:20005   */\n      tag_105\n      jump\t// in\n    tag_360:\n        /* \"#utility.yul\":20070:20088   */\n      0xffffffffffffffff\n        /* \"#utility.yul\":20062:20068   */\n      dup2\n        /* \"#utility.yul\":20059:20089   */\n      gt\n        /* \"#utility.yul\":20056:20112   */\n      iszero\n      tag_361\n      jumpi\n        /* \"#utility.yul\":20092:20110   */\n      tag_362\n      tag_115\n      jump\t// in\n    tag_362:\n        /* \"#utility.yul\":20056:20112   */\n    tag_361:\n        /* \"#utility.yul\":20136:20174   */\n      tag_363\n        /* \"#utility.yul\":20168:20172   */\n      dup3\n        /* \"#utility.yul\":20162:20173   */\n      sload\n        /* \"#utility.yul\":20136:20174   */\n      tag_69\n      jump\t// in\n    tag_363:\n        /* \"#utility.yul\":20221:20288   */\n      tag_364\n        /* \"#utility.yul\":20281:20287   */\n      dup3\n        /* \"#utility.yul\":20273:20279   */\n      dup3\n        /* \"#utility.yul\":20267:20271   */\n      dup6\n        /* \"#utility.yul\":20221:20288   */\n      tag_159\n      jump\t// in\n    tag_364:\n        /* \"#utility.yul\":20315:20316   */\n      0x00\n        /* \"#utility.yul\":20339:20343   */\n      0x20\n        /* \"#utility.yul\":20326:20343   */\n      swap1\n      pop\n        /* \"#utility.yul\":20371:20373   */\n      0x1f\n        /* \"#utility.yul\":20363:20369   */\n      dup4\n        /* \"#utility.yul\":20360:20374   */\n      gt\n        /* \"#utility.yul\":20388:20389   */\n      0x01\n        /* \"#utility.yul\":20383:21001   */\n      dup2\n      eq\n      tag_366\n      jumpi\n        /* \"#utility.yul\":21045:21046   */\n      0x00\n        /* \"#utility.yul\":21062:21068   */\n      dup5\n        /* \"#utility.yul\":21059:21136   */\n      iszero\n      tag_367\n      jumpi\n        /* \"#utility.yul\":21111:21120   */\n      dup3\n        /* \"#utility.yul\":21106:21109   */\n      dup8\n        /* \"#utility.yul\":21102:21121   */\n      add\n        /* \"#utility.yul\":21096:21122   */\n      mload\n        /* \"#utility.yul\":21087:21122   */\n      swap1\n      pop\n        /* \"#utility.yul\":21059:21136   */\n    tag_367:\n        /* \"#utility.yul\":21162:21229   */\n      tag_368\n        /* \"#utility.yul\":21222:21228   */\n      dup6\n        /* \"#utility.yul\":21215:21220   */\n      dup3\n        /* \"#utility.yul\":21162:21229   */\n      tag_162\n      jump\t// in\n    tag_368:\n        /* \"#utility.yul\":21156:21160   */\n      dup7\n        /* \"#utility.yul\":21149:21230   */\n      sstore\n        /* \"#utility.yul\":21018:21240   */\n      pop\n        /* \"#utility.yul\":20353:21240   */\n      jump(tag_365)\n        /* \"#utility.yul\":20383:21001   */\n    tag_366:\n        /* \"#utility.yul\":20435:20439   */\n      0x1f\n        /* \"#utility.yul\":20431:20440   */\n      not\n        /* \"#utility.yul\":20423:20429   */\n      dup5\n        /* \"#utility.yul\":20419:20441   */\n      and\n        /* \"#utility.yul\":20469:20506   */\n      tag_369\n        /* \"#utility.yul\":20501:20505   */\n      dup7\n        /* \"#utility.yul\":20469:20506   */\n      tag_149\n      jump\t// in\n    tag_369:\n        /* \"#utility.yul\":20528:20529   */\n      0x00\n        /* \"#utility.yul\":20542:20750   */\n    tag_370:\n        /* \"#utility.yul\":20556:20563   */\n      dup3\n        /* \"#utility.yul\":20553:20554   */\n      dup2\n        /* \"#utility.yul\":20550:20564   */\n      lt\n        /* \"#utility.yul\":20542:20750   */\n      iszero\n      tag_372\n      jumpi\n        /* \"#utility.yul\":20635:20644   */\n      dup5\n        /* \"#utility.yul\":20630:20633   */\n      dup10\n        /* \"#utility.yul\":20626:20645   */\n      add\n        /* \"#utility.yul\":20620:20646   */\n      mload\n        /* \"#utility.yul\":20612:20618   */\n      dup3\n        /* \"#utility.yul\":20605:20647   */\n      sstore\n        /* \"#utility.yul\":20686:20687   */\n      0x01\n        /* \"#utility.yul\":20678:20684   */\n      dup3\n        /* \"#utility.yul\":20674:20688   */\n      add\n        /* \"#utility.yul\":20664:20688   */\n      swap2\n      pop\n        /* \"#utility.yul\":20733:20735   */\n      0x20\n        /* \"#utility.yul\":20722:20731   */\n      dup6\n        /* \"#utility.yul\":20718:20736   */\n      add\n        /* \"#utility.yul\":20705:20736   */\n      swap5\n      pop\n        /* \"#utility.yul\":20579:20583   */\n      0x20\n        /* \"#utility.yul\":20576:20577   */\n      dup2\n        /* \"#utility.yul\":20572:20584   */\n      add\n        /* \"#utility.yul\":20567:20584   */\n      swap1\n      pop\n        /* \"#utility.yul\":20542:20750   */\n      jump(tag_370)\n    tag_372:\n        /* \"#utility.yul\":20778:20784   */\n      dup7\n        /* \"#utility.yul\":20769:20776   */\n      dup4\n        /* \"#utility.yul\":20766:20785   */\n      lt\n        /* \"#utility.yul\":20763:20942   */\n      iszero\n      tag_373\n      jumpi\n        /* \"#utility.yul\":20836:20845   */\n      dup5\n        /* \"#utility.yul\":20831:20834   */\n      dup10\n        /* \"#utility.yul\":20827:20846   */\n      add\n        /* \"#utility.yul\":20821:20847   */\n      mload\n        /* \"#utility.yul\":20879:20927   */\n      tag_374\n        /* \"#utility.yul\":20921:20925   */\n      0x1f\n        /* \"#utility.yul\":20913:20919   */\n      dup10\n        /* \"#utility.yul\":20909:20926   */\n      and\n        /* \"#utility.yul\":20898:20907   */\n      dup3\n        /* \"#utility.yul\":20879:20927   */\n      tag_161\n      jump\t// in\n    tag_374:\n        /* \"#utility.yul\":20871:20877   */\n      dup4\n        /* \"#utility.yul\":20864:20928   */\n      sstore\n        /* \"#utility.yul\":20786:20942   */\n      pop\n        /* \"#utility.yul\":20763:20942   */\n    tag_373:\n        /* \"#utility.yul\":20988:20989   */\n      0x01\n        /* \"#utility.yul\":20984:20985   */\n      0x02\n        /* \"#utility.yul\":20976:20982   */\n      dup9\n        /* \"#utility.yul\":20972:20986   */\n      mul\n        /* \"#utility.yul\":20968:20990   */\n      add\n        /* \"#utility.yul\":20962:20966   */\n      dup9\n        /* \"#utility.yul\":20955:20991   */\n      sstore\n        /* \"#utility.yul\":20390:21001   */\n      pop\n      pop\n      pop\n        /* \"#utility.yul\":20353:21240   */\n    tag_365:\n      pop\n        /* \"#utility.yul\":19943:21246   */\n      pop\n      pop\n      pop\n        /* \"#utility.yul\":19851:21246   */\n      pop\n      pop\n      jump\t// out\n\n    auxdata: 0xa26469706673582212206c8eb08a5ef9ea8b8f36478d60d99919617f4fc6cb547a52987781847ffb183b64736f6c63430008220033\n}\n",
				"bytecode": {
					"linkReferences": {},
					"object": "608060405234801561000f575f5ffd5b506040516113d83803806113d8833981810160405281019061003191906100d4565b805f5f6101000a81548173ffffffffffffffffffffffffffffffffffffffff021916908373ffffffffffffffffffffffffffffffffffffffff160217905550506100ff565b5f5ffd5b5f73ffffffffffffffffffffffffffffffffffffffff82169050919050565b5f6100a38261007a565b9050919050565b6100b381610099565b81146100bd575f5ffd5b50565b5f815190506100ce816100aa565b92915050565b5f602082840312156100e9576100e8610076565b5b5f6100f6848285016100c0565b91505092915050565b6112cc8061010c5f395ff3fe608060405234801561000f575f5ffd5b506004361061007b575f3560e01c806335facf781161005957806335facf78146100ea578063438596321461010657806398e527d314610136578063f96dae0a146101545761007b565b80630121b93f1461007f578063013cf08b1461009b5780630d61b519146100ce575b5f5ffd5b61009960048036038101906100949190610824565b610172565b005b6100b560048036038101906100b09190610824565b61041b565b6040516100c594939291906108e8565b60405180910390f35b6100e860048036038101906100e39190610824565b6104e8565b005b61010460048036038101906100ff9190610a5e565b61060a565b005b610120600480360381019061011b9190610b12565b610786565b60405161012d9190610b50565b60405180910390f35b61013e6107b0565b60405161014b9190610b69565b60405180910390f35b61015c6107bc565b6040516101699190610bdd565b60405180910390f35b60018054905081106101b9576040517f08c379a00000000000000000000000000000000000000000000000000000000081526004016101b090610c40565b60405180910390fd5b5f600182815481106101ce576101cd610c5e565b5b905f5260205f209060040201905080600201544210610222576040517f08c379a000000000000000000000000000000000000000000000000000000000815260040161021990610cd5565b60405180910390fd5b60025f8381526020019081526020015f205f3373ffffffffffffffffffffffffffffffffffffffff1673ffffffffffffffffffffffffffffffffffffffff1681526020019081526020015f205f9054906101000a900460ff16156102bb576040517f08c379a00000000000000000000000000000000000000000000000000000000081526004016102b290610d3d565b60405180910390fd5b5f5f5f9054906101000a900473ffffffffffffffffffffffffffffffffffffffff1673ffffffffffffffffffffffffffffffffffffffff166370a08231336040518263ffffffff1660e01b81526004016103159190610d6a565b602060405180830381865afa158015610330573d5f5f3e3d5ffd5b505050506040513d601f19601f820116820180604052508101906103549190610d97565b90505f8111610398576040517f08c379a000000000000000000000000000000000000000000000000000000000815260040161038f90610e0c565b60405180910390fd5b80826001015f8282546103ab9190610e57565b92505081905550600160025f8581526020019081526020015f205f3373ffffffffffffffffffffffffffffffffffffffff1673ffffffffffffffffffffffffffffffffffffffff1681526020019081526020015f205f6101000a81548160ff021916908315150217905550505050565b6001818154811061042a575f80fd5b905f5260205f2090600402015f91509050805f01805461044990610eb7565b80601f016020809104026020016040519081016040528092919081815260200182805461047590610eb7565b80156104c05780601f10610497576101008083540402835291602001916104c0565b820191905f5260205f20905b8154815290600101906020018083116104a357829003601f168201915b505050505090806001015490806002015490806003015f9054906101000a900460ff16905084565b600180549050811061052f576040517f08c379a000000000000000000000000000000000000000000000000000000000815260040161052690610c40565b60405180910390fd5b5f6001828154811061054457610543610c5e565b5b905f5260205f20906004020190508060020154421015610599576040517f08c379a000000000000000000000000000000000000000000000000000000000815260040161059090610f31565b60405180910390fd5b806003015f9054906101000a900460ff16156105ea576040517f08c379a00000000000000000000000000000000000000000000000000000000081526004016105e190610f99565b60405180910390fd5b6001816003015f6101000a81548160ff0219169083151502179055505050565b5f5f5f9054906101000a900473ffffffffffffffffffffffffffffffffffffffff1673ffffffffffffffffffffffffffffffffffffffff166370a08231336040518263ffffffff1660e01b81526004016106649190610d6a565b602060405180830381865afa15801561067f573d5f5f3e3d5ffd5b505050506040513d601f19601f820116820180604052508101906106a39190610d97565b116106e3576040517f08c379a00000000000000000000000000000000000000000000000000000000081526004016106da90611001565b60405180910390fd5b600160405180608001604052808481526020015f815260200183426107089190610e57565b81526020015f1515815250908060018154018082558091505060019003905f5260205f2090600402015f909190919091505f820151815f01908161074c91906111c7565b5060208201518160010155604082015181600201556060820151816003015f6101000a81548160ff02191690831515021790555050505050565b6002602052815f5260405f20602052805f5260405f205f915091509054906101000a900460ff1681565b5f600180549050905090565b5f5f9054906101000a900473ffffffffffffffffffffffffffffffffffffffff1681565b5f604051905090565b5f5ffd5b5f5ffd5b5f819050919050565b610803816107f1565b811461080d575f5ffd5b50565b5f8135905061081e816107fa565b92915050565b5f60208284031215610839576108386107e9565b5b5f61084684828501610810565b91505092915050565b5f81519050919050565b5f82825260208201905092915050565b8281835e5f83830152505050565b5f601f19601f8301169050919050565b5f6108918261084f565b61089b8185610859565b93506108ab818560208601610869565b6108b481610877565b840191505092915050565b6108c8816107f1565b82525050565b5f8115159050919050565b6108e2816108ce565b82525050565b5f6080820190508181035f8301526109008187610887565b905061090f60208301866108bf565b61091c60408301856108bf565b61092960608301846108d9565b95945050505050565b5f5ffd5b5f5ffd5b7f4e487b71000000000000000000000000000000000000000000000000000000005f52604160045260245ffd5b61097082610877565b810181811067ffffffffffffffff8211171561098f5761098e61093a565b5b80604052505050565b5f6109a16107e0565b90506109ad8282610967565b919050565b5f67ffffffffffffffff8211156109cc576109cb61093a565b5b6109d582610877565b9050602081019050919050565b828183375f83830152505050565b5f610a026109fd846109b2565b610998565b905082815260208101848484011115610a1e57610a1d610936565b5b610a298482856109e2565b509392505050565b5f82601f830112610a4557610a44610932565b5b8135610a558482602086016109f0565b91505092915050565b5f5f60408385031215610a7457610a736107e9565b5b5f83013567ffffffffffffffff811115610a9157610a906107ed565b5b610a9d85828601610a31565b9250506020610aae85828601610810565b9150509250929050565b5f73ffffffffffffffffffffffffffffffffffffffff82169050919050565b5f610ae182610ab8565b9050919050565b610af181610ad7565b8114610afb575f5ffd5b50565b5f81359050610b0c81610ae8565b92915050565b5f5f60408385031215610b2857610b276107e9565b5b5f610b3585828601610810565b9250506020610b4685828601610afe565b9150509250929050565b5f602082019050610b635f8301846108d9565b92915050565b5f602082019050610b7c5f8301846108bf565b92915050565b5f819050919050565b5f610ba5610ba0610b9b84610ab8565b610b82565b610ab8565b9050919050565b5f610bb682610b8b565b9050919050565b5f610bc782610bac565b9050919050565b610bd781610bbd565b82525050565b5f602082019050610bf05f830184610bce565b92915050565b7f50726f706f73746120696e76616c6964610000000000000000000000000000005f82015250565b5f610c2a601183610859565b9150610c3582610bf6565b602082019050919050565b5f6020820190508181035f830152610c5781610c1e565b9050919050565b7f4e487b71000000000000000000000000000000000000000000000000000000005f52603260045260245ffd5b7f566f746163616f20656e636572726164610000000000000000000000000000005f82015250565b5f610cbf601183610859565b9150610cca82610c8b565b602082019050919050565b5f6020820190508181035f830152610cec81610cb3565b9050919050565b7f4a6120766f746f750000000000000000000000000000000000000000000000005f82015250565b5f610d27600883610859565b9150610d3282610cf3565b602082019050919050565b5f6020820190508181035f830152610d5481610d1b565b9050919050565b610d6481610ad7565b82525050565b5f602082019050610d7d5f830184610d5b565b92915050565b5f81519050610d91816107fa565b92915050565b5f60208284031215610dac57610dab6107e9565b5b5f610db984828501610d83565b91505092915050565b7f53656d20706f64657220646520766f746f0000000000000000000000000000005f82015250565b5f610df6601183610859565b9150610e0182610dc2565b602082019050919050565b5f6020820190508181035f830152610e2381610dea565b9050919050565b7f4e487b71000000000000000000000000000000000000000000000000000000005f52601160045260245ffd5b5f610e61826107f1565b9150610e6c836107f1565b9250828201905080821115610e8457610e83610e2a565b5b92915050565b7f4e487b71000000000000000000000000000000000000000000000000000000005f52602260045260245ffd5b5f6002820490506001821680610ece57607f821691505b602082108103610ee157610ee0610e8a565b5b50919050565b7f566f746163616f2061696e6461206174697661000000000000000000000000005f82015250565b5f610f1b601383610859565b9150610f2682610ee7565b602082019050919050565b5f6020820190508181035f830152610f4881610f0f565b9050919050565b7f4a612065786563757461646100000000000000000000000000000000000000005f82015250565b5f610f83600c83610859565b9150610f8e82610f4f565b602082019050919050565b5f6020820190508181035f830152610fb081610f77565b9050919050565b7f53656d20746f6b656e20706172612070726f706f7200000000000000000000005f82015250565b5f610feb601583610859565b9150610ff682610fb7565b602082019050919050565b5f6020820190508181035f83015261101881610fdf565b9050919050565b5f819050815f5260205f209050919050565b5f6020601f8301049050919050565b5f82821b905092915050565b5f6008830261107b7fffffffffffffffffffffffffffffffffffffffffffffffffffffffffffffffff82611040565b6110858683611040565b95508019841693508086168417925050509392505050565b5f6110b76110b26110ad846107f1565b610b82565b6107f1565b9050919050565b5f819050919050565b6110d08361109d565b6110e46110dc826110be565b84845461104c565b825550505050565b5f5f905090565b6110fb6110ec565b6111068184846110c7565b505050565b5f5b8281101561112c576111215f8284016110f3565b60018101905061110d565b505050565b601f82111561117f578282111561117e5761114b8161101f565b61115483611031565b61115d85611031565b602086101561116a575f90505b8083016111798284038261110b565b505050505b5b505050565b5f82821c905092915050565b5f61119f5f1984600802611184565b1980831691505092915050565b5f6111b78383611190565b9150826002028217905092915050565b6111d08261084f565b67ffffffffffffffff8111156111e9576111e861093a565b5b6111f38254610eb7565b6111fe828285611131565b5f60209050601f83116001811461122f575f841561121d578287015190505b61122785826111ac565b86555061128e565b601f19841661123d8661101f565b5f5b828110156112645784890151825560018201915060208501945060208101905061123f565b86831015611281578489015161127d601f891682611190565b8355505b6001600288020188555050505b50505050505056fea26469706673582212206c8eb08a5ef9ea8b8f36478d60d99919617f4fc6cb547a52987781847ffb183b64736f6c63430008220033",
					"opcodes": "PUSH1 0x80 PUSH1 0x40 MSTORE CALLVALUE DUP1 ISZERO PUSH2 0xF JUMPI PUSH0 PUSH0 REVERT JUMPDEST POP PUSH1 0x40 MLOAD PUSH2 0x13D8 CODESIZE SUB DUP1 PUSH2 0x13D8 DUP4 CODECOPY DUP2 DUP2 ADD PUSH1 0x40 MSTORE DUP2 ADD SWAP1 PUSH2 0x31 SWAP2 SWAP1 PUSH2 0xD4 JUMP JUMPDEST DUP1 PUSH0 PUSH0 PUSH2 0x100 EXP DUP2 SLOAD DUP2 PUSH20 0xFFFFFFFFFFFFFFFFFFFFFFFFFFFFFFFFFFFFFFFF MUL NOT AND SWAP1 DUP4 PUSH20 0xFFFFFFFFFFFFFFFFFFFFFFFFFFFFFFFFFFFFFFFF AND MUL OR SWAP1 SSTORE POP POP PUSH2 0xFF JUMP JUMPDEST PUSH0 PUSH0 REVERT JUMPDEST PUSH0 PUSH20 0xFFFFFFFFFFFFFFFFFFFFFFFFFFFFFFFFFFFFFFFF DUP3 AND SWAP1 POP SWAP2 SWAP1 POP JUMP JUMPDEST PUSH0 PUSH2 0xA3 DUP3 PUSH2 0x7A JUMP JUMPDEST SWAP1 POP SWAP2 SWAP1 POP JUMP JUMPDEST PUSH2 0xB3 DUP2 PUSH2 0x99 JUMP JUMPDEST DUP2 EQ PUSH2 0xBD JUMPI PUSH0 PUSH0 REVERT JUMPDEST POP JUMP JUMPDEST PUSH0 DUP2 MLOAD SWAP1 POP PUSH2 0xCE DUP2 PUSH2 0xAA JUMP JUMPDEST SWAP3 SWAP2 POP POP JUMP JUMPDEST PUSH0 PUSH1 0x20 DUP3 DUP5 SUB SLT ISZERO PUSH2 0xE9 JUMPI PUSH2 0xE8 PUSH2 0x76 JUMP JUMPDEST JUMPDEST PUSH0 PUSH2 0xF6 DUP5 DUP3 DUP6 ADD PUSH2 0xC0 JUMP JUMPDEST SWAP2 POP POP SWAP3 SWAP2 POP POP JUMP JUMPDEST PUSH2 0x12CC DUP1 PUSH2 0x10C PUSH0 CODECOPY PUSH0 RETURN INVALID PUSH1 0x80 PUSH1 0x40 MSTORE CALLVALUE DUP1 ISZERO PUSH2 0xF JUMPI PUSH0 PUSH0 REVERT JUMPDEST POP PUSH1 0x4 CALLDATASIZE LT PUSH2 0x7B JUMPI PUSH0 CALLDATALOAD PUSH1 0xE0 SHR DUP1 PUSH4 0x35FACF78 GT PUSH2 0x59 JUMPI DUP1 PUSH4 0x35FACF78 EQ PUSH2 0xEA JUMPI DUP1 PUSH4 0x43859632 EQ PUSH2 0x106 JUMPI DUP1 PUSH4 0x98E527D3 EQ PUSH2 0x136 JUMPI DUP1 PUSH4 0xF96DAE0A EQ PUSH2 0x154 JUMPI PUSH2 0x7B JUMP JUMPDEST DUP1 PUSH4 0x121B93F EQ PUSH2 0x7F JUMPI DUP1 PUSH4 0x13CF08B EQ PUSH2 0x9B JUMPI DUP1 PUSH4 0xD61B519 EQ PUSH2 0xCE JUMPI JUMPDEST PUSH0 PUSH0 REVERT JUMPDEST PUSH2 0x99 PUSH1 0x4 DUP1 CALLDATASIZE SUB DUP2 ADD SWAP1 PUSH2 0x94 SWAP2 SWAP1 PUSH2 0x824 JUMP JUMPDEST PUSH2 0x172 JUMP JUMPDEST STOP JUMPDEST PUSH2 0xB5 PUSH1 0x4 DUP1 CALLDATASIZE SUB DUP2 ADD SWAP1 PUSH2 0xB0 SWAP2 SWAP1 PUSH2 0x824 JUMP JUMPDEST PUSH2 0x41B JUMP JUMPDEST PUSH1 0x40 MLOAD PUSH2 0xC5 SWAP5 SWAP4 SWAP3 SWAP2 SWAP1 PUSH2 0x8E8 JUMP JUMPDEST PUSH1 0x40 MLOAD DUP1 SWAP2 SUB SWAP1 RETURN JUMPDEST PUSH2 0xE8 PUSH1 0x4 DUP1 CALLDATASIZE SUB DUP2 ADD SWAP1 PUSH2 0xE3 SWAP2 SWAP1 PUSH2 0x824 JUMP JUMPDEST PUSH2 0x4E8 JUMP JUMPDEST STOP JUMPDEST PUSH2 0x104 PUSH1 0x4 DUP1 CALLDATASIZE SUB DUP2 ADD SWAP1 PUSH2 0xFF SWAP2 SWAP1 PUSH2 0xA5E JUMP JUMPDEST PUSH2 0x60A JUMP JUMPDEST STOP JUMPDEST PUSH2 0x120 PUSH1 0x4 DUP1 CALLDATASIZE SUB DUP2 ADD SWAP1 PUSH2 0x11B SWAP2 SWAP1 PUSH2 0xB12 JUMP JUMPDEST PUSH2 0x786 JUMP JUMPDEST PUSH1 0x40 MLOAD PUSH2 0x12D SWAP2 SWAP1 PUSH2 0xB50 JUMP JUMPDEST PUSH1 0x40 MLOAD DUP1 SWAP2 SUB SWAP1 RETURN JUMPDEST PUSH2 0x13E PUSH2 0x7B0 JUMP JUMPDEST PUSH1 0x40 MLOAD PUSH2 0x14B SWAP2 SWAP1 PUSH2 0xB69 JUMP JUMPDEST PUSH1 0x40 MLOAD DUP1 SWAP2 SUB SWAP1 RETURN JUMPDEST PUSH2 0x15C PUSH2 0x7BC JUMP JUMPDEST PUSH1 0x40 MLOAD PUSH2 0x169 SWAP2 SWAP1 PUSH2 0xBDD JUMP JUMPDEST PUSH1 0x40 MLOAD DUP1 SWAP2 SUB SWAP1 RETURN JUMPDEST PUSH1 0x1 DUP1 SLOAD SWAP1 POP DUP2 LT PUSH2 0x1B9 JUMPI PUSH1 0x40 MLOAD PUSH32 0x8C379A000000000000000000000000000000000000000000000000000000000 DUP2 MSTORE PUSH1 0x4 ADD PUSH2 0x1B0 SWAP1 PUSH2 0xC40 JUMP JUMPDEST PUSH1 0x40 MLOAD DUP1 SWAP2 SUB SWAP1 REVERT JUMPDEST PUSH0 PUSH1 0x1 DUP3 DUP2 SLOAD DUP2 LT PUSH2 0x1CE JUMPI PUSH2 0x1CD PUSH2 0xC5E JUMP JUMPDEST JUMPDEST SWAP1 PUSH0 MSTORE PUSH1 0x20 PUSH0 KECCAK256 SWAP1 PUSH1 0x4 MUL ADD SWAP1 POP DUP1 PUSH1 0x2 ADD SLOAD TIMESTAMP LT PUSH2 0x222 JUMPI PUSH1 0x40 MLOAD PUSH32 0x8C379A000000000000000000000000000000000000000000000000000000000 DUP2 MSTORE PUSH1 0x4 ADD PUSH2 0x219 SWAP1 PUSH2 0xCD5 JUMP JUMPDEST PUSH1 0x40 MLOAD DUP1 SWAP2 SUB SWAP1 REVERT JUMPDEST PUSH1 0x2 PUSH0 DUP4 DUP2 MSTORE PUSH1 0x20 ADD SWAP1 DUP2 MSTORE PUSH1 0x20 ADD PUSH0 KECCAK256 PUSH0 CALLER PUSH20 0xFFFFFFFFFFFFFFFFFFFFFFFFFFFFFFFFFFFFFFFF AND PUSH20 0xFFFFFFFFFFFFFFFFFFFFFFFFFFFFFFFFFFFFFFFF AND DUP2 MSTORE PUSH1 0x20 ADD SWAP1 DUP2 MSTORE PUSH1 0x20 ADD PUSH0 KECCAK256 PUSH0 SWAP1 SLOAD SWAP1 PUSH2 0x100 EXP SWAP1 DIV PUSH1 0xFF AND ISZERO PUSH2 0x2BB JUMPI PUSH1 0x40 MLOAD PUSH32 0x8C379A000000000000000000000000000000000000000000000000000000000 DUP2 MSTORE PUSH1 0x4 ADD PUSH2 0x2B2 SWAP1 PUSH2 0xD3D JUMP JUMPDEST PUSH1 0x40 MLOAD DUP1 SWAP2 SUB SWAP1 REVERT JUMPDEST PUSH0 PUSH0 PUSH0 SWAP1 SLOAD SWAP1 PUSH2 0x100 EXP SWAP1 DIV PUSH20 0xFFFFFFFFFFFFFFFFFFFFFFFFFFFFFFFFFFFFFFFF AND PUSH20 0xFFFFFFFFFFFFFFFFFFFFFFFFFFFFFFFFFFFFFFFF AND PUSH4 0x70A08231 CALLER PUSH1 0x40 MLOAD DUP3 PUSH4 0xFFFFFFFF AND PUSH1 0xE0 SHL DUP2 MSTORE PUSH1 0x4 ADD PUSH2 0x315 SWAP2 SWAP1 PUSH2 0xD6A JUMP JUMPDEST PUSH1 0x20 PUSH1 0x40 MLOAD DUP1 DUP4 SUB DUP2 DUP7 GAS STATICCALL ISZERO DUP1 ISZERO PUSH2 0x330 JUMPI RETURNDATASIZE PUSH0 PUSH0 RETURNDATACOPY RETURNDATASIZE PUSH0 REVERT JUMPDEST POP POP POP POP PUSH1 0x40 MLOAD RETURNDATASIZE PUSH1 0x1F NOT PUSH1 0x1F DUP3 ADD AND DUP3 ADD DUP1 PUSH1 0x40 MSTORE POP DUP2 ADD SWAP1 PUSH2 0x354 SWAP2 SWAP1 PUSH2 0xD97 JUMP JUMPDEST SWAP1 POP PUSH0 DUP2 GT PUSH2 0x398 JUMPI PUSH1 0x40 MLOAD PUSH32 0x8C379A000000000000000000000000000000000000000000000000000000000 DUP2 MSTORE PUSH1 0x4 ADD PUSH2 0x38F SWAP1 PUSH2 0xE0C JUMP JUMPDEST PUSH1 0x40 MLOAD DUP1 SWAP2 SUB SWAP1 REVERT JUMPDEST DUP1 DUP3 PUSH1 0x1 ADD PUSH0 DUP3 DUP3 SLOAD PUSH2 0x3AB SWAP2 SWAP1 PUSH2 0xE57 JUMP JUMPDEST SWAP3 POP POP DUP2 SWAP1 SSTORE POP PUSH1 0x1 PUSH1 0x2 PUSH0 DUP6 DUP2 MSTORE PUSH1 0x20 ADD SWAP1 DUP2 MSTORE PUSH1 0x20 ADD PUSH0 KECCAK256 PUSH0 CALLER PUSH20 0xFFFFFFFFFFFFFFFFFFFFFFFFFFFFFFFFFFFFFFFF AND PUSH20 0xFFFFFFFFFFFFFFFFFFFFFFFFFFFFFFFFFFFFFFFF AND DUP2 MSTORE PUSH1 0x20 ADD SWAP1 DUP2 MSTORE PUSH1 0x20 ADD PUSH0 KECCAK256 PUSH0 PUSH2 0x100 EXP DUP2 SLOAD DUP2 PUSH1 0xFF MUL NOT AND SWAP1 DUP4 ISZERO ISZERO MUL OR SWAP1 SSTORE POP POP POP POP JUMP JUMPDEST PUSH1 0x1 DUP2 DUP2 SLOAD DUP2 LT PUSH2 0x42A JUMPI PUSH0 DUP1 REVERT JUMPDEST SWAP1 PUSH0 MSTORE PUSH1 0x20 PUSH0 KECCAK256 SWAP1 PUSH1 0x4 MUL ADD PUSH0 SWAP2 POP SWAP1 POP DUP1 PUSH0 ADD DUP1 SLOAD PUSH2 0x449 SWAP1 PUSH2 0xEB7 JUMP JUMPDEST DUP1 PUSH1 0x1F ADD PUSH1 0x20 DUP1 SWAP2 DIV MUL PUSH1 0x20 ADD PUSH1 0x40 MLOAD SWAP1 DUP2 ADD PUSH1 0x40 MSTORE DUP1 SWAP3 SWAP2 SWAP1 DUP2 DUP2 MSTORE PUSH1 0x20 ADD DUP3 DUP1 SLOAD PUSH2 0x475 SWAP1 PUSH2 0xEB7 JUMP JUMPDEST DUP1 ISZERO PUSH2 0x4C0 JUMPI DUP1 PUSH1 0x1F LT PUSH2 0x497 JUMPI PUSH2 0x100 DUP1 DUP4 SLOAD DIV MUL DUP4 MSTORE SWAP2 PUSH1 0x20 ADD SWAP2 PUSH2 0x4C0 JUMP JUMPDEST DUP3 ADD SWAP2 SWAP1 PUSH0 MSTORE PUSH1 0x20 PUSH0 KECCAK256 SWAP1 JUMPDEST DUP2 SLOAD DUP2 MSTORE SWAP1 PUSH1 0x1 ADD SWAP1 PUSH1 0x20 ADD DUP1 DUP4 GT PUSH2 0x4A3 JUMPI DUP3 SWAP1 SUB PUSH1 0x1F AND DUP3 ADD SWAP2 JUMPDEST POP POP POP POP POP SWAP1 DUP1 PUSH1 0x1 ADD SLOAD SWAP1 DUP1 PUSH1 0x2 ADD SLOAD SWAP1 DUP1 PUSH1 0x3 ADD PUSH0 SWAP1 SLOAD SWAP1 PUSH2 0x100 EXP SWAP1 DIV PUSH1 0xFF AND SWAP1 POP DUP5 JUMP JUMPDEST PUSH1 0x1 DUP1 SLOAD SWAP1 POP DUP2 LT PUSH2 0x52F JUMPI PUSH1 0x40 MLOAD PUSH32 0x8C379A000000000000000000000000000000000000000000000000000000000 DUP2 MSTORE PUSH1 0x4 ADD PUSH2 0x526 SWAP1 PUSH2 0xC40 JUMP JUMPDEST PUSH1 0x40 MLOAD DUP1 SWAP2 SUB SWAP1 REVERT JUMPDEST PUSH0 PUSH1 0x1 DUP3 DUP2 SLOAD DUP2 LT PUSH2 0x544 JUMPI PUSH2 0x543 PUSH2 0xC5E JUMP JUMPDEST JUMPDEST SWAP1 PUSH0 MSTORE PUSH1 0x20 PUSH0 KECCAK256 SWAP1 PUSH1 0x4 MUL ADD SWAP1 POP DUP1 PUSH1 0x2 ADD SLOAD TIMESTAMP LT ISZERO PUSH2 0x599 JUMPI PUSH1 0x40 MLOAD PUSH32 0x8C379A000000000000000000000000000000000000000000000000000000000 DUP2 MSTORE PUSH1 0x4 ADD PUSH2 0x590 SWAP1 PUSH2 0xF31 JUMP JUMPDEST PUSH1 0x40 MLOAD DUP1 SWAP2 SUB SWAP1 REVERT JUMPDEST DUP1 PUSH1 0x3 ADD PUSH0 SWAP1 SLOAD SWAP1 PUSH2 0x100 EXP SWAP1 DIV PUSH1 0xFF AND ISZERO PUSH2 0x5EA JUMPI PUSH1 0x40 MLOAD PUSH32 0x8C379A000000000000000000000000000000000000000000000000000000000 DUP2 MSTORE PUSH1 0x4 ADD PUSH2 0x5E1 SWAP1 PUSH2 0xF99 JUMP JUMPDEST PUSH1 0x40 MLOAD DUP1 SWAP2 SUB SWAP1 REVERT JUMPDEST PUSH1 0x1 DUP2 PUSH1 0x3 ADD PUSH0 PUSH2 0x100 EXP DUP2 SLOAD DUP2 PUSH1 0xFF MUL NOT AND SWAP1 DUP4 ISZERO ISZERO MUL OR SWAP1 SSTORE POP POP POP JUMP JUMPDEST PUSH0 PUSH0 PUSH0 SWAP1 SLOAD SWAP1 PUSH2 0x100 EXP SWAP1 DIV PUSH20 0xFFFFFFFFFFFFFFFFFFFFFFFFFFFFFFFFFFFFFFFF AND PUSH20 0xFFFFFFFFFFFFFFFFFFFFFFFFFFFFFFFFFFFFFFFF AND PUSH4 0x70A08231 CALLER PUSH1 0x40 MLOAD DUP3 PUSH4 0xFFFFFFFF AND PUSH1 0xE0 SHL DUP2 MSTORE PUSH1 0x4 ADD PUSH2 0x664 SWAP2 SWAP1 PUSH2 0xD6A JUMP JUMPDEST PUSH1 0x20 PUSH1 0x40 MLOAD DUP1 DUP4 SUB DUP2 DUP7 GAS STATICCALL ISZERO DUP1 ISZERO PUSH2 0x67F JUMPI RETURNDATASIZE PUSH0 PUSH0 RETURNDATACOPY RETURNDATASIZE PUSH0 REVERT JUMPDEST POP POP POP POP PUSH1 0x40 MLOAD RETURNDATASIZE PUSH1 0x1F NOT PUSH1 0x1F DUP3 ADD AND DUP3 ADD DUP1 PUSH1 0x40 MSTORE POP DUP2 ADD SWAP1 PUSH2 0x6A3 SWAP2 SWAP1 PUSH2 0xD97 JUMP JUMPDEST GT PUSH2 0x6E3 JUMPI PUSH1 0x40 MLOAD PUSH32 0x8C379A000000000000000000000000000000000000000000000000000000000 DUP2 MSTORE PUSH1 0x4 ADD PUSH2 0x6DA SWAP1 PUSH2 0x1001 JUMP JUMPDEST PUSH1 0x40 MLOAD DUP1 SWAP2 SUB SWAP1 REVERT JUMPDEST PUSH1 0x1 PUSH1 0x40 MLOAD DUP1 PUSH1 0x80 ADD PUSH1 0x40 MSTORE DUP1 DUP5 DUP2 MSTORE PUSH1 0x20 ADD PUSH0 DUP2 MSTORE PUSH1 0x20 ADD DUP4 TIMESTAMP PUSH2 0x708 SWAP2 SWAP1 PUSH2 0xE57 JUMP JUMPDEST DUP2 MSTORE PUSH1 0x20 ADD PUSH0 ISZERO ISZERO DUP2 MSTORE POP SWAP1 DUP1 PUSH1 0x1 DUP2 SLOAD ADD DUP1 DUP3 SSTORE DUP1 SWAP2 POP POP PUSH1 0x1 SWAP1 SUB SWAP1 PUSH0 MSTORE PUSH1 0x20 PUSH0 KECCAK256 SWAP1 PUSH1 0x4 MUL ADD PUSH0 SWAP1 SWAP2 SWAP1 SWAP2 SWAP1 SWAP2 POP PUSH0 DUP3 ADD MLOAD DUP2 PUSH0 ADD SWAP1 DUP2 PUSH2 0x74C SWAP2 SWAP1 PUSH2 0x11C7 JUMP JUMPDEST POP PUSH1 0x20 DUP3 ADD MLOAD DUP2 PUSH1 0x1 ADD SSTORE PUSH1 0x40 DUP3 ADD MLOAD DUP2 PUSH1 0x2 ADD SSTORE PUSH1 0x60 DUP3 ADD MLOAD DUP2 PUSH1 0x3 ADD PUSH0 PUSH2 0x100 EXP DUP2 SLOAD DUP2 PUSH1 0xFF MUL NOT AND SWAP1 DUP4 ISZERO ISZERO MUL OR SWAP1 SSTORE POP POP POP POP POP JUMP JUMPDEST PUSH1 0x2 PUSH1 0x20 MSTORE DUP2 PUSH0 MSTORE PUSH1 0x40 PUSH0 KECCAK256 PUSH1 0x20 MSTORE DUP1 PUSH0 MSTORE PUSH1 0x40 PUSH0 KECCAK256 PUSH0 SWAP2 POP SWAP2 POP SWAP1 SLOAD SWAP1 PUSH2 0x100 EXP SWAP1 DIV PUSH1 0xFF AND DUP2 JUMP JUMPDEST PUSH0 PUSH1 0x1 DUP1 SLOAD SWAP1 POP SWAP1 POP SWAP1 JUMP JUMPDEST PUSH0 PUSH0 SWAP1 SLOAD SWAP1 PUSH2 0x100 EXP SWAP1 DIV PUSH20 0xFFFFFFFFFFFFFFFFFFFFFFFFFFFFFFFFFFFFFFFF AND DUP2 JUMP JUMPDEST PUSH0 PUSH1 0x40 MLOAD SWAP1 POP SWAP1 JUMP JUMPDEST PUSH0 PUSH0 REVERT JUMPDEST PUSH0 PUSH0 REVERT JUMPDEST PUSH0 DUP2 SWAP1 POP SWAP2 SWAP1 POP JUMP JUMPDEST PUSH2 0x803 DUP2 PUSH2 0x7F1 JUMP JUMPDEST DUP2 EQ PUSH2 0x80D JUMPI PUSH0 PUSH0 REVERT JUMPDEST POP JUMP JUMPDEST PUSH0 DUP2 CALLDATALOAD SWAP1 POP PUSH2 0x81E DUP2 PUSH2 0x7FA JUMP JUMPDEST SWAP3 SWAP2 POP POP JUMP JUMPDEST PUSH0 PUSH1 0x20 DUP3 DUP5 SUB SLT ISZERO PUSH2 0x839 JUMPI PUSH2 0x838 PUSH2 0x7E9 JUMP JUMPDEST JUMPDEST PUSH0 PUSH2 0x846 DUP5 DUP3 DUP6 ADD PUSH2 0x810 JUMP JUMPDEST SWAP2 POP POP SWAP3 SWAP2 POP POP JUMP JUMPDEST PUSH0 DUP2 MLOAD SWAP1 POP SWAP2 SWAP1 POP JUMP JUMPDEST PUSH0 DUP3 DUP3 MSTORE PUSH1 0x20 DUP3 ADD SWAP1 POP SWAP3 SWAP2 POP POP JUMP JUMPDEST DUP3 DUP2 DUP4 MCOPY PUSH0 DUP4 DUP4 ADD MSTORE POP POP POP JUMP JUMPDEST PUSH0 PUSH1 0x1F NOT PUSH1 0x1F DUP4 ADD AND SWAP1 POP SWAP2 SWAP1 POP JUMP JUMPDEST PUSH0 PUSH2 0x891 DUP3 PUSH2 0x84F JUMP JUMPDEST PUSH2 0x89B DUP2 DUP6 PUSH2 0x859 JUMP JUMPDEST SWAP4 POP PUSH2 0x8AB DUP2 DUP6 PUSH1 0x20 DUP7 ADD PUSH2 0x869 JUMP JUMPDEST PUSH2 0x8B4 DUP2 PUSH2 0x877 JUMP JUMPDEST DUP5 ADD SWAP2 POP POP SWAP3 SWAP2 POP POP JUMP JUMPDEST PUSH2 0x8C8 DUP2 PUSH2 0x7F1 JUMP JUMPDEST DUP3 MSTORE POP POP JUMP JUMPDEST PUSH0 DUP2 ISZERO ISZERO SWAP1 POP SWAP2 SWAP1 POP JUMP JUMPDEST PUSH2 0x8E2 DUP2 PUSH2 0x8CE JUMP JUMPDEST DUP3 MSTORE POP POP JUMP JUMPDEST PUSH0 PUSH1 0x80 DUP3 ADD SWAP1 POP DUP2 DUP2 SUB PUSH0 DUP4 ADD MSTORE PUSH2 0x900 DUP2 DUP8 PUSH2 0x887 JUMP JUMPDEST SWAP1 POP PUSH2 0x90F PUSH1 0x20 DUP4 ADD DUP7 PUSH2 0x8BF JUMP JUMPDEST PUSH2 0x91C PUSH1 0x40 DUP4 ADD DUP6 PUSH2 0x8BF JUMP JUMPDEST PUSH2 0x929 PUSH1 0x60 DUP4 ADD DUP5 PUSH2 0x8D9 JUMP JUMPDEST SWAP6 SWAP5 POP POP POP POP POP JUMP JUMPDEST PUSH0 PUSH0 REVERT JUMPDEST PUSH0 PUSH0 REVERT JUMPDEST PUSH32 0x4E487B7100000000000000000000000000000000000000000000000000000000 PUSH0 MSTORE PUSH1 0x41 PUSH1 0x4 MSTORE PUSH1 0x24 PUSH0 REVERT JUMPDEST PUSH2 0x970 DUP3 PUSH2 0x877 JUMP JUMPDEST DUP2 ADD DUP2 DUP2 LT PUSH8 0xFFFFFFFFFFFFFFFF DUP3 GT OR ISZERO PUSH2 0x98F JUMPI PUSH2 0x98E PUSH2 0x93A JUMP JUMPDEST JUMPDEST DUP1 PUSH1 0x40 MSTORE POP POP POP JUMP JUMPDEST PUSH0 PUSH2 0x9A1 PUSH2 0x7E0 JUMP JUMPDEST SWAP1 POP PUSH2 0x9AD DUP3 DUP3 PUSH2 0x967 JUMP JUMPDEST SWAP2 SWAP1 POP JUMP JUMPDEST PUSH0 PUSH8 0xFFFFFFFFFFFFFFFF DUP3 GT ISZERO PUSH2 0x9CC JUMPI PUSH2 0x9CB PUSH2 0x93A JUMP JUMPDEST JUMPDEST PUSH2 0x9D5 DUP3 PUSH2 0x877 JUMP JUMPDEST SWAP1 POP PUSH1 0x20 DUP2 ADD SWAP1 POP SWAP2 SWAP1 POP JUMP JUMPDEST DUP3 DUP2 DUP4 CALLDATACOPY PUSH0 DUP4 DUP4 ADD MSTORE POP POP POP JUMP JUMPDEST PUSH0 PUSH2 0xA02 PUSH2 0x9FD DUP5 PUSH2 0x9B2 JUMP JUMPDEST PUSH2 0x998 JUMP JUMPDEST SWAP1 POP DUP3 DUP2 MSTORE PUSH1 0x20 DUP2 ADD DUP5 DUP5 DUP5 ADD GT ISZERO PUSH2 0xA1E JUMPI PUSH2 0xA1D PUSH2 0x936 JUMP JUMPDEST JUMPDEST PUSH2 0xA29 DUP5 DUP3 DUP6 PUSH2 0x9E2 JUMP JUMPDEST POP SWAP4 SWAP3 POP POP POP JUMP JUMPDEST PUSH0 DUP3 PUSH1 0x1F DUP4 ADD SLT PUSH2 0xA45 JUMPI PUSH2 0xA44 PUSH2 0x932 JUMP JUMPDEST JUMPDEST DUP2 CALLDATALOAD PUSH2 0xA55 DUP5 DUP3 PUSH1 0x20 DUP7 ADD PUSH2 0x9F0 JUMP JUMPDEST SWAP2 POP POP SWAP3 SWAP2 POP POP JUMP JUMPDEST PUSH0 PUSH0 PUSH1 0x40 DUP4 DUP6 SUB SLT ISZERO PUSH2 0xA74 JUMPI PUSH2 0xA73 PUSH2 0x7E9 JUMP JUMPDEST JUMPDEST PUSH0 DUP4 ADD CALLDATALOAD PUSH8 0xFFFFFFFFFFFFFFFF DUP2 GT ISZERO PUSH2 0xA91 JUMPI PUSH2 0xA90 PUSH2 0x7ED JUMP JUMPDEST JUMPDEST PUSH2 0xA9D DUP6 DUP3 DUP7 ADD PUSH2 0xA31 JUMP JUMPDEST SWAP3 POP POP PUSH1 0x20 PUSH2 0xAAE DUP6 DUP3 DUP7 ADD PUSH2 0x810 JUMP JUMPDEST SWAP2 POP POP SWAP3 POP SWAP3 SWAP1 POP JUMP JUMPDEST PUSH0 PUSH20 0xFFFFFFFFFFFFFFFFFFFFFFFFFFFFFFFFFFFFFFFF DUP3 AND SWAP1 POP SWAP2 SWAP1 POP JUMP JUMPDEST PUSH0 PUSH2 0xAE1 DUP3 PUSH2 0xAB8 JUMP JUMPDEST SWAP1 POP SWAP2 SWAP1 POP JUMP JUMPDEST PUSH2 0xAF1 DUP2 PUSH2 0xAD7 JUMP JUMPDEST DUP2 EQ PUSH2 0xAFB JUMPI PUSH0 PUSH0 REVERT JUMPDEST POP JUMP JUMPDEST PUSH0 DUP2 CALLDATALOAD SWAP1 POP PUSH2 0xB0C DUP2 PUSH2 0xAE8 JUMP JUMPDEST SWAP3 SWAP2 POP POP JUMP JUMPDEST PUSH0 PUSH0 PUSH1 0x40 DUP4 DUP6 SUB SLT ISZERO PUSH2 0xB28 JUMPI PUSH2 0xB27 PUSH2 0x7E9 JUMP JUMPDEST JUMPDEST PUSH0 PUSH2 0xB35 DUP6 DUP3 DUP7 ADD PUSH2 0x810 JUMP JUMPDEST SWAP3 POP POP PUSH1 0x20 PUSH2 0xB46 DUP6 DUP3 DUP7 ADD PUSH2 0xAFE JUMP JUMPDEST SWAP2 POP POP SWAP3 POP SWAP3 SWAP1 POP JUMP JUMPDEST PUSH0 PUSH1 0x20 DUP3 ADD SWAP1 POP PUSH2 0xB63 PUSH0 DUP4 ADD DUP5 PUSH2 0x8D9 JUMP JUMPDEST SWAP3 SWAP2 POP POP JUMP JUMPDEST PUSH0 PUSH1 0x20 DUP3 ADD SWAP1 POP PUSH2 0xB7C PUSH0 DUP4 ADD DUP5 PUSH2 0x8BF JUMP JUMPDEST SWAP3 SWAP2 POP POP JUMP JUMPDEST PUSH0 DUP2 SWAP1 POP SWAP2 SWAP1 POP JUMP JUMPDEST PUSH0 PUSH2 0xBA5 PUSH2 0xBA0 PUSH2 0xB9B DUP5 PUSH2 0xAB8 JUMP JUMPDEST PUSH2 0xB82 JUMP JUMPDEST PUSH2 0xAB8 JUMP JUMPDEST SWAP1 POP SWAP2 SWAP1 POP JUMP JUMPDEST PUSH0 PUSH2 0xBB6 DUP3 PUSH2 0xB8B JUMP JUMPDEST SWAP1 POP SWAP2 SWAP1 POP JUMP JUMPDEST PUSH0 PUSH2 0xBC7 DUP3 PUSH2 0xBAC JUMP JUMPDEST SWAP1 POP SWAP2 SWAP1 POP JUMP JUMPDEST PUSH2 0xBD7 DUP2 PUSH2 0xBBD JUMP JUMPDEST DUP3 MSTORE POP POP JUMP JUMPDEST PUSH0 PUSH1 0x20 DUP3 ADD SWAP1 POP PUSH2 0xBF0 PUSH0 DUP4 ADD DUP5 PUSH2 0xBCE JUMP JUMPDEST SWAP3 SWAP2 POP POP JUMP JUMPDEST PUSH32 0x50726F706F73746120696E76616C696461000000000000000000000000000000 PUSH0 DUP3 ADD MSTORE POP JUMP JUMPDEST PUSH0 PUSH2 0xC2A PUSH1 0x11 DUP4 PUSH2 0x859 JUMP JUMPDEST SWAP2 POP PUSH2 0xC35 DUP3 PUSH2 0xBF6 JUMP JUMPDEST PUSH1 0x20 DUP3 ADD SWAP1 POP SWAP2 SWAP1 POP JUMP JUMPDEST PUSH0 PUSH1 0x20 DUP3 ADD SWAP1 POP DUP2 DUP2 SUB PUSH0 DUP4 ADD MSTORE PUSH2 0xC57 DUP2 PUSH2 0xC1E JUMP JUMPDEST SWAP1 POP SWAP2 SWAP1 POP JUMP JUMPDEST PUSH32 0x4E487B7100000000000000000000000000000000000000000000000000000000 PUSH0 MSTORE PUSH1 0x32 PUSH1 0x4 MSTORE PUSH1 0x24 PUSH0 REVERT JUMPDEST PUSH32 0x566F746163616F20656E63657272616461000000000000000000000000000000 PUSH0 DUP3 ADD MSTORE POP JUMP JUMPDEST PUSH0 PUSH2 0xCBF PUSH1 0x11 DUP4 PUSH2 0x859 JUMP JUMPDEST SWAP2 POP PUSH2 0xCCA DUP3 PUSH2 0xC8B JUMP JUMPDEST PUSH1 0x20 DUP3 ADD SWAP1 POP SWAP2 SWAP1 POP JUMP JUMPDEST PUSH0 PUSH1 0x20 DUP3 ADD SWAP1 POP DUP2 DUP2 SUB PUSH0 DUP4 ADD MSTORE PUSH2 0xCEC DUP2 PUSH2 0xCB3 JUMP JUMPDEST SWAP1 POP SWAP2 SWAP1 POP JUMP JUMPDEST PUSH32 0x4A6120766F746F75000000000000000000000000000000000000000000000000 PUSH0 DUP3 ADD MSTORE POP JUMP JUMPDEST PUSH0 PUSH2 0xD27 PUSH1 0x8 DUP4 PUSH2 0x859 JUMP JUMPDEST SWAP2 POP PUSH2 0xD32 DUP3 PUSH2 0xCF3 JUMP JUMPDEST PUSH1 0x20 DUP3 ADD SWAP1 POP SWAP2 SWAP1 POP JUMP JUMPDEST PUSH0 PUSH1 0x20 DUP3 ADD SWAP1 POP DUP2 DUP2 SUB PUSH0 DUP4 ADD MSTORE PUSH2 0xD54 DUP2 PUSH2 0xD1B JUMP JUMPDEST SWAP1 POP SWAP2 SWAP1 POP JUMP JUMPDEST PUSH2 0xD64 DUP2 PUSH2 0xAD7 JUMP JUMPDEST DUP3 MSTORE POP POP JUMP JUMPDEST PUSH0 PUSH1 0x20 DUP3 ADD SWAP1 POP PUSH2 0xD7D PUSH0 DUP4 ADD DUP5 PUSH2 0xD5B JUMP JUMPDEST SWAP3 SWAP2 POP POP JUMP JUMPDEST PUSH0 DUP2 MLOAD SWAP1 POP PUSH2 0xD91 DUP2 PUSH2 0x7FA JUMP JUMPDEST SWAP3 SWAP2 POP POP JUMP JUMPDEST PUSH0 PUSH1 0x20 DUP3 DUP5 SUB SLT ISZERO PUSH2 0xDAC JUMPI PUSH2 0xDAB PUSH2 0x7E9 JUMP JUMPDEST JUMPDEST PUSH0 PUSH2 0xDB9 DUP5 DUP3 DUP6 ADD PUSH2 0xD83 JUMP JUMPDEST SWAP2 POP POP SWAP3 SWAP2 POP POP JUMP JUMPDEST PUSH32 0x53656D20706F64657220646520766F746F000000000000000000000000000000 PUSH0 DUP3 ADD MSTORE POP JUMP JUMPDEST PUSH0 PUSH2 0xDF6 PUSH1 0x11 DUP4 PUSH2 0x859 JUMP JUMPDEST SWAP2 POP PUSH2 0xE01 DUP3 PUSH2 0xDC2 JUMP JUMPDEST PUSH1 0x20 DUP3 ADD SWAP1 POP SWAP2 SWAP1 POP JUMP JUMPDEST PUSH0 PUSH1 0x20 DUP3 ADD SWAP1 POP DUP2 DUP2 SUB PUSH0 DUP4 ADD MSTORE PUSH2 0xE23 DUP2 PUSH2 0xDEA JUMP JUMPDEST SWAP1 POP SWAP2 SWAP1 POP JUMP JUMPDEST PUSH32 0x4E487B7100000000000000000000000000000000000000000000000000000000 PUSH0 MSTORE PUSH1 0x11 PUSH1 0x4 MSTORE PUSH1 0x24 PUSH0 REVERT JUMPDEST PUSH0 PUSH2 0xE61 DUP3 PUSH2 0x7F1 JUMP JUMPDEST SWAP2 POP PUSH2 0xE6C DUP4 PUSH2 0x7F1 JUMP JUMPDEST SWAP3 POP DUP3 DUP3 ADD SWAP1 POP DUP1 DUP3 GT ISZERO PUSH2 0xE84 JUMPI PUSH2 0xE83 PUSH2 0xE2A JUMP JUMPDEST JUMPDEST SWAP3 SWAP2 POP POP JUMP JUMPDEST PUSH32 0x4E487B7100000000000000000000000000000000000000000000000000000000 PUSH0 MSTORE PUSH1 0x22 PUSH1 0x4 MSTORE PUSH1 0x24 PUSH0 REVERT JUMPDEST PUSH0 PUSH1 0x2 DUP3 DIV SWAP1 POP PUSH1 0x1 DUP3 AND DUP1 PUSH2 0xECE JUMPI PUSH1 0x7F DUP3 AND SWAP2 POP JUMPDEST PUSH1 0x20 DUP3 LT DUP2 SUB PUSH2 0xEE1 JUMPI PUSH2 0xEE0 PUSH2 0xE8A JUMP JUMPDEST JUMPDEST POP SWAP2 SWAP1 POP JUMP JUMPDEST PUSH32 0x566F746163616F2061696E646120617469766100000000000000000000000000 PUSH0 DUP3 ADD MSTORE POP JUMP JUMPDEST PUSH0 PUSH2 0xF1B PUSH1 0x13 DUP4 PUSH2 0x859 JUMP JUMPDEST SWAP2 POP PUSH2 0xF26 DUP3 PUSH2 0xEE7 JUMP JUMPDEST PUSH1 0x20 DUP3 ADD SWAP1 POP SWAP2 SWAP1 POP JUMP JUMPDEST PUSH0 PUSH1 0x20 DUP3 ADD SWAP1 POP DUP2 DUP2 SUB PUSH0 DUP4 ADD MSTORE PUSH2 0xF48 DUP2 PUSH2 0xF0F JUMP JUMPDEST SWAP1 POP SWAP2 SWAP1 POP JUMP JUMPDEST PUSH32 0x4A61206578656375746164610000000000000000000000000000000000000000 PUSH0 DUP3 ADD MSTORE POP JUMP JUMPDEST PUSH0 PUSH2 0xF83 PUSH1 0xC DUP4 PUSH2 0x859 JUMP JUMPDEST SWAP2 POP PUSH2 0xF8E DUP3 PUSH2 0xF4F JUMP JUMPDEST PUSH1 0x20 DUP3 ADD SWAP1 POP SWAP2 SWAP1 POP JUMP JUMPDEST PUSH0 PUSH1 0x20 DUP3 ADD SWAP1 POP DUP2 DUP2 SUB PUSH0 DUP4 ADD MSTORE PUSH2 0xFB0 DUP2 PUSH2 0xF77 JUMP JUMPDEST SWAP1 POP SWAP2 SWAP1 POP JUMP JUMPDEST PUSH32 0x53656D20746F6B656E20706172612070726F706F720000000000000000000000 PUSH0 DUP3 ADD MSTORE POP JUMP JUMPDEST PUSH0 PUSH2 0xFEB PUSH1 0x15 DUP4 PUSH2 0x859 JUMP JUMPDEST SWAP2 POP PUSH2 0xFF6 DUP3 PUSH2 0xFB7 JUMP JUMPDEST PUSH1 0x20 DUP3 ADD SWAP1 POP SWAP2 SWAP1 POP JUMP JUMPDEST PUSH0 PUSH1 0x20 DUP3 ADD SWAP1 POP DUP2 DUP2 SUB PUSH0 DUP4 ADD MSTORE PUSH2 0x1018 DUP2 PUSH2 0xFDF JUMP JUMPDEST SWAP1 POP SWAP2 SWAP1 POP JUMP JUMPDEST PUSH0 DUP2 SWAP1 POP DUP2 PUSH0 MSTORE PUSH1 0x20 PUSH0 KECCAK256 SWAP1 POP SWAP2 SWAP1 POP JUMP JUMPDEST PUSH0 PUSH1 0x20 PUSH1 0x1F DUP4 ADD DIV SWAP1 POP SWAP2 SWAP1 POP JUMP JUMPDEST PUSH0 DUP3 DUP3 SHL SWAP1 POP SWAP3 SWAP2 POP POP JUMP JUMPDEST PUSH0 PUSH1 0x8 DUP4 MUL PUSH2 0x107B PUSH32 0xFFFFFFFFFFFFFFFFFFFFFFFFFFFFFFFFFFFFFFFFFFFFFFFFFFFFFFFFFFFFFFFF DUP3 PUSH2 0x1040 JUMP JUMPDEST PUSH2 0x1085 DUP7 DUP4 PUSH2 0x1040 JUMP JUMPDEST SWAP6 POP DUP1 NOT DUP5 AND SWAP4 POP DUP1 DUP7 AND DUP5 OR SWAP3 POP POP POP SWAP4 SWAP3 POP POP POP JUMP JUMPDEST PUSH0 PUSH2 0x10B7 PUSH2 0x10B2 PUSH2 0x10AD DUP5 PUSH2 0x7F1 JUMP JUMPDEST PUSH2 0xB82 JUMP JUMPDEST PUSH2 0x7F1 JUMP JUMPDEST SWAP1 POP SWAP2 SWAP1 POP JUMP JUMPDEST PUSH0 DUP2 SWAP1 POP SWAP2 SWAP1 POP JUMP JUMPDEST PUSH2 0x10D0 DUP4 PUSH2 0x109D JUMP JUMPDEST PUSH2 0x10E4 PUSH2 0x10DC DUP3 PUSH2 0x10BE JUMP JUMPDEST DUP5 DUP5 SLOAD PUSH2 0x104C JUMP JUMPDEST DUP3 SSTORE POP POP POP POP JUMP JUMPDEST PUSH0 PUSH0 SWAP1 POP SWAP1 JUMP JUMPDEST PUSH2 0x10FB PUSH2 0x10EC JUMP JUMPDEST PUSH2 0x1106 DUP2 DUP5 DUP5 PUSH2 0x10C7 JUMP JUMPDEST POP POP POP JUMP JUMPDEST PUSH0 JUMPDEST DUP3 DUP2 LT ISZERO PUSH2 0x112C JUMPI PUSH2 0x1121 PUSH0 DUP3 DUP5 ADD PUSH2 0x10F3 JUMP JUMPDEST PUSH1 0x1 DUP2 ADD SWAP1 POP PUSH2 0x110D JUMP JUMPDEST POP POP POP JUMP JUMPDEST PUSH1 0x1F DUP3 GT ISZERO PUSH2 0x117F JUMPI DUP3 DUP3 GT ISZERO PUSH2 0x117E JUMPI PUSH2 0x114B DUP2 PUSH2 0x101F JUMP JUMPDEST PUSH2 0x1154 DUP4 PUSH2 0x1031 JUMP JUMPDEST PUSH2 0x115D DUP6 PUSH2 0x1031 JUMP JUMPDEST PUSH1 0x20 DUP7 LT ISZERO PUSH2 0x116A JUMPI PUSH0 SWAP1 POP JUMPDEST DUP1 DUP4 ADD PUSH2 0x1179 DUP3 DUP5 SUB DUP3 PUSH2 0x110B JUMP JUMPDEST POP POP POP POP JUMPDEST JUMPDEST POP POP POP JUMP JUMPDEST PUSH0 DUP3 DUP3 SHR SWAP1 POP SWAP3 SWAP2 POP POP JUMP JUMPDEST PUSH0 PUSH2 0x119F PUSH0 NOT DUP5 PUSH1 0x8 MUL PUSH2 0x1184 JUMP JUMPDEST NOT DUP1 DUP4 AND SWAP2 POP POP SWAP3 SWAP2 POP POP JUMP JUMPDEST PUSH0 PUSH2 0x11B7 DUP4 DUP4 PUSH2 0x1190 JUMP JUMPDEST SWAP2 POP DUP3 PUSH1 0x2 MUL DUP3 OR SWAP1 POP SWAP3 SWAP2 POP POP JUMP JUMPDEST PUSH2 0x11D0 DUP3 PUSH2 0x84F JUMP JUMPDEST PUSH8 0xFFFFFFFFFFFFFFFF DUP2 GT ISZERO PUSH2 0x11E9 JUMPI PUSH2 0x11E8 PUSH2 0x93A JUMP JUMPDEST JUMPDEST PUSH2 0x11F3 DUP3 SLOAD PUSH2 0xEB7 JUMP JUMPDEST PUSH2 0x11FE DUP3 DUP3 DUP6 PUSH2 0x1131 JUMP JUMPDEST PUSH0 PUSH1 0x20 SWAP1 POP PUSH1 0x1F DUP4 GT PUSH1 0x1 DUP2 EQ PUSH2 0x122F JUMPI PUSH0 DUP5 ISZERO PUSH2 0x121D JUMPI DUP3 DUP8 ADD MLOAD SWAP1 POP JUMPDEST PUSH2 0x1227 DUP6 DUP3 PUSH2 0x11AC JUMP JUMPDEST DUP7 SSTORE POP PUSH2 0x128E JUMP JUMPDEST PUSH1 0x1F NOT DUP5 AND PUSH2 0x123D DUP7 PUSH2 0x101F JUMP JUMPDEST PUSH0 JUMPDEST DUP3 DUP2 LT ISZERO PUSH2 0x1264 JUMPI DUP5 DUP10 ADD MLOAD DUP3 SSTORE PUSH1 0x1 DUP3 ADD SWAP2 POP PUSH1 0x20 DUP6 ADD SWAP5 POP PUSH1 0x20 DUP2 ADD SWAP1 POP PUSH2 0x123F JUMP JUMPDEST DUP7 DUP4 LT ISZERO PUSH2 0x1281 JUMPI DUP5 DUP10 ADD MLOAD PUSH2 0x127D PUSH1 0x1F DUP10 AND DUP3 PUSH2 0x1190 JUMP JUMPDEST DUP4 SSTORE POP JUMPDEST PUSH1 0x1 PUSH1 0x2 DUP9 MUL ADD DUP9 SSTORE POP POP POP JUMPDEST POP POP POP POP POP POP JUMP INVALID LOG2 PUSH5 0x6970667358 0x22 SLT KECCAK256 PUSH13 0x8EB08A5EF9EA8B8F36478D60D9 SWAP10 NOT PUSH2 0x7F4F 0xC6 0xCB SLOAD PUSH27 0x52987781847FFB183B64736F6C6343000822003300000000000000 "
				},
				"gasEstimates": {
					"creation": {
						"codeDepositCost": "962400",
						"executionCost": "infinite",
						"totalCost": "infinite"
					},
					"external": {
						"createProposal(string,uint256)": "infinite",
						"executeProposal(uint256)": "33342",
						"getProposalsCount()": "2484",
						"governanceToken()": "infinite",
						"hasVoted(uint256,address)": "3092",
						"proposals(uint256)": "infinite",
						"vote(uint256)": "infinite"
					}
				},
				"methodIdentifiers": {
					"createProposal(string,uint256)": "35facf78",
					"executeProposal(uint256)": "0d61b519",
					"getProposalsCount()": "98e527d3",
					"governanceToken()": "f96dae0a",
					"hasVoted(uint256,address)": "43859632",
					"proposals(uint256)": "013cf08b",
					"vote(uint256)": "0121b93f"
				}
			},
			"storageLayout": {
				"storage": [
					{
						"astId": 83,
						"contract": "contracts/GovernanceDAO.sol:GovernanceDAO",
						"label": "governanceToken",
						"offset": 0,
						"slot": "0",
						"type": "t_contract(IERC20)77"
					},
					{
						"astId": 96,
						"contract": "contracts/GovernanceDAO.sol:GovernanceDAO",
						"label": "proposals",
						"offset": 0,
						"slot": "1",
						"type": "t_array(t_struct(Proposal)92_storage)dyn_storage"
					},
					{
						"astId": 102,
						"contract": "contracts/GovernanceDAO.sol:GovernanceDAO",
						"label": "hasVoted",
						"offset": 0,
						"slot": "2",
						"type": "t_mapping(t_uint256,t_mapping(t_address,t_bool))"
					}
				],
				"types": {
					"t_address": {
						"encoding": "inplace",
						"label": "address",
						"numberOfBytes": "20"
					},
					"t_array(t_struct(Proposal)92_storage)dyn_storage": {
						"base": "t_struct(Proposal)92_storage",
						"encoding": "dynamic_array",
						"label": "struct GovernanceDAO.Proposal[]",
						"numberOfBytes": "32"
					},
					"t_bool": {
						"encoding": "inplace",
						"label": "bool",
						"numberOfBytes": "1"
					},
					"t_contract(IERC20)77": {
						"encoding": "inplace",
						"label": "contract IERC20",
						"numberOfBytes": "20"
					},
					"t_mapping(t_address,t_bool)": {
						"encoding": "mapping",
						"key": "t_address",
						"label": "mapping(address => bool)",
						"numberOfBytes": "32",
						"value": "t_bool"
					},
					"t_mapping(t_uint256,t_mapping(t_address,t_bool))": {
						"encoding": "mapping",
						"key": "t_uint256",
						"label": "mapping(uint256 => mapping(address => bool))",
						"numberOfBytes": "32",
						"value": "t_mapping(t_address,t_bool)"
					},
					"t_string_storage": {
						"encoding": "bytes",
						"label": "string",
						"numberOfBytes": "32"
					},
					"t_struct(Proposal)92_storage": {
						"encoding": "inplace",
						"label": "struct GovernanceDAO.Proposal",
						"members": [
							{
								"astId": 85,
								"contract": "contracts/GovernanceDAO.sol:GovernanceDAO",
								"label": "description",
								"offset": 0,
								"slot": "0",
								"type": "t_string_storage"
							},
							{
								"astId": 87,
								"contract": "contracts/GovernanceDAO.sol:GovernanceDAO",
								"label": "voteCount",
								"offset": 0,
								"slot": "1",
								"type": "t_uint256"
							},
							{
								"astId": 89,
								"contract": "contracts/GovernanceDAO.sol:GovernanceDAO",
								"label": "deadline",
								"offset": 0,
								"slot": "2",
								"type": "t_uint256"
							},
							{
								"astId": 91,
								"contract": "contracts/GovernanceDAO.sol:GovernanceDAO",
								"label": "executed",
								"offset": 0,
								"slot": "3",
								"type": "t_bool"
							}
						],
						"numberOfBytes": "128"
					},
					"t_uint256": {
						"encoding": "inplace",
						"label": "uint256",
						"numberOfBytes": "32"
					}
				}
			},
			"userdoc": {
				"kind": "user",
				"methods": {},
				"version": 1
			}
		}
	}
}