{
	"data": {
		"bytecode": {
			"linkReferences": {},
			"object": "6080604052348015600e575f5ffd5b503360015f6101000a81548173ffffffffffffffffffffffffffffffffffffffff021916908373ffffffffffffffffffffffffffffffffffffffff1602179055506119138061005c5f395ff3fe608060405234801561000f575f5ffd5b506004361061009c575f3560e01c8063438596321161006457806343859632146101435780638da5cb5b1461017357806398e527d314610191578063c7f758a8146101af578063f96dae0a146101e25761009c565b80630121b93f146100a0578063013cf08b146100bc5780630d61b519146100ef578063144fa6d71461010b57806335facf7814610127575b5f5ffd5b6100ba60048036038101906100b59190610ca0565b610200565b005b6100d660048036038101906100d19190610ca0565b610537565b6040516100e69493929190610d64565b60405180910390f35b61010960048036038101906101049190610ca0565b610604565b005b61012560048036038101906101209190610e08565b610726565b005b610141600480360381019061013c9190610f5f565b6108f3565b005b61015d60048036038101906101589190610fb9565b610afd565b60405161016a9190610ff7565b60405180910390f35b61017b610b27565b604051610188919061101f565b60405180910390f35b610199610b4c565b6040516101a69190611038565b60405180910390f35b6101c960048036038101906101c49190610ca0565b610b58565b6040516101d99493929190610d64565b60405180910390f35b6101ea610c38565b6040516101f791906110ac565b60405180910390f35b5f73ffffffffffffffffffffffffffffffffffffffff165f5f9054906101000a900473ffffffffffffffffffffffffffffffffffffffff1673ffffffffffffffffffffffffffffffffffffffff160361028e576040517f08c379a00000000000000000000000000000000000000000000000000000000081526004016102859061110f565b60405180910390fd5b60028054905081106102d5576040517f08c379a00000000000000000000000000000000000000000000000000000000081526004016102cc90611177565b60405180910390fd5b5f600282815481106102ea576102e9611195565b5b905f5260205f20906004020190508060020154421061033e576040517f08c379a00000000000000000000000000000000000000000000000000000000081526004016103359061120c565b60405180910390fd5b60035f8381526020019081526020015f205f3373ffffffffffffffffffffffffffffffffffffffff1673ffffffffffffffffffffffffffffffffffffffff1681526020019081526020015f205f9054906101000a900460ff16156103d7576040517f08c379a00000000000000000000000000000000000000000000000000000000081526004016103ce90611274565b60405180910390fd5b5f5f5f9054906101000a900473ffffffffffffffffffffffffffffffffffffffff1673ffffffffffffffffffffffffffffffffffffffff166370a08231336040518263ffffffff1660e01b8152600401610431919061101f565b602060405180830381865afa15801561044c573d5f5f3e3d5ffd5b505050506040513d601f19601f8201168201806040525081019061047091906112a6565b90505f81116104b4576040517f08c379a00000000000000000000000000000000000000000000000000000000081526004016104ab9061131b565b60405180910390fd5b80826001015f8282546104c79190611366565b92505081905550600160035f8581526020019081526020015f205f3373ffffffffffffffffffffffffffffffffffffffff1673ffffffffffffffffffffffffffffffffffffffff1681526020019081526020015f205f6101000a81548160ff021916908315150217905550505050565b60028181548110610546575f80fd5b905f5260205f2090600402015f91509050805f018054610565906113c6565b80601f0160208091040260200160405190810160405280929190818152602001828054610591906113c6565b80156105dc5780601f106105b3576101008083540402835291602001916105dc565b820191905f5260205f20905b8154815290600101906020018083116105bf57829003601f168201915b505050505090806001015490806002015490806003015f9054906101000a900460ff16905084565b600280549050811061064b576040517f08c379a000000000000000000000000000000000000000000000000000000000815260040161064290611177565b60405180910390fd5b5f600282815481106106605761065f611195565b5b905f5260205f209060040201905080600201544210156106b5576040517f08c379a00000000000000000000000000000000000000000000000000000000081526004016106ac90611440565b60405180910390fd5b806003015f9054906101000a900460ff1615610706576040517f08c379a00000000000000000000000000000000000000000000000000000000081526004016106fd906114a8565b60405180910390fd5b6001816003015f6101000a81548160ff0219169083151502179055505050565b60015f9054906101000a900473ffffffffffffffffffffffffffffffffffffffff1673ffffffffffffffffffffffffffffffffffffffff163373ffffffffffffffffffffffffffffffffffffffff16146107b5576040517f08c379a00000000000000000000000000000000000000000000000000000000081526004016107ac90611510565b60405180910390fd5b5f73ffffffffffffffffffffffffffffffffffffffff165f5f9054906101000a900473ffffffffffffffffffffffffffffffffffffffff1673ffffffffffffffffffffffffffffffffffffffff1614610843576040517f08c379a000000000000000000000000000000000000000000000000000000000815260040161083a90611578565b60405180910390fd5b5f73ffffffffffffffffffffffffffffffffffffffff168173ffffffffffffffffffffffffffffffffffffffff16036108b1576040517f08c379a00000000000000000000000000000000000000000000000000000000081526004016108a8906115e0565b60405180910390fd5b805f5f6101000a81548173ffffffffffffffffffffffffffffffffffffffff021916908373ffffffffffffffffffffffffffffffffffffffff16021790555050565b5f73ffffffffffffffffffffffffffffffffffffffff165f5f9054906101000a900473ffffffffffffffffffffffffffffffffffffffff1673ffffffffffffffffffffffffffffffffffffffff1603610981576040517f08c379a00000000000000000000000000000000000000000000000000000000081526004016109789061110f565b60405180910390fd5b5f5f5f9054906101000a900473ffffffffffffffffffffffffffffffffffffffff1673ffffffffffffffffffffffffffffffffffffffff166370a08231336040518263ffffffff1660e01b81526004016109db919061101f565b602060405180830381865afa1580156109f6573d5f5f3e3d5ffd5b505050506040513d601f19601f82011682018060405250810190610a1a91906112a6565b11610a5a576040517f08c379a0000000000000000000000000000000000000000000000000000000008152600401610a5190611648565b60405180910390fd5b600260405180608001604052808481526020015f81526020018342610a7f9190611366565b81526020015f1515815250908060018154018082558091505060019003905f5260205f2090600402015f909190919091505f820151815f019081610ac3919061180e565b5060208201518160010155604082015181600201556060820151816003015f6101000a81548160ff02191690831515021790555050505050565b6003602052815f5260405f20602052805f5260405f205f915091509054906101000a900460ff1681565b60015f9054906101000a900473ffffffffffffffffffffffffffffffffffffffff1681565b5f600280549050905090565b60605f5f5f5f60028681548110610b7257610b71611195565b5b905f5260205f2090600402019050805f0181600101548260020154836003015f9054906101000a900460ff16838054610baa906113c6565b80601f0160208091040260200160405190810160405280929190818152602001828054610bd6906113c6565b8015610c215780601f10610bf857610100808354040283529160200191610c21565b820191905f5260205f20905b815481529060010190602001808311610c0457829003601f168201915b505050505093509450945094509450509193509193565b5f5f9054906101000a900473ffffffffffffffffffffffffffffffffffffffff1681565b5f604051905090565b5f5ffd5b5f5ffd5b5f819050919050565b610c7f81610c6d565b8114610c89575f5ffd5b50565b5f81359050610c9a81610c76565b92915050565b5f60208284031215610cb557610cb4610c65565b5b5f610cc284828501610c8c565b91505092915050565b5f81519050919050565b5f82825260208201905092915050565b8281835e5f83830152505050565b5f601f19601f8301169050919050565b5f610d0d82610ccb565b610d178185610cd5565b9350610d27818560208601610ce5565b610d3081610cf3565b840191505092915050565b610d4481610c6d565b82525050565b5f8115159050919050565b610d5e81610d4a565b82525050565b5f6080820190508181035f830152610d7c8187610d03565b9050610d8b6020830186610d3b565b610d986040830185610d3b565b610da56060830184610d55565b95945050505050565b5f73ffffffffffffffffffffffffffffffffffffffff82169050919050565b5f610dd782610dae565b9050919050565b610de781610dcd565b8114610df1575f5ffd5b50565b5f81359050610e0281610dde565b92915050565b5f60208284031215610e1d57610e1c610c65565b5b5f610e2a84828501610df4565b91505092915050565b5f5ffd5b5f5ffd5b7f4e487b71000000000000000000000000000000000000000000000000000000005f52604160045260245ffd5b610e7182610cf3565b810181811067ffffffffffffffff82111715610e9057610e8f610e3b565b5b80604052505050565b5f610ea2610c5c565b9050610eae8282610e68565b919050565b5f67ffffffffffffffff821115610ecd57610ecc610e3b565b5b610ed682610cf3565b9050602081019050919050565b828183375f83830152505050565b5f610f03610efe84610eb3565b610e99565b905082815260208101848484011115610f1f57610f1e610e37565b5b610f2a848285610ee3565b509392505050565b5f82601f830112610f4657610f45610e33565b5b8135610f56848260208601610ef1565b91505092915050565b5f5f60408385031215610f7557610f74610c65565b5b5f83013567ffffffffffffffff811115610f9257610f91610c69565b5b610f9e85828601610f32565b9250506020610faf85828601610c8c565b9150509250929050565b5f5f60408385031215610fcf57610fce610c65565b5b5f610fdc85828601610c8c565b9250506020610fed85828601610df4565b9150509250929050565b5f60208201905061100a5f830184610d55565b92915050565b61101981610dcd565b82525050565b5f6020820190506110325f830184611010565b92915050565b5f60208201905061104b5f830184610d3b565b92915050565b5f819050919050565b5f61107461106f61106a84610dae565b611051565b610dae565b9050919050565b5f6110858261105a565b9050919050565b5f6110968261107b565b9050919050565b6110a68161108c565b82525050565b5f6020820190506110bf5f83018461109d565b92915050565b7f546f6b656e206e616f20636f6e666967757261646f00000000000000000000005f82015250565b5f6110f9601583610cd5565b9150611104826110c5565b602082019050919050565b5f6020820190508181035f830152611126816110ed565b9050919050565b7f50726f706f73746120696e76616c6964610000000000000000000000000000005f82015250565b5f611161601183610cd5565b915061116c8261112d565b602082019050919050565b5f6020820190508181035f83015261118e81611155565b9050919050565b7f4e487b71000000000000000000000000000000000000000000000000000000005f52603260045260245ffd5b7f566f746163616f20656e636572726164610000000000000000000000000000005f82015250565b5f6111f6601183610cd5565b9150611201826111c2565b602082019050919050565b5f6020820190508181035f830152611223816111ea565b9050919050565b7f4a6120766f746f750000000000000000000000000000000000000000000000005f82015250565b5f61125e600883610cd5565b91506112698261122a565b602082019050919050565b5f6020820190508181035f83015261128b81611252565b9050919050565b5f815190506112a081610c76565b92915050565b5f602082840312156112bb576112ba610c65565b5b5f6112c884828501611292565b91505092915050565b7f53656d20706f64657220646520766f746f0000000000000000000000000000005f82015250565b5f611305601183610cd5565b9150611310826112d1565b602082019050919050565b5f6020820190508181035f830152611332816112f9565b9050919050565b7f4e487b71000000000000000000000000000000000000000000000000000000005f52601160045260245ffd5b5f61137082610c6d565b915061137b83610c6d565b925082820190508082111561139357611392611339565b5b92915050565b7f4e487b71000000000000000000000000000000000000000000000000000000005f52602260045260245ffd5b5f60028204905060018216806113dd57607f821691505b6020821081036113f0576113ef611399565b5b50919050565b7f566f746163616f2061696e6461206174697661000000000000000000000000005f82015250565b5f61142a601383610cd5565b9150611435826113f6565b602082019050919050565b5f6020820190508181035f8301526114578161141e565b9050919050565b7f4a612065786563757461646100000000000000000000000000000000000000005f82015250565b5f611492600c83610cd5565b915061149d8261145e565b602082019050919050565b5f6020820190508181035f8301526114bf81611486565b9050919050565b7f4170656e6173206f206f776e657220706f6465206578656375746172000000005f82015250565b5f6114fa601c83610cd5565b9150611505826114c6565b602082019050919050565b5f6020820190508181035f830152611527816114ee565b9050919050565b7f546f6b656e206a6120646566696e69646f0000000000000000000000000000005f82015250565b5f611562601183610cd5565b915061156d8261152e565b602082019050919050565b5f6020820190508181035f83015261158f81611556565b9050919050565b7f456e64657265636f20696e76616c69646f0000000000000000000000000000005f82015250565b5f6115ca601183610cd5565b91506115d582611596565b602082019050919050565b5f6020820190508181035f8301526115f7816115be565b9050919050565b7f53656d20746f6b656e20706172612070726f706f7200000000000000000000005f82015250565b5f611632601583610cd5565b915061163d826115fe565b602082019050919050565b5f6020820190508181035f83015261165f81611626565b9050919050565b5f819050815f5260205f209050919050565b5f6020601f8301049050919050565b5f82821b905092915050565b5f600883026116c27fffffffffffffffffffffffffffffffffffffffffffffffffffffffffffffffff82611687565b6116cc8683611687565b95508019841693508086168417925050509392505050565b5f6116fe6116f96116f484610c6d565b611051565b610c6d565b9050919050565b5f819050919050565b611717836116e4565b61172b61172382611705565b848454611693565b825550505050565b5f5f905090565b611742611733565b61174d81848461170e565b505050565b5f5b82811015611773576117685f82840161173a565b600181019050611754565b505050565b601f8211156117c657828211156117c55761179281611666565b61179b83611678565b6117a485611678565b60208610156117b1575f90505b8083016117c082840382611752565b505050505b5b505050565b5f82821c905092915050565b5f6117e65f19846008026117cb565b1980831691505092915050565b5f6117fe83836117d7565b9150826002028217905092915050565b61181782610ccb565b67ffffffffffffffff8111156118305761182f610e3b565b5b61183a82546113c6565b611845828285611778565b5f60209050601f831160018114611876575f8415611864578287015190505b61186e85826117f3565b8655506118d5565b601f19841661188486611666565b5f5b828110156118ab57848901518255600182019150602085019450602081019050611886565b868310156118c857848901516118c4601f8916826117d7565b8355505b6001600288020188555050505b50505050505056fea2646970667358221220042c839869af691da8febea915b25be4a6038df2ee1b1815ce02609d26e8147164736f6c63430008220033",
			"opcodes": "PUSH1 0x80 PUSH1 0x40 MSTORE CALLVALUE DUP1 ISZERO PUSH1 0xE JUMPI PUSH0 PUSH0 REVERT JUMPDEST POP CALLER PUSH1 0x1 PUSH0 PUSH2 0x100 EXP DUP2 SLOAD DUP2 PUSH20 0xFFFFFFFFFFFFFFFFFFFFFFFFFFFFFFFFFFFFFFFF MUL NOT AND SWAP1 DUP4 PUSH20 0xFFFFFFFFFFFFFFFFFFFFFFFFFFFFFFFFFFFFFFFF AND MUL OR SWAP1 SSTORE POP PUSH2 0x1913 DUP1 PUSH2 0x5C PUSH0 CODECOPY PUSH0 RETURN INVALID PUSH1 0x80 PUSH1 0x40 MSTORE CALLVALUE DUP1 ISZERO PUSH2 0xF JUMPI PUSH0 PUSH0 REVERT JUMPDEST POP PUSH1 0x4 CALLDATASIZE LT PUSH2 0x9C JUMPI PUSH0 CALLDATALOAD PUSH1 0xE0 SHR DUP1 PUSH4 0x43859632 GT PUSH2 0x64 JUMPI DUP1 PUSH4 0x43859632 EQ PUSH2 0x143 JUMPI DUP1 PUSH4 0x8DA5CB5B EQ PUSH2 0x173 JUMPI DUP1 PUSH4 0x98E527D3 EQ PUSH2 0x191 JUMPI DUP1 PUSH4 0xC7F758A8 EQ PUSH2 0x1AF JUMPI DUP1 PUSH4 0xF96DAE0A EQ PUSH2 0x1E2 JUMPI PUSH2 0x9C JUMP JUMPDEST DUP1 PUSH4 0x121B93F EQ PUSH2 0xA0 JUMPI DUP1 PUSH4 0x13CF08B EQ PUSH2 0xBC JUMPI DUP1 PUSH4 0xD61B519 EQ PUSH2 0xEF JUMPI DUP1 PUSH4 0x144FA6D7 EQ PUSH2 0x10B JUMPI DUP1 PUSH4 0x35FACF78 EQ PUSH2 0x127 JUMPI JUMPDEST PUSH0 PUSH0 REVERT JUMPDEST PUSH2 0xBA PUSH1 0x4 DUP1 CALLDATASIZE SUB DUP2 ADD SWAP1 PUSH2 0xB5 SWAP2 SWAP1 PUSH2 0xCA0 JUMP JUMPDEST PUSH2 0x200 JUMP JUMPDEST STOP JUMPDEST PUSH2 0xD6 PUSH1 0x4 DUP1 CALLDATASIZE SUB DUP2 ADD SWAP1 PUSH2 0xD1 SWAP2 SWAP1 PUSH2 0xCA0 JUMP JUMPDEST PUSH2 0x537 JUMP JUMPDEST PUSH1 0x40 MLOAD PUSH2 0xE6 SWAP5 SWAP4 SWAP3 SWAP2 SWAP1 PUSH2 0xD64 JUMP JUMPDEST PUSH1 0x40 MLOAD DUP1 SWAP2 SUB SWAP1 RETURN JUMPDEST PUSH2 0x109 PUSH1 0x4 DUP1 CALLDATASIZE SUB DUP2 ADD SWAP1 PUSH2 0x104 SWAP2 SWAP1 PUSH2 0xCA0 JUMP JUMPDEST PUSH2 0x604 JUMP JUMPDEST STOP JUMPDEST PUSH2 0x125 PUSH1 0x4 DUP1 CALLDATASIZE SUB DUP2 ADD SWAP1 PUSH2 0x120 SWAP2 SWAP1 PUSH2 0xE08 JUMP JUMPDEST PUSH2 0x726 JUMP JUMPDEST STOP JUMPDEST PUSH2 0x141 PUSH1 0x4 DUP1 CALLDATASIZE SUB DUP2 ADD SWAP1 PUSH2 0x13C SWAP2 SWAP1 PUSH2 0xF5F JUMP JUMPDEST PUSH2 0x8F3 JUMP JUMPDEST STOP JUMPDEST PUSH2 0x15D PUSH1 0x4 DUP1 CALLDATASIZE SUB DUP2 ADD SWAP1 PUSH2 0x158 SWAP2 SWAP1 PUSH2 0xFB9 JUMP JUMPDEST PUSH2 0xAFD JUMP JUMPDEST PUSH1 0x40 MLOAD PUSH2 0x16A SWAP2 SWAP1 PUSH2 0xFF7 JUMP JUMPDEST PUSH1 0x40 MLOAD DUP1 SWAP2 SUB SWAP1 RETURN JUMPDEST PUSH2 0x17B PUSH2 0xB27 JUMP JUMPDEST PUSH1 0x40 MLOAD PUSH2 0x188 SWAP2 SWAP1 PUSH2 0x101F JUMP JUMPDEST PUSH1 0x40 MLOAD DUP1 SWAP2 SUB SWAP1 RETURN JUMPDEST PUSH2 0x199 PUSH2 0xB4C JUMP JUMPDEST PUSH1 0x40 MLOAD PUSH2 0x1A6 SWAP2 SWAP1 PUSH2 0x1038 JUMP JUMPDEST PUSH1 0x40 MLOAD DUP1 SWAP2 SUB SWAP1 RETURN JUMPDEST PUSH2 0x1C9 PUSH1 0x4 DUP1 CALLDATASIZE SUB DUP2 ADD SWAP1 PUSH2 0x1C4 SWAP2 SWAP1 PUSH2 0xCA0 JUMP JUMPDEST PUSH2 0xB58 JUMP JUMPDEST PUSH1 0x40 MLOAD PUSH2 0x1D9 SWAP5 SWAP4 SWAP3 SWAP2 SWAP1 PUSH2 0xD64 JUMP JUMPDEST PUSH1 0x40 MLOAD DUP1 SWAP2 SUB SWAP1 RETURN JUMPDEST PUSH2 0x1EA PUSH2 0xC38 JUMP JUMPDEST PUSH1 0x40 MLOAD PUSH2 0x1F7 SWAP2 SWAP1 PUSH2 0x10AC JUMP JUMPDEST PUSH1 0x40 MLOAD DUP1 SWAP2 SUB SWAP1 RETURN JUMPDEST PUSH0 PUSH20 0xFFFFFFFFFFFFFFFFFFFFFFFFFFFFFFFFFFFFFFFF AND PUSH0 PUSH0 SWAP1 SLOAD SWAP1 PUSH2 0x100 EXP SWAP1 DIV PUSH20 0xFFFFFFFFFFFFFFFFFFFFFFFFFFFFFFFFFFFFFFFF AND PUSH20 0xFFFFFFFFFFFFFFFFFFFFFFFFFFFFFFFFFFFFFFFF AND SUB PUSH2 0x28E JUMPI PUSH1 0x40 MLOAD PUSH32 0x8C379A000000000000000000000000000000000000000000000000000000000 DUP2 MSTORE PUSH1 0x4 ADD PUSH2 0x285 SWAP1 PUSH2 0x110F JUMP JUMPDEST PUSH1 0x40 MLOAD DUP1 SWAP2 SUB SWAP1 REVERT JUMPDEST PUSH1 0x2 DUP1 SLOAD SWAP1 POP DUP2 LT PUSH2 0x2D5 JUMPI PUSH1 0x40 MLOAD PUSH32 0x8C379A000000000000000000000000000000000000000000000000000000000 DUP2 MSTORE PUSH1 0x4 ADD PUSH2 0x2CC SWAP1 PUSH2 0x1177 JUMP JUMPDEST PUSH1 0x40 MLOAD DUP1 SWAP2 SUB SWAP1 REVERT JUMPDEST PUSH0 PUSH1 0x2 DUP3 DUP2 SLOAD DUP2 LT PUSH2 0x2EA JUMPI PUSH2 0x2E9 PUSH2 0x1195 JUMP JUMPDEST JUMPDEST SWAP1 PUSH0 MSTORE PUSH1 0x20 PUSH0 KECCAK256 SWAP1 PUSH1 0x4 MUL ADD SWAP1 POP DUP1 PUSH1 0x2 ADD SLOAD TIMESTAMP LT PUSH2 0x33E JUMPI PUSH1 0x40 MLOAD PUSH32 0x8C379A000000000000000000000000000000000000000000000000000000000 DUP2 MSTORE PUSH1 0x4 ADD PUSH2 0x335 SWAP1 PUSH2 0x120C JUMP JUMPDEST PUSH1 0x40 MLOAD DUP1 SWAP2 SUB SWAP1 REVERT JUMPDEST PUSH1 0x3 PUSH0 DUP4 DUP2 MSTORE PUSH1 0x20 ADD SWAP1 DUP2 MSTORE PUSH1 0x20 ADD PUSH0 KECCAK256 PUSH0 CALLER PUSH20 0xFFFFFFFFFFFFFFFFFFFFFFFFFFFFFFFFFFFFFFFF AND PUSH20 0xFFFFFFFFFFFFFFFFFFFFFFFFFFFFFFFFFFFFFFFF AND DUP2 MSTORE PUSH1 0x20 ADD SWAP1 DUP2 MSTORE PUSH1 0x20 ADD PUSH0 KECCAK256 PUSH0 SWAP1 SLOAD SWAP1 PUSH2 0x100 EXP SWAP1 DIV PUSH1 0xFF AND ISZERO PUSH2 0x3D7 JUMPI PUSH1 0x40 MLOAD PUSH32 0x8C379A000000000000000000000000000000000000000000000000000000000 DUP2 MSTORE PUSH1 0x4 ADD PUSH2 0x3CE SWAP1 PUSH2 0x1274 JUMP JUMPDEST PUSH1 0x40 MLOAD DUP1 SWAP2 SUB SWAP1 REVERT JUMPDEST PUSH0 PUSH0 PUSH0 SWAP1 SLOAD SWAP1 PUSH2 0x100 EXP SWAP1 DIV PUSH20 0xFFFFFFFFFFFFFFFFFFFFFFFFFFFFFFFFFFFFFFFF AND PUSH20 0xFFFFFFFFFFFFFFFFFFFFFFFFFFFFFFFFFFFFFFFF AND PUSH4 0x70A08231 CALLER PUSH1 0x40 MLOAD DUP3 PUSH4 0xFFFFFFFF AND PUSH1 0xE0 SHL DUP2 MSTORE PUSH1 0x4 ADD PUSH2 0x431 SWAP2 SWAP1 PUSH2 0x101F JUMP JUMPDEST PUSH1 0x20 PUSH1 0x40 MLOAD DUP1 DUP4 SUB DUP2 DUP7 GAS STATICCALL ISZERO DUP1 ISZERO PUSH2 0x44C JUMPI RETURNDATASIZE PUSH0 PUSH0 RETURNDATACOPY RETURNDATASIZE PUSH0 REVERT JUMPDEST POP POP POP POP PUSH1 0x40 MLOAD RETURNDATASIZE PUSH1 0x1F NOT PUSH1 0x1F DUP3 ADD AND DUP3 ADD DUP1 PUSH1 0x40 MSTORE POP DUP2 ADD SWAP1 PUSH2 0x470 SWAP2 SWAP1 PUSH2 0x12A6 JUMP JUMPDEST SWAP1 POP PUSH0 DUP2 GT PUSH2 0x4B4 JUMPI PUSH1 0x40 MLOAD PUSH32 0x8C379A000000000000000000000000000000000000000000000000000000000 DUP2 MSTORE PUSH1 0x4 ADD PUSH2 0x4AB SWAP1 PUSH2 0x131B JUMP JUMPDEST PUSH1 0x40 MLOAD DUP1 SWAP2 SUB SWAP1 REVERT JUMPDEST DUP1 DUP3 PUSH1 0x1 ADD PUSH0 DUP3 DUP3 SLOAD PUSH2 0x4C7 SWAP2 SWAP1 PUSH2 0x1366 JUMP JUMPDEST SWAP3 POP POP DUP2 SWAP1 SSTORE POP PUSH1 0x1 PUSH1 0x3 PUSH0 DUP6 DUP2 MSTORE PUSH1 0x20 ADD SWAP1 DUP2 MSTORE PUSH1 0x20 ADD PUSH0 KECCAK256 PUSH0 CALLER PUSH20 0xFFFFFFFFFFFFFFFFFFFFFFFFFFFFFFFFFFFFFFFF AND PUSH20 0xFFFFFFFFFFFFFFFFFFFFFFFFFFFFFFFFFFFFFFFF AND DUP2 MSTORE PUSH1 0x20 ADD SWAP1 DUP2 MSTORE PUSH1 0x20 ADD PUSH0 KECCAK256 PUSH0 PUSH2 0x100 EXP DUP2 SLOAD DUP2 PUSH1 0xFF MUL NOT AND SWAP1 DUP4 ISZERO ISZERO MUL OR SWAP1 SSTORE POP POP POP POP JUMP JUMPDEST PUSH1 0x2 DUP2 DUP2 SLOAD DUP2 LT PUSH2 0x546 JUMPI PUSH0 DUP1 REVERT JUMPDEST SWAP1 PUSH0 MSTORE PUSH1 0x20 PUSH0 KECCAK256 SWAP1 PUSH1 0x4 MUL ADD PUSH0 SWAP2 POP SWAP1 POP DUP1 PUSH0 ADD DUP1 SLOAD PUSH2 0x565 SWAP1 PUSH2 0x13C6 JUMP JUMPDEST DUP1 PUSH1 0x1F ADD PUSH1 0x20 DUP1 SWAP2 DIV MUL PUSH1 0x20 ADD PUSH1 0x40 MLOAD SWAP1 DUP2 ADD PUSH1 0x40 MSTORE DUP1 SWAP3 SWAP2 SWAP1 DUP2 DUP2 MSTORE PUSH1 0x20 ADD DUP3 DUP1 SLOAD PUSH2 0x591 SWAP1 PUSH2 0x13C6 JUMP JUMPDEST DUP1 ISZERO PUSH2 0x5DC JUMPI DUP1 PUSH1 0x1F LT PUSH2 0x5B3 JUMPI PUSH2 0x100 DUP1 DUP4 SLOAD DIV MUL DUP4 MSTORE SWAP2 PUSH1 0x20 ADD SWAP2 PUSH2 0x5DC JUMP JUMPDEST DUP3 ADD SWAP2 SWAP1 PUSH0 MSTORE PUSH1 0x20 PUSH0 KECCAK256 SWAP1 JUMPDEST DUP2 SLOAD DUP2 MSTORE SWAP1 PUSH1 0x1 ADD SWAP1 PUSH1 0x20 ADD DUP1 DUP4 GT PUSH2 0x5BF JUMPI DUP3 SWAP1 SUB PUSH1 0x1F AND DUP3 ADD SWAP2 JUMPDEST POP POP POP POP POP SWAP1 DUP1 PUSH1 0x1 ADD SLOAD SWAP1 DUP1 PUSH1 0x2 ADD SLOAD SWAP1 DUP1 PUSH1 0x3 ADD PUSH0 SWAP1 SLOAD SWAP1 PUSH2 0x100 EXP SWAP1 DIV PUSH1 0xFF AND SWAP1 POP DUP5 JUMP JUMPDEST PUSH1 0x2 DUP1 SLOAD SWAP1 POP DUP2 LT PUSH2 0x64B JUMPI PUSH1 0x40 MLOAD PUSH32 0x8C379A000000000000000000000000000000000000000000000000000000000 DUP2 MSTORE PUSH1 0x4 ADD PUSH2 0x642 SWAP1 PUSH2 0x1177 JUMP JUMPDEST PUSH1 0x40 MLOAD DUP1 SWAP2 SUB SWAP1 REVERT JUMPDEST PUSH0 PUSH1 0x2 DUP3 DUP2 SLOAD DUP2 LT PUSH2 0x660 JUMPI PUSH2 0x65F PUSH2 0x1195 JUMP JUMPDEST JUMPDEST SWAP1 PUSH0 MSTORE PUSH1 0x20 PUSH0 KECCAK256 SWAP1 PUSH1 0x4 MUL ADD SWAP1 POP DUP1 PUSH1 0x2 ADD SLOAD TIMESTAMP LT ISZERO PUSH2 0x6B5 JUMPI PUSH1 0x40 MLOAD PUSH32 0x8C379A000000000000000000000000000000000000000000000000000000000 DUP2 MSTORE PUSH1 0x4 ADD PUSH2 0x6AC SWAP1 PUSH2 0x1440 JUMP JUMPDEST PUSH1 0x40 MLOAD DUP1 SWAP2 SUB SWAP1 REVERT JUMPDEST DUP1 PUSH1 0x3 ADD PUSH0 SWAP1 SLOAD SWAP1 PUSH2 0x100 EXP SWAP1 DIV PUSH1 0xFF AND ISZERO PUSH2 0x706 JUMPI PUSH1 0x40 MLOAD PUSH32 0x8C379A000000000000000000000000000000000000000000000000000000000 DUP2 MSTORE PUSH1 0x4 ADD PUSH2 0x6FD SWAP1 PUSH2 0x14A8 JUMP JUMPDEST PUSH1 0x40 MLOAD DUP1 SWAP2 SUB SWAP1 REVERT JUMPDEST PUSH1 0x1 DUP2 PUSH1 0x3 ADD PUSH0 PUSH2 0x100 EXP DUP2 SLOAD DUP2 PUSH1 0xFF MUL NOT AND SWAP1 DUP4 ISZERO ISZERO MUL OR SWAP1 SSTORE POP POP POP JUMP JUMPDEST PUSH1 0x1 PUSH0 SWAP1 SLOAD SWAP1 PUSH2 0x100 EXP SWAP1 DIV PUSH20 0xFFFFFFFFFFFFFFFFFFFFFFFFFFFFFFFFFFFFFFFF AND PUSH20 0xFFFFFFFFFFFFFFFFFFFFFFFFFFFFFFFFFFFFFFFF AND CALLER PUSH20 0xFFFFFFFFFFFFFFFFFFFFFFFFFFFFFFFFFFFFFFFF AND EQ PUSH2 0x7B5 JUMPI PUSH1 0x40 MLOAD PUSH32 0x8C379A000000000000000000000000000000000000000000000000000000000 DUP2 MSTORE PUSH1 0x4 ADD PUSH2 0x7AC SWAP1 PUSH2 0x1510 JUMP JUMPDEST PUSH1 0x40 MLOAD DUP1 SWAP2 SUB SWAP1 REVERT JUMPDEST PUSH0 PUSH20 0xFFFFFFFFFFFFFFFFFFFFFFFFFFFFFFFFFFFFFFFF AND PUSH0 PUSH0 SWAP1 SLOAD SWAP1 PUSH2 0x100 EXP SWAP1 DIV PUSH20 0xFFFFFFFFFFFFFFFFFFFFFFFFFFFFFFFFFFFFFFFF AND PUSH20 0xFFFFFFFFFFFFFFFFFFFFFFFFFFFFFFFFFFFFFFFF AND EQ PUSH2 0x843 JUMPI PUSH1 0x40 MLOAD PUSH32 0x8C379A000000000000000000000000000000000000000000000000000000000 DUP2 MSTORE PUSH1 0x4 ADD PUSH2 0x83A SWAP1 PUSH2 0x1578 JUMP JUMPDEST PUSH1 0x40 MLOAD DUP1 SWAP2 SUB SWAP1 REVERT JUMPDEST PUSH0 PUSH20 0xFFFFFFFFFFFFFFFFFFFFFFFFFFFFFFFFFFFFFFFF AND DUP2 PUSH20 0xFFFFFFFFFFFFFFFFFFFFFFFFFFFFFFFFFFFFFFFF AND SUB PUSH2 0x8B1 JUMPI PUSH1 0x40 MLOAD PUSH32 0x8C379A000000000000000000000000000000000000000000000000000000000 DUP2 MSTORE PUSH1 0x4 ADD PUSH2 0x8A8 SWAP1 PUSH2 0x15E0 JUMP JUMPDEST PUSH1 0x40 MLOAD DUP1 SWAP2 SUB SWAP1 REVERT JUMPDEST DUP1 PUSH0 PUSH0 PUSH2 0x100 EXP DUP2 SLOAD DUP2 PUSH20 0xFFFFFFFFFFFFFFFFFFFFFFFFFFFFFFFFFFFFFFFF MUL NOT AND SWAP1 DUP4 PUSH20 0xFFFFFFFFFFFFFFFFFFFFFFFFFFFFFFFFFFFFFFFF AND MUL OR SWAP1 SSTORE POP POP JUMP JUMPDEST PUSH0 PUSH20 0xFFFFFFFFFFFFFFFFFFFFFFFFFFFFFFFFFFFFFFFF AND PUSH0 PUSH0 SWAP1 SLOAD SWAP1 PUSH2 0x100 EXP SWAP1 DIV PUSH20 0xFFFFFFFFFFFFFFFFFFFFFFFFFFFFFFFFFFFFFFFF AND PUSH20 0xFFFFFFFFFFFFFFFFFFFFFFFFFFFFFFFFFFFFFFFF AND SUB PUSH2 0x981 JUMPI PUSH1 0x40 MLOAD PUSH32 0x8C379A000000000000000000000000000000000000000000000000000000000 DUP2 MSTORE PUSH1 0x4 ADD PUSH2 0x978 SWAP1 PUSH2 0x110F JUMP JUMPDEST PUSH1 0x40 MLOAD DUP1 SWAP2 SUB SWAP1 REVERT JUMPDEST PUSH0 PUSH0 PUSH0 SWAP1 SLOAD SWAP1 PUSH2 0x100 EXP SWAP1 DIV PUSH20 0xFFFFFFFFFFFFFFFFFFFFFFFFFFFFFFFFFFFFFFFF AND PUSH20 0xFFFFFFFFFFFFFFFFFFFFFFFFFFFFFFFFFFFFFFFF AND PUSH4 0x70A08231 CALLER PUSH1 0x40 MLOAD DUP3 PUSH4 0xFFFFFFFF AND PUSH1 0xE0 SHL DUP2 MSTORE PUSH1 0x4 ADD PUSH2 0x9DB SWAP2 SWAP1 PUSH2 0x101F JUMP JUMPDEST PUSH1 0x20 PUSH1 0x40 MLOAD DUP1 DUP4 SUB DUP2 DUP7 GAS STATICCALL ISZERO DUP1 ISZERO PUSH2 0x9F6 JUMPI RETURNDATASIZE PUSH0 PUSH0 RETURNDATACOPY RETURNDATASIZE PUSH0 REVERT JUMPDEST POP POP POP POP PUSH1 0x40 MLOAD RETURNDATASIZE PUSH1 0x1F NOT PUSH1 0x1F DUP3 ADD AND DUP3 ADD DUP1 PUSH1 0x40 MSTORE POP DUP2 ADD SWAP1 PUSH2 0xA1A SWAP2 SWAP1 PUSH2 0x12A6 JUMP JUMPDEST GT PUSH2 0xA5A JUMPI PUSH1 0x40 MLOAD PUSH32 0x8C379A000000000000000000000000000000000000000000000000000000000 DUP2 MSTORE PUSH1 0x4 ADD PUSH2 0xA51 SWAP1 PUSH2 0x1648 JUMP JUMPDEST PUSH1 0x40 MLOAD DUP1 SWAP2 SUB SWAP1 REVERT JUMPDEST PUSH1 0x2 PUSH1 0x40 MLOAD DUP1 PUSH1 0x80 ADD PUSH1 0x40 MSTORE DUP1 DUP5 DUP2 MSTORE PUSH1 0x20 ADD PUSH0 DUP2 MSTORE PUSH1 0x20 ADD DUP4 TIMESTAMP PUSH2 0xA7F SWAP2 SWAP1 PUSH2 0x1366 JUMP JUMPDEST DUP2 MSTORE PUSH1 0x20 ADD PUSH0 ISZERO ISZERO DUP2 MSTORE POP SWAP1 DUP1 PUSH1 0x1 DUP2 SLOAD ADD DUP1 DUP3 SSTORE DUP1 SWAP2 POP POP PUSH1 0x1 SWAP1 SUB SWAP1 PUSH0 MSTORE PUSH1 0x20 PUSH0 KECCAK256 SWAP1 PUSH1 0x4 MUL ADD PUSH0 SWAP1 SWAP2 SWAP1 SWAP2 SWAP1 SWAP2 POP PUSH0 DUP3 ADD MLOAD DUP2 PUSH0 ADD SWAP1 DUP2 PUSH2 0xAC3 SWAP2 SWAP1 PUSH2 0x180E JUMP JUMPDEST POP PUSH1 0x20 DUP3 ADD MLOAD DUP2 PUSH1 0x1 ADD SSTORE PUSH1 0x40 DUP3 ADD MLOAD DUP2 PUSH1 0x2 ADD SSTORE PUSH1 0x60 DUP3 ADD MLOAD DUP2 PUSH1 0x3 ADD PUSH0 PUSH2 0x100 EXP DUP2 SLOAD DUP2 PUSH1 0xFF MUL NOT AND SWAP1 DUP4 ISZERO ISZERO MUL OR SWAP1 SSTORE POP POP POP POP POP JUMP JUMPDEST PUSH1 0x3 PUSH1 0x20 MSTORE DUP2 PUSH0 MSTORE PUSH1 0x40 PUSH0 KECCAK256 PUSH1 0x20 MSTORE DUP1 PUSH0 MSTORE PUSH1 0x40 PUSH0 KECCAK256 PUSH0 SWAP2 POP SWAP2 POP SWAP1 SLOAD SWAP1 PUSH2 0x100 EXP SWAP1 DIV PUSH1 0xFF AND DUP2 JUMP JUMPDEST PUSH1 0x1 PUSH0 SWAP1 SLOAD SWAP1 PUSH2 0x100 EXP SWAP1 DIV PUSH20 0xFFFFFFFFFFFFFFFFFFFFFFFFFFFFFFFFFFFFFFFF AND DUP2 JUMP JUMPDEST PUSH0 PUSH1 0x2 DUP1 SLOAD SWAP1 POP SWAP1 POP SWAP1 JUMP JUMPDEST PUSH1 0x60 PUSH0 PUSH0 PUSH0 PUSH0 PUSH1 0x2 DUP7 DUP2 SLOAD DUP2 LT PUSH2 0xB72 JUMPI PUSH2 0xB71 PUSH2 0x1195 JUMP JUMPDEST JUMPDEST SWAP1 PUSH0 MSTORE PUSH1 0x20 PUSH0 KECCAK256 SWAP1 PUSH1 0x4 MUL ADD SWAP1 POP DUP1 PUSH0 ADD DUP2 PUSH1 0x1 ADD SLOAD DUP3 PUSH1 0x2 ADD SLOAD DUP4 PUSH1 0x3 ADD PUSH0 SWAP1 SLOAD SWAP1 PUSH2 0x100 EXP SWAP1 DIV PUSH1 0xFF AND DUP4 DUP1 SLOAD PUSH2 0xBAA SWAP1 PUSH2 0x13C6 JUMP JUMPDEST DUP1 PUSH1 0x1F ADD PUSH1 0x20 DUP1 SWAP2 DIV MUL PUSH1 0x20 ADD PUSH1 0x40 MLOAD SWAP1 DUP2 ADD PUSH1 0x40 MSTORE DUP1 SWAP3 SWAP2 SWAP1 DUP2 DUP2 MSTORE PUSH1 0x20 ADD DUP3 DUP1 SLOAD PUSH2 0xBD6 SWAP1 PUSH2 0x13C6 JUMP JUMPDEST DUP1 ISZERO PUSH2 0xC21 JUMPI DUP1 PUSH1 0x1F LT PUSH2 0xBF8 JUMPI PUSH2 0x100 DUP1 DUP4 SLOAD DIV MUL DUP4 MSTORE SWAP2 PUSH1 0x20 ADD SWAP2 PUSH2 0xC21 JUMP JUMPDEST DUP3 ADD SWAP2 SWAP1 PUSH0 MSTORE PUSH1 0x20 PUSH0 KECCAK256 SWAP1 JUMPDEST DUP2 SLOAD DUP2 MSTORE SWAP1 PUSH1 0x1 ADD SWAP1 PUSH1 0x20 ADD DUP1 DUP4 GT PUSH2 0xC04 JUMPI DUP3 SWAP1 SUB PUSH1 0x1F AND DUP3 ADD SWAP2 JUMPDEST POP POP POP POP POP SWAP4 POP SWAP5 POP SWAP5 POP SWAP5 POP SWAP5 POP POP SWAP2 SWAP4 POP SWAP2 SWAP4 JUMP JUMPDEST PUSH0 PUSH0 SWAP1 SLOAD SWAP1 PUSH2 0x100 EXP SWAP1 DIV PUSH20 0xFFFFFFFFFFFFFFFFFFFFFFFFFFFFFFFFFFFFFFFF AND DUP2 JUMP JUMPDEST PUSH0 PUSH1 0x40 MLOAD SWAP1 POP SWAP1 JUMP JUMPDEST PUSH0 PUSH0 REVERT JUMPDEST PUSH0 PUSH0 REVERT JUMPDEST PUSH0 DUP2 SWAP1 POP SWAP2 SWAP1 POP JUMP JUMPDEST PUSH2 0xC7F DUP2 PUSH2 0xC6D JUMP JUMPDEST DUP2 EQ PUSH2 0xC89 JUMPI PUSH0 PUSH0 REVERT JUMPDEST POP JUMP JUMPDEST PUSH0 DUP2 CALLDATALOAD SWAP1 POP PUSH2 0xC9A DUP2 PUSH2 0xC76 JUMP JUMPDEST SWAP3 SWAP2 POP POP JUMP JUMPDEST PUSH0 PUSH1 0x20 DUP3 DUP5 SUB SLT ISZERO PUSH2 0xCB5 JUMPI PUSH2 0xCB4 PUSH2 0xC65 JUMP JUMPDEST JUMPDEST PUSH0 PUSH2 0xCC2 DUP5 DUP3 DUP6 ADD PUSH2 0xC8C JUMP JUMPDEST SWAP2 POP POP SWAP3 SWAP2 POP POP JUMP JUMPDEST PUSH0 DUP2 MLOAD SWAP1 POP SWAP2 SWAP1 POP JUMP JUMPDEST PUSH0 DUP3 DUP3 MSTORE PUSH1 0x20 DUP3 ADD SWAP1 POP SWAP3 SWAP2 POP POP JUMP JUMPDEST DUP3 DUP2 DUP4 MCOPY PUSH0 DUP4 DUP4 ADD MSTORE POP POP POP JUMP JUMPDEST PUSH0 PUSH1 0x1F NOT PUSH1 0x1F DUP4 ADD AND SWAP1 POP SWAP2 SWAP1 POP JUMP JUMPDEST PUSH0 PUSH2 0xD0D DUP3 PUSH2 0xCCB JUMP JUMPDEST PUSH2 0xD17 DUP2 DUP6 PUSH2 0xCD5 JUMP JUMPDEST SWAP4 POP PUSH2 0xD27 DUP2 DUP6 PUSH1 0x20 DUP7 ADD PUSH2 0xCE5 JUMP JUMPDEST PUSH2 0xD30 DUP2 PUSH2 0xCF3 JUMP JUMPDEST DUP5 ADD SWAP2 POP POP SWAP3 SWAP2 POP POP JUMP JUMPDEST PUSH2 0xD44 DUP2 PUSH2 0xC6D JUMP JUMPDEST DUP3 MSTORE POP POP JUMP JUMPDEST PUSH0 DUP2 ISZERO ISZERO SWAP1 POP SWAP2 SWAP1 POP JUMP JUMPDEST PUSH2 0xD5E DUP2 PUSH2 0xD4A JUMP JUMPDEST DUP3 MSTORE POP POP JUMP JUMPDEST PUSH0 PUSH1 0x80 DUP3 ADD SWAP1 POP DUP2 DUP2 SUB PUSH0 DUP4 ADD MSTORE PUSH2 0xD7C DUP2 DUP8 PUSH2 0xD03 JUMP JUMPDEST SWAP1 POP PUSH2 0xD8B PUSH1 0x20 DUP4 ADD DUP7 PUSH2 0xD3B JUMP JUMPDEST PUSH2 0xD98 PUSH1 0x40 DUP4 ADD DUP6 PUSH2 0xD3B JUMP JUMPDEST PUSH2 0xDA5 PUSH1 0x60 DUP4 ADD DUP5 PUSH2 0xD55 JUMP JUMPDEST SWAP6 SWAP5 POP POP POP POP POP JUMP JUMPDEST PUSH0 PUSH20 0xFFFFFFFFFFFFFFFFFFFFFFFFFFFFFFFFFFFFFFFF DUP3 AND SWAP1 POP SWAP2 SWAP1 POP JUMP JUMPDEST PUSH0 PUSH2 0xDD7 DUP3 PUSH2 0xDAE JUMP JUMPDEST SWAP1 POP SWAP2 SWAP1 POP JUMP JUMPDEST PUSH2 0xDE7 DUP2 PUSH2 0xDCD JUMP JUMPDEST DUP2 EQ PUSH2 0xDF1 JUMPI PUSH0 PUSH0 REVERT JUMPDEST POP JUMP JUMPDEST PUSH0 DUP2 CALLDATALOAD SWAP1 POP PUSH2 0xE02 DUP2 PUSH2 0xDDE JUMP JUMPDEST SWAP3 SWAP2 POP POP JUMP JUMPDEST PUSH0 PUSH1 0x20 DUP3 DUP5 SUB SLT ISZERO PUSH2 0xE1D JUMPI PUSH2 0xE1C PUSH2 0xC65 JUMP JUMPDEST JUMPDEST PUSH0 PUSH2 0xE2A DUP5 DUP3 DUP6 ADD PUSH2 0xDF4 JUMP JUMPDEST SWAP2 POP POP SWAP3 SWAP2 POP POP JUMP JUMPDEST PUSH0 PUSH0 REVERT JUMPDEST PUSH0 PUSH0 REVERT JUMPDEST PUSH32 0x4E487B7100000000000000000000000000000000000000000000000000000000 PUSH0 MSTORE PUSH1 0x41 PUSH1 0x4 MSTORE PUSH1 0x24 PUSH0 REVERT JUMPDEST PUSH2 0xE71 DUP3 PUSH2 0xCF3 JUMP JUMPDEST DUP2 ADD DUP2 DUP2 LT PUSH8 0xFFFFFFFFFFFFFFFF DUP3 GT OR ISZERO PUSH2 0xE90 JUMPI PUSH2 0xE8F PUSH2 0xE3B JUMP JUMPDEST JUMPDEST DUP1 PUSH1 0x40 MSTORE POP POP POP JUMP JUMPDEST PUSH0 PUSH2 0xEA2 PUSH2 0xC5C JUMP JUMPDEST SWAP1 POP PUSH2 0xEAE DUP3 DUP3 PUSH2 0xE68 JUMP JUMPDEST SWAP2 SWAP1 POP JUMP JUMPDEST PUSH0 PUSH8 0xFFFFFFFFFFFFFFFF DUP3 GT ISZERO PUSH2 0xECD JUMPI PUSH2 0xECC PUSH2 0xE3B JUMP JUMPDEST JUMPDEST PUSH2 0xED6 DUP3 PUSH2 0xCF3 JUMP JUMPDEST SWAP1 POP PUSH1 0x20 DUP2 ADD SWAP1 POP SWAP2 SWAP1 POP JUMP JUMPDEST DUP3 DUP2 DUP4 CALLDATACOPY PUSH0 DUP4 DUP4 ADD MSTORE POP POP POP JUMP JUMPDEST PUSH0 PUSH2 0xF03 PUSH2 0xEFE DUP5 PUSH2 0xEB3 JUMP JUMPDEST PUSH2 0xE99 JUMP JUMPDEST SWAP1 POP DUP3 DUP2 MSTORE PUSH1 0x20 DUP2 ADD DUP5 DUP5 DUP5 ADD GT ISZERO PUSH2 0xF1F JUMPI PUSH2 0xF1E PUSH2 0xE37 JUMP JUMPDEST JUMPDEST PUSH2 0xF2A DUP5 DUP3 DUP6 PUSH2 0xEE3 JUMP JUMPDEST POP SWAP4 SWAP3 POP POP POP JUMP JUMPDEST PUSH0 DUP3 PUSH1 0x1F DUP4 ADD SLT PUSH2 0xF46 JUMPI PUSH2 0xF45 PUSH2 0xE33 JUMP JUMPDEST JUMPDEST DUP2 CALLDATALOAD PUSH2 0xF56 DUP5 DUP3 PUSH1 0x20 DUP7 ADD PUSH2 0xEF1 JUMP JUMPDEST SWAP2 POP POP SWAP3 SWAP2 POP POP JUMP JUMPDEST PUSH0 PUSH0 PUSH1 0x40 DUP4 DUP6 SUB SLT ISZERO PUSH2 0xF75 JUMPI PUSH2 0xF74 PUSH2 0xC65 JUMP JUMPDEST JUMPDEST PUSH0 DUP4 ADD CALLDATALOAD PUSH8 0xFFFFFFFFFFFFFFFF DUP2 GT ISZERO PUSH2 0xF92 JUMPI PUSH2 0xF91 PUSH2 0xC69 JUMP JUMPDEST JUMPDEST PUSH2 0xF9E DUP6 DUP3 DUP7 ADD PUSH2 0xF32 JUMP JUMPDEST SWAP3 POP POP PUSH1 0x20 PUSH2 0xFAF DUP6 DUP3 DUP7 ADD PUSH2 0xC8C JUMP JUMPDEST SWAP2 POP POP SWAP3 POP SWAP3 SWAP1 POP JUMP JUMPDEST PUSH0 PUSH0 PUSH1 0x40 DUP4 DUP6 SUB SLT ISZERO PUSH2 0xFCF JUMPI PUSH2 0xFCE PUSH2 0xC65 JUMP JUMPDEST JUMPDEST PUSH0 PUSH2 0xFDC DUP6 DUP3 DUP7 ADD PUSH2 0xC8C JUMP JUMPDEST SWAP3 POP POP PUSH1 0x20 PUSH2 0xFED DUP6 DUP3 DUP7 ADD PUSH2 0xDF4 JUMP JUMPDEST SWAP2 POP POP SWAP3 POP SWAP3 SWAP1 POP JUMP JUMPDEST PUSH0 PUSH1 0x20 DUP3 ADD SWAP1 POP PUSH2 0x100A PUSH0 DUP4 ADD DUP5 PUSH2 0xD55 JUMP JUMPDEST SWAP3 SWAP2 POP POP JUMP JUMPDEST PUSH2 0x1019 DUP2 PUSH2 0xDCD JUMP JUMPDEST DUP3 MSTORE POP POP JUMP JUMPDEST PUSH0 PUSH1 0x20 DUP3 ADD SWAP1 POP PUSH2 0x1032 PUSH0 DUP4 ADD DUP5 PUSH2 0x1010 JUMP JUMPDEST SWAP3 SWAP2 POP POP JUMP JUMPDEST PUSH0 PUSH1 0x20 DUP3 ADD SWAP1 POP PUSH2 0x104B PUSH0 DUP4 ADD DUP5 PUSH2 0xD3B JUMP JUMPDEST SWAP3 SWAP2 POP POP JUMP JUMPDEST PUSH0 DUP2 SWAP1 POP SWAP2 SWAP1 POP JUMP JUMPDEST PUSH0 PUSH2 0x1074 PUSH2 0x106F PUSH2 0x106A DUP5 PUSH2 0xDAE JUMP JUMPDEST PUSH2 0x1051 JUMP JUMPDEST PUSH2 0xDAE JUMP JUMPDEST SWAP1 POP SWAP2 SWAP1 POP JUMP JUMPDEST PUSH0 PUSH2 0x1085 DUP3 PUSH2 0x105A JUMP JUMPDEST SWAP1 POP SWAP2 SWAP1 POP JUMP JUMPDEST PUSH0 PUSH2 0x1096 DUP3 PUSH2 0x107B JUMP JUMPDEST SWAP1 POP SWAP2 SWAP1 POP JUMP JUMPDEST PUSH2 0x10A6 DUP2 PUSH2 0x108C JUMP JUMPDEST DUP3 MSTORE POP POP JUMP JUMPDEST PUSH0 PUSH1 0x20 DUP3 ADD SWAP1 POP PUSH2 0x10BF PUSH0 DUP4 ADD DUP5 PUSH2 0x109D JUMP JUMPDEST SWAP3 SWAP2 POP POP JUMP JUMPDEST PUSH32 0x546F6B656E206E616F20636F6E666967757261646F0000000000000000000000 PUSH0 DUP3 ADD MSTORE POP JUMP JUMPDEST PUSH0 PUSH2 0x10F9 PUSH1 0x15 DUP4 PUSH2 0xCD5 JUMP JUMPDEST SWAP2 POP PUSH2 0x1104 DUP3 PUSH2 0x10C5 JUMP JUMPDEST PUSH1 0x20 DUP3 ADD SWAP1 POP SWAP2 SWAP1 POP JUMP JUMPDEST PUSH0 PUSH1 0x20 DUP3 ADD SWAP1 POP DUP2 DUP2 SUB PUSH0 DUP4 ADD MSTORE PUSH2 0x1126 DUP2 PUSH2 0x10ED JUMP JUMPDEST SWAP1 POP SWAP2 SWAP1 POP JUMP JUMPDEST PUSH32 0x50726F706F73746120696E76616C696461000000000000000000000000000000 PUSH0 DUP3 ADD MSTORE POP JUMP JUMPDEST PUSH0 PUSH2 0x1161 PUSH1 0x11 DUP4 PUSH2 0xCD5 JUMP JUMPDEST SWAP2 POP PUSH2 0x116C DUP3 PUSH2 0x112D JUMP JUMPDEST PUSH1 0x20 DUP3 ADD SWAP1 POP SWAP2 SWAP1 POP JUMP JUMPDEST PUSH0 PUSH1 0x20 DUP3 ADD SWAP1 POP DUP2 DUP2 SUB PUSH0 DUP4 ADD MSTORE PUSH2 0x118E DUP2 PUSH2 0x1155 JUMP JUMPDEST SWAP1 POP SWAP2 SWAP1 POP JUMP JUMPDEST PUSH32 0x4E487B7100000000000000000000000000000000000000000000000000000000 PUSH0 MSTORE PUSH1 0x32 PUSH1 0x4 MSTORE PUSH1 0x24 PUSH0 REVERT JUMPDEST PUSH32 0x566F746163616F20656E63657272616461000000000000000000000000000000 PUSH0 DUP3 ADD MSTORE POP JUMP JUMPDEST PUSH0 PUSH2 0x11F6 PUSH1 0x11 DUP4 PUSH2 0xCD5 JUMP JUMPDEST SWAP2 POP PUSH2 0x1201 DUP3 PUSH2 0x11C2 JUMP JUMPDEST PUSH1 0x20 DUP3 ADD SWAP1 POP SWAP2 SWAP1 POP JUMP JUMPDEST PUSH0 PUSH1 0x20 DUP3 ADD SWAP1 POP DUP2 DUP2 SUB PUSH0 DUP4 ADD MSTORE PUSH2 0x1223 DUP2 PUSH2 0x11EA JUMP JUMPDEST SWAP1 POP SWAP2 SWAP1 POP JUMP JUMPDEST PUSH32 0x4A6120766F746F75000000000000000000000000000000000000000000000000 PUSH0 DUP3 ADD MSTORE POP JUMP JUMPDEST PUSH0 PUSH2 0x125E PUSH1 0x8 DUP4 PUSH2 0xCD5 JUMP JUMPDEST SWAP2 POP PUSH2 0x1269 DUP3 PUSH2 0x122A JUMP JUMPDEST PUSH1 0x20 DUP3 ADD SWAP1 POP SWAP2 SWAP1 POP JUMP JUMPDEST PUSH0 PUSH1 0x20 DUP3 ADD SWAP1 POP DUP2 DUP2 SUB PUSH0 DUP4 ADD MSTORE PUSH2 0x128B DUP2 PUSH2 0x1252 JUMP JUMPDEST SWAP1 POP SWAP2 SWAP1 POP JUMP JUMPDEST PUSH0 DUP2 MLOAD SWAP1 POP PUSH2 0x12A0 DUP2 PUSH2 0xC76 JUMP JUMPDEST SWAP3 SWAP2 POP POP JUMP JUMPDEST PUSH0 PUSH1 0x20 DUP3 DUP5 SUB SLT ISZERO PUSH2 0x12BB JUMPI PUSH2 0x12BA PUSH2 0xC65 JUMP JUMPDEST JUMPDEST PUSH0 PUSH2 0x12C8 DUP5 DUP3 DUP6 ADD PUSH2 0x1292 JUMP JUMPDEST SWAP2 POP POP SWAP3 SWAP2 POP POP JUMP JUMPDEST PUSH32 0x53656D20706F64657220646520766F746F000000000000000000000000000000 PUSH0 DUP3 ADD MSTORE POP JUMP JUMPDEST PUSH0 PUSH2 0x1305 PUSH1 0x11 DUP4 PUSH2 0xCD5 JUMP JUMPDEST SWAP2 POP PUSH2 0x1310 DUP3 PUSH2 0x12D1 JUMP JUMPDEST PUSH1 0x20 DUP3 ADD SWAP1 POP SWAP2 SWAP1 POP JUMP JUMPDEST PUSH0 PUSH1 0x20 DUP3 ADD SWAP1 POP DUP2 DUP2 SUB PUSH0 DUP4 ADD MSTORE PUSH2 0x1332 DUP2 PUSH2 0x12F9 JUMP JUMPDEST SWAP1 POP SWAP2 SWAP1 POP JUMP JUMPDEST PUSH32 0x4E487B7100000000000000000000000000000000000000000000000000000000 PUSH0 MSTORE PUSH1 0x11 PUSH1 0x4 MSTORE PUSH1 0x24 PUSH0 REVERT JUMPDEST PUSH0 PUSH2 0x1370 DUP3 PUSH2 0xC6D JUMP JUMPDEST SWAP2 POP PUSH2 0x137B DUP4 PUSH2 0xC6D JUMP JUMPDEST SWAP3 POP DUP3 DUP3 ADD SWAP1 POP DUP1 DUP3 GT ISZERO PUSH2 0x1393 JUMPI PUSH2 0x1392 PUSH2 0x1339 JUMP JUMPDEST JUMPDEST SWAP3 SWAP2 POP POP JUMP JUMPDEST PUSH32 0x4E487B7100000000000000000000000000000000000000000000000000000000 PUSH0 MSTORE PUSH1 0x22 PUSH1 0x4 MSTORE PUSH1 0x24 PUSH0 REVERT JUMPDEST PUSH0 PUSH1 0x2 DUP3 DIV SWAP1 POP PUSH1 0x1 DUP3 AND DUP1 PUSH2 0x13DD JUMPI PUSH1 0x7F DUP3 AND SWAP2 POP JUMPDEST PUSH1 0x20 DUP3 LT DUP2 SUB PUSH2 0x13F0 JUMPI PUSH2 0x13EF PUSH2 0x1399 JUMP JUMPDEST JUMPDEST POP SWAP2 SWAP1 POP JUMP JUMPDEST PUSH32 0x566F746163616F2061696E646120617469766100000000000000000000000000 PUSH0 DUP3 ADD MSTORE POP JUMP JUMPDEST PUSH0 PUSH2 0x142A PUSH1 0x13 DUP4 PUSH2 0xCD5 JUMP JUMPDEST SWAP2 POP PUSH2 0x1435 DUP3 PUSH2 0x13F6 JUMP JUMPDEST PUSH1 0x20 DUP3 ADD SWAP1 POP SWAP2 SWAP1 POP JUMP JUMPDEST PUSH0 PUSH1 0x20 DUP3 ADD SWAP1 POP DUP2 DUP2 SUB PUSH0 DUP4 ADD MSTORE PUSH2 0x1457 DUP2 PUSH2 0x141E JUMP JUMPDEST SWAP1 POP SWAP2 SWAP1 POP JUMP JUMPDEST PUSH32 0x4A61206578656375746164610000000000000000000000000000000000000000 PUSH0 DUP3 ADD MSTORE POP JUMP JUMPDEST PUSH0 PUSH2 0x1492 PUSH1 0xC DUP4 PUSH2 0xCD5 JUMP JUMPDEST SWAP2 POP PUSH2 0x149D DUP3 PUSH2 0x145E JUMP JUMPDEST PUSH1 0x20 DUP3 ADD SWAP1 POP SWAP2 SWAP1 POP JUMP JUMPDEST PUSH0 PUSH1 0x20 DUP3 ADD SWAP1 POP DUP2 DUP2 SUB PUSH0 DUP4 ADD MSTORE PUSH2 0x14BF DUP2 PUSH2 0x1486 JUMP JUMPDEST SWAP1 POP SWAP2 SWAP1 POP JUMP JUMPDEST PUSH32 0x4170656E6173206F206F776E657220706F646520657865637574617200000000 PUSH0 DUP3 ADD MSTORE POP JUMP JUMPDEST PUSH0 PUSH2 0x14FA PUSH1 0x1C DUP4 PUSH2 0xCD5 JUMP JUMPDEST SWAP2 POP PUSH2 0x1505 DUP3 PUSH2 0x14C6 JUMP JUMPDEST PUSH1 0x20 DUP3 ADD SWAP1 POP SWAP2 SWAP1 POP JUMP JUMPDEST PUSH0 PUSH1 0x20 DUP3 ADD SWAP1 POP DUP2 DUP2 SUB PUSH0 DUP4 ADD MSTORE PUSH2 0x1527 DUP2 PUSH2 0x14EE JUMP JUMPDEST SWAP1 POP SWAP2 SWAP1 POP JUMP JUMPDEST PUSH32 0x546F6B656E206A6120646566696E69646F000000000000000000000000000000 PUSH0 DUP3 ADD MSTORE POP JUMP JUMPDEST PUSH0 PUSH2 0x1562 PUSH1 0x11 DUP4 PUSH2 0xCD5 JUMP JUMPDEST SWAP2 POP PUSH2 0x156D DUP3 PUSH2 0x152E JUMP JUMPDEST PUSH1 0x20 DUP3 ADD SWAP1 POP SWAP2 SWAP1 POP JUMP JUMPDEST PUSH0 PUSH1 0x20 DUP3 ADD SWAP1 POP DUP2 DUP2 SUB PUSH0 DUP4 ADD MSTORE PUSH2 0x158F DUP2 PUSH2 0x1556 JUMP JUMPDEST SWAP1 POP SWAP2 SWAP1 POP JUMP JUMPDEST PUSH32 0x456E64657265636F20696E76616C69646F000000000000000000000000000000 PUSH0 DUP3 ADD MSTORE POP JUMP JUMPDEST PUSH0 PUSH2 0x15CA PUSH1 0x11 DUP4 PUSH2 0xCD5 JUMP JUMPDEST SWAP2 POP PUSH2 0x15D5 DUP3 PUSH2 0x1596 JUMP JUMPDEST PUSH1 0x20 DUP3 ADD SWAP1 POP SWAP2 SWAP1 POP JUMP JUMPDEST PUSH0 PUSH1 0x20 DUP3 ADD SWAP1 POP DUP2 DUP2 SUB PUSH0 DUP4 ADD MSTORE PUSH2 0x15F7 DUP2 PUSH2 0x15BE JUMP JUMPDEST SWAP1 POP SWAP2 SWAP1 POP JUMP JUMPDEST PUSH32 0x53656D20746F6B656E20706172612070726F706F720000000000000000000000 PUSH0 DUP3 ADD MSTORE POP JUMP JUMPDEST PUSH0 PUSH2 0x1632 PUSH1 0x15 DUP4 PUSH2 0xCD5 JUMP JUMPDEST SWAP2 POP PUSH2 0x163D DUP3 PUSH2 0x15FE JUMP JUMPDEST PUSH1 0x20 DUP3 ADD SWAP1 POP SWAP2 SWAP1 POP JUMP JUMPDEST PUSH0 PUSH1 0x20 DUP3 ADD SWAP1 POP DUP2 DUP2 SUB PUSH0 DUP4 ADD MSTORE PUSH2 0x165F DUP2 PUSH2 0x1626 JUMP JUMPDEST SWAP1 POP SWAP2 SWAP1 POP JUMP JUMPDEST PUSH0 DUP2 SWAP1 POP DUP2 PUSH0 MSTORE PUSH1 0x20 PUSH0 KECCAK256 SWAP1 POP SWAP2 SWAP1 POP JUMP JUMPDEST PUSH0 PUSH1 0x20 PUSH1 0x1F DUP4 ADD DIV SWAP1 POP SWAP2 SWAP1 POP JUMP JUMPDEST PUSH0 DUP3 DUP3 SHL SWAP1 POP SWAP3 SWAP2 POP POP JUMP JUMPDEST PUSH0 PUSH1 0x8 DUP4 MUL PUSH2 0x16C2 PUSH32 0xFFFFFFFFFFFFFFFFFFFFFFFFFFFFFFFFFFFFFFFFFFFFFFFFFFFFFFFFFFFFFFFF DUP3 PUSH2 0x1687 JUMP JUMPDEST PUSH2 0x16CC DUP7 DUP4 PUSH2 0x1687 JUMP JUMPDEST SWAP6 POP DUP1 NOT DUP5 AND SWAP4 POP DUP1 DUP7 AND DUP5 OR SWAP3 POP POP POP SWAP4 SWAP3 POP POP POP JUMP JUMPDEST PUSH0 PUSH2 0x16FE PUSH2 0x16F9 PUSH2 0x16F4 DUP5 PUSH2 0xC6D JUMP JUMPDEST PUSH2 0x1051 JUMP JUMPDEST PUSH2 0xC6D JUMP JUMPDEST SWAP1 POP SWAP2 SWAP1 POP JUMP JUMPDEST PUSH0 DUP2 SWAP1 POP SWAP2 SWAP1 POP JUMP JUMPDEST PUSH2 0x1717 DUP4 PUSH2 0x16E4 JUMP JUMPDEST PUSH2 0x172B PUSH2 0x1723 DUP3 PUSH2 0x1705 JUMP JUMPDEST DUP5 DUP5 SLOAD PUSH2 0x1693 JUMP JUMPDEST DUP3 SSTORE POP POP POP POP JUMP JUMPDEST PUSH0 PUSH0 SWAP1 POP SWAP1 JUMP JUMPDEST PUSH2 0x1742 PUSH2 0x1733 JUMP JUMPDEST PUSH2 0x174D DUP2 DUP5 DUP5 PUSH2 0x170E JUMP JUMPDEST POP POP POP JUMP JUMPDEST PUSH0 JUMPDEST DUP3 DUP2 LT ISZERO PUSH2 0x1773 JUMPI PUSH2 0x1768 PUSH0 DUP3 DUP5 ADD PUSH2 0x173A JUMP JUMPDEST PUSH1 0x1 DUP2 ADD SWAP1 POP PUSH2 0x1754 JUMP JUMPDEST POP POP POP JUMP JUMPDEST PUSH1 0x1F DUP3 GT ISZERO PUSH2 0x17C6 JUMPI DUP3 DUP3 GT ISZERO PUSH2 0x17C5 JUMPI PUSH2 0x1792 DUP2 PUSH2 0x1666 JUMP JUMPDEST PUSH2 0x179B DUP4 PUSH2 0x1678 JUMP JUMPDEST PUSH2 0x17A4 DUP6 PUSH2 0x1678 JUMP JUMPDEST PUSH1 0x20 DUP7 LT ISZERO PUSH2 0x17B1 JUMPI PUSH0 SWAP1 POP JUMPDEST DUP1 DUP4 ADD PUSH2 0x17C0 DUP3 DUP5 SUB DUP3 PUSH2 0x1752 JUMP JUMPDEST POP POP POP POP JUMPDEST JUMPDEST POP POP POP JUMP JUMPDEST PUSH0 DUP3 DUP3 SHR SWAP1 POP SWAP3 SWAP2 POP POP JUMP JUMPDEST PUSH0 PUSH2 0x17E6 PUSH0 NOT DUP5 PUSH1 0x8 MUL PUSH2 0x17CB JUMP JUMPDEST NOT DUP1 DUP4 AND SWAP2 POP POP SWAP3 SWAP2 POP POP JUMP JUMPDEST PUSH0 PUSH2 0x17FE DUP4 DUP4 PUSH2 0x17D7 JUMP JUMPDEST SWAP2 POP DUP3 PUSH1 0x2 MUL DUP3 OR SWAP1 POP SWAP3 SWAP2 POP POP JUMP JUMPDEST PUSH2 0x1817 DUP3 PUSH2 0xCCB JUMP JUMPDEST PUSH8 0xFFFFFFFFFFFFFFFF DUP2 GT ISZERO PUSH2 0x1830 JUMPI PUSH2 0x182F PUSH2 0xE3B JUMP JUMPDEST JUMPDEST PUSH2 0x183A DUP3 SLOAD PUSH2 0x13C6 JUMP JUMPDEST PUSH2 0x1845 DUP3 DUP3 DUP6 PUSH2 0x1778 JUMP JUMPDEST PUSH0 PUSH1 0x20 SWAP1 POP PUSH1 0x1F DUP4 GT PUSH1 0x1 DUP2 EQ PUSH2 0x1876 JUMPI PUSH0 DUP5 ISZERO PUSH2 0x1864 JUMPI DUP3 DUP8 ADD MLOAD SWAP1 POP JUMPDEST PUSH2 0x186E DUP6 DUP3 PUSH2 0x17F3 JUMP JUMPDEST DUP7 SSTORE POP PUSH2 0x18D5 JUMP JUMPDEST PUSH1 0x1F NOT DUP5 AND PUSH2 0x1884 DUP7 PUSH2 0x1666 JUMP JUMPDEST PUSH0 JUMPDEST DUP3 DUP2 LT ISZERO PUSH2 0x18AB JUMPI DUP5 DUP10 ADD MLOAD DUP3 SSTORE PUSH1 0x1 DUP3 ADD SWAP2 POP PUSH1 0x20 DUP6 ADD SWAP5 POP PUSH1 0x20 DUP2 ADD SWAP1 POP PUSH2 0x1886 JUMP JUMPDEST DUP7 DUP4 LT ISZERO PUSH2 0x18C8 JUMPI DUP5 DUP10 ADD MLOAD PUSH2 0x18C4 PUSH1 0x1F DUP10 AND DUP3 PUSH2 0x17D7 JUMP JUMPDEST DUP4 SSTORE POP JUMPDEST PUSH1 0x1 PUSH1 0x2 DUP9 MUL ADD DUP9 SSTORE POP POP POP JUMPDEST POP POP POP POP POP POP JUMP INVALID LOG2 PUSH5 0x6970667358 0x22 SLT KECCAK256 DIV 0x2C DUP4 SWAP9 PUSH10 0xAF691DA8FEBEA915B25B RETF 0xA6 SUB DUP14 CALLCODE RETURNCONTRACT 0x1B XOR ISZERO 0xCE MUL PUSH1 0x9D 0x26 0xE8 EQ PUSH18 0x64736F6C6343000822003300000000000000 "
		},
		"gasEstimates": {
			"creation": {
				"codeDepositCost": "1283800",
				"executionCost": "25598",
				"totalCost": "1309398"
			},
			"external": {
				"createProposal(string,uint256)": "infinite",
				"executeProposal(uint256)": "33342",
				"getProposal(uint256)": "infinite",
				"getProposalsCount()": "2484",
				"governanceToken()": "infinite",
				"hasVoted(uint256,address)": "3070",
				"owner()": "2530",
				"proposals(uint256)": "infinite",
				"setToken(address)": "29152",
				"vote(uint256)": "infinite"
			}
		},
		"methodIdentifiers": {
			"createProposal(string,uint256)": "35facf78",
			"executeProposal(uint256)": "0d61b519",
			"getProposal(uint256)": "c7f758a8",
			"getProposalsCount()": "98e527d3",
			"governanceToken()": "f96dae0a",
			"hasVoted(uint256,address)": "43859632",
			"owner()": "8da5cb5b",
			"proposals(uint256)": "013cf08b",
			"setToken(address)": "144fa6d7",
			"vote(uint256)": "0121b93f"
		}
	},
	"abi": [
		{
			"inputs": [],
			"stateMutability": "nonpayable",
			"type": "constructor"
		},
		{
			"inputs": [
				{
					"internalType": "string",
					"name": "_description",
					"type": "string"
				},
				{
					"internalType": "uint256",
					"name": "duration",
					"type": "uint256"
				}
			],
			"name": "createProposal",
			"outputs": [],
			"stateMutability": "nonpayable",
			"type": "function"
		},
		{
			"inputs": [
				{
					"internalType": "uint256",
					"name": "proposalId",
					"type": "uint256"
				}
			],
			"name": "executeProposal",
			"outputs": [],
			"stateMutability": "nonpayable",
			"type": "function"
		},
		{
			"inputs": [
				{
					"internalType": "uint256",
					"name": "proposalId",
					"type": "uint256"
				}
			],
			"name": "getProposal",
			"outputs": [
				{
					"internalType": "string",
					"name": "description",
					"type": "string"
				},
				{
					"internalType": "uint256",
					"name": "voteCount",
					"type": "uint256"
				},
				{
					"internalType": "uint256",
					"name": "deadline",
					"type": "uint256"
				},
				{
					"internalType": "bool",
					"name": "executed",
					"type": "bool"
				}
			],
			"stateMutability": "view",
			"type": "function"
		},
		{
			"inputs": [],
			"name": "getProposalsCount",
			"outputs": [
				{
					"internalType": "uint256",
					"name": "",
					"type": "uint256"
				}
			],
			"stateMutability": "view",
			"type": "function"
		},
		{
			"inputs": [],
			"name": "governanceToken",
			"outputs": [
				{
					"internalType": "contract IERC20",
					"name": "",
					"type": "address"
				}
			],
			"stateMutability": "view",
			"type": "function"
		},
		{
			"inputs": [
				{
					"internalType": "uint256",
					"name": "",
					"type": "uint256"
				},
				{
					"internalType": "address",
					"name": "",
					"type": "address"
				}
			],
			"name": "hasVoted",
			"outputs": [
				{
					"internalType": "bool",
					"name": "",
					"type": "bool"
				}
			],
			"stateMutability": "view",
			"type": "function"
		},
		{
			"inputs": [],
			"name": "owner",
			"outputs": [
				{
					"internalType": "address",
					"name": "",
					"type": "address"
				}
			],
			"stateMutability": "view",
			"type": "function"
		},
		{
			"inputs": [
				{
					"internalType": "uint256",
					"name": "",
					"type": "uint256"
				}
			],
			"name": "proposals",
			"outputs": [
				{
					"internalType": "string",
					"name": "description",
					"type": "string"
				},
				{
					"internalType": "uint256",
					"name": "voteCount",
					"type": "uint256"
				},
				{
					"internalType": "uint256",
					"name": "deadline",
					"type": "uint256"
				},
				{
					"internalType": "bool",
					"name": "executed",
					"type": "bool"
				}
			],
			"stateMutability": "view",
			"type": "function"
		},
		{
			"inputs": [
				{
					"internalType": "address",
					"name": "_token",
					"type": "address"
				}
			],
			"name": "setToken",
			"outputs": [],
			"stateMutability": "nonpayable",
			"type": "function"
		},
		{
			"inputs": [
				{
					"internalType": "uint256",
					"name": "proposalId",
					"type": "uint256"
				}
			],
			"name": "vote",
			"outputs": [],
			"stateMutability": "nonpayable",
			"type": "function"
		}
	]
}